:020000040800F2
:10000000703E0020BDF60008B5010008C7F60008E4
:10001000B7010008BB010008BF0100080000000094
:10002000000000000000000000000000C301000804
:10003000C501000800000000D3F60008C701000851
:10004000D7F60008D7F60008D7F60008D7F600085C
:10005000D7F60008D7F60008D7F60008D7F600084C
:10006000D7F60008D7F60008D7F60008D7F600083C
:10007000D7F60008D7F60008D7F60008D7F600082C
:10008000D7F60008D7F60008D7F60008D7F600081C
:10009000D7F60008D7F60008D7F60008D7F600080C
:1000A000D7F60008D7F60008D7F60008D7F60008FC
:1000B000D7F60008D9010008E1010008D7F60008CA
:1000C000D7F60008D7F60008D7F60008D7F60008DC
:1000D000D7F60008D7F60008E9010008D7F60008AF
:1000E000D7F60008D7F60008D7F60008D7F60008BC
:1000F000D7F60008D7F60008D7F60008D7F60008AC
:10010000D7F60008D7F60008D7F60008D7F600089B
:10011000D7F60008F1010008D7F60008D7F6000866
:10012000D7F60008D7F60008D7F60008D7F600087B
:10013000D7F60008D7F60008D7F60008D7F600086B
:10014000D7F60008D7F60008D7F600089183000814
:10015000D7F60008D7F60008D7F60008D7F600084B
:10016000D7F60008D7F60008D7F60008D7F600083B
:10017000D7F60008D7F60008D7F60008D7F600082B
:10018000D7F60008D7F60008DFF80CD013F0BCFA59
:1001900000480047A1010008703E002000BFFEE7B4
:1001A00000F044F90249087001E000F0E8F8FCE7CB
:1001B00000000020704700BFFEE700BFFEE700BF61
:1001C000FEE77047704710B50B480068401C0A49AD
:1001D000086005F0FDFA10BD10B505F0F0FC10BD8B
:1001E00010B505F0F3FD10BD10B507F0A0F910BD76
:1001F00010B507F05EFA10BD140500208148C089D3
:10020000401C8049C88108468088401C00B2888014
:100210000846C088401C00B2C88008460089401CBF
:1002200000B2088108464089401C00B24881084657
:100230008089401C00B2888108460078012804D1DA
:1002400008464078401C487002E001206D49087063
:10025000704710B5012005F0FAFA03F0B5FA10BDA9
:1002600010B52DED028B002005F0F1FAB0EE408ABA
:1002700005F07EFA00EE100AB8EE400ADFED620AE1
:1002800080EE201A614880ED001A06F031FAB0EED7
:10029000480A06F063FCB0EE480A01F04DF95C48EC
:1002A000B0EE480A04F0D7F905F062FA00EE100A41
:1002B000B8EE400ADFED540A80EE201A534880ED74
:1002C000011ABDEC028B10BD10B52DED028B022082
:1002D00005F0BDFAB0EE408A05F04AFA00EE100AC9
:1002E000B8EE400ADFED480A80EE201A474880ED5C
:1002F000021A4848D0ED063AB0EE633AD0ED053A1E
:10030000F0EE632AD0ED043AB0EE632AD0ED0C3A59
:10031000F0EE631AD0ED0B3AB0EE631AD0ED0A3A64
:10032000F0EE630AF6EE003A68EE233AB0EE630AA6
:10033000394A3A493A4801F0B1FCB0EE480A00F0B7
:10034000AFFB05F015FA00EE100AB8EE400ADFED3B
:100350002E0A80EE201A2D4880ED031ABDEC028B88
:1003600010BD10B507F028F810BD10B500F05DFB0A
:1003700010BD10B507F03FF808F080FD10BD10B5B6
:100380002048007801283BD12648008800B2264941
:100390000880FFF75EFF1B48B0F90400022804DB69
:1003A000002018498880FFF75BFF1648B0F9060067
:1003B000052804DB00201349C880FFF785FF11489A
:1003C000B0F908000A2804DB00200E490881FFF775
:1003D000C8FF0C48B0F90A00142804DB00200949C2
:1003E0004881FFF7C2FF0748B0F90C00322804DB50
:1003F000002004498881FFF7BCFF002001490870F4
:1004000010BD00007C060020002474498C060020EA
:1004100058310020683100202400002020000020F6
:100420001C000020240500200200002010B54FF41D
:10043000806008F07FFD05F069F905F09AFF05F08E
:1004400061FA4FF4C87005F0BFFDC82005F0B4F99B
:10045000142006F02FFA06F0B5FF4FF4E13006F055
:10046000F3FF04F06FFB00F04BFA642005F0A4F9F1
:1004700008F0FEFC05F026FA06F078FD80F0010099
:10048000074908700748007810B906F0CAFF04E071
:100490000348007808B906F0CBFF012010BD00002A
:1004A000980500205005002038B50122FBA1FC482A
:1004B00011F016FB0446C4B100221146F7A012F059
:1004C00008FB044614B14FF0FF3038BD0022F3A101
:1004D000F34811F005FB04463CB10022EFA11046A1
:1004E00011F0FEFA6FF00100EFE7EEA1EE4811F017
:1004F000AEFF04463CB10022E8A1104611F0F0FA2C
:100500006FF00200E1E70122E8A1EB4811F013FBD4
:1005100004463CB10022E1A1104611F0E1FA6FF06F
:100520000300D2E76B464022E449E34811F0B5FBF3
:100530000446009878B3E04811F00EFE0122E0A1D5
:10054000DD4811F0F8FA04463CB10022D3A1104670
:1005500011F0C6FA6FF00300B7E76B46C022DA4924
:10056000D54811F09AFB0446009848B1D24811F0E2
:10057000F3FD0022C9A1104611F0B2FA0120A4E750
:10058000CD4811F0E9FD0022C4A1104611F0A8FAEF
:100590006FF0030099E7FFE7C74811F0DDFD002287
:1005A000BEA1104611F09CFA6FF004008DE738B53B
:1005B0000022BAA1BA4811F093FA0446C4B100224D
:1005C0001146B6A012F085FA044614B14FF0FF3080
:1005D00038BD0022B1A1B24811F082FA04463CB104
:1005E0000022AEA1104611F07BFA6FF00100EFE798
:1005F000ACA1AD4811F02BFF04463CB10022A7A1ED
:10060000104611F06DFA6FF00200E1E70A22A7A18F
:10061000A94811F090FA04463CB100229FA110466F
:1006200011F05EFA6FF00300D2E76B464022A34957
:10063000A14811F02BFC044674BB9F4811F08CFDBF
:100640000A229FA19C4811F076FA04463CB1002290
:1006500092A1104611F044FA6FF00300B8E76B4620
:10066000C0229949944811F011FC04464CB99248B3
:1006700011F072FD002289A1104611F031FA01201B
:10068000A6E78D4811F068FD002284A1104611F004
:1006900027FA6FF003009BE7874811F05DFD002209
:1006A0007EA1104611F01CFA6FF0040090E710B51F
:1006B0008648824BD3E900219B68C0E90E13426350
:1006C0007E4BD3E903215B69C0E9111302648048C2
:1006D0007A4B18330ECB08300EC07C4A774B24334C
:1006E0000BCB58320BC2754890ED0D0A774880ED60
:1006F000190A724890ED0E0A744880ED1A0A75487E
:10070000714C1ECC54301EC064386F49D1E9053499
:100710000A69C969C0E91A34426601676A4BD3E9BC
:1007200009141A6ADB6AC0E91F43C0E91D216A483F
:10073000654BD3E90C41D3E90E23C0E91541C0E96B
:1007400017236149D1E911430A6CC96CC0E91A4306
:10075000426601675C49D1E91434D1E91621C0E948
:100760001D34C0E91F2110BD10B500F087F904F059
:1007700050FD04F006FD10BD10B50022012147A078
:1007800012F0A7F99FED550A4F4880ED040A9FED3E
:10079000530A80ED000A9FED520A80ED080A9FED92
:1007A000510A80ED060A9FED4F0A80ED020AB7EE6E
:1007B000000A80ED0A0AB0EE000A80ED050AB0EEEC
:1007C000000A80ED010AB7EE000A80ED090AB7EED3
:1007D000000A80ED070AB7EE000A80ED030AB7EEC3
:1007E000000A80ED0B0AB6EE000A80ED100AB6EEA4
:1007F000000A80ED0C0A9FED3C0A80ED140A9FED83
:100800003B0A80ED120A9FED390A80ED0E0A9FED3A
:10081000370A80ED160A9FED360A80ED110A9FED2A
:10082000340A80ED0D0A9FED2F0A80ED150A9FED29
:10083000310A80ED200A9FED2F0A80ED220A9FEDFC
:100840002D0A80ED210A9FED2B0A80ED240A9FEDF1
:10085000290A80ED260A9FED270A80ED250A9FEDE3
:10086000240A80ED180A9FED240A80ED1A0A9FEDF4
:10087000230A80ED190A9FED1B0A80ED1C0A9FEDEB
:10088000190A80ED1E0A9FED1B0A80ED1D0AFFF775
:100890008EFEFFF70CFFFFF767FF10BD303A000038
:1008A000A00700202F000000F827002073656E735A
:1008B0006F722E62696E0000D0170020A006002023
:1008C0007069642E62696E00E006002068310020C5
:1008D0006C05002014280020D8280020CDCC4C3FE7
:1008E0009A99993FCDCCCC3DCDCC4C3ECDCC4C3D16
:1008F0009A99993E000000003333B33F8FC2F53D13
:1009000010B5FFF7D1FD0446002C04DAFFF734FFE1
:10091000012051490870FFF7CAFEFFF725FF10BDFF
:1009200010B504464D4894E80E0034300EC04C48D3
:1009300094E80E000EC0494890ED190A484880ED31
:100940000D0AFFF734FE10BD10B50446434894E885
:100950000E0040300EC0424894E80E000C300EC02D
:100960003E4890ED1A0A3E4880ED0E0AFFF71FFE42
:1009700010BD10B504463B4894E80E0008300EC088
:10098000374894E80E0018300EC0FFF710FE10BD77
:1009900010B50446314894E80E0058300EC0304877
:1009A00094E80E0024300EC0FFF701FE10BD10B514
:1009B0002D482E49D1E916344A6D096E80E81C0095
:1009C000C16001462948D0E91A34426E006FC1E97E
:1009D00005340A61C8612548D0E91E34426FD0F859
:1009E0008000C1E909340A62C8620A46204CD4E991
:1009F0001530D4E91714C2E90E14C2E90C301046C0
:100A00001B49D1E91942D1E91B31C0E91042C0E9C3
:100A100012311749D1E91D42D1E91F31C0E9144211
:100A2000C0E91631FFF7C3FD10BD10B511480088AD
:100A300020B110480088401C0E4908800D480088ED
:100A40003C2807DD00200B4908800B48007808B9D6
:100A5000FFF7ADFF10BD000004000020683100204A
:100A6000A00600206C050020E006002014280020CD
:100A7000D828002058040020A8040020B7EE000A5F
:100A8000FE4880ED180AB7EE000A80ED1C0AB7EEAA
:100A9000000A80ED200A9FEDFA0A80ED300A7047C7
:100AA00010B52DED0E8BB0EE408AF648D0ED000A61
:100AB000B0EE600AF3EE0E0A01F061FFDFEDF20A1C
:100AC00080EE201AB3EE090A21EE000AEF4880ED0D
:100AD000000AEC48D0ED010AF1EE600AB0EE600ABF
:100AE000F3EE0E0A01F04BFFDFEDE70A80EE201A6D
:100AF000B3EE090A21EE000AE44880ED010AE44859
:100B0000007808BBDF48D0ED030AB0EE600ADFEDE5
:100B1000E10A01F083FFDFEDDC0A80EE201A9FED91
:100B2000DE0A21EE000ABDEEC00A10EE100A00B285
:100B300000EE100AF8EEC00AD44890ED020A00EE6A
:100B4000880A80ED020A36E0D04890ED020AD348C8
:100B5000D0ED000A30EEC00A10EE101A084612F06E
:100B600050FC41EC1C0B18EE100A12F04AFC41EC50
:100B70001E0B9FEDCB0B53EC102B12F0BFFB41EC87
:100B80001D0B53EC1C2B12F0B9FB41EC1A0BBF48A8
:100B900090ED020A10EE101A084612F032FC41ECF9
:100BA0001B0B53EC1A2B12F002FB41EC190B12F049
:100BB0006BFCB6498860B548D0ED020AB0EE600A19
:100BC00001F040FFB14880ED020AB748D0ED000ABD
:100BD000AE4890ED001A70EE810AB44890ED001A0C
:100BE00070EEC10AB0EE600A01F02CFFB04880ED53
:100BF000000AAD48D0ED010AA44890ED011A70EE4C
:100C0000810AAC4890ED001A70EEC10AB0EE600A9D
:100C100001F018FFA64880ED010AA348D0ED020AB2
:100C20009A4890ED021A70EE810A9C4890ED001AE5
:100C300070EEC10AB0EE600A01F004FF9C4880ED3E
:100C4000020A90ED000AB5EEC00AF1EE10FA02DDDC
:100C500090ED000A04E0964890ED000AB1EE400ADB
:100C6000F3EE0E0A80EE201A914880ED2D1A90EDD9
:100C7000010AB5EEC00AF1EE10FA02DD90ED010AAC
:100C800004E08B4890ED010AB1EE400AF3EE0E0A43
:100C900080EE201A864880ED2E1A90ED020AB5EEFD
:100CA000C00AF1EE10FA02DD90ED020A04E080487D
:100CB00090ED020AB1EE400AF3EE0E0A80EE201A21
:100CC0007B4880ED2F1ADFED7C0A80EE880AD0ED9C
:100CD000000A90ED031A70EEC10A90ED161AF2EEBA
:100CE000041A21EE211A60EE810A60EE200A90EDCE
:100CF0002D1A9FED720ADFED721A01EE810A20EEC5
:100D0000800A80ED0C0ADFED6C0A80EE880AD0EDD7
:100D1000010A90ED041A70EEC10A90ED1A1AF2EE73
:100D2000041A21EE211A60EE810A60EE200A90ED8D
:100D30002E1A9FED620ADFED621A01EE810A20EEA3
:100D4000800A80ED0D0ADFED5C0A80EE880AD0EDA6
:100D5000020A90ED051A70EEC10A90ED1E1AF2EE2D
:100D6000041A21EE211A60EE810A60EE200A90ED4D
:100D70002F1A9FED520ADFED521A01EE810A20EE82
:100D8000800A80ED0E0A90ED170AD0ED000A60EEA1
:100D9000200A90ED060A00EE880A80ED060A90ED22
:100DA0001B0AD0ED010A60EE200A90ED070A00EE62
:100DB000880A80ED070A90ED1F0AD0ED020A60EE66
:100DC000200A90ED080A00EE880A80ED080A3D48E6
:100DD00090ED000AF6EE000A20EE200AF3EE090A72
:100DE00020EE200A324880ED090A364890ED000ACC
:100DF000F6EE000A20EE200AF3EE090A20EE200AA1
:100E00002B4880ED0A0A2F4890ED000AF6EE000A02
:100E100020EE200AF3EE090A20EE200A244880ED95
:100E20000B0A90ED060AD0ED090AF1EE600AB4EE65
:100E3000E00AF1EE10FA04D290ED090AB1EE400A90
:100E40000FE01B4890ED060AD0ED090AB4EEE00A67
:100E5000F1EE10FA02DD90ED090A02E0144890ED7F
:100E6000060A134880ED060A90ED070AD0ED0A0A3B
:100E7000F1EE600AB4EEE00A26E00000142800203B
:100E8000CDCC4C3E302B00200000FA439C290020A2
:100E90000C00002000002042000016432400002027
:100EA0001F85EB51B81E0940A82900201C00002016
:100EB000D8280020200000200AD7A33B6666263FE2
:100EC0003333B33E10000020F1EE10FA04D290ED5F
:100ED0000A0AB1EE400A0FE0FC4890ED070AD0ED97
:100EE0000A0AB4EEE00AF1EE10FA02DD90ED0A0A09
:100EF00002E0F64890ED070AF44880ED070A90ED0D
:100F0000080AD0ED0B0AF1EE600AB4EEE00AF1EE49
:100F100010FA04D290ED0B0AB1EE400A0FE0EB4854
:100F200090ED080AD0ED0B0AB4EEE00AF1EE10FAEB
:100F300002DD90ED0B0A02E0E44890ED080AE34878
:100F400080ED080A90ED000ADFEDE10AB4EEE00A58
:100F5000F1EE10FA02D29FEDDE0A0FE0DB4890EDD1
:100F6000000ADFEDDC0AB4EEE00AF1EE10FA02DD71
:100F70009FEDD80A02E0D54890ED000AD34880EDF5
:100F8000000A90ED010ADFEDD20AB4EEE00AF1EEBC
:100F900010FA02D29FEDCE0A0FE0CC4890ED010A84
:100FA000DFEDCC0AB4EEE00AF1EE10FA02DD9FEDBF
:100FB000C90A02E0C54890ED010AC44880ED010A63
:100FC00090ED020ADFEDC20AB4EEE00AF1EE10FA8B
:100FD00002D29FEDBF0A0FE0BC4890ED020ADFEDA0
:100FE000BD0AB4EEE00AF1EE10FA02DD9FEDB90A97
:100FF00002E0B64890ED020AB44880ED020A90ED96
:10100000000AD0ED0C0A30EE200AD0ED060A30EED0
:10101000200AD0ED150A20EE200A80ED120A90ED8C
:10102000010AD0ED0D0A30EE200AD0ED070A30EEAD
:10103000200AD0ED190A20EE200A80ED130A90ED67
:10104000020AD0ED0E0A30EE200AD0ED080A30EE8A
:10105000200AD0ED1D0A20EE200A80ED140A90ED42
:10106000000A80ED030A90ED010A80ED040A90ED7C
:10107000020A80ED050ABDEC0E8B10BD10B52DEDFA
:10108000048B8AB0F0EE408AB0EE609AB0EE418AEE
:101090009FED910AB4EEC08AF1EE10FA02D29FEDF4
:1010A0008E0A0BE09FED8D0AB4EEC08AF1EE10FAC5
:1010B00002DD9FED8A0A01E0B0EE480AB0EE408AF8
:1010C000B1EE680A30EE090A30EE080A8DED040A26
:1010D00038EE890A30EE480A8DED050A38EEC90A65
:1010E00030EE080A8DED060AB1EE680A30EE490AC4
:1010F00030EE480A8DED070A002429E004A800EB31
:10110000840090ED000ADFED760AB4EEE00AF1EE1D
:1011100010FA02D29FED720A13E004A800EB8400DB
:1011200090ED000ADFED6F0AB4EEE00AF1EE10FA7E
:1011300002DD9FED6C0A04E004A800EB840090ED52
:10114000000A04A800EB840080ED000A601CC4B211
:10115000042CD3DB9DED040AB5EEC00AF1EE10FAC3
:1011600002DD9DED040A03E09DED040AB1EE400AA4
:10117000DFED5D0A60EE200A9FED5A1A80EE810ACB
:10118000DFED5A0A30EE200ADDED040A20EE200AD7
:101190008DED000A9DED050AB5EEC00AF1EE10FADC
:1011A00002DD9DED050A03E09DED050AB1EE400A62
:1011B000DFED4D0A60EE200A9FED4A1A80EE810AAB
:1011C000DFED4A0A30EE200ADDED050A20EE200AA6
:1011D0008DED010A9DED060AB5EEC00AF1EE10FA9A
:1011E00002DD9DED060A03E09DED060AB1EE400A20
:1011F000DFED3D0A60EE200A9FED3A1A80EE810A8B
:10120000DFED3A0A30EE200ADDED060A20EE200A74
:101210008DED020A9DED070AB5EEC00AF1EE10FA57
:1012200002DD9DED070A03E09DED070AB1EE400ADD
:10123000DFED2D0A60EE200A9FED2A1A80EE810A6A
:10124000DFED2A0A30EE200ADDED070A20EE200A43
:101250008DED030ADDED000A254890ED000A2548D2
:1012600090ED001A01EE200A234880ED000ADDED22
:10127000010A1F4890ED000A1E4890ED001A01EE89
:10128000200A1D4880ED010ADDED020A184890EDA4
:10129000000A184890ED001A01EE200A164880ED69
:1012A000020ADDED030A124890ED000A114890EDA4
:1012B000001A01EE200A104880ED030A0F4800785A
:1012C00078B30F48007868BB002447E0D828002096
:1012D0000000B4C20000B4420000C8C30000C8430C
:1012E00000007AC400007A446666E63ECDCC0C3F2E
:1012F0000800002010000020E8290020A804002099
:101300000C000020FE4800EB840090ED000ADFEDA9
:10131000FD0AB4EEE00AF1EE10FA04D29FEDF90AEC
:1013200015E04BE01DE0F64800EB840090ED000A6C
:101330005FED140AB4EEE00AF1EE10FA02DD1FEDE3
:10134000170A04E0EE4800EB840090ED000AEC4838
:1013500000EB840080ED000A601CC4B2042CD1DBD9
:1013600039E0002427E0E64800EB840090ED000A15
:10137000B5EEC00AF1EE10FA02D29FEDE30A13E0D7
:10138000DF4800EB840090ED000A5FED2A0AB4EE1E
:10139000E00AF1EE10FA02DD1FED2E0A04E0D84853
:1013A00000EB840090ED000AD54800EB840080ED4E
:1013B000000A601CC4B2042CD5DB0CE0002408E059
:1013C0009FEDD10ACE4800EB840080ED000A601C3E
:1013D000C4B2042CF4DBCA4890ED000ABDEEC00A8A
:1013E00010EE100A00B2ADF82000C54890ED010AD9
:1013F000BDEEC00A10EE100A00B2ADF82200C048DF
:1014000090ED020ABDEEC00A10EE100A00B2ADF86F
:101410002400BB4890ED030ABDEEC00A10EE100A8E
:1014200000B2ADF826004FF47A72002108A804F04B
:101430003AFF0AB0BDEC048B10BD10B52DED028B48
:10144000B0EE408AB14890ED020ADFEDB10A30EE0D
:10145000200AB04880ED000A90ED000A5FED610AB5
:1014600080EE201AAC4890ED000A71EE400A9FED24
:10147000AB0A28EE001A90ED000A01EE200A80ED7A
:10148000000A90ED000AB5EEC00AF1EE10FA02D2A1
:101490009FED9D0A0FE0A04890ED000AF7EE000ACC
:1014A000B4EEE00AF1EE10FA02DDB7EE000A02E057
:1014B000994890ED000A9A4880ED000A954890ED11
:1014C000000ADFED980AB4EEE00AF1EE10FA03D25A
:1014D00001209549087002E00020934908708D486A
:1014E000D0ED000AB0EE480A03F004FE8F4890EDFC
:1014F000000A8F4880ED000A90ED000AB5EEC00AA0
:10150000F1EE10FA02D29FED800A0FE0884890EDCC
:10151000000ADFED880AB4EEE00AF1EE10FA02DD0F
:101520009FED840A02E0824890ED000A804880ED39
:10153000000ABDEC028B10BD00B52DED028B83B00F
:10154000B0EE408A7C4890ED120AF3EE0E0A80EE6F
:10155000201A9FED7A0A21EE000A8DED000AD0EDE7
:10156000130AB3EE0E1A80EE810ADFED740A20EE44
:10157000200A8DED010A90ED140AF3EE0E0A80EEBA
:10158000201A9FED6E0A21EE000A8DED020A9DEDF4
:10159000000A6B4880ED000A9DED010A80ED010A0A
:1015A0009DED020A80ED020A90ED000ADFED650A6A
:1015B000B4EEE00AF1EE10FA02D29FED620A0FE0FB
:1015C0005F4890ED000ADFED5D0AB4EEE00AF1EE4F
:1015D00010FA02DD9FED590A02E0594890ED000A29
:1015E000574880ED000A90ED010ADFED560AB4EE8F
:1015F000E00AF1EE10FA02D29FED520A0FE05048D5
:1016000090ED010ADFED4D0AB4EEE00AF1EE10FABA
:1016100002DD9FED4A0A02E0494890ED010A484880
:1016200080ED010A90ED020ADFED460AB4EEE00A11
:10163000F1EE10FA02D29FED430A0FE0404890ED20
:10164000020ADFED3E0AB4EEE00AF1EE10FA02DD26
:101650009FED3A0A02E03A4890ED020A384880EDE0
:10166000020ADFED390A80EE880A3848D0ED0A0A0E
:10167000374890ED001A70EEC10A20EE200A354876
:1016800080ED0F0ADFED300A80EE880A2F48D0ED9A
:101690000B0AF1EE600A2E4890ED011A70EEC10AB5
:1016A00020EE200A2B4880ED100ADFED270A80EE9D
:1016B000880A2648D0ED0C0AF1EE600A244890ED25
:1016C000021A70EEC10A20EE200A224880ED110AAB
:1016D0001B4890ED000A1D48D0ED0A0A30EE600A62
:1016E000F7EE000A20EE200A1A4880ED000A14489E
:1016F00090ED010A1548D0ED0B0A30EE200A2BE0E0
:10170000E82900200000484300000000302B0020A2
:101710000000FA4314000020180000203433FB417D
:10172000100000200000C8420C000020D00400205F
:101730000800002000004844D828002000009643FC
:10174000C0290020000096C36F12033B68310020BF
:10175000CC29002014280020F7EE000A20EE200AF1
:10176000FE4880ED010AFE4890ED020AFD48D0EDEA
:101770000C0A30EE200AF7EE000A20EE200AF748A5
:1017800080ED020A90ED000AB5EEC00AF1EE10FA03
:1017900002DD90ED000A04E0F04890ED000AB1EEA1
:1017A000400A5FED1A0A80EE201AEC4880ED2D1AEF
:1017B00090ED010AB5EEC00AF1EE10FA02DD90EDEF
:1017C000010A04E0E54890ED010AB1EE400A5FED40
:1017D000250A80EE201AE14880ED2E1A90ED020ACB
:1017E000B5EEC00AF1EE10FA02DD90ED020A04E057
:1017F000DA4890ED020AB1EE400ADFEDDB0A80EE36
:10180000201AD64880ED2F1A5FED310A80EE880A43
:10181000D0ED160A90ED0F1AFAEE041A21EE211AF5
:1018200060EE810A20EE200A80ED0C0A5FED3A0A94
:1018300080EE880AD0ED1A0A90ED101AFAEE041A1A
:1018400021EE211A60EE810A20EE200A80ED0D0AB9
:101850005FED430A80EE880AD0ED1E0A90ED111A62
:10186000FAEE041A21EE211A60EE810A20EE200A17
:1018700080ED0E0A90ED000AD0ED0F0A30EE600AFE
:10188000D0ED170A60EE200A90ED060A00EE880AF5
:1018900080ED060A90ED010AD0ED100A30EE600AE4
:1018A000D0ED1B0A60EE200A90ED070A00EE880AD0
:1018B00080ED070A90ED020AD0ED110A30EE600AC1
:1018C000D0ED1F0A60EE200A90ED080A00EE880AAB
:1018D00080ED080AA54890ED000AF6EE000A20EE19
:1018E000200A5FED6A0A20EE200A9C4880ED090A72
:1018F0009E4890ED000AF6EE000A20EE200A5FED09
:10190000710A20EE200A954880ED0A0A974890ED6A
:10191000000AF6EE000A20EE200A5FED780A20EEBB
:10192000200A8E4880ED0B0A90ED060AD0ED090AD8
:10193000F1EE600AB4EEE00AF1EE10FA04D290ED96
:10194000090AB1EE400A0FE0844890ED060AD0ED96
:10195000090AB4EEE00AF1EE10FA02DD90ED090A90
:1019600002E07E4890ED060A7C4880ED060A90ED84
:10197000070AD0ED0A0AF1EE600AB4EEE00AF1EED1
:1019800010FA04D290ED0A0AB1EE400A0FE0734853
:1019900090ED070AD0ED0A0AB4EEE00AF1EE10FA73
:1019A00002DD90ED0A0A02E06C4890ED070A6B48F0
:1019B00080ED070A90ED080AD0ED0B0AF1EE600AFF
:1019C000B4EEE00AF1EE10FA04D290ED0B0AB1EE9B
:1019D000400A0FE0614890ED080AD0ED0B0AB4EE22
:1019E000E00AF1EE10FA02DD90ED0B0A02E05B482E
:1019F00090ED080A594880ED080A90ED300AF7EE9C
:101A0000000A30EEC00AD0ED150A20EE200AD0ED13
:101A1000000A90ED0C1A70EE810A90ED061A70EE35
:101A2000810A60EE200A90ED301A5148D0ED2D1A4F
:101A30009FED500A9FED502A02EE210AB5EEC00A32
:101A4000F1EE10FA02D21FEDD00A1BE04848D0EDAB
:101A50002D1A9FED480A9FED482A02EE210AF7EE63
:101A6000001AB4EEE10AF1EE10FA02DDB7EE000A58
:101A700008E03F48D0ED2D1A9FED3E0A9FED3E2A2B
:101A800002EE210A21EE000A354890ED001A40EEE0
:101A9000010AB0EE080A20EE800A304880ED120AF2
:101AA00090ED300AF7EE000A30EEC00AD0ED190AC8
:101AB00020EE200AD0ED010A90ED0D1A70EE810A99
:101AC00090ED071A70EE810A60EE200A90ED301A50
:101AD0002748D0ED2E1A9FED270A9FED272A02EE08
:101AE000210AB5EEC00AF1EE10FA02D21FEDFA0A91
:101AF0001BE01F48D0ED2E1A9FED1E0A9FED1E2AF7
:101B000002EE210AF7EE001AB4EEE10AF1EE10FA45
:101B100002DDB7EE000A08E01548D0ED2E1A9FED61
:101B2000150A9FED152A02EE210A21EE000A0C4843
:101B300090ED011A40EE010AB0EE080A20EE800A8C
:101B4000064880ED130A90ED300AF7EE000A30EEF9
:101B5000C00AD0ED1D0A20EE200A0FE01428002054
:101B6000C02900206831002000001643100000202A
:101B7000D82800206666E63ECDCC0C3FD0ED020AA8
:101B800090ED0E1A70EE810A90ED081A70EE810A3F
:101B900060EE200A90ED301A3A48D0ED2F1A1FED72
:101BA0000B0A1FED0B2A02EE210AB5EEC00AF1EE78
:101BB00010FA02D29FED340A1BE03248D0ED2F1A02
:101BC0001FED140A1FED142A02EE210AF7EE001A87
:101BD000B4EEE10AF1EE10FA02DDB7EE000A08E019
:101BE0002848D0ED2F1A1FED1D0A1FED1D2A02EE09
:101BF000210A21EE000A254890ED021A40EE010A62
:101C0000B0EE080A20EE800A214880ED140AB0EEFA
:101C1000480AFFF712FC1E48D0ED141AB0EE611A04
:101C2000D0ED131AF0EE610AD0ED121AB0EE610A8F
:101C3000FFF724FA164890ED000A80ED030A90EDB4
:101C4000010A80ED040A90ED020A80ED050A1148B0
:101C500090ED0A0A104880ED000A0E4890ED0B0A3C
:101C6000B1EE400A0C4880ED010A0A4890ED0C0ADA
:101C7000B1EE400A084880ED020A03B0BDEC028BC9
:101C800000BD0000D828002000000000C02900206E
:101C90001428002068310020CC29002070B52DEDDB
:101CA000108BB0EE408AB0EE60EAF0EE41EAB0EEA2
:101CB00061FAF0EE429AB0EE629AF0EE438A044680
:101CC0000D4616469FEDFB0A28EE000AF3EE040AC5
:101CD00020EE200AF0EE40AAF748D0ED080A60EEA8
:101CE000A00A90ED091AD0ED091A41EE210A90EDF3
:101CF0000A1AD0ED0A1A41EE210AB0EE600A00F08D
:101D000006FDEE4880ED000A90ED000AB5EEC00A2F
:101D1000F1EE10FA38D0E84890ED080AE748D0ED27
:101D2000000A80EE201AE64890ED000A71EE400AA3
:101D300090ED000A0AEEA00A80ED000ADE4890ED60
:101D4000090ADE48D0ED000A80EE201ADC4890ED4A
:101D5000010A71EE400A90ED010A0AEEA00A80ED38
:101D6000010AD548D0ED0A0AD44890ED001A80EE59
:101D7000810AD348D0ED020A70EE600A90ED020AA3
:101D80000AEEA00A80ED020ACE4ACD49CE4803F001
:101D9000B4F8CC48D0ED000A60EEA00A90ED011A2C
:101DA000D0ED011A41EE210AB0EE600A00F0AFFC5E
:101DB000C64880ED000AC34890ED000AB5EEC00A9F
:101DC000F1EE10FA36D090ED010AB5EEC00AF1EE50
:101DD00010FA2FD090ED020AB5EEC00AF1EE10FA1B
:101DE00028D0BA4890ED000AB5EEC00AF1EE10FA1C
:101DF00020D0B44890ED000AB448D0ED000A80EE3F
:101E0000201AB0EE41BAAF4890ED010AAF48D0EDCC
:101E1000000A80EE201AF0EE41BAF0EE4B0AB0EE66
:101E20006B0A00F0B4FBDFEDAA0A20EE200AA948F5
:101E300080ED000AA84890ED010AD0ED030A20EEDB
:101E4000200AD0ED000A90ED021A00EEC10AF0EE71
:101E5000000A20EE200A9C4880ED000A9E4890ED82
:101E6000000AD0ED010A20EE200AD0ED020A90ED22
:101E7000031A00EE810AF0EE000A20EE200A9248D2
:101E800080ED010A944890ED010A20EE000AD0EDA1
:101E9000020A90ED021A00EE810AF7EE000AB0EE97
:101EA000001A41EE400A8848C0ED020A69EEA90A0C
:101EB00049EE090A48EEA80AB0EE600A00F027FCD5
:101EC000864880ED000A9FED7B0A28EE000AF2EEBC
:101ED000040A60EE200A90ED000A814890ED001A95
:101EE00030EE411A90ED000A00EE810A80ED000A02
:101EF000F5EEC09AF1EE10FA02DDB0EE690A01E0EB
:101F0000B1EE690ADFED770AB4EEE00AF1EE10FAFD
:101F10007DD2B5EEC09AF1EE10FA02DDB0EE490ABC
:101F200001E0B1EE490ADFED6F0AB4EEE00AF1EE2E
:101F300010FA78D2F5EEC08AF1EE10FA02DDB0EEBA
:101F4000680A01E0B1EE680ADFED660AB4EEE00A65
:101F5000F1EE10FA67D2614890ED000AC9EE800AEE
:101F6000F0EE609A90ED000AC9EE000AB0EE609AB9
:101F700090ED000AC8EE800AF0EE608A90ED000A4B
:101F8000DFED590AB4EEE00AF1EE10FA54DD90EDFF
:101F9000000ADFED540AB4EEE00AF1EE10FA4BD27B
:101FA000494890ED020A20EE090AD0ED010A08EE38
:101FB000E00A4E4880ED030A434890ED000A20EE07
:101FC000280AD0ED020A09EEE00A484880ED040A2A
:101FD0009FED380A28EE000AF7EE000A20EE20AA4C
:101FE00090ED030AD0ED060A70EE600A90ED060A45
:101FF0000AEE200A80ED060A90ED040AD0ED070AE9
:1020000070EE600A90ED070A0AEE200A00E00AE08E
:1020100080ED070A90ED060A80ED000A90ED070AB0
:1020200080ED010A08E09FED320A304880ED000A99
:102030009FED2F0A80ED010A2C4890ED090AD0EDA2
:10204000000A9FED2C1A60EE810AB0EE001A60EED5
:10205000810A00EE880A80ED090A90ED0A0AD0EDA7
:10206000010A9FED241A60EE810AB0EE001A60EEBC
:10207000810A00EE880A80ED0A0A90ED0B0AD0ED85
:10208000020A9FED1C1A60EE810AB0EE001A60EEA3
:10209000810A00EE880A80ED0B0A90ED090ADFED57
:1020A000160AB4EEE00AF1EE10FA27D29FED120AFA
:1020B00034E00000C3F5C8406C0500204800002053
:1020C0006C2A0020602A0020182A002044000020EA
:1020D00033336542500000202800002038000020E3
:1020E000400000200080894500806D45242A0020A2
:1020F00000000000CDCCCC3D34FA0EBDFE4890ED82
:10210000090ADFEDFE0AB4EEE00AF1EE10FA02DD94
:102110009FEDFA0A02E0F84890ED090AF64880EDD2
:10212000090A90ED0A0A5FED0C0AB4EEE00AF1EE3E
:1021300010FA02D21FED100A0FE0EF4890ED0A0AE4
:10214000DFEDEE0AB4EEE00AF1EE10FA02DD9FEDEB
:10215000EB0A02E0E84890ED0A0AE74880ED0A0A37
:1021600090ED0B0A5FED1C0AB4EEE00AF1EE10FAF6
:1021700002D21FED1F0A0FE0DF4890ED0B0ADFEDE2
:10218000DF0AB4EEE00AF1EE10FA02DD9FEDDB0AA1
:1021900002E0D94890ED0B0AD74880ED0B0AD848E9
:1021A00090ED020AB5EEC00AF1EE10FA29DDD5482D
:1021B000007898B1D448D0ED000AD44890ED001AC8
:1021C00070EEC10AB0EE600A00F03CFCDFEDD00A10
:1021D00020EE200ACF4880ED000A12E0CA48D0ED78
:1021E000000ACA4890ED001A70EEC10AB0EE600A0B
:1021F00000F028FCDFEDC80A20EE200AC54880ED7B
:10220000000ABD4890ED000AD0ED090A30EE200A20
:10221000DFEDC20A20EE200AB94890ED001ABD4851
:10222000D0ED001AF0EE4E0A41EE610A9FEDBC1AA5
:1022300000EE810AB04880ED0C0A90ED010AD0ED65
:102240000A0A30EE200ADFEDB50A20EE200AAC487B
:1022500090ED011AAF48D0ED001AF0EE6E0A41EE93
:10226000610A9FEDAF1A00EE810AA34880ED0D0AC6
:10227000A348D0ED020AA74890ED001AB0EE4F0A2D
:1022800000EEC10ADFEDA60A20EE200A9A4880ED92
:102290000E0AA44890ED010AB1EE400A9648D0ED2E
:1022A0000C0A20EE200A9F48D0ED020A924890EDD9
:1022B0000D1A00EEC10A9B48D0ED030A8E4890ED3E
:1022C0000E1A00EEC10A9748D0ED000A40EE080A47
:1022D000C0ED000A90ED000A8748D0ED0C0A20EE10
:1022E000200A9048D0ED020A834890ED0E1A00EEC5
:1022F000810A8C48D0ED030A7F4890ED0D1A00EE5C
:10230000C10A8848D0ED010A40EE080AC0ED010A72
:1023100090ED000A7848D0ED0D0A20EE200A8148A1
:10232000D0ED010A744890ED0E1A00EEC10A7D4806
:10233000D0ED030A704890ED0C1A00EE810A79483E
:10234000D0ED020A40EE080AC0ED020A90ED000A44
:102350006948D0ED0E0A20EE200A7248D0ED010A3D
:10236000654890ED0D1A00EE810A6E48D0ED020A24
:10237000614890ED0C1A00EEC10A6A48D0ED030ADC
:1023800040EE080AC0ED030AD0ED000A60EEA00A94
:1023900090ED011AD0ED011A41EE210A90ED021ADA
:1023A000D0ED021A41EE210A90ED031AD0ED031A86
:1023B00041EE210AB0EE600A00F0A9F95A4880ED1A
:1023C000000A584890ED000A5748D0ED000A80EE08
:1023D000201A544880ED001A90ED010A5248D0EDC1
:1023E000000A80EE201A4F4880ED011A90ED020A93
:1023F0004D48D0ED000A80EE201A4A4880ED021ABE
:1024000090ED030A4848D0ED000A80EE201A4548B6
:1024100080ED031A90ED011A21EE011AD0ED021A97
:1024200090ED022A01EE821AF7EE001AB0EE002AB1
:1024300042EE411AF0EE610A90ED001AD0ED011A59
:1024400021EE211AD0ED021A90ED032A01EE821A34
:10245000F0EE001A21EE211AB0EE410A00F097F8D2
:102460005FEDE50A20EE200A84ED000A2D4890ED8C
:10247000010AD0ED030A20EE200AD0ED000A90ED0B
:10248000021A00EEC10AF0EE000A20EE200A10EE59
:10249000101A084610F0B5FF41EC1D0BB0EE4D0AC6
:1024A000F0EE6D0A11F0E8F9B0EE40CAF0EE60CA45
:1024B0009FED1E0B53EC102B51EC1C0B10F01EFF6C
:1024C00041EC1B0B10F0E0FF2860164890ED001A5D
:1024D00021EE011AD0ED011A90ED012A01EE821AC7
:1024E000F7EE001AB0EE002A52EE011AF0EE610A81
:1024F00090ED011A1EE00000242A002034FA0E3D5F
:10250000182A0020A80400205000002024000020E9
:1025100090C2F53D4C0000206766663F9A99193FCE
:1025200034FA8E3C280000203C00002000000060AF
:1025300066A64C40B1EE411AD0ED021A21EE211AE6
:10254000D0ED001A90ED032A01EEC21AF0EE001A47
:1025500021EE211AB0EE410A00F019F8DFED040A6D
:1025600020EE200A86ED000ABDEC108B70BD000045
:1025700033336542F0EE400AF5EEC00AF1EE10FA90
:1025800002DBB0EE600A7047B1EE600AFBE700B50F
:10259000B0EE403AB0EE602AB5EEC03AF1EE10FA75
:1025A00007D1B5EEC02AF1EE10FA02D19FEDFD1A67
:1025B00099E0B0EE430AFFF7DDFFF0EE403AB0EEEF
:1025C000420AFFF7D7FFF0EE402AF4EEE23AF1EECE
:1025D00010FA02D283EEA24A01E082EEA34A9FEDF6
:1025E000F20AB4EEC04AF1EE10FA02D2F0EE441A4A
:1025F0002DE0DFEDEE0AB6EE000A14EE200AF0EE52
:10260000404ABDEEE40A10EE100A00EE100AB8EEE1
:10261000C00A34EEC00AF0EE404AE54901EB800101
:1026200091ED000AF0EE401AE14A411C02EB8101F3
:1026300091ED000A114601EB8001D1ED000A70EE28
:10264000600AB0EE610A00EEA40AF0EE401AF4EE61
:10265000E32AF1EE10FA20DDB5EEC02AF1EE10FA11
:102660000ADBB5EEC03AF1EE10FA02DBB0EE611A09
:1026700039E0B1EE611A36E09FEDCE1AB5EEC03A00
:10268000F1EE10FA04DB31EE610AB0EE401A2AE0F6
:1026900031EEC10AB0EE401A25E0B5EEC03AF1EED7
:1026A00010FA10DB9FEDC41AB5EEC02AF1EE10FA55
:1026B00004DB31EE610AB0EE401A14E031EE210A7B
:1026C000B0EE401A0FE09FEDBD1AB5EEC02AF1EE54
:1026D00010FA04DB31EE210AB0EE401A03E031EECD
:1026E000610AB0EE401AB0EE410A00BD00B5B0EE8E
:1026F000405AF0EE605AF0EE450AB0EE650AFFF778
:1027000046FF00BDF0EE400A20EEA00A7047B0EE92
:10271000401AB7EE080AB0EE402AB6EE000A21EEE3
:10272000000AF0EE401AF0EE410A10EE900AA449B9
:10273000A1EB600000EE900A61EEA02AB7EE080A55
:1027400002EEE00A20EE200AF0EE400A61EEA02A36
:10275000B7EE080A02EEE00A20EE200AF0EE400A88
:1027600021EE200A704710B52DED0A8BB0EE409A8D
:10277000F0EE609A9FED930B53EC102B51EC190B7C
:1027800010F052FE18D29FED910B53EC102B51EC30
:10279000190B10F0B3FD41EC1B0B9FED8E0B53ECAE
:1027A000102B10F004FD41EC1A0B53EC192B10F018
:1027B000A5FD41EC180B17E09FED840B53EC102B9B
:1027C00051EC190B10F09AFD41EC1B0B9FED810BA6
:1027D00053EC102B10F08FFD41EC1A0B53EC192B1E
:1027E00010F08CFD41EC180B9FED760B53EC102B89
:1027F00051EC180B10F018FE20D29FED780B53EC23
:10280000102B51EC180B10F0D2FC41EC1C0B9FED7F
:10281000750B53EC102B10F071FD41EC1B0B9FED71
:102820006F0B53EC102B10F0C2FC41EC1A0B53EC65
:10283000182B10F063FD41EC180B1FE09FED670BA8
:1028400053EC102B51EC180B10F052FD41EC1C0B0B
:102850009FED660B53EC102B10F050FD41EC1B0B61
:102860009FED5E0B53EC102B10F0A1FC41EC1A0B0A
:1028700053EC182B10F042FD41EC180BB0EE480A57
:10288000F0EE680ABDEC0A8B10BD10B52DED068B7D
:10289000B0EE408AF0EE608A01249FED560B53ECB7
:1028A000102B51EC180B10F0D7FD0AD89FED510BEF
:1028B00053EC102B51EC180B10F01AFD41EC180BD7
:1028C000A41E204610F08CFD41EC190BB0EE480A16
:1028D000F0EE680AFFF747FFB0EE40AAF0EE60AAFC
:1028E00053EC192B51EC1A0B10F008FD41EC100BB6
:1028F000BDEC068B10BD10B52DED088BB0EE408AF7
:10290000F0EE608A01249FED3D0B53EC102B51EC4F
:10291000180B10F04CFC41EC180B9FED360B53ECF0
:10292000102B51EC180B10F097FD0AD8A41E9FED48
:10293000310B53EC102B51EC180B10F0D9FC41EC7F
:10294000180B204610F04CFD41EC1A0BB0EE480A73
:10295000F0EE680AFFF799FFB0EE40BAF0EE60BA09
:1029600053EC1A2B51EC1B0B10F0C8FC41EC190B6B
:1029700010F08AFD00EE100ABDEC088B10BDB0EE21
:10298000401AB5EEC01AF1EE10FA3BDD31EE600AE6
:10299000B5EEC00AF1EE10FA3FD2DFED021AB0EE4A
:1029A000610A3AE0000000008180803B0000804323
:1029B00054000020DB0F4940DB0FC93FDB0FC9BFCC
:1029C000DF59375F000000000000000000000060D9
:1029D0002FF0D93F00000060305FF43F000000009E
:1029E0000000F03F000000C0CCCCCCBF000000C015
:1029F000CCCCCC3FF1D4C853FB210940F1D4C8530F
:102A0000FB21F93F31EE200AB5EEC00AF1EE10FAD3
:102A100003DD5FED1C1AB0EE610A7047B0EE401A9C
:102A2000F1EE601AB4EEE11AF1EE10FA07DDB4EE41
:102A3000E01AF1EE10FA02D21FED260A01E0B0EE24
:102A4000410A7047F0EE400A9FED210AF4EEC00AF9
:102A5000F1EE10FA04DD9FED1F0A30EEC00A704758
:102A60009FED1D0AF4EEC00AF1EE10FA04D29FEDBC
:102A7000190A30EE800AF2E7B0EE600AEFE7F0EEF6
:102A8000401AB7EE000AF4EEC00AF1EE10FA04DCC8
:102A9000F5EEC00AF1EE10FA02D21FED3E0A7047C1
:102AA00081EE810AB5EEC00AF1EE10FA02DD81EE88
:102AB000810A03E081EE810AB1EE400A20EE202A6D
:102AC000B7EE000A30EE600A02EE210AE7E70000E6
:102AD000000034430000B443000034C370B5054621
:102AE0000C462146F84804F05EFD70BD2DE9F04328
:102AF0002DED028B83B005460E4617469846B0EE84
:102B0000408A0024AA222146641CEF4842542146F0
:102B1000641C425404222146641C42540022214673
:102B2000641C42542146641C45542146641C46548E
:102B300001979DF807202146641C42549DF8062009
:102B40002046611CCCB2E0490A549DF8052020467D
:102B5000611CCCB2DC490A549DF804202046611C5B
:102B6000CCB2D9490A54CDF804809DF807202046FC
:102B7000611CCCB2D4490A549DF806202046611C41
:102B8000CCB2D1490A549DF805202046611CCCB234
:102B9000CD490A549DF804202046611CCCB2CA4994
:102BA0000A549FEDCA0A28EE000ABDEEC00A10EED4
:102BB000100A00B202909DF809202046611CCCB298
:102BC000C1490A549DF808202046611CCCB2BE4978
:102BD0000A54201FC8704FF00009002006E0BA49CF
:102BE000095C494401F0FF09411CC8B2A042F6DB70
:102BF0002046611CCCB2B44901F800902146B2488D
:102C0000FFF76CFF03B0BDEC028BBDE8F08370B53D
:102C10002DED0A8B82B00546B0EE408AF0EE608A58
:102C2000B0EE419AF0EE619AB0EE42AAF0EE62AADE
:102C3000B0EE43BAF0EE63BAB0EE44CA0024AA2262
:102C40002146641CA04842542146641C425405F1AC
:102C50000F00C2B22146641C9B4842540022214608
:102C6000641C42549FED9A0A28EE000ABDEEC00A89
:102C700010EE100A00B201909DF805202146641C58
:102C8000914842549DF804202146641C42549FED13
:102C9000900A28EE800ABDEEC00A10EE100A00B2BB
:102CA00001909DF805202146641C874842549DF8F8
:102CB00004202046611CCCB283490A549FED840A4B
:102CC00029EE000ABDEEC00A10EE100A00B2019013
:102CD0009DF805202046611CCCB27B490A549DF822
:102CE00004202046611CCCB277490A549FED780A33
:102CF00029EE800ABDEEC00A10EE100A00B2019063
:102D00009DF805202046611CCCB26F490A549DF8FD
:102D100004202046611CCCB26B490A549FED6C0A1A
:102D20002AEE000ABDEEC00A10EE100A00B20190B1
:102D30009DF805202046611CCCB263490A549DF8D9
:102D400004202046611CCCB25F490A549FED600A02
:102D50002AEE800ABDEEC00A10EE100A00B2019001
:102D60009DF805202046611CCCB257490A549DF8B5
:102D700004202046611CCCB253490A549FED540AEA
:102D80002BEE000ABDEEC00A10EE100A00B2019050
:102D90009DF805202046611CCCB24B490A549DF891
:102DA00004202046611CCCB247490A549FED480AD2
:102DB0002BEE800ABDEEC00A10EE100A00B20190A0
:102DC0009DF805202046611CCCB23F490A549DF86D
:102DD00004202046611CCCB23B490A549FED3C0ABA
:102DE0002CEE000ABDEEC00A10EE100A00B20190EF
:102DF0009DF805202046611CCCB233490A549DF849
:102E000004202046611CCCB22F490A54201FC870F0
:102E10000026002005E02C49095C3144CEB2411C5B
:102E2000C8B2A042F7DB2046611CCCB226490E5442
:102E300021462548FFF752FE02B0BDEC0A8B70BD5B
:102E4000F8B505460E460024AA222146641C1E48F9
:102E500042542146641C425405222146641C4254BB
:102E600000222146641C425400959DF80120214611
:102E7000641C42549DF800202146641C4254009674
:102E80009DF801202146641C42549DF800202146F3
:102E9000601CC4B20C484254201F0B49C870002764
:102EA000002005E00849095C3944CFB2411CC8B292
:102EB000A042F7DB2046611CCCB203490F542146E7
:102EC0000148FFF70BFEF8BD892A00200000C84228
:102ED00000007A447FB50024AA222146641CFE48E3
:102EE00042542146641C425406222146641C42542A
:102EF00000222146641C42549DF801202146641C96
:102F000042549DF800202146641C42549DF805203F
:102F10002146641C42549DF804202046611CCCB21A
:102F2000ED490A549DF809202046611CCCB2EA49BB
:102F30000A549DF808202046611CCCB2E6490A5488
:102F40009DF80D202046611CCCB2E3490A549DF83F
:102F50000C202146601CC4B2DF4842549DF8212059
:102F60002046611CCCB2DC490A549DF82020204642
:102F7000611CCCB2D8490A549DF825202046611C1A
:102F8000CCB2D5490A549DF824202046611CCCB20D
:102F9000D1490A549DF829202046611CCCB2CE4963
:102FA0000A549DF828202046611CCCB2CA490A5414
:102FB0009DF82D202046611CCCB2C7490A549DF8CB
:102FC0002C202046611CCCB2C3490A54201FC87073
:102FD0000025002005E0C049095C2944CDB2411C10
:102FE000C8B2A042F7DB2046611CCCB2BA490D54EE
:102FF0002146B948FFF772FD7FBD7FB50024AA22A4
:103000002146641CB44842542146641C42540322A5
:103010002146641C425400222146641C42549DF8FF
:1030200001202146641C42549DF800202146641C66
:1030300042549DF805202146641C42549DF804200A
:103040002046611CCCB2A4490A549DF809202046B0
:10305000611CCCB2A0490A549DF808202046611C8E
:10306000CCB29D490A549DF80D202046611CCCB27B
:1030700099490A549DF80C202046611CCCB296490F
:103080000A549DF821202046611CCCB292490A5472
:103090009DF820202146601CC4B28F4842549DF800
:1030A00025202046611CCCB28B490A549DF824206F
:1030B0002046611CCCB288490A549DF8292020463C
:1030C000611CCCB284490A549DF828202046611C1A
:1030D000CCB281490A549DF82D202046611CCCB207
:1030E0007D490A549DF82C202046611CCCB27A49B7
:1030F0000A549DF831202046611CCCB276490A540E
:103100009DF830202046611CCCB273490A549DF8CA
:1031100035202046611CCCB26F490A549DF83420FA
:103120002046611CCCB26C490A54201FC87000258F
:10313000002005E06849095C2944CDB2411CC8B2B1
:10314000A042F7DB2046611CCCB263490D542146F6
:103150006148FFF7C3FC7FBD73B50024AA22214656
:10316000641C5D4842542146641C42540722214697
:10317000641C425400222146641C42549DF80320E2
:103180002146641C42549DF802202146641C42548E
:103190009DF801202146641C42549DF800202046E1
:1031A000611CCCB24C490A549DF805202046611C94
:1031B000CCB249490A549DF804202046611CCCB287
:1031C00045490A54201FC8700025002005E04249E7
:1031D000095C2944CDB2411CC8B2A042F7DB2046AD
:1031E000611CCCB23C490D5421463B48FFF776FCAC
:1031F0007CBD2DE9F84F05460E4617469846DDE999
:103200000AAB0024AA222146641C334842542146BA
:10321000641C425402222146641C4254002221466E
:10322000641C425400959DF801202146641C4254C0
:103230009DF800202146641C425400969DF8012010
:103240002146641C42549DF800202146601CC4B2F3
:103250002148425400979DF801202046611CCCB2C1
:103260001D490A549DF800202046611CCCB21A4921
:103270000A54CDF800809DF801202046611CCCB294
:1032800015490A549DF800202046611CCCB2124911
:103290000A54CDF800A09DF801202046611CCCB254
:1032A0000D490A549DF800202046611CCCB20A4901
:1032B0000A54CDF800B09DF801202146601CC4B22C
:1032C000054842549DF800202146601CC4B20248C3
:1032D00042540C98009001E0892A00209DF80120BA
:1032E0002046611CCCB2F8490A549DF800202046C3
:1032F000611CCCB2F4490A540D9800909DF801204D
:103300002046611CCCB2F0490A549DF800202046AA
:10331000611CCCB2EC490A540E9800909DF8012033
:103320002046611CCCB2E8490A549DF80020204692
:10333000611CCCB2E4490A54002000909DF80120A1
:103340002046611CCCB2E0490A549DF8002020467A
:10335000611CCCB2DC490A54201FC8704FF0000930
:10336000002006E0D849095C494401F0FF09411CEE
:10337000C8B2A042F6DB2046611CCCB2D24901F8AB
:1033800000902146D048FFF7A9FBBDE8F88F38B57B
:103390000024AA222146641CCB4842542146641CC6
:1033A0004254F1222146641C425400222146641CEE
:1033B0004254002000909DF801202146641CC24820
:1033C00042549DF800202146641C4254BF4890EDB1
:1033D000000ABDEEC00A10EE100A00B200909DF87F
:1033E00001202146641CB84842549DF80020204624
:1033F000611CCCB2B4490A54B44890ED000ABDEE49
:10340000C00A10EE100A00B200909DF8012020467C
:10341000611CCCB2AC490A549DF800202046611CC6
:10342000CCB2A9490A54002000909DF80120204602
:10343000611CCCB2A4490A549DF800202046611CAE
:10344000CCB2A1490A54002000909DF801202046EA
:10345000611CCCB29C490A549DF800202046611C96
:10346000CCB299490A54201FC8700025002005E0FD
:103470009549095C2944CDB2411CC8B2A042F7DB92
:103480002046611CCCB290490D5421468E48FFF76E
:1034900025FB38BD30B52DED048B81B0B0EE408AF0
:1034A000F0EE608AB0EE419A0024AA222146641C04
:1034B000854842542146641C42540B222146641C18
:1034C000425400222146641C42549FED810A28EE9A
:1034D000000ABDEEC00A10EE100A00B200909DF87E
:1034E00001202146641C784842549DF80020214662
:1034F000641C42549FED760A28EE800ABDEEC00A95
:1035000010EE100A00B200909DF801202146641CC4
:103510006D4842549DF800202046611CCCB26A4997
:103520000A549FED6B0A29EE000ABDEEC00A10EEA8
:10353000100A00B200909DF801202046611CCCB218
:1035400061490A549DF800202046611CCCB25E49B6
:103550000A54201FC8700025002005E05A49095C64
:103560002944CDB2411CC8B2A042F7DB2046611C01
:10357000CCB255490D5421465348FFF7AFFA01B07C
:10358000BDEC048B30BD2DE9F0432DED048B83B0F1
:10359000B0EE408AF0EE608AB0EE419A05460E46E3
:1035A0001746984600240196AA222146641C4648E4
:1035B00042542146641C425401222146641C425458
:1035C00000222146641C42549FED420A28EE000A64
:1035D000BDEEC00A10EE100A00B202909DF809205C
:1035E0002146641C384842549DF808202146641C3A
:1035F00042549FED380A28EE800ABDEEC00A10EE54
:10360000100A00B202909DF809202146641C2E4841
:1036100042549DF808202046611CCCB22A490A5425
:103620009FED2C0A29EE000ABDEEC00A10EE100A2A
:1036300000B202909DF809202046611CCCB22249BC
:103640000A549DF808202046611CCCB21E490A5439
:1036500002959DF809202046611CCCB21A490A54F3
:103660009DF808202046611CCCB217490A549DF8E9
:1036700007202046611CCCB213490A549DF806204D
:103680002046611CCCB210490A549DF80520204602
:10369000611CCCB20C490A549DF804202046611CE0
:1036A000CCB209490A542046611CCCB206490F54D9
:1036B0002046611CCCB2044901F80080201FC8706C
:1036C0004FF0000900200EE0892A0020EC040020C1
:1036D000CDCCCC3D0000C842FB49095C494401F017
:1036E000FF09411CC8B2A042F6DB2046611CCCB2E7
:1036F000F54901F800902146F348FFF7EFF903B0D0
:10370000BDEC048BBDE8F0837FB505460024AA22FA
:103710002146641CEC4842542146641C4254002259
:103720002146641C42542146641C42542146641CB8
:1037300045549DF805202146641C42549DF8042000
:103740002146641C42549DF809202046611CCCB2DD
:10375000DD490A549DF808202046611CCCB2DA49A4
:103760000A549DF80D202046611CCCB2D6490A545B
:103770009DF80C202046611CCCB2D3490A549DF818
:1037800021202046611CCCB2CF490A549DF820204C
:103790002046611CCCB2CC490A54201FC8700026B8
:1037A000002005E0C849095C3144CEB2411CC8B2D2
:1037B000A042F7DB2046611CCCB2C3490E5421461F
:1037C000C148FFF78BF97FBD10B586B0BF480078C0
:1037D000BF49097890FBF1F201FB1201BC48007867
:1037E000401E814202D10120BA498870B748007852
:1037F000B949097890FBF1F201FB1201B648007853
:10380000401E814202D10120B249C870AF48007801
:10381000B249097890FBF1F201FB1201AF48007840
:10382000801E814202D10120AA498873A7480078EE
:10383000AB49097890FBF1F201FB1201A84800782E
:10384000401E814202D10120A24948709F48007861
:10385000A449097890FBF1F201FB1201A14800781C
:10386000401E814202D101209A498872974800780F
:103870009D49097890FBF1F201FB12019A4800780A
:10388000801E814202D10120924908738F4800783E
:103890009649097890FBF1F201FB120193480078F8
:1038A000801E814202D101208A49487387480078EE
:1038B0008F49097890FBF1F201FB12018C480078E6
:1038C000C01E814202D101208249C8737F4800781E
:1038D0008849097890FBF1F201FB120185480078D4
:1038E000C01E814204D17B48007C401C7949087489
:1038F00076480078401CC0B274490870C82801DDC1
:10390000002008707348007860B100207149087089
:103910004FF4C87364224FF4967100900420FFF7AF
:10392000F3FEF7E16B484078B0B100206949487078
:10393000714803787148027800217148008800B20C
:10394000704C94ED001A704CD4ED000A6F4C94ED5D
:10395000000AFFF718FEDDE15E48C07B60B1002081
:103960005C49C8736A4890ED001ADFED6A0A9FED62
:10397000690AFFF78FFDCDE15648807B28B1002012
:1039800054498873FFF703FDC4E152488078E8B3D7
:10399000002050498870604890ED0A0ABDEEC00AC8
:1039A00010EE100A00B25C4991ED090ABDEEC00AA2
:1039B00010EE101A09B2584A92ED080ABDEEC00A7C
:1039C00010EE102A12B2554B93ED090ABDEEC00A53
:1039D00010EE103A1BB2CDE90132CDE903104F4889
:1039E00090ED080ABDEEC00A10EE100A00B24B4C72
:1039F000009094ED070ABDEEC00A10EE104A23B203
:103A0000464C94ED060ABDEEC00A00E015E010EE4B
:103A1000104A22B2414C94ED050ABDEEC00A10EEE8
:103A2000104A21B23D4C94ED040ABDEEC00A10EEDE
:103A3000104A20B2FFF7DDFB6CE12648C07840B1A8
:103A400000202449C8702E4801880020FFF784FB1D
:103A500060E12048807AA8B300201E49887240F2B5
:103A6000DC522F48C08900F2DC5080B22C49898991
:103A700001F2DC5189B2CDE9030229480592029195
:103A8000408900F2DC5080B22549098901F2DC51FD
:103A900089B2234CCDE90010648804F2DC54A3B24F
:103AA0001F4C248804F2DC54A2B21D4CE48804F2BA
:103AB000DC54A1B21A4CA48804F2DC54A0B2FFF783
:103AC0009CFA27E12EE00000892A00205A040020F9
:103AD0005B040020782A00205C0400205D040020A4
:103AE0005E0400205F0400206004002061040020C8
:103AF0006204002063040020A8040020AC0400201D
:103B0000F005002024000020200000201C000020E0
:103B1000EC040020000000006C050020683100204B
:103B2000002B0020FE48007B48B30020FC490873AE
:103B3000009001900290FB4C039094ED030ABCEEC0
:103B4000C00A10EE104AA3B2F64C94ED020ABCEE85
:103B5000C00A10EE104AA2B2F24C94ED010ABCEE7B
:103B6000C00A10EE104AA1B2EE4C94ED000ABCEE71
:103B7000C00A10EE104AA0B2FFF7ACF9CAE0E8485C
:103B8000407B40B10020E64948734FF4E4717B204C
:103B9000FFF756F9BEE0E248007958B30020E0494B
:103BA0000871E148D0ED1E4AB0EE644AD0ED1F4ADC
:103BB000F0EE643AD0ED1D4AB0EE643AD0ED1A4A08
:103BC000F0EE642AD0ED1B4AB0EE642AD0ED194A1B
:103BD000F0EE641AD0ED164AB0EE641AD0ED174A32
:103BE000F0EE640AD0ED154AB0EE640A0120FFF74A
:103BF0000EF88FE0CA48407958B30020C849487190
:103C0000CA48D0ED1E4AB0EE644AD0ED1F4AF0EE2D
:103C1000643AD0ED1D4AB0EE643AD0ED1A4AF0EEA7
:103C2000642AD0ED1B4AB0EE642AD0ED194AF0EEBA
:103C3000641AD0ED164AB0EE641AD0ED174AF0EED1
:103C4000640AD0ED154AB0EE640A0220FEF7DFFFE9
:103C500060E0B348807958B30020B1498871B44816
:103C6000D0ED214AB0EE644AD0ED224AF0EE643A3B
:103C7000D0ED204AB0EE643AD0ED1D4AF0EE642A51
:103C8000D0ED1E4AB0EE642AD0ED1C4AF0EE641A64
:103C9000D0ED194AB0EE641AD0ED1A4AF0EE640A7B
:103CA000D0ED184AB0EE640A0320FEF7B0FF31E011
:103CB0009B48C079F8B100209949C8719C48D0ED63
:103CC000251AB0EE611AD0ED261AF0EE610AD0ED99
:103CD000241AB0EE610A1FED714A5FED723A1FEDD2
:103CE000733A5FED742A1FED752A5FED761A042092
:103CF000FEF78DFF0EE08A48007C02280AD10020E2
:103D0000874908741FED7D0A00231A461946184694
:103D1000FEF7ECFE00F02FFF06B010BD70B50446B4
:103D20000D46AA20834908704870EF208870022051
:103D3000C8700846047145710026002005E07D49E1
:103D4000095C3144CEB2411CC8B20628F7DB794881
:103D500086710721FEF7C2FE70BD70B52DED048B94
:103D600004460D460026002004E0215C3144CEB21A
:103D7000411CC8B2691E8142F7DC601910F8010CC1
:103D8000B04202D0BDEC048B70BD2078AA2802D1CD
:103D90006078AF2800D0F5E7A078012822D12079FB
:103DA000012802D1644908701CE02079022803D15F
:103DB00001206149487015E02079032804D10120D1
:103DC0005D49087048700DE02079042803D1012076
:103DD0005A49087006E02079212802DB207926283C
:103DE00000DD00BFA078022814D12079012806D177
:103DF0004B49087148718871C871087248722079FE
:103E0000A02802D10120464908702079A12801D1BB
:103E1000FCF7B2FCA078032836D149480078022884
:103E200002D0022000F04AFE2079617941EA0020A8
:103E300044498880A079E17941EA00204149C8805D
:103E4000207A617A41EA00203E490880A07AE17A2E
:103E500041EA00203B494880207B617B41EA002009
:103E600038490881A07BE17B41EA0020354948813F
:103E7000207C617C41EA002032498881A07CE17C81
:103E800041EA00202F49C881A078042810D1207968
:103E9000012803D100202C49087009E0207902286C
:103EA00006D14FF6706029498880012026490870A4
:103EB000A07805280AD12079012802D101F0CCFB95
:103EC00004E02079022801D101F0D7FBA078102866
:103ED0007DD12179090209B2627941EA02000FF02D
:103EE0007FFA41EC190B9FED1A0B53EC102B0FF0DE
:103EF00005FA41EC180B0FF0C7FA0B494865A17998
:103F0000090209B2E27941EA02000FF069FA41ECD4
:103F1000190B9FED0F0B53EC102B0FF0EFF91BE07B
:103F2000782A0020E829002014280020D828002022
:103F3000E0060020892A0020683100209905002031
:103F400070040020BC2A0020A8040020002B0020C0
:103F5000FCA9F1D24D62503F41EC180B0FF094FADE
:103F6000FD49C865217A090209B2627A41EA020074
:103F70000FF036FA41EC190B1FED0B0B53EC102B25
:103F80000FF0BCF941EC180B0FF07EFAF24988658E
:103F9000A17A090209B2E27A41EA02000FF020FA9E
:103FA00041EC190B1FED160B53EC102B0FF0A6F97B
:103FB00041EC180B0FF068FAE7494866217B0902CB
:103FC00009B2627B41EA02000FF00AFA00E072E0F7
:103FD00041EC190B1FED220B53EC102B0FF08EF957
:103FE00041EC180B0FF050FA0146DB48C166A17B8B
:103FF000090209B2E27B41EA02000FF0F1F941EC5B
:10400000190B1FED2D0B53EC102B0FF077F941EC32
:10401000180B0FF039FA0146CF488166217C09025E
:1040200009B2627C41EA02000FF0DAF941EC190BA7
:104030001FED390B53EC102B0FF060F941EC180B0E
:104040000FF022FAC4494867A17C090209B2E27C58
:1040500041EA02000FF0C4F941EC190B1FED440BCB
:1040600053EC102B0FF04AF941EC180B0FF00CFA3F
:104070000146B948C167217D090209B2627D41EA62
:1040800002000FF0ADF941EC190B1FED4F0B53EC93
:10409000102B0FF033F941EC180B0FF0F5F9014636
:1040A000AD488167A0783146FFF738FEFCF75CFB2E
:1040B0000120AA490880A07811287DD12179090220
:1040C00009B2627941EA02000FF08AF941EC190B5A
:1040D0001FED610B53EC102B0FF010F941EC180B96
:1040E0000FF0D2F99E494865A179090209B2E27937
:1040F00041EA02000FF074F941EC190B1FED6C0B53
:1041000053EC102B0FF0FAF841EC180B0FF0BCF940
:104110009349C865217A090209B2627A41EA02002C
:104120000FF05EF941EC190B1FED770B53EC102BE0
:104130000FF0E4F841EC180B0FF0A6F988498865F8
:10414000A17A090209B2E27A41EA02000FF048F9C5
:1041500041EC190B1FED820B53EC102B0FF0CEF836
:1041600041EC180B0FF090F97D494866217B09025C
:1041700009B2627B41EA02000FF032F941EC190BFF
:104180001FED8D0B53EC102B0FF0B8F841EC180B12
:104190000FF07AF901467248C166A17B090209B2A3
:1041A000E27B41EA02000FF01BF941EC190B1FED15
:1041B000980B53EC102B00E055E00FF09FF841EC0A
:1041C000180B0FF061F9014665488166217C0902F0
:1041D00009B2627C41EA02000FF002F941EC190BCE
:1041E0001FEDA50B53EC102B0FF088F841EC180BCA
:1041F0000FF04AF95A494867A17C090209B2E27CEA
:1042000041EA02000FF0ECF841EC190B1FEDB00B86
:1042100053EC102B0FF072F841EC180B0FF034F93F
:1042200001464F48C167217D090209B2627D41EA1A
:1042300002000FF0D5F841EC190B1FEDBB0B53EC4E
:10424000102B0FF05BF841EC180B0FF01DF9014635
:1042500043488167A0783146FFF760FDFCF784FA98
:1042600001203E490880A078122874D121790902E2
:1042700009B2627941EA02000FF0B2F841EC190B81
:104280001FEDCD0B53EC102B0FF038F841EC180B51
:104290000FF0FAF833490866A179090209B2E27908
:1042A00041EA02000FF09CF841EC190B1FEDD80B0E
:1042B00053EC102B0FF022F841EC180B0FF0E4F840
:1042C00028498866217A090209B2627A41EA020025
:1042D0000FF086F841EC190B1FEDE30B53EC102B9C
:1042E0000FF00CF841EC180B0FF0CEF81D494866A2
:1042F000A17A090209B2E27A41EA02000FF070F8ED
:1043000041EC190B1FEDEE0B53EC102B0EF0F6FFEA
:1043100041EC180B0FF0B8F812490867217B09022D
:1043200009B2627B41EA02000FF05AF841EC190B26
:104330001FEDF90B53EC102B0EF0E0FF41EC180BC6
:104340000FF0A2F807498867A17B090209B2E27B56
:1043500041EA020008E065E014280020580400202B
:10436000D8280020E00600200FF03AF841EC190BA5
:104370009FED6E0B53EC102B0EF0C0FF41EC180BB1
:104380000FF082F86B494867217C090209B2627C10
:1043900041EA02000FF024F841EC190B9FED630B8A
:1043A00053EC102B0EF0AAFF41EC180B0FF06CF839
:1043B0006049C1F88000A17C090209B2E27C41EAAF
:1043C00002000FF00DF841EC190B9FED580B53EC68
:1043D000102B0EF093FF41EC180B0FF055F85549D8
:1043E000C1F88800217D090209B2627D41EA02001C
:1043F0000EF0F6FF41EC190B9FED4C0B53EC102B1C
:104400000EF07CFF41EC180B0FF03EF84949C1F863
:104410008400A0783146FFF781FCFCF7A5F9012064
:1044200045490880A078132803D1A0783146FFF7CA
:1044300075FCA078142803D1A0783146FFF76EFCF4
:10444000A078152803D1A0783146FFF767FC00BF9C
:1044500098E410B504463948007838B9AA2C05D13B
:10446000012036490870364804705DE03348007812
:10447000012807D1AF2C05D10220304908703048FF
:10448000447051E02D480078022807D1F12C05DA5C
:1044900003202A4908702A48847045E0274800789C
:1044A00003280CD1322C0ADA04202449087024484D
:1044B000C4702448047000202349087034E01F4869
:1044C0000078042819D11F480078002815DD1D4800
:1044D0000078401E1B4908701B4800781A4909786B
:1044E000491C194A1170001D15490C5415480078D3
:1044F000D0B905201149087016E010480078052849
:104500000FD100200D4908700F480078001D0C499C
:104510000C540D480078401DC1B20948FFF71DFC3E
:1045200002E000200549087010BD0000FCA9F1D28E
:104530004D62503FE0060020580400206604002031
:10454000CC2A0020640400206504002002460020DC
:1045500007E0FC4B1B5632F8133021F81030431C97
:10456000D8B20828F5DB7047F748D0ED020A9FED76
:10457000F71AF4EEC10AF1EE10FA51D2D0ED030AA7
:104580009FEDF21AF4EEC10AF1EE10FA1AD2F048D9
:10459000B0F90000401CC8B3EE480078B0B3EC4856
:1045A000B0F9000000EE900AF8EEE00A9FEDEA1A7A
:1045B00041EE000AFDEEE00A10EE900A00B2E44976
:1045C000088030E0E048D0ED030A9FEDE41AF4EEF5
:1045D000C10AF1EE10FA1ADDDD48B0F90000401C06
:1045E000A0B1DC48007888B9D948B0F9000000EEE5
:1045F000900AF8EEE00A9FEDD81A41EE000AFDEEAF
:10460000E00A10EE900A00B2D14908800BE0D048D1
:10461000B0F90000401C30B90020CD49088002E00C
:104620000020CB490880CA48B0F90000B0F57A7F75
:1046300010DD4FF0FF30C6490880C648007830B919
:104640000120C44908700220C549487002E00020DA
:10465000C049087070473FB5F0EE401A0546C148A2
:104660000078012804D1C0492846FFF76FFF07E012
:10467000BC480078022803D1BB49BC48FFF766FF5D
:10468000002407E2B84830F8140040F6C41188420C
:1046900005DCB54830F81400B0F5FA7F07DA0120E0
:1046A000B34908550020B34921F8140012E0B1487D
:1046B00030F81400401CAF4921F81400084630F8C7
:1046C0001400C82806DD4FF4FA6021F81400002019
:1046D000A7490855A3480078012803D0A1480078CD
:1046E00002287BD1A248005D0028FAD19E4830F80C
:1046F00014002DF81400A04830F914009F4931F936
:10470000141088426BDD9E48005D002878D13DF88A
:1047100014009A4931F91410401A00EE100AB8EE4C
:10472000C01A954830F91400944931F91410401A10
:1047300000EE100AB8EEC00AC1EE000A9FED861A1C
:104740009FED900A10EE810ABDEEC00A10EE100A2D
:1047500000B210F5FA7F01DA8B484DE03DF8140005
:10476000864931F91410401A00EE100AB8EEC01A4A
:10477000814830F91400814931F91410401A00EED3
:10478000100AB8EEC00AC1EE000A9FED731A9FED41
:104790007D0A10EE810ABDEEC00A10EE100A00B2CA
:1047A000B0F5FA7F02DD4FF4FA7025E03DF8140011
:1047B000724931F91410401A00EE100AB8EEC01A0E
:1047C0006D4830F914006D4931F91410401A00EEAB
:1047D000100AB8EEC00AC1EE000A02E08AE086E0E4
:1047E0000EE09FED5D1A9FED670A10EE810ABDEEA7
:1047F000C00A10EE100A00B2644921F8140079E0F2
:104800003DF814005D4931F91410401A00EE100A09
:10481000B8EEC01A584830F91400584931F914104C
:10482000401A00EE100AB8EEC00AC1EE000A9FED71
:104830004A1A9FED540A10EE810ABDEEC00A10EE2E
:10484000100A00B210F5FA7F01DA4F4849E03DF84E
:1048500014004A4931F91410401A00EE100AB8EE5B
:10486000C01A454830F91400444931F91410401A6F
:1048700000EE100AB8EEC00AC1EE000A9FED361A2B
:104880009FED400A10EE810ABDEEC00A10EE100A3C
:1048900000B2B0F5FA7F02DD4FF4FA7021E03DF886
:1048A0001400364931F91410401A00EE100AB8EE1F
:1048B000C01A314830F91400304931F91410401A47
:1048C00000EE100AB8EEC00AC1EE000A9FED221AEF
:1048D0009FED2C0A10EE810ABDEEC00A10EE100A00
:1048E00000B2404200B2294921F8140002E0002041
:1048F000184908709FED260A21EE800A254880EDB0
:10490000000A3DF8140000EE100AB8EE400A0E4806
:1049100000EB8400D0ED000A30EE600AB5EEC00A6C
:10492000F1EE10FA38DD3DF8140000EE100AB8EE92
:10493000400A054800EB8400D0ED000A30EE600A22
:1049400039E0000068040020302B00200000C8C3BC
:10495000AA040020A804002000007A440000C843F4
:104960006831002070040020A02B0020BC2A002009
:1049700071040020902B00207C0400208C04002077
:104980009C0400200000FA430CFEFFFF002B0020D7
:1049900034337B42A40400203DF8140000EE100ADA
:1049A000B8EE400A494800EB8400D0ED000A30EE32
:1049B000600AB1EE400ADFED460AB4EEE00AF1EE1D
:1049C00010FA1DD2434830F9140000EE100AB8EE78
:1049D000C00A3E4800EB8400D0ED000A70EE600A89
:1049E0003A4800EB840090ED000A3B4890ED001A35
:1049F00001EE200A354800EB840080ED000A20E03B
:104A0000344830F9140000EE100AB8EEC00A2F48FE
:104A100000EB8400D0ED000A70EE600A2B4800EB3A
:104A2000840090ED000A2C4890ED001AB6EE002AA2
:104A300021EE021A01EE200A244800EB840080EDEA
:104A4000000A224800EB840090ED000A234800EBA6
:104A50008400D0ED000A30EE600A214800EB8400AB
:104A600080ED000A194800EB840090ED000A1B4815
:104A700000EB840080ED000A164830F9140000EEC7
:104A8000100AB8EEC00A174800EB840080ED000A57
:104A9000601CC4B2082CFFF6F5ADB0EE610AFFF75A
:104AA00063FD11480088401C80B20F490880C82867
:104AB00003DD002008800D4908703FBD0B490870D8
:104AC0000021094A1180704770470000302B0020F8
:104AD0000000C842002B0020A4040020502B00201E
:104AE000702B0020102B00207A040020700400207E
:104AF0000BF080BD704700207047002070470020F9
:104B00007047002070470020704700207047002049
:104B10007047002070470020704700207047002039
:104B200070470020704700207047002070470BF04E
:104B300088BD704700207047002070470BF0CCBB49
:104B40007047000010B50AF0CBFD01200AF0D3FD3C
:104B500010BD70B5024600200AE0145C864B1D783B
:104B60001B785B1C844E3370844B5C55431CD8B25D
:104B70008842F2DB70BD10B57F4800788049097823
:104B800088425BDD7C4800787D490978401A3F28DF
:104B90001BDB00207B4908703F207B490870002008
:104BA0000BE077490A780978491C754B19707349ED
:104BB0008A5C754B411C5A54C8B23F28F1DB402235
:104BC000714900200BF023FE9FE06E480078401CE6
:104BD0006C490870084600786C4909788842F3D11E
:104BE0000020684908706448007865490978401ACF
:104BF00065490870002015E05F490978604A12781D
:104C0000891A814208DD5E49097801445B4A525C99
:104C10005D4B411C5A5403E000225B4B411C5A542B
:104C2000411CC8B23F28E7DB53480078544908705C
:104C30004022554900200BF0EAFD66E04E4800781E
:104C40004F490978884260DA4D480078C0F5807095
:104C50004949097808443F281BDB0020494908706E
:104C60003F204949087000200BE045490A7809783F
:104C7000491C434B197041498A5C434B411C5A54AF
:104C8000C8B23F28F1DB40223F4900200BF0BFFDB6
:104C90003BE03C480078401C3A49087008460078E0
:104CA0003A490978884230D10020364908703448A2
:104CB00000784042304909780844334908700020A0
:104CC00018E02F490978C1F580712B4A12781144F8
:104CD000814209DD2A4909780144C9B2274A525C58
:104CE000294B411C5A5403E00022274B411C5A54C3
:104CF000411CC8B23F28E4DB1F48007820490870F7
:104D00004022214900200BF082FD10BD10B5044661
:104D1000012C02D0032C11D10EE059B923B1012B83
:104D200005D0022B04D100E000BF402010BD00BF21
:104D300000BF00BF00BF01E00120F7E700BF002077
:104D4000F4E72DE9F0470646884614469946089F41
:104D5000022E02D0032E0CD10AE0012504E0605D92
:104D6000FFF777FB681CC5B22078A842F7DA00E0AD
:104D700000BF00BFBDE8F087B9040020D02E00209E
:104D8000B8040020BA040020D02F0020B70400206F
:104D900010B505480EF004FA022101EB4000C0B244
:104DA00010BD024870470000143000202D30002054
:104DB00030B50446084615886D1CADB21580854295
:104DC00004DD002515800125558007E01588854202
:104DD00001D1002501E015886D1C5580158804EB74
:104DE000850585ED000A558804EB8505D5ED000A9B
:104DF00030EE601A00EE900AF8EE601AC1EE210A59
:104E000093ED001A70EE810AC3ED000A30BD70B553
:104E10008BB0F0EE400A022801DA0B2903DB9FED8C
:104E20007B0A0BB070BD7A4C245C641CE4B2784DF4
:104E30002C548C4201DB00242C5400EB400404EB86
:104E4000C004744D05EB8404714D2D5C04EB8504A6
:104E5000C4ED000A002211E000EB400404EBC004A2
:104E60006C4D05EB840404EB820494ED000A6C465F
:104E700004EB820484ED000A541CE2B28A42EBDBAC
:104E800000222DE0002325E06C4604EB830494ED22
:104E9000000A6D465C1C05EB8404D4ED001AB4EEE8
:104EA000E10AF1EE10FA13DD6C4604EB830494ED95
:104EB000001A5C1C05EB840494ED000A6C4604EBBC
:104EC000830484ED000A5C1C05EB840484ED001A65
:104ED0005C1CE3B24C1EA41A9C42D5DC541CE2B20A
:104EE0004C1E9442CEDC0C4601EBD4756D106E4620
:104EF00006EB850595ED000A93E770B52DED028B65
:104F000004460D461646D4ED020AB0EE600AFDF7DF
:104F1000F9FBF0EE408AD4ED010AB0EE600AFDF72D
:104F2000F1FB38EE800AB0EE408AFDF7F0FB3A481C
:104F300080ED000AD4ED020AB0EE600AFDF7E2FB54
:104F4000F0EE408AD4ED000AB0EE600AFDF7DAFB1D
:104F500038EE800AB0EE408AFDF7D9FB2F4880ED8D
:104F6000000A94ED020AB5EEC00AF1EE10FA02D280
:104F70004FF0FF3000E001202949087095ED000A4C
:104F80002548D0ED000A20EE200A94ED001A0846CC
:104F900090F9000000EE900AF8EEE00A61EE200AB7
:104FA00095ED021A00EEC10A86ED000A084690F956
:104FB000000000EE100AB8EEC00A1848D0ED000A52
:104FC00020EE200AD5ED010A20EE200AD4ED010AD8
:104FD00095ED021A00EEC10A86ED010A94ED000A71
:104FE000D5ED000A20EE200AD4ED010A95ED011A54
:104FF00000EE810AD4ED020A95ED021A00EE810A54
:1050000086ED020ABDEC028B70BD000000000000BE
:10501000C404002064300020C8040020CC04002018
:10502000C604002030EE601A80ED031A90ED031ADA
:10503000D0ED041A31EE611AD0ED001A21EE211ADA
:10504000D0ED021A90ED032A01EE821AD0ED031A78
:1050500090ED042AF0EE002A42EEC21A90ED052AE5
:1050600071EE821A90ED012A02EE211A80ED061AE5
:1050700090ED031A80ED041A90ED041A80ED051AE4
:10508000704700B5F0EE403AB0EE603AFE4890ED61
:10509000020ADFEDFE0A30EE200ADFEDFD0A20EE07
:1050A000200ADFEDFB0A80EE201AFA4880ED001A94
:1050B00090ED000ADFEDF60AB4EEE00AF1EE10FA28
:1050C00003DD9FEDF30A80ED000AF348008800EE4F
:1050D000100AF8EE400AEF4890ED000AEF48FFF79B
:1050E000A1FFEE4890ED060A30EE030AEC4880ED91
:1050F000000A00BD00B5F0EE404AB0EE604AE94853
:10510000007810B1012839D11AE0E74890ED060A7D
:10511000DFEDE60AB4EEE00AF1EE10FA03DD01205D
:10512000E04908700BE0E2480088401C80B2E0498A
:105130000880B0F5FA7F02DD0120DA4908701EE030
:10514000DC48007802280BD1DB48007840B9F0EE4B
:10515000440A9FEDDA0AFFF794FFFF20D649087052
:10516000D448007830B1CE4890ED000AD44880EDA4
:10517000000A02E0D24880ED004A00E000BF00BF14
:1051800000BD10B52DED048BCE4890ED1C0A10EE3D
:10519000101A08460EF035F941EC190B9FEDCA0BB9
:1051A00053EC102B0EF0AAF841EC180B0EF06CF932
:1051B000BA490860C34890ED1D0A10EE101A08465F
:1051C0000EF01FF941EC190B9FEDBF0B53EC102BA8
:1051D0000EF094F841EC180B0EF056F9AF49486008
:1051E000B84890ED1E0A10EE101A08460EF009F9A4
:1051F00041EC190B9FEDB40B53EC102B0EF07EF825
:1052000041EC180B0EF040F9A4498860BDEC048B0A
:1052100010BDAC4890ED180AF7EE000A20EE200A07
:10522000AB4880ED000AA74890ED190AF7EE000A96
:1052300020EE200AA64880ED010AA24890ED1A0A45
:10524000F7EE000A20EE200AA14880ED020A70471E
:1052500010B52DED068BB0EE408AB0EE609AF0EE00
:10526000418AF0EE619AB0EE000A29EE000AB5EE2E
:10527000C00AF1EE10FA02D29FED960A11E0B0EEEC
:10528000000A29EE000ADFED940AB4EEE00AF1EE1E
:1052900010FA02DD9FED900A03E0B0EE000A29EE5D
:1052A000000AB0EE40AA9FED8D0A68EE000AB7EE44
:1052B000001A81EE200AF7EE000A30EE200AB7EE5F
:1052C000001AC1EE000A864890ED000A3AEE401A34
:1052D00090ED000A00EE810A80ED000A814890ED11
:1052E000000A9FED811AC0EE010A804890ED000A85
:1052F0009FED7F1A00EE810A7E4880ED000ADFED07
:105300007E0A90ED000AFDF73AFB7C48D0ED000ADA
:1053100040EE080AC0ED000A794890ED000A79488D
:10532000D0ED000A30EE600AC0EE080A714890ED38
:10533000000A70EEC00A9FED740A28EE001A6B484E
:1053400090ED000A01EE200A80ED000A90ED000ABF
:10535000DFED6E0AB4EEE00AF1EE10FA02D29FED34
:105360006B0A0FE0614890ED000ADFED480AB4EEE9
:10537000E00AF1EE10FA02DD9FED440A02E05B481C
:1053800090ED000A594880ED000A9FED610A28EE71
:10539000000AF7EE000A80EE801AB7EE000A31EE3E
:1053A000000AB7EE001AC1EE000A544890ED000A58
:1053B00039EEC01A90ED000A00EE810A80ED000A75
:1053C00090ED000A534880ED000A90ED000AB5EE1A
:1053D000C00AF1EE10FA02DD90ED000A04E04D483B
:1053E00090ED000AB1EE400ADFED4B0AB4EEE00AA0
:1053F000F1EE10FA04D29FED370A464880ED000A1C
:10540000444890ED000A3E4880ED000A90ED000A05
:105410003C4880ED000A2E4890ED000A3848D0ED57
:10542000000A78EEE00A20EE200A3C4880ED000AEF
:10543000DFED3B0A80EE880AF2EE040A20EE200A35
:105440002348D0ED010A20EE200A2A48D0ED000AB8
:10545000F1EE600A20EE200A20EE080A2F4880EDC7
:10546000020A1B4890ED020AD0ED000A20EE200A45
:1054700078EEE90A60EE200A284890ED030A00EE73
:10548000880A80ED030A4DE0302B00200000FA432B
:1054900000007A44DC040020F005002000310020E8
:1054A000E8040020FC0400206831002000007A4558
:1054B000FE040020AC040020EC050020CDCCCC3D47
:1054C000D0040020E0060020000000000000F03FB3
:1054D000D03000200000000000001644C3F5C83F93
:1054E00004050020D40400200000804508050020A9
:1054F00000401C46F40400200000C8420C050020B7
:10550000EC040020F0040020CDCCCC3E0000FAC317
:105510009CC4A03E1005002000004842BC30002082
:105520006F12033B90ED030A4548D0ED000AF1EEFF
:10553000600A9FED441A60EE810AB4EEE00AF1EED3
:1055400010FA08D290ED000AB1EE400ADFED3D0AF4
:1055500020EE200A18E03C4890ED030A3848D0EDD0
:10556000000A9FED381A60EE810AB4EEE00AF1EE0F
:1055700010FA06DD90ED000ADFED320A20EE200A77
:1055800002E0314890ED030A2F4880ED030A90EDC8
:10559000000A2E48D0ED000A00EEA80A2A48D0EDF5
:1055A000020A30EE200AD0ED030A30EE200ADFEDC9
:1055B000280AB4EEE00AF1EE10FA02D29FED240AB6
:1055C0002BE0214890ED000A2048D0ED000A00EEC3
:1055D000A80A1D48D0ED020A30EE200AD0ED030AD9
:1055E00030EE200ADFED170AB4EEE00AF1EE10FA11
:1055F00002DD9FED140A10E0134890ED000A1348F5
:10560000D0ED000A00EEA80A0F48D0ED020A30EEF5
:10561000200AD0ED030A30EE200A0E48D0ED000A31
:10562000074890ED001A41EE000A0748C0ED040A51
:1056300090ED000A80ED010ABDEC068B10BD000064
:105640001000002000009643BC300020D030002025
:10565000000096C30405002010B540F24C4408E059
:105660000120FFF72BFA05498C800A2000F0A4F8EE
:10567000641CB4F5AF6FF3DD10BD704758310020E6
:105680000EB50121084604F031FE4FF0804005F0D0
:1056900069FE4FF47A7001905320ADF800000020AD
:1056A000ADF80800ADF8020069464FF0804005F003
:1056B00035FF0121880708F017FA012211469007EB
:1056C00008F008F90121880706F0C2FA002101203C
:1056D00004F00CFE0EBD08B51C208DF80000022061
:1056E0008DF8010000208DF8020001208DF80300E4
:1056F000684603F03AFC08BD10B5FFF7C1FFFFF79D
:10570000EAFF0121084604F0F1FD10BD7FB56846AF
:1057100004F012FC4FF47A710198B0FBF1F4E40844
:105720002146B1F1807F00D31DE021F07F40401E73
:105730004FF0E022506150170F22002807DA1307BC
:105740001E0E664B00F00F052D1F5E5503E013077C
:105750001D0E634B1D5400BF00204FF0E0229061EE
:105760000720106100BF6FF0040003F095FC7FBDBF
:105770005C4A11684FF0E02252694FF0E0239B69C8
:10578000D21A4FF47A735A434FF0E0235B69B2FBAD
:10579000F3F201EB4103C3EBC11302EBC30070470B
:1057A00030B50446FFF7E4FF054600BFFFF7E0FF12
:1057B000401BA042FAD330BD10B5044603E04FF4BD
:1057C0007A70FFF7EDFF2000A4F10104F7D110BDBE
:1057D00010B54548007800B910BD4448006840F253
:1057E000E731884207DA41480068401C3F490860B9
:1057F000FAF704FD29E000203C4908603C480068B5
:105800003B2805DA3A480068401C394908601CE02A
:10581000002037490860374800683B2805DA3548DA
:105820000068401C334908600FE0002031490860DF
:1058300031480068172805DA2F480068401C2E49B7
:10584000086002E000202C49086000BFC4E710B5E2
:10585000044604EB4400294901EB800090ED000A66
:1058600004EB440001EB800080ED010AFFF780FFAC
:1058700000EE100AB8EE400ADFED210A80EE201A91
:1058800004EB44001D4901EB800080ED001A04EB9D
:10589000440001EB800090ED000A04EB440001EBB2
:1058A0008000D0ED010A30EE600A04EB440001EB09
:1058B000800080ED020A04EB440001EB800090EDD3
:1058C000020A10BD10B5002404E02046FFF7BFFF18
:1058D000601CC4B2052CF8DB10BD000018ED00E020
:1058E00000E400E014050020000000202405002052
:1058F000200500201C050020180500201C31002078
:105900000024744900B587B00121062004F0EEFCA4
:1059100001210E2004F020FC1D208DF80400012040
:105920008DF805008DF806008DF8070001A803F03A
:105930001CFB1E208DF8040001208DF805008DF859
:1059400006008DF8070001A803F00FFBC0200590AA
:1059500002208DF8180003208DF8190000208DF822
:105960001A0002208DF81B0005A9FB4803F066FC15
:105970000320059002208DF8180003208DF81900EF
:1059800000208DF81A0002208DF81B0005A9F348AD
:1059900003F054FC02220621EF4803F08CFF0222A0
:1059A0000721ED4803F087FF02220021EB4803F0B6
:1059B00082FF02220121E94803F07DFF5320E849DC
:1059C00008800020ADF808000A20ADF80A00012088
:1059D000ADF80C000020ADF80E00ADF8100002A9E3
:1059E000DF48283807F0A4FC0420ADF808000A209E
:1059F000ADF80A000120ADF80C000020ADF80E0053
:105A0000ADF8100002A9D648283807F091FC08200C
:105A1000ADF808000A20ADF80A000120ADF80C002E
:105A20000020ADF80E00ADF8100002A9CC482838CF
:105A300007F07EFC0C20ADF808000A20ADF80A0043
:105A40000120ADF80C000020ADF80E00ADF81000FC
:105A500002A9C348283807F06BFC0121C048283848
:105A600006F0F6F801220221BD48283807F032FF7F
:105A700001220421BA48283807F02CFF012208210E
:105A8000B748283807F026FF01221021B4482838EB
:105A900007F020FF4FF47040059002208DF81800A9
:105AA00003208DF8190000208DF81A0002208DF8CF
:105AB0001B0005A9AB4803F0C1FB02220C21A94839
:105AC00003F0F9FE02220D21A64803F0F4FE0222A3
:105AD0000E21A44803F0EFFE02220F21A14803F09B
