:020000040800F2
:10000000583E0020E1000108B5010008EB0001089E
:10001000B7010008BB010008BF0100080000000094
:10002000000000000000000000000000C301000804
:10003000C501000800000000F7000108C701000822
:10004000FB000108FB000108FB000108FB000108A0
:10005000FB000108FB000108FB000108FB00010890
:10006000FB000108FB000108FB000108FB00010880
:10007000FB000108FB000108FB000108FB00010870
:10008000FB000108FB000108FB000108FB00010860
:10009000FB000108FB000108FB000108FB00010850
:1000A000FB000108FB000108FB000108FB00010840
:1000B000FB000108D9010008E1010008FB0001086C
:1000C000FB000108FB000108FB000108FB00010820
:1000D000FB000108FB000108E9010008FB00010822
:1000E000FB000108FB000108FB000108FB00010800
:1000F000FB000108FB000108FB000108FB000108F0
:10010000FB000108FB000108FB000108FB000108DF
:10011000FB000108F1010008FB000108FB000108D9
:10012000FB000108FB000108FB000108FB000108BF
:10013000FB000108FB000108FB000108FB000108AF
:10014000FB000108FB000108FB000108B58D000859
:10015000FB000108FB000108FB000108FB0001088F
:10016000FB000108FB000108FB000108FB0001087F
:10017000FB000108FB000108FB000108FB0001086F
:10018000FB000108FB000108DFF80CD013F0CEFFE4
:1001900000480047A1010008583E002000BFFEE7CC
:1001A00000F044F90249087001E000F0E8F8FCE7CB
:1001B00000000020704700BFFEE700BFFEE700BF61
:1001C000FEE77047704710B50B480068401C0A49AD
:1001D000086006F013F810BD10B506F006FA10BD61
:1001E00010B506F009FB10BD10B507F0B2FE10BD4A
:1001F00010B507F070FF10BD140500208148C089BC
:10020000401C8049C88108468088401C00B2888014
:100210000846C088401C00B2C88008460089401CBF
:1002200000B2088108464089401C00B24881084657
:100230008089401C00B2888108460078012804D1DA
:1002400008464078401C487002E001206D49087063
:10025000704710B5012006F010F803F0B5FA10BD94
:1002600010B52DED028B002006F007F8B0EE408AA5
:1002700005F094FF00EE100AB8EE400ADFED620AC6
:1002800080EE201A614880ED001A06F047FFB0EEBC
:10029000480A07F079F9B0EE480A01F04CF95C48D9
:1002A000B0EE480A04F057FC05F078FF00EE100AA3
:1002B000B8EE400ADFED540A80EE201A534880ED74
:1002C000011ABDEC028B10BD10B52DED028B022082
:1002D00005F0D3FFB0EE408A05F060FF00EE100A93
:1002E000B8EE400ADFED480A80EE201A474880ED5C
:1002F000021A4848D0ED063AB0EE633AD0ED053A1E
:10030000F0EE632AD0ED043AB0EE632AD0ED0C3A59
:10031000F0EE631AD0ED0B3AB0EE631AD0ED0A3A64
:10032000F0EE630AF6EE003A68EE233AB0EE630AA6
:10033000394A3A493A4801F0B1FCB0EE480A00F0B7
:10034000A9FB05F02BFF00EE100AB8EE400ADFED26
:100350002E0A80EE201A2D4880ED031ABDEC028B88
:1003600010BD10B507F03EFD10BD10B500F057FBF5
:1003700010BD10B507F056FD09F092FA10BD10B58A
:100380002048007801283BD12648008800B2264941
:100390000880FFF75EFF1B48B0F90400022804DB69
:1003A000002018498880FFF75BFF1648B0F9060067
:1003B000052804DB00201349C880FFF785FF11489A
:1003C000B0F908000A2804DB00200E490881FFF775
:1003D000C8FF0C48B0F90A00142804DB00200949C2
:1003E0004881FFF7C2FF0748B0F90C00322804DB50
:1003F000002004498881FFF7BCFF002001490870F4
:1004000010BD0000840600200024744994060020DA
:100410004031002050310020240000202000002026
:100420001C000020240500200200002010B54FF41D
:10043000806009F091FA05F07FFE06F0B0FC05F04F
:1004400077FF4FF4C87006F0D5FAC82005F0CAFE51
:10045000142006F045FF07F0CBFC4FF4E13007F025
:1004600005FD04F0EFFD00F045FA642005F0BAFE4A
:1004700009F010FA05F03CFF07F08EFA80F0010059
:10048000074908700748007810B907F0E1FC04E05C
:100490000348007808B907F0DCFC012010BD00001B
:1004A000980500205005002038B50122FBA1FC482A
:1004B00012F028F80446C4B100221146F7A013F048
:1004C0001AF8044614B14FF0FF3038BD0022F3A1F2
:1004D000F34812F017F804463CB10022EFA1104691
:1004E00012F010F86FF00100EFE7EEA1EE4812F005
:1004F000C0FC04463CB10022E8A1104612F002F80C
:100500006FF00200E1E70122E8A1EB4812F025F8C4
:1005100004463CB10022E1A1104611F0F3FF6FF058
:100520000300D2E76B464022E449E34812F0C7F8E3
:100530000446009878B3E04812F020FB0122E0A1C5
:10054000DD4812F00AF804463CB10022D3A110465F
:1005500011F0D8FF6FF00300B7E76B46C022DA490D
:10056000D54812F0ACF80446009848B1D24812F0D1
:1005700005FB0022C9A1104611F0C4FF0120A4E729
:10058000CD4812F0FBFA0022C4A1104611F0BAFFC8
:100590006FF0030099E7FFE7C74812F0EFFA002277
:1005A000BEA1104611F0AEFF6FF004008DE738B524
:1005B0000022BAA1BA4811F0A5FF0446C4B1002236
:1005C0001146B6A012F097FF044614B14FF0FF3069
:1005D00038BD0022B1A1B24811F094FF04463CB1ED
:1005E0000022AEA1104611F08DFF6FF00100EFE781
:1005F000ACA1AD4812F03DFC04463CB10022A7A1DD
:10060000104611F07FFF6FF00200E1E70A22A7A178
:10061000A94811F0A2FF04463CB100229FA1104658
:1006200011F070FF6FF00300D2E76B464022A34940
:10063000A14812F03DF9044674BB9F4812F09EFA9F
:100640000A229FA19C4811F088FF04463CB1002279
:1006500092A1104611F056FF6FF00300B8E76B4609
:10066000C0229949944812F023F904464CB99248A3
:1006700012F084FA002289A1104611F043FF0120F4
:10068000A6E78D4812F07AFA002284A1104611F0F4
:1006900039FF6FF003009BE7874812F06FFA0022E2
:1006A0007EA1104611F02EFF6FF0040090E710B508
:1006B0008648824BD3E900219B68C0E90E13426350
:1006C0007E4BD3E903215B69C0E9111302648048C2
:1006D0007A4B18330ECB08300EC07C4A774B24334C
:1006E0000BCB58320BC2754890ED0D0A774880ED60
:1006F000190A724890ED0E0A744880ED1A0A75487E
:10070000714C1ECC54301EC064386F49D1E9053499
:100710000A69C969C0E91A34426601676A4BD3E9BC
:1007200009141A6ADB6AC0E91F43C0E91D216A483F
:10073000654BD3E90C41D3E90E23C0E91541C0E96B
:1007400017236149D1E911430A6CC96CC0E91A4306
:10075000426601675C49D1E91434D1E91621C0E948
:100760001D34C0E91F2110BD10B500F081F905F05E
:1007700026FC05F043FC10BD10B50022012147A066
:1007800012F0B9FE9FED550A4F4880ED040A9FED27
:10079000530A80ED000A9FED520A80ED080A9FED92
:1007A000510A80ED060A9FED4F0A80ED020AB7EE6E
:1007B000000A80ED0A0AB0EE000A80ED050AB0EEEC
:1007C000000A80ED010AB7EE000A80ED090AB7EED3
:1007D000000A80ED070AB7EE000A80ED030AB7EEC3
:1007E000000A80ED0B0AB6EE000A80ED100AB6EEA4
:1007F000000A80ED0C0A9FED3C0A80ED140A9FED83
:100800003B0A80ED120A9FED390A80ED0E0A9FED3A
:10081000370A80ED160A9FED360A80ED110A9FED2A
:10082000340A80ED0D0A9FED2F0A80ED150AB7EE10
:10083000000A80ED200AB7EE000A80ED220AB7EE2A
:10084000000A80ED210AB7EE000A80ED240AB7EE17
:10085000000A80ED260AB7EE000A80ED250AB7EE01
:10086000000A80ED180AB7EE000A80ED1A0AB7EE0A
:10087000000A80ED190AB7EE000A80ED1C0AB7EEF7
:10088000000A80ED1E0AB7EE000A80ED1D0AFFF790
:100890008EFEFFF70CFFFFF767FF10BD303A000038
:1008A000A80700202F0000000028002073656E7349
:1008B0006F722E62696E0000D8170020A806002013
:1008C0007069642E62696E00E806002050310020D5
:1008D0006C0500201C280020E0280020CDCC4C3FD7
:1008E0009A99993FCDCCCC3DCDCC4C3ECDCC4C3D16
:1008F0009A99993E10B5FFF7D7FD0446002C04DA0B
:10090000FFF73AFF012051490870FFF7D0FEFFF7CB
:100910002BFF10BD10B504464D4894E80E0034304E
:100920000EC04C4894E80E000EC0494890ED190ADC
:10093000484880ED0D0AFFF73AFE10BD10B5044699
:10094000434894E80E0040300EC0424894E80E0040
:100950000C300EC03E4890ED1A0A3E4880ED0E0A5B
:10096000FFF725FE10BD10B504463B4894E80E0085
:1009700008300EC0374894E80E0018300EC0FFF75C
:1009800016FE10BD10B50446314894E80E005830EC
:100990000EC0304894E80E0024300EC0FFF707FE6A
:1009A00010BD10B52D482E49D1E916344A6D096E97
:1009B00080E81C00C16001462948D0E91A34426E23
:1009C000006FC1E905340A61C8612548D0E91E34C9
:1009D000426FD0F88000C1E909340A62C8620A4651
:1009E000204CD4E91530D4E91714C2E90E14C2E939
:1009F0000C3010461B49D1E91942D1E91B31C0E93D
:100A00001042C0E912311749D1E91D42D1E91F3125
:100A1000C0E91442C0E91631FFF7C9FD10BD10B599
:100A20001148008820B110480088401C0E490880F9
:100A30000D4800883C2807DD00200B4908800B4842
:100A4000007808B9FFF7ADFF10BD000004000020DA
:100A500050310020A80600206C050020E806002088
:100A60001C280020E028002058040020A8040020B2
:100A7000B7EE000AFE4880ED180AB7EE000A80EDD6
:100A80001C0AB7EE000A80ED200A9FEDFA0A80EDFD
:100A9000300A704710B52DED0E8BB0EE408AF64847
:100AA000D0ED000AB0EE600AF3EE0E0A01F067FF27
:100AB000DFEDF20A80EE201AB3EE090A21EE000AF9
:100AC000EF4880ED000AEC48D0ED010AF1EE600A33
:100AD000B0EE600AF3EE0E0A01F051FFDFEDE70A17
:100AE00080EE201AB3EE090A21EE000AE44880EDF8
:100AF000010AE448007808BBDF48D0ED030AB0EEF5
:100B0000600ADFEDE10A01F089FFDFEDDC0A80EE2B
:100B1000201A9FEDDE0A21EE000ABDEEC00A10EE9B
:100B2000100A00B200EE100AF8EEC00AD44890EDA8
:100B3000020A00EE880A80ED020A36E0D04890ED05
:100B4000020AD348D0ED000A30EEC00A10EE101AA7
:100B5000084613F068F941EC1C0B18EE100A13F06C
:100B600062F941EC1E0B9FEDCB0B53EC102B13F0F5
:100B7000D7F841EC1D0B53EC1C2B13F0D1F841ECD2
:100B80001A0BBF4890ED020A10EE101A084613F037
:100B90004AF941EC1B0B53EC1A2B13F01AF841ECF9
:100BA000190B13F083F9B6498860B548D0ED020AF5
:100BB000B0EE600A01F046FFB14880ED020AB74886
:100BC000D0ED000AAE4890ED001A70EE810AB448EC
:100BD00090ED001A70EEC10AB0EE600A01F032FF2B
:100BE000B04880ED000AAD48D0ED010AA44890ED70
:100BF000011A70EE810AAC4890ED001A70EEC10A3D
:100C0000B0EE600A01F01EFFA64880ED010AA3487D
:100C1000D0ED020A9A4890ED021A70EE810A9C48C3
:100C200090ED001A70EEC10AB0EE600A01F00AFF02
:100C30009C4880ED020A90ED000AB5EEC00AF1EE84
:100C400010FA02DD90ED000A04E0964890ED000AEB
:100C5000B1EE400AF3EE0E0A80EE201A914880EDC4
:100C60002D1A90ED010AB5EEC00AF1EE10FA02DD80
:100C700090ED010A04E08B4890ED010AB1EE400AC4
:100C8000F3EE0E0A80EE201A864880ED2E1A90EDC3
:100C9000020AB5EEC00AF1EE10FA02DD90ED020A8A
:100CA00004E0804890ED020AB1EE400AF3EE0E0A2D
:100CB00080EE201A7B4880ED2F1ADFED7C0A80EE53
:100CC000880AD0ED000A90ED031A70EEC10A90ED8B
:100CD000161AF2EE041A21EE211A60EE810A60EE75
:100CE000200A90ED2D1A9FED720ADFED721A01EEC7
:100CF000810A20EE800A80ED0C0ADFED6C0A80EE9E
:100D0000880AD0ED010A90ED041A70EEC10A90ED48
:100D10001A1AF2EE041A21EE211A60EE810A60EE30
:100D2000200A90ED2E1A9FED620ADFED621A01EEA5
:100D3000810A20EE800A80ED0D0ADFED5C0A80EE6C
:100D4000880AD0ED020A90ED051A70EEC10A90ED06
:100D50001E1AF2EE041A21EE211A60EE810A60EEEC
:100D6000200A90ED2F1A9FED520ADFED521A01EE84
:100D7000810A20EE800A80ED0E0A90ED170AD0ED70
:100D8000000A60EE200A90ED060A00EE880A80ED67
:100D9000060A90ED1B0AD0ED010A60EE200A90EDE4
:100DA000070A00EE880A80ED070A90ED1F0AD0EDD1
:100DB000020A60EE200A90ED080A00EE880A80ED33
:100DC000080A3D4890ED000AF6EE000A20EE200ADF
:100DD000F3EE090A20EE200A324880ED090A36486F
:100DE00090ED000AF6EE000A20EE200AF3EE090A62
:100DF00020EE200A2B4880ED0A0A2F4890ED000AC9
:100E0000F6EE000A20EE200AF3EE090A20EE200A90
:100E1000244880ED0B0A90ED060AD0ED090AF1EEA8
:100E2000600AB4EEE00AF1EE10FA04D290ED090A7D
:100E3000B1EE400A0FE01B4890ED060AD0ED090A1A
:100E4000B4EEE00AF1EE10FA02DD90ED090A02E0DC
:100E5000144890ED060A134880ED060A90ED070A43
:100E6000D0ED0A0AF1EE600AB4EEE00A26E00000D6
:100E70001C280020CDCC4C3E382B00200000FA432B
:100E8000A42900200C00002000002042000016438E
:100E9000240000201F85EB51B81E0940B029002016
:100EA0001C000020E0280020200000200AD7A33BDF
:100EB0006666263F3333B33E10000020F1EE10FA91
:100EC00004D290ED0A0AB1EE400A0FE0FC4890ED22
:100ED000070AD0ED0A0AB4EEE00AF1EE10FA02DDDC
:100EE00090ED0A0A02E0F64890ED070AF44880ED1A
:100EF000070A90ED080AD0ED0B0AF1EE600AB4EE95
:100F0000E00AF1EE10FA04D290ED0B0AB1EE400ABD
:100F10000FE0EB4890ED080AD0ED0B0AB4EEE00AC2
:100F2000F1EE10FA02DD90ED0B0A02E0E44890EDDC
:100F3000080AE34880ED080A90ED000ADFEDE10AB7
:100F4000B4EEE00AF1EE10FA02D29FEDDE0A0FE0F5
:100F5000DB4890ED000ADFEDDC0AB4EEE00AF1EECA
:100F600010FA02DD9FEDD80A02E0D54890ED000AA4
:100F7000D34880ED000A90ED010ADFEDD20AB4EE0D
:100F8000E00AF1EE10FA02D29FEDCE0A0FE0CC4853
:100F900090ED010ADFEDCC0AB4EEE00AF1EE10FAB2
:100FA00002DD9FEDC90A02E0C54890ED010AC44880
:100FB00080ED010A90ED020ADFEDC20AB4EEE00A0C
:100FC000F1EE10FA02D29FEDBF0A0FE0BC4890ED9F
:100FD000020ADFEDBD0AB4EEE00AF1EE10FA02DD1E
:100FE0009FEDB90A02E0B64890ED020AB44880EDE0
:100FF000020A90ED000AD0ED0C0A30EE200AD0ED86
:10100000060A30EE200AD0ED150A20EE200A80ED07
:10101000120A90ED010AD0ED0D0A30EE200AD0ED53
:10102000070A30EE200AD0ED190A20EE200A80EDE2
:10103000130A90ED020AD0ED0E0A30EE200AD0ED30
:10104000080A30EE200AD0ED1D0A20EE200A80EDBD
:10105000140A90ED000A80ED030A90ED010A80ED7C
:10106000040A90ED020A80ED050ABDEC0E8B10BD5E
:1010700010B52DED048B8AB0F0EE408AB0EE609A88
:10108000B0EE418A9FED910AB4EEC08AF1EE10FAFB
:1010900002D29FED8E0A0BE09FED8D0AB4EEC08A5E
:1010A000F1EE10FA02DD9FED8A0A01E0B0EE480A87
:1010B000B0EE408AB1EE680A30EE090A30EE080A56
:1010C0008DED040A38EE890A30EE480A8DED050AE6
:1010D00038EEC90A30EE080A8DED060AB1EE680A4C
:1010E00030EE490A30EE480A8DED070A002429E067
:1010F00004A800EB840090ED000ADFED760AB4EE60
:10110000E00AF1EE10FA02D29FED720A13E004A891
:1011100000EB840090ED000ADFED6F0AB4EEE00A08
:10112000F1EE10FA02DD9FED6C0A04E004A800EB7A
:10113000840090ED000A04A800EB840080ED000A12
:10114000601CC4B2042CD3DB9DED040AB5EEC00ACA
:10115000F1EE10FA02DD9DED040A03E09DED040AB4
:10116000B1EE400ADFED5D0A60EE200A9FED5A1AEB
:1011700080EE810ADFED5A0A30EE200ADDED040A26
:1011800020EE200A8DED000A9DED050AB5EEC00A9D
:10119000F1EE10FA02DD9DED050A03E09DED050A72
:1011A000B1EE400ADFED4D0A60EE200A9FED4A1ACB
:1011B00080EE810ADFED4A0A30EE200ADDED050AF5
:1011C00020EE200A8DED010A9DED060AB5EEC00A5B
:1011D000F1EE10FA02DD9DED060A03E09DED060A30
:1011E000B1EE400ADFED3D0A60EE200A9FED3A1AAB
:1011F00080EE810ADFED3A0A30EE200ADDED060AC4
:1012000020EE200A8DED020A9DED070AB5EEC00A18
:10121000F1EE10FA02DD9DED070A03E09DED070AED
:10122000B1EE400ADFED2D0A60EE200A9FED2A1A8A
:1012300080EE810ADFED2A0A30EE200ADDED070A92
:1012400020EE200A8DED030ADDED000A254890ED21
:10125000000A254890ED001A01EE200A234880ED8F
:10126000000ADDED010A1F4890ED000A1E4890EDCE
:10127000001A01EE200A1D4880ED010ADDED020A88
:10128000184890ED000A184890ED001A01EE200A67
:10129000164880ED020ADDED030A124890ED000ABF
:1012A000114890ED001A01EE200A104880ED030A63
:1012B0000F48007878B30F48007868BB002447E0F7
:1012C000E02800200000B4C20000B4420000C8C3FF
:1012D0000000C84300007AC400007A446666E63E17
:1012E000CDCC0C3F0800002010000020F029002089
:1012F000A80400200C000020FE4800EB840090EDC4
:10130000000ADFEDFD0AB4EEE00AF1EE10FA04D2B5
:101310009FEDF90A15E04BE01DE0F64800EB840074
:1013200090ED000A5FED140AB4EEE00AF1EE10FA57
:1013300002DD1FED170A04E0EE4800EB840090ED9B
:10134000000AEC4800EB840080ED000A601CC4B287
:10135000042CD1DB39E0002427E0E64800EB8400D0
:1013600090ED000AB5EEC00AF1EE10FA02D29FED40
:10137000E30A13E0DF4800EB840090ED000A5FED24
:101380002A0AB4EEE00AF1EE10FA02DD1FED2E0A91
:1013900004E0D84800EB840090ED000AD54800EB4B
:1013A000840080ED000A601CC4B2042CD5DB0CE084
:1013B000002408E09FEDD10ACE4800EB840080EDC8
:1013C000000A601CC4B2042CF4DBCA4890ED000A89
:1013D000BDEEC00A10EE100A00B2ADF82000C548FC
:1013E00090ED010ABDEEC00A10EE100A00B2ADF891
:1013F0002200C04890ED020ABDEEC00A10EE100AAD
:1014000000B2ADF82400BB4890ED030ABDEEC00A5F
:1014100010EE100A00B2ADF826004FF47A720021E7
:1014200008A805F056FC0AB0BDEC048B10BD10B541
:101430002DED028BB0EE408AB14890ED020ADFED4F
:10144000B10A30EE200AB04880ED000AD0ED000A63
:101450001FED611A80EE810AAC48D0ED000A70EEF3
:10146000600A9FEDAB0A28EE001A90ED000A01EE2B
:10147000200A80ED000A90ED000AB5EEC00AF1EEF8
:1014800010FA02D29FED9D0A0FE0A04890ED000AED
:10149000F7EE000AB4EEE00AF1EE10FA02DDB7EE64
:1014A000000A02E0994890ED000A9A4880ED000A8F
:1014B000954890ED000ADFED980AB4EEE00AF1EEEF
:1014C00010FA03D201209549087002E000209349E8
:1014D00008708D48D0ED000AB0EE480A04F0A7FC71
:1014E0008C4890ED000A8E48D0ED000A20EE200ACC
:1014F0008C4880ED000A90ED000AB5EEC00AF1EECE
:1015000010FA02D29FED7D0A0FE0864890ED000AA6
:10151000DFED850AB4EEE00AF1EE10FA02DD9FED90
:10152000820A02E07F4890ED000A7E4880ED000AC2
:10153000BDEC028B10BD00B52DED028B83B0B0EE7B
:10154000408A7A4890ED120AF3EE0E0A80EE201AD5
:101550009FED770A21EE000A8DED000AD0ED130A07
:10156000B3EE0E1A80EE810ADFED710A20EE200A3A
:101570008DED010A90ED140AF3EE0E0A80EE201AAA
:101580009FED6B0A21EE000A8DED020A9DED000A27
:10159000684880ED000A9DED010A80ED010A9DED8D
:1015A000020A80ED020A90ED000ADFED630AB4EE54
:1015B000E00AF1EE10FA02D29FED5F0A0FE05D48FB
:1015C00090ED000ADFED5A0AB4EEE00AF1EE10FAEF
:1015D00002DD9FED570A02E0564890ED000A55489B
:1015E00080ED000A90ED010ADFED530AB4EEE00A47
:1015F000F1EE10FA02D29FED500A0FE04D4890ED47
:10160000010ADFED4B0AB4EEE00AF1EE10FA02DD5A
:101610009FED470A02E0474890ED010A454880EDFA
:10162000010A90ED020ADFED440AB4EEE00AF1EEA1
:1016300010FA02D29FED400A0FE03E4890ED020AF8
:10164000DFED3B0AB4EEE00AF1EE10FA02DD9FEDA9
:10165000380A02E0374890ED020A364880ED020A67
:10166000DFED360A80EE880A3548D0ED0A0A3548A3
:1016700090ED001A70EEC10A20EE200A324880ED8B
:101680000F0ADFED2E0A80EE880A2D48D0ED0B0AF6
:10169000F1EE600A2B4890ED011A70EEC10A20EEBF
:1016A000200A294880ED100ADFED240A80EE880A1E
:1016B0002348D0ED0C0AF1EE600A224890ED021AA0
:1016C00070EEC10A20EE200A1F4880ED110A194869
:1016D00090ED000A1A48D0ED0A0A30EE600AF7EEE3
:1016E000000A20EE200A184880ED000A114890ED0B
:1016F000010A2BE0F0290020000048430000000010
:10170000382B00200000FA431400002018000020AD
:101710003433FB41100000200000C8420C000020C0
:10172000D00400200800002000004844E0280020E9
:1017300000009643C8290020000096C36F12033BA7
:1017400050310020D42900201C280020FE48D0ED74
:101750000B0A30EE200AF7EE000A20EE200AFB48C2
:1017600080ED010AFA4890ED020AF748D0ED0C0A24
:1017700030EE200AF7EE000A20EE200AF34880ED52
:10178000020A90ED000AB5EEC00AF1EE10FA02DD91
:1017900090ED000A04E0ED4890ED000AB1EE400A39
:1017A0005FED1D0A80EE201AE84880ED2D1A90EDBD
:1017B000010AB5EEC00AF1EE10FA02DD90ED010A61
:1017C00004E0E24890ED010AB1EE400A5FED280A1C
:1017D00080EE201ADD4880ED2E1A90ED020AB5EE5B
:1017E000C00AF1EE10FA02DD90ED020A04E0D748DB
:1017F00090ED020AB1EE400ADFEDD60A80EE201A23
:10180000D24880ED2F1A5FED330A80EE880AD0EDC2
:10181000160A90ED0F1AFAEE041A21EE211A60EE64
:10182000810A20EE200A80ED0C0A5FED3C0A80EE72
:10183000880AD0ED1A0A90ED101AFAEE041A21EE79
:10184000211A60EE810A20EE200A80ED0D0A5FED7C
:10185000450A80EE880AD0ED1E0A90ED111AFAEEC4
:10186000041A21EE211A60EE810A20EE200A80ED92
:101870000E0A90ED000AD0ED0F0A30EE600AD0EDAE
:10188000170A60EE200A90ED060A00EE880A80ED45
:10189000060A90ED010AD0ED100A30EE600AD0ED94
:1018A0001B0A60EE200A90ED070A00EE880A80ED20
:1018B000070A90ED020AD0ED110A30EE600AD0ED71
:1018C0001F0A60EE200A90ED080A00EE880A80EDFB
:1018D000080AA14890ED000AF6EE000A20EE200A60
:1018E0005FED6D0A20EE200A984880ED090A9A48BB
:1018F00090ED000AF6EE000A20EE200A5FED740A71
:1019000020EE200A914880ED0A0A934890ED000AE3
:10191000F6EE000A20EE200A5FED7B0A20EE200A98
:101920008A4880ED0B0A90ED060AD0ED090AF1EE27
:10193000600AB4EEE00AF1EE10FA04D290ED090A62
:10194000B1EE400A0FE0814890ED060AD0ED090A99
:10195000B4EEE00AF1EE10FA02DD90ED090A02E0C1
:101960007A4890ED060A794880ED060A90ED070A5C
:10197000D0ED0A0AF1EE600AB4EEE00AF1EE10FAD8
:1019800004D290ED0A0AB1EE400A0FE06F4890EDE4
:10199000070AD0ED0A0AB4EEE00AF1EE10FA02DD11
:1019A00090ED0A0A02E0694890ED070A674880ED69
:1019B000070A90ED080AD0ED0B0AF1EE600AB4EECA
:1019C000E00AF1EE10FA04D290ED0B0AB1EE400AF3
:1019D0000FE05E4890ED080AD0ED0B0AB4EEE00A85
:1019E000F1EE10FA02DD90ED0B0A02E0574890ED9F
:1019F000080A564880ED080A90ED300AF7EE000A12
:101A000030EEC00AD0ED150A20EE200AD0ED000A13
:101A100090ED0C1A70EE810A90ED061A70EE810AB4
:101A200060EE200A90ED301A4C48D0ED2D1A9FED53
:101A30004C0A9FED4C2A02EE210AB5EEC00AF1EEE7
:101A400010FA02D21FEDD30A1BE04448D0ED2D1A44
:101A50009FED430A9FED432A02EE210AF7EE001A9A
:101A6000B4EEE10AF1EE10FA02DDB7EE000A08E08A
:101A70003A48D0ED2D1A9FED3A0A9FED3A2A02EE30
:101A8000210A21EE000A324890ED001A40EE010AC8
:101A9000B0EE080A20EE800A2C4880ED120A90ED84
:101AA000300AF7EE000A30EEC00AD0ED190A20EE37
:101AB000200AD0ED010A90ED0D1A70EE810A90ED2A
:101AC000071A70EE810A60EE200A90ED301A234862
:101AD000D0ED2E1A9FED220A9FED222A02EE210A56
:101AE000B5EEC00AF1EE10FA02D21FEDFC0A1BE0BF
:101AF0001A48D0ED2E1A9FED1A0A9FED1A2A02EE0F
:101B0000210AF7EE001AB4EEE10AF1EE10FA02DD56
:101B1000B7EE000A08E01148D0ED2E1A9FED100A2A
:101B20009FED102A02EE210A21EE000A084890EDEE
:101B3000011A40EE010AB0EE080A20EE800A0348BE
:101B400080ED130A10E00000503100201C28002016
:101B5000C82900200000164310000020E0280020C3
:101B60006666E63ECDCC0C3F90ED300AF7EE000AFB
:101B700030EEC00AD0ED1D0A20EE200AD0ED020A98
:101B800090ED0E1A70EE810A90ED081A70EE810A3F
:101B900060EE200A90ED301A3A48D0ED2F1A1FED72
:101BA000100A1FED102A02EE210AB5EEC00AF1EE6E
:101BB00010FA02D29FED340A1BE03248D0ED2F1A02
:101BC0001FED190A1FED192A02EE210AF7EE001A7D
:101BD000B4EEE10AF1EE10FA02DDB7EE000A08E019
:101BE0002848D0ED2F1A1FED220A1FED222A02EEFF
:101BF000210A21EE000A254890ED021A40EE010A62
:101C0000B0EE080A20EE800A214880ED140AB0EEFA
:101C1000480AFFF70CFC1E48D0ED141AB0EE611A0A
:101C2000D0ED131AF0EE610AD0ED121AB0EE610A8F
:101C3000FFF71EFA164890ED000A80ED030A90EDBA
:101C4000010A80ED040A90ED020A80ED050A1148B0
:101C500090ED0A0A104880ED000A0E4890ED0B0A3C
:101C6000B1EE400A0C4880ED010A0A4890ED0C0ADA
:101C7000B1EE400A084880ED020A03B0BDEC028BC9
:101C800000BD0000E028002000000000C82900205E
:101C90001C28002050310020D429002070B52DEDE3
:101CA000108BB0EE408AB0EE60EAF0EE41EAB0EEA2
:101CB00061FAF0EE429AB0EE629AF0EE438A044680
:101CC0000D4616469FEDFB0A28EE000AF3EE040AC5
:101CD00020EE200AF0EE40AAF748D0ED080A60EEA8
:101CE000A00A90ED091AD0ED091A41EE210A90EDF3
:101CF0000A1AD0ED0A1A41EE210AB0EE600A00F08D
:101D000006FDEE4880ED000A90ED000AB5EEC00A2F
:101D1000F1EE10FA38D0E84890ED080AE748D0ED27
:101D2000000A80EE201AE64890ED000A71EE400AA3
:101D300090ED000A0AEEA00A80ED000ADE4890ED60
:101D4000090ADE48D0ED000A80EE201ADC4890ED4A
:101D5000010A71EE400A90ED010A0AEEA00A80ED38
:101D6000010AD548D0ED0A0AD44890ED001A80EE59
:101D7000810AD348D0ED020A70EE600A90ED020AA3
:101D80000AEEA00A80ED020ACE4ACD49CE4803F001
:101D900034FBCC48D0ED000A60EEA00A90ED011AA9
:101DA000D0ED011A41EE210AB0EE600A00F0AFFC5E
:101DB000C64880ED000AC34890ED000AB5EEC00A9F
:101DC000F1EE10FA36D090ED010AB5EEC00AF1EE50
:101DD00010FA2FD090ED020AB5EEC00AF1EE10FA1B
:101DE00028D0BA4890ED000AB5EEC00AF1EE10FA1C
:101DF00020D0B44890ED000AB448D0ED000A80EE3F
:101E0000201AB0EE41BAAF4890ED010AAF48D0EDCC
:101E1000000A80EE201AF0EE41BAF0EE4B0AB0EE66
:101E20006B0A00F0B4FBDFEDAA0A20EE200AA948F5
:101E300080ED000AA84890ED010AD0ED030A20EEDB
:101E4000200AD0ED000A90ED021A00EEC10AF0EE71
:101E5000000A20EE200A9C4880ED000A9E4890ED82
:101E6000000AD0ED010A20EE200AD0ED020A90ED22
:101E7000031A00EE810AF0EE000A20EE200A9248D2
:101E800080ED010A944890ED010A20EE000AD0EDA1
:101E9000020A90ED021A00EE810AF7EE000AB0EE97
:101EA000001A41EE400A8848C0ED020A69EEA90A0C
:101EB00049EE090A48EEA80AB0EE600A00F027FCD5
:101EC000864880ED000A9FED7B0A28EE000AF2EEBC
:101ED000040A60EE200A90ED000A814890ED001A95
:101EE00030EE411A90ED000A00EE810A80ED000A02
:101EF000F5EEC09AF1EE10FA02DDB0EE690A01E0EB
:101F0000B1EE690ADFED770AB4EEE00AF1EE10FAFD
:101F10007DD2B5EEC09AF1EE10FA02DDB0EE490ABC
:101F200001E0B1EE490ADFED6F0AB4EEE00AF1EE2E
:101F300010FA78D2F5EEC08AF1EE10FA02DDB0EEBA
:101F4000680A01E0B1EE680ADFED660AB4EEE00A65
:101F5000F1EE10FA67D2614890ED000AC9EE800AEE
:101F6000F0EE609A90ED000AC9EE000AB0EE609AB9
:101F700090ED000AC8EE800AF0EE608A90ED000A4B
:101F8000DFED590AB4EEE00AF1EE10FA54DD90EDFF
:101F9000000ADFED540AB4EEE00AF1EE10FA4BD27B
:101FA000494890ED020A20EE090AD0ED010A08EE38
:101FB000E00A4E4880ED030A434890ED000A20EE07
:101FC000280AD0ED020A09EEE00A484880ED040A2A
:101FD0009FED380A28EE000AF7EE000A20EE20AA4C
:101FE00090ED030AD0ED060A70EE600A90ED060A45
:101FF0000AEE200A80ED060A90ED040AD0ED070AE9
:1020000070EE600A90ED070A0AEE200A00E00AE08E
:1020100080ED070A90ED060A80ED000A90ED070AB0
:1020200080ED010A08E09FED320A304880ED000A99
:102030009FED2F0A80ED010A2C4890ED090AD0EDA2
:10204000000A9FED2C1A60EE810AB0EE001A60EED5
:10205000810A00EE880A80ED090A90ED0A0AD0EDA7
:10206000010A9FED241A60EE810AB0EE001A60EEBC
:10207000810A00EE880A80ED0A0A90ED0B0AD0ED85
:10208000020A9FED1C1A60EE810AB0EE001A60EEA3
:10209000810A00EE880A80ED0B0A90ED090ADFED57
:1020A000160AB4EEE00AF1EE10FA27D29FED120AFA
:1020B00034E00000C3F5C8406C0500204800002053
:1020C000742A0020682A0020202A002044000020D2
:1020D00033336542500000202800002038000020E3
:1020E000400000200080894500806D452C2A00209A
:1020F00000000000CDCCCC3D34FA0EBDFE4890ED82
:10210000090ADFEDFE0AB4EEE00AF1EE10FA02DD94
:102110009FEDFA0A02E0F84890ED090AF64880EDD2
:10212000090A90ED0A0A5FED0C0AB4EEE00AF1EE3E
:1021300010FA02D21FED100A0FE0EF4890ED0A0AE4
:10214000DFEDEE0AB4EEE00AF1EE10FA02DD9FEDEB
:10215000EB0A02E0E84890ED0A0AE74880ED0A0A37
:1021600090ED0B0A5FED1C0AB4EEE00AF1EE10FAF6
:1021700002D21FED1F0A0FE0DF4890ED0B0ADFEDE2
:10218000DF0AB4EEE00AF1EE10FA02DD9FEDDB0AA1
:1021900002E0D94890ED0B0AD74880ED0B0AD848E9
:1021A00090ED020AB5EEC00AF1EE10FA29DDD5482D
:1021B000007898B1D448D0ED000AD44890ED001AC8
:1021C00070EEC10AB0EE600A00F03CFCDFEDD00A10
:1021D00020EE200ACF4880ED000A12E0CA48D0ED78
:1021E000000ACA4890ED001A70EEC10AB0EE600A0B
:1021F00000F028FCDFEDC80A20EE200AC54880ED7B
:10220000000ABD4890ED000AD0ED090A30EE200A20
:10221000DFEDC20A20EE200AB94890ED001ABD4851
:10222000D0ED001AF0EE4E0A41EE610A9FEDBC1AA5
:1022300000EE810AB04880ED0C0A90ED010AD0ED65
:102240000A0A30EE200ADFEDB50A20EE200AAC487B
:1022500090ED011AAF48D0ED001AF0EE6E0A41EE93
:10226000610A9FEDAF1A00EE810AA34880ED0D0AC6
:10227000A348D0ED020AA74890ED001AB0EE4F0A2D
:1022800000EEC10ADFEDA60A20EE200A9A4880ED92
:102290000E0AA44890ED010AB1EE400A9648D0ED2E
:1022A0000C0A20EE200A9F48D0ED020A924890EDD9
:1022B0000D1A00EEC10A9B48D0ED030A8E4890ED3E
:1022C0000E1A00EEC10A9748D0ED000A40EE080A47
:1022D000C0ED000A90ED000A8748D0ED0C0A20EE10
:1022E000200A9048D0ED020A834890ED0E1A00EEC5
:1022F000810A8C48D0ED030A7F4890ED0D1A00EE5C
:10230000C10A8848D0ED010A40EE080AC0ED010A72
:1023100090ED000A7848D0ED0D0A20EE200A8148A1
:10232000D0ED010A744890ED0E1A00EEC10A7D4806
:10233000D0ED030A704890ED0C1A00EE810A79483E
:10234000D0ED020A40EE080AC0ED020A90ED000A44
:102350006948D0ED0E0A20EE200A7248D0ED010A3D
:10236000654890ED0D1A00EE810A6E48D0ED020A24
:10237000614890ED0C1A00EEC10A6A48D0ED030ADC
:1023800040EE080AC0ED030AD0ED000A60EEA00A94
:1023900090ED011AD0ED011A41EE210A90ED021ADA
:1023A000D0ED021A41EE210A90ED031AD0ED031A86
:1023B00041EE210AB0EE600A00F0A9F95A4880ED1A
:1023C000000A584890ED000A5748D0ED000A80EE08
:1023D000201A544880ED001A90ED010A5248D0EDC1
:1023E000000A80EE201A4F4880ED011A90ED020A93
:1023F0004D48D0ED000A80EE201A4A4880ED021ABE
:1024000090ED030A4848D0ED000A80EE201A4548B6
:1024100080ED031A90ED011A21EE011AD0ED021A97
:1024200090ED022A01EE821AF7EE001AB0EE002AB1
:1024300042EE411AF0EE610A90ED001AD0ED011A59
:1024400021EE211AD0ED021A90ED032A01EE821A34
:10245000F0EE001A21EE211AB0EE410A00F097F8D2
:102460005FEDE50A20EE200A84ED000A2D4890ED8C
:10247000010AD0ED030A20EE200AD0ED000A90ED0B
:10248000021A00EEC10AF0EE000A20EE200A10EE59
:10249000101A084611F0C7FC41EC1D0BB0EE4D0AB6
:1024A000F0EE6D0A11F0F8FEB0EE40CAF0EE60CA30
:1024B0009FED1E0B53EC102B51EC1C0B11F030FC5C
:1024C00041EC1B0B11F0F2FC2860164890ED001A4D
:1024D00021EE011AD0ED011A90ED012A01EE821AC7
:1024E000F7EE001AB0EE002A52EE011AF0EE610A81
:1024F00090ED011A1EE000002C2A002034FA0E3D57
:10250000202A0020A80400205000002024000020E1
:1025100090C2F53D4C0000206766663F9A99193FCE
:1025200034FA8E3C280000203C00002000000060AF
:1025300066A64C40B1EE411AD0ED021A21EE211AE6
:10254000D0ED001A90ED032A01EEC21AF0EE001A47
:1025500021EE211AB0EE410A00F019F8DFED040A6D
:1025600020EE200A86ED000ABDEC108B70BD000045
:1025700033336542F0EE400AF5EEC00AF1EE10FA90
:1025800002DBB0EE600A7047B1EE600AFBE700B50F
:10259000B0EE403AB0EE602AB5EEC03AF1EE10FA75
:1025A00007D1B5EEC02AF1EE10FA02D19FEDFD1A67
:1025B00099E0B0EE430AFFF7DDFFF0EE403AB0EEEF
:1025C000420AFFF7D7FFF0EE402AF4EEE23AF1EECE
:1025D00010FA02D283EEA24A01E082EEA34A9FEDF6
:1025E000F20AB4EEC04AF1EE10FA02D2F0EE441A4A
:1025F0002DE0DFEDEE0AB6EE000A14EE200AF0EE52
:10260000404ABDEEE40A10EE100A00EE100AB8EEE1
:10261000C00A34EEC00AF0EE404AE54901EB800101
:1026200091ED000AF0EE401AE14A411C02EB8101F3
:1026300091ED000A114601EB8001D1ED000A70EE28
:10264000600AB0EE610A00EEA40AF0EE401AF4EE61
:10265000E32AF1EE10FA20DDB5EEC02AF1EE10FA11
:102660000ADBB5EEC03AF1EE10FA02DBB0EE611A09
:1026700039E0B1EE611A36E09FEDCE1AB5EEC03A00
:10268000F1EE10FA04DB31EE610AB0EE401A2AE0F6
:1026900031EEC10AB0EE401A25E0B5EEC03AF1EED7
:1026A00010FA10DB9FEDC41AB5EEC02AF1EE10FA55
:1026B00004DB31EE610AB0EE401A14E031EE210A7B
:1026C000B0EE401A0FE09FEDBD1AB5EEC02AF1EE54
:1026D00010FA04DB31EE210AB0EE401A03E031EECD
:1026E000610AB0EE401AB0EE410A00BD00B5B0EE8E
:1026F000405AF0EE605AF0EE450AB0EE650AFFF778
:1027000046FF00BDF0EE400A20EEA00A7047B0EE92
:10271000401AB7EE080AB0EE402AB6EE000A21EEE3
:10272000000AF0EE401AF0EE410A10EE900AA449B9
:10273000A1EB600000EE900A61EEA02AB7EE080A55
:1027400002EEE00A20EE200AF0EE400A61EEA02A36
:10275000B7EE080A02EEE00A20EE200AF0EE400A88
:1027600021EE200A704710B52DED0A8BB0EE409A8D
:10277000F0EE609A9FED930B53EC102B51EC190B7C
:1027800011F064FB18D29FED910B53EC102B51EC20
:10279000190B11F0C5FA41EC1B0B9FED8E0B53EC9E
:1027A000102B11F016FA41EC1A0B53EC192B11F007
:1027B000B7FA41EC180B17E09FED840B53EC102B8C
:1027C00051EC190B11F0ACFA41EC1B0B9FED810B96
:1027D00053EC102B11F0A1FA41EC1A0B53EC192B0E
:1027E00011F09EFA41EC180B9FED760B53EC102B79
:1027F00051EC180B11F02AFB20D29FED780B53EC13
:10280000102B51EC180B11F0E4F941EC1C0B9FED6F
:10281000750B53EC102B11F083FA41EC1B0B9FED61
:102820006F0B53EC102B11F0D4F941EC1A0B53EC55
:10283000182B11F075FA41EC180B1FE09FED670B98
:1028400053EC102B51EC180B11F064FA41EC1C0BFB
:102850009FED660B53EC102B11F062FA41EC1B0B51
:102860009FED5E0B53EC102B11F0B3F941EC1A0BFA
:1028700053EC182B11F054FA41EC180BB0EE480A47
:10288000F0EE680ABDEC0A8B10BD10B52DED068B7D
:10289000B0EE408AF0EE608A01249FED560B53ECB7
:1028A000102B51EC180B11F0E9FA0AD89FED510BDF
:1028B00053EC102B51EC180B11F02CFA41EC180BC7
:1028C000A41E204611F09EFA41EC190BB0EE480A06
:1028D000F0EE680AFFF747FFB0EE40AAF0EE60AAFC
:1028E00053EC192B51EC1A0B11F01AFA41EC100BA6
:1028F000BDEC068B10BD10B52DED088BB0EE408AF7
:10290000F0EE608A01249FED3D0B53EC102B51EC4F
:10291000180B11F05EF941EC180B9FED360B53ECE0
:10292000102B51EC180B11F0A9FA0AD8A41E9FED38
:10293000310B53EC102B51EC180B11F0EBF941EC6F
:10294000180B204611F05EFA41EC1A0BB0EE480A63
:10295000F0EE680AFFF799FFB0EE40BAF0EE60BA09
:1029600053EC1A2B51EC1B0B11F0DAF941EC190B5B
:1029700011F09CFA00EE100ABDEC088B10BDB0EE11
:10298000401AB5EEC01AF1EE10FA3BDD31EE600AE6
:10299000B5EEC00AF1EE10FA3FD2DFED021AB0EE4A
:1029A000610A3AE0000000008180803B0000804323
:1029B00054000020DB0F4940DB0FC93FDB0FC9BFCC
:1029C000DF59375F000000000000000000000060D9
:1029D0002FF0D93F00000060305FF43F000000009E
:1029E0000000F03F000000C0CCCCCCBF000000C015
:1029F000CCCCCC3FF1D4C853FB210940F1D4C8530F
:102A0000FB21F93F31EE200AB5EEC00AF1EE10FAD3
:102A100003DD5FED1C1AB0EE610A7047B0EE401A9C
:102A2000F1EE601AB4EEE11AF1EE10FA07DDB4EE41
:102A3000E01AF1EE10FA02D21FED260A01E0B0EE24
:102A4000410A7047F0EE400A9FED210AF4EEC00AF9
:102A5000F1EE10FA04DD9FED1F0A30EEC00A704758
:102A60009FED1D0AF4EEC00AF1EE10FA04D29FEDBC
:102A7000190A30EE800AF2E7B0EE600AEFE7F0EEF6
:102A8000401AB7EE000AF4EEC00AF1EE10FA04DCC8
:102A9000F5EEC00AF1EE10FA02D21FED3E0A7047C1
:102AA00081EE810AB5EEC00AF1EE10FA02DD81EE88
:102AB000810A03E081EE810AB1EE400A20EE202A6D
:102AC000B7EE000A30EE600A02EE210AE7E70000E6
:102AD000000034430000B443000034C370B5054621
:102AE0000C462146F84805F070FA70BD2DE9F04318
:102AF0002DED028B83B005460E4617469846B0EE84
:102B0000408A0024AA222146641CEF4842542146F0
:102B1000641C425404222146641C42540022214673
:102B2000641C42542146641C45542146641C46548E
:102B300001979DF807202146641C42549DF8062009
:102B40002046611CCCB2E0490A549DF8052020467D
:102B5000611CCCB2DC490A549DF804202046611C5B
:102B6000CCB2D9490A54CDF804809DF807202046FC
:102B7000611CCCB2D4490A549DF806202046611C41
:102B8000CCB2D1490A549DF805202046611CCCB234
:102B9000CD490A549DF804202046611CCCB2CA4994
:102BA0000A549FEDCA0A28EE000ABDEEC00A10EED4
:102BB000100A00B202909DF809202046611CCCB298
:102BC000C1490A549DF808202046611CCCB2BE4978
:102BD0000A54201FC8704FF00009002006E0BA49CF
:102BE000095C494401F0FF09411CC8B2A042F6DB70
:102BF0002046611CCCB2B44901F800902146B2488D
:102C0000FFF76CFF03B0BDEC028BBDE8F08370B53D
:102C10002DED0A8B82B00546B0EE408AF0EE608A58
:102C2000B0EE419AF0EE619AB0EE42AAF0EE62AADE
:102C3000B0EE43BAF0EE63BAB0EE44CA0024AA2262
:102C40002146641CA04842542146641C425405F1AC
:102C50000F00C2B22146641C9B4842540022214608
:102C6000641C42549FED9A0A28EE000ABDEEC00A89
:102C700010EE100A00B201909DF805202146641C58
:102C8000914842549DF804202146641C42549FED13
:102C9000900A28EE800ABDEEC00A10EE100A00B2BB
:102CA00001909DF805202146641C874842549DF8F8
:102CB00004202046611CCCB283490A549FED840A4B
:102CC00029EE000ABDEEC00A10EE100A00B2019013
:102CD0009DF805202046611CCCB27B490A549DF822
:102CE00004202046611CCCB277490A549FED780A33
:102CF00029EE800ABDEEC00A10EE100A00B2019063
:102D00009DF805202046611CCCB26F490A549DF8FD
:102D100004202046611CCCB26B490A549FED6C0A1A
:102D20002AEE000ABDEEC00A10EE100A00B20190B1
:102D30009DF805202046611CCCB263490A549DF8D9
:102D400004202046611CCCB25F490A549FED600A02
:102D50002AEE800ABDEEC00A10EE100A00B2019001
:102D60009DF805202046611CCCB257490A549DF8B5
:102D700004202046611CCCB253490A549FED540AEA
:102D80002BEE000ABDEEC00A10EE100A00B2019050
:102D90009DF805202046611CCCB24B490A549DF891
:102DA00004202046611CCCB247490A549FED480AD2
:102DB0002BEE800ABDEEC00A10EE100A00B20190A0
:102DC0009DF805202046611CCCB23F490A549DF86D
:102DD00004202046611CCCB23B490A549FED3C0ABA
:102DE0002CEE000ABDEEC00A10EE100A00B20190EF
:102DF0009DF805202046611CCCB233490A549DF849
:102E000004202046611CCCB22F490A54201FC870F0
:102E10000026002005E02C49095C3144CEB2411C5B
:102E2000C8B2A042F7DB2046611CCCB226490E5442
:102E300021462548FFF752FE02B0BDEC0A8B70BD5B
:102E4000F8B505460E460024AA222146641C1E48F9
:102E500042542146641C425405222146641C4254BB
:102E600000222146641C425400959DF80120214611
:102E7000641C42549DF800202146641C4254009674
:102E80009DF801202146641C42549DF800202146F3
:102E9000601CC4B20C484254201F0B49C870002764
:102EA000002005E00849095C3944CFB2411CC8B292
:102EB000A042F7DB2046611CCCB203490F542146E7
:102EC0000148FFF70BFEF8BD912A00200000C84220
:102ED00000007A447FB50024AA222146641CFE48E3
:102EE00042542146641C425406222146641C42542A
:102EF00000222146641C42549DF801202146641C96
:102F000042549DF800202146641C42549DF805203F
:102F10002146641C42549DF804202046611CCCB21A
:102F2000ED490A549DF809202046611CCCB2EA49BB
:102F30000A549DF808202046611CCCB2E6490A5488
:102F40009DF80D202046611CCCB2E3490A549DF83F
:102F50000C202146601CC4B2DF4842549DF8212059
:102F60002046611CCCB2DC490A549DF82020204642
:102F7000611CCCB2D8490A549DF825202046611C1A
:102F8000CCB2D5490A549DF824202046611CCCB20D
:102F9000D1490A549DF829202046611CCCB2CE4963
:102FA0000A549DF828202046611CCCB2CA490A5414
:102FB0009DF82D202046611CCCB2C7490A549DF8CB
:102FC0002C202046611CCCB2C3490A54201FC87073
:102FD0000025002005E0C049095C2944CDB2411C10
:102FE000C8B2A042F7DB2046611CCCB2BA490D54EE
:102FF0002146B948FFF772FD7FBD7FB50024AA22A4
:103000002146641CB44842542146641C42540322A5
:103010002146641C425400222146641C42549DF8FF
:1030200001202146641C42549DF800202146641C66
:1030300042549DF805202146641C42549DF804200A
:103040002046611CCCB2A4490A549DF809202046B0
:10305000611CCCB2A0490A549DF808202046611C8E
:10306000CCB29D490A549DF80D202046611CCCB27B
:1030700099490A549DF80C202046611CCCB296490F
:103080000A549DF821202046611CCCB292490A5472
:103090009DF820202146601CC4B28F4842549DF800
:1030A00025202046611CCCB28B490A549DF824206F
:1030B0002046611CCCB288490A549DF8292020463C
:1030C000611CCCB284490A549DF828202046611C1A
:1030D000CCB281490A549DF82D202046611CCCB207
:1030E0007D490A549DF82C202046611CCCB27A49B7
:1030F0000A549DF831202046611CCCB276490A540E
:103100009DF830202046611CCCB273490A549DF8CA
:1031100035202046611CCCB26F490A549DF83420FA
:103120002046611CCCB26C490A54201FC87000258F
:10313000002005E06849095C2944CDB2411CC8B2B1
:10314000A042F7DB2046611CCCB263490D542146F6
:103150006148FFF7C3FC7FBD73B50024AA22214656
:10316000641C5D4842542146641C42540722214697
:10317000641C425400222146641C42549DF80320E2
:103180002146641C42549DF802202146641C42548E
:103190009DF801202146641C42549DF800202046E1
:1031A000611CCCB24C490A549DF805202046611C94
:1031B000CCB249490A549DF804202046611CCCB287
:1031C00045490A54201FC8700025002005E04249E7
:1031D000095C2944CDB2411CC8B2A042F7DB2046AD
:1031E000611CCCB23C490D5421463B48FFF776FCAC
:1031F0007CBD2DE9F84F05460E4617469846DDE999
:103200000AAB0024AA222146641C334842542146BA
:10321000641C425402222146641C4254002221466E
:10322000641C425400959DF801202146641C4254C0
:103230009DF800202146641C425400969DF8012010
:103240002146641C42549DF800202146601CC4B2F3
:103250002148425400979DF801202046611CCCB2C1
:103260001D490A549DF800202046611CCCB21A4921
:103270000A54CDF800809DF801202046611CCCB294
:1032800015490A549DF800202046611CCCB2124911
:103290000A54CDF800A09DF801202046611CCCB254
:1032A0000D490A549DF800202046611CCCB20A4901
:1032B0000A54CDF800B09DF801202146601CC4B22C
:1032C000054842549DF800202146601CC4B20248C3
:1032D00042540C98009001E0912A00209DF80120B2
:1032E0002046611CCCB2F8490A549DF800202046C3
:1032F000611CCCB2F4490A540D9800909DF801204D
:103300002046611CCCB2F0490A549DF800202046AA
:10331000611CCCB2EC490A540E9800909DF8012033
:103320002046611CCCB2E8490A549DF80020204692
:10333000611CCCB2E4490A54002000909DF80120A1
:103340002046611CCCB2E0490A549DF8002020467A
:10335000611CCCB2DC490A54201FC8704FF0000930
:10336000002006E0D849095C494401F0FF09411CEE
:10337000C8B2A042F6DB2046611CCCB2D24901F8AB
:1033800000902146D048FFF7A9FBBDE8F88F38B57B
:103390000024AA222146641CCB4842542146641CC6
:1033A0004254F1222146641C425400222146641CEE
:1033B0004254002000909DF801202146641CC24820
:1033C00042549DF800202146641C4254BF4890EDB1
:1033D000000ABDEEC00A10EE100A00B200909DF87F
:1033E00001202146641CB84842549DF80020204624
:1033F000611CCCB2B4490A54B44890ED000ABDEE49
:10340000C00A10EE100A00B200909DF8012020467C
:10341000611CCCB2AC490A549DF800202046611CC6
:10342000CCB2A9490A54002000909DF80120204602
:10343000611CCCB2A4490A549DF800202046611CAE
:10344000CCB2A1490A54002000909DF801202046EA
:10345000611CCCB29C490A549DF800202046611C96
:10346000CCB299490A54201FC8700025002005E0FD
:103470009549095C2944CDB2411CC8B2A042F7DB92
:103480002046611CCCB290490D5421468E48FFF76E
:1034900025FB38BD30B52DED048B81B0B0EE408AF0
:1034A000F0EE608AB0EE419A0024AA222146641C04
:1034B000854842542146641C42540B222146641C18
:1034C000425400222146641C42549FED810A28EE9A
:1034D000000ABDEEC00A10EE100A00B200909DF87E
:1034E00001202146641C784842549DF80020214662
:1034F000641C42549FED760A28EE800ABDEEC00A95
:1035000010EE100A00B200909DF801202146641CC4
:103510006D4842549DF800202046611CCCB26A4997
:103520000A549FED6B0A29EE000ABDEEC00A10EEA8
:10353000100A00B200909DF801202046611CCCB218
:1035400061490A549DF800202046611CCCB25E49B6
:103550000A54201FC8700025002005E05A49095C64
:103560002944CDB2411CC8B2A042F7DB2046611C01
:10357000CCB255490D5421465348FFF7AFFA01B07C
:10358000BDEC048B30BD2DE9F0432DED048B83B0F1
:10359000B0EE408AF0EE608AB0EE419A05460E46E3
:1035A0001746984600240196AA222146641C4648E4
:1035B00042542146641C425401222146641C425458
:1035C00000222146641C42549FED420A28EE000A64
:1035D000BDEEC00A10EE100A00B202909DF809205C
:1035E0002146641C384842549DF808202146641C3A
:1035F00042549FED380A28EE800ABDEEC00A10EE54
:10360000100A00B202909DF809202146641C2E4841
:1036100042549DF808202046611CCCB22A490A5425
:103620009FED2C0A29EE000ABDEEC00A10EE100A2A
:1036300000B202909DF809202046611CCCB22249BC
:103640000A549DF808202046611CCCB21E490A5439
:1036500002959DF809202046611CCCB21A490A54F3
:103660009DF808202046611CCCB217490A549DF8E9
:1036700007202046611CCCB213490A549DF806204D
:103680002046611CCCB210490A549DF80520204602
:10369000611CCCB20C490A549DF804202046611CE0
:1036A000CCB209490A542046611CCCB206490F54D9
:1036B0002046611CCCB2044901F80080201FC8706C
:1036C0004FF0000900200EE0912A0020D8040020CD
:1036D000CDCCCC3D0000C842FB49095C494401F017
:1036E000FF09411CC8B2A042F6DB2046611CCCB2E7
:1036F000F54901F800902146F348FFF7EFF903B0D0
:10370000BDEC048BBDE8F0837FB505460024AA22FA
:103710002146641CEC4842542146641C4254002259
:103720002146641C42542146641C42542146641CB8
:1037300045549DF805202146641C42549DF8042000
:103740002146641C42549DF809202046611CCCB2DD
:10375000DD490A549DF808202046611CCCB2DA49A4
:103760000A549DF80D202046611CCCB2D6490A545B
:103770009DF80C202046611CCCB2D3490A549DF818
:1037800021202046611CCCB2CF490A549DF820204C
:103790002046611CCCB2CC490A54201FC8700026B8
:1037A000002005E0C849095C3144CEB2411CC8B2D2
:1037B000A042F7DB2046611CCCB2C3490E5421461F
:1037C000C148FFF78BF97FBD10B586B0BF480078C0
:1037D000BF49097890FBF1F201FB1201BC48007867
:1037E000401E814202D10120BA498870B748007852
:1037F000B949097890FBF1F201FB1201B648007853
:10380000401E814202D10120B249C870AF48007801
:10381000B249097890FBF1F201FB1201AF48007840
:10382000801E814202D10120AA498873A7480078EE
:10383000AB49097890FBF1F201FB1201A84800782E
:10384000401E814202D10120A24948709F48007861
:10385000A449097890FBF1F201FB1201A14800781C
:10386000401E814202D101209A498872974800780F
:103870009D49097890FBF1F201FB12019A4800780A
:10388000801E814202D10120924908738F4800783E
:103890009649097890FBF1F201FB120193480078F8
:1038A000801E814202D101208A49487387480078EE
:1038B0008F49097890FBF1F201FB12018C480078E6
:1038C000C01E814202D101208249C8737F4800781E
:1038D0008849097890FBF1F201FB120185480078D4
:1038E000C01E814204D17B48007C401C7949087489
:1038F00076480078401CC0B274490870C82801DDC1
:10390000002008707348007860B100207149087089
:103910004FF4C87364224FF4967100900420FFF7AF
:10392000F3FEF7E16B484078B0B100206949487078
:10393000714803787148027800217148008800B20C
:10394000704C94ED001A704CD4ED000A6F4C94ED5D
:10395000000AFFF718FEDDE15E48C07B60B1002081
:103960005C49C8736A4890ED001ADFED6A0A9FED62
:10397000690AFFF78FFDCDE15648807B28B1002012
:1039800054498873FFF703FDC4E152488078E8B3D7
:10399000002050498870604890ED0A0ABDEEC00AC8
:1039A00010EE100A00B25C4991ED090ABDEEC00AA2
:1039B00010EE101A09B2584A92ED080ABDEEC00A7C
:1039C00010EE102A12B2554B93ED090ABDEEC00A53
:1039D00010EE103A1BB2CDE90132CDE903104F4889
:1039E00090ED080ABDEEC00A10EE100A00B24B4C72
:1039F000009094ED070ABDEEC00A10EE104A23B203
:103A0000464C94ED060ABDEEC00A00E015E010EE4B
:103A1000104A22B2414C94ED050ABDEEC00A10EEE8
:103A2000104A21B23D4C94ED040ABDEEC00A10EEDE
:103A3000104A20B2FFF7DDFB6CE12648C07840B1A8
:103A400000202449C8702E4801880020FFF784FB1D
:103A500060E12048807AA8B300201E49887240F2B5
:103A6000DC522F48C08900F2DC5080B22C49898991
:103A700001F2DC5189B2CDE9030229480592029195
:103A8000408900F2DC5080B22549098901F2DC51FD
:103A900089B2234CCDE90010648804F2DC54A3B24F
:103AA0001F4C248804F2DC54A2B21D4CE48804F2BA
:103AB000DC54A1B21A4CA48804F2DC54A0B2FFF783
:103AC0009CFA27E12EE00000912A00205A040020F1
:103AD0005B040020802A00205C0400205D0400209C
:103AE0005E0400205F0400206004002061040020C8
:103AF0006204002063040020A8040020AC0400201D
:103B0000F805002024000020200000201C000020D8
:103B1000D8040020000000006C0500205031002077
:103B2000082B0020FD48007B48B30020FB490873A8
:103B3000009001900290FA4C039094ED030ABCEEC1
:103B4000C00A10EE104AA3B2F54C94ED020ABCEE86
:103B5000C00A10EE104AA2B2F14C94ED010ABCEE7C
:103B6000C00A10EE104AA1B2ED4C94ED000ABCEE72
:103B7000C00A10EE104AA0B2FFF7ACF9CAE0E7485D
:103B8000407B40B10020E54948734FF4E4717B204D
:103B9000FFF756F9BEE0E148007958B30020DF494D
:103BA0000871E048D0ED1E4AB0EE644AD0ED1F4ADD
:103BB000F0EE643AD0ED1D4AB0EE643AD0ED1A4A08
:103BC000F0EE642AD0ED1B4AB0EE642AD0ED194A1B
:103BD000F0EE641AD0ED164AB0EE641AD0ED174A32
:103BE000F0EE640AD0ED154AB0EE640A0120FFF74A
:103BF0000EF88FE0C948407958B30020C749487192
:103C0000C948D0ED1E4AB0EE644AD0ED1F4AF0EE2E
:103C1000643AD0ED1D4AB0EE643AD0ED1A4AF0EEA7
:103C2000642AD0ED1B4AB0EE642AD0ED194AF0EEBA
:103C3000641AD0ED164AB0EE641AD0ED174AF0EED1
:103C4000640AD0ED154AB0EE640A0220FEF7DFFFE9
:103C500060E0B248807958B30020B0498871B34819
:103C6000D0ED214AB0EE644AD0ED224AF0EE643A3B
:103C7000D0ED204AB0EE643AD0ED1D4AF0EE642A51
:103C8000D0ED1E4AB0EE642AD0ED1C4AF0EE641A64
:103C9000D0ED194AB0EE641AD0ED1A4AF0EE640A7B
:103CA000D0ED184AB0EE640A0320FEF7B0FF31E011
:103CB0009A48C079F8B100209849C8719B48D0ED66
:103CC000251AB0EE611AD0ED261AF0EE610AD0ED99
:103CD000241AB0EE610A1FED714A5FED723A1FEDD2
:103CE000733A5FED742A1FED752A5FED761A042092
:103CF000FEF78DFF0EE08948007C02280AD10020E3
:103D0000864908741FED7D0A00231A461946184695
:103D1000FEF7ECFE01F0AFF906B010BD73B5054635
:103D2000AA20834908704870F02088700320C8706A
:103D3000BA20087148719DF80400887100240020A1
:103D400005E07B49095C2144CCB2411CC8B207287C
:103D5000F7DB7748C4710821FEF7C0FE7CBD03B5D0
:103D600087B00020069005900AE005990798415C0D
:103D700006980844C0B206900598401CC0B2059051
:103D80000898401E05998842EFDCDDE907010844E8
:103D900010F8011C0698814201D009B000BD0798B7
:103DA0000078AA2803D107984078AF2800D0F4E71C
:103DB00007988078012828D107980079012802D136
:103DC0005C49087021E007980079022803D101209E
:103DD0005849487019E007980079032804D1012058
:103DE00054490870487010E007980079042803D1FE
:103DF00001205149087008E007980079212803DB69
:103E000007980079262800DD00BF079880780228EF
:103E100017D107980079012806D1404908714871E7
:103E20008871C8710872487207980079A02802D179
:103E300001203A49087007980079A12801D1FCF7C0
:103E40009BFC07988078032846D13C4800780228DC
:103E500002D0022001F0B2F8079800790799497959
:103E600041EA002036498880079880790799C97906
:103E700041EA00203249C8800798007A0799497AB8
:103E800041EA00202E4908800798807A0799C97A6C
:103E900041EA00202A4948800798007B0799497B1E
:103EA00041EA0020264908810798807B0799C97B51
:103EB00041EA0020224948810798007C0799497C03
:103EC00041EA00201E4988810798807C0799C97CB7
:103ED00041EA00201A49C88107988078042812D145
:103EE00007980079012803D10020164908700AE0DC
:103EF00007980079022806D14FF670601249888031
:103F000001201049087007988078052824D1079867
:103F1000007901281AD102F0B5F81DE0802A0020AE
:103F2000F02900201C280020E0280020E8060020BE
:103F3000912A0020503100209905002070040020B3
:103F4000C42A0020A8040020082B0020079800792C
:103F5000022801D102F0A7F80798807810287CD1B8
:103F600007980079000200B2079949790843019047
:103F70000FF048FF9FEDFE0B53EC102BCDE9020133
:103F80009DED020B51EC100B0FF0CAFECDE90401C0
:103F90009DED040B51EC100B0FF088FFF6494865BE
:103FA00007988079000200B20799C9790843019007
:103FB0000FF028FF9FEDEE0B53EC102BCDE9020123
:103FC0009DED020B51EC100B0FF0AAFECDE90401A0
:103FD0009DED040B51EC100B0FF068FFE649C8652E
:103FE0000798007A000200B20799497A08430190C5
:103FF0000FF008FF9FEDDE0B53EC102BCDE9020113
:104000009DED020B51EC100B0FF08AFECDE904017F
:104010009DED040B51EC100B0FF048FFD64988655D
:104020000798807A000200B20799C97A0843019084
:104030000FF0E8FE9FEDCE0B53EC102BCDE9020103
:104040009DED020B51EC100B0FF06AFECDE904015F
:104050009DED040B51EC100B00E0B2E00FF026FFD9
:10406000C54948660798007B000200B20799497B62
:10407000084301900FF0C6FE9FEDBD0B53EC102BD3
:10408000CDE902019DED020B51EC100B0FF048FE43
:10409000CDE904019DED040B51EC100B0FF006FF70
:1040A0000146B548C1660798807B000200B20799B7
:1040B000C97B084301900FF0A5FE9FEDAD0B53ECBB
:1040C000102BCDE902019DED020B51EC100B0FF00E
:1040D00027FECDE904019DED040B51EC100B0FF010
:1040E000E5FE0146A44881660798007C000200B204
:1040F0000799497C084301900FF084FE9FED9C0BCB
:1041000053EC102BCDE902019DED020B51EC100B8D
:104110000FF006FECDE904019DED040B51EC100BF0
:104120000FF0C4FE944948670798807C000200B2F3
:104130000799C97C084301900FF064FE9FED8C0B3A
:1041400053EC102BCDE902019DED020B51EC100B4D
:104150000FF0E6FDCDE904019DED040B51EC100BD1
:104160000FF0A4FE01468448C1670798007D000255
:1041700000B20799497D084301900FF043FE9FED7F
:104180007C0B53EC102BCDE902019DED020B51ECA1
:10419000100B0FF0C5FDCDE904019DED040B51ECB2
:1041A000100B0FF083FE01467348816707988078F3
:1041B00005900699FFF7B2FDFCF7D6FA01206F498A
:1041C00008800798807811287ED10798007900022E
:1041D00000B207994979084301900FF013FE9FED53
:1041E000640B53EC102BCDE902019DED020B51EC59
:1041F000100B0FF095FDCDE904019DED040B51EC82
:10420000100B0FF053FE5E49486507988079000255
:1042100000B20799C979084301900FF0F3FD9FEDB3
:10422000540B53EC102BCDE902019DED020B51EC28
:10423000100B0FF075FDCDE904019DED040B51EC61
:10424000100B0FF033FE4E49C8650798007A000244
:1042500000B20799497A084301900FF0D3FD9FED12
:10426000440B53EC102BCDE902019DED020B51ECF8
:10427000100B0FF055FDCDE904019DED040B51EC41
:10428000100B0FF013FE3E4988650798807A0002F4
:1042900000B20799C97A084301900FF0B3FD9FED72
:1042A000340B53EC102BCDE902019DED020B51ECC8
:1042B000100B0FF035FDCDE904019DED040B51EC21
:1042C000100B0FF0F3FD00E0BBE02D4948660798A6
:1042D000007B000200B20799497B084301900FF070
:1042E00091FD9FED230B53EC102BCDE902019DEDC9
:1042F000020B51EC100B0FF013FDCDE904019DED05
:10430000040B51EC100B0FF0D1FD01461C48C166A7
:104310000798807B000200B20799C97B084301908F
:104320000FF070FD9FED120B53EC102BCDE9020145
:104330009DED020B51EC100B0FF0F2FCCDE90401E6
:104340009DED040B51EC100B0FF0B0FD01460C4835
:1043500081660798007C000200B20799497C0843F7
:1043600001900FF04FFD9FED020B53EC102B09E075
:10437000FCA9F1D24D62503F1C28002058040020B7
:10438000E0280020CDE902019DED020B51EC100B5D
:104390000FF0C6FCCDE904019DED040B51EC100BB0
:1043A0000FF084FDFD4948670798807C000200B249
:1043B0000799C97C084301900FF024FD1FED140BF1
:1043C00053EC102BCDE902019DED020B51EC100BCB
:1043D0000FF0A6FCCDE904019DED040B51EC100B90
:1043E0000FF064FD0146ED48C1670798007D0002AB
:1043F00000B20799497D084301900FF003FD1FEDBE
:10440000240B53EC102BCDE902019DED020B51EC76
:10441000100B0FF085FCCDE904019DED040B51EC70
:10442000100B0FF043FD0146DC4881670798807848
:1044300005900699FFF772FCFCF796F90120D84920
:1044400008800798807812287ED1079800790002AA
:1044500000B207994979084301900FF0D3FC1FED92
:104460003C0B53EC102BCDE902019DED020B51ECFE
:10447000100B0FF055FCCDE904019DED040B51EC40
:10448000100B0FF013FDC7490866079880790002EA
:1044900000B20799C979084301900FF0B3FC1FEDF2
:1044A0004C0B53EC102BCDE902019DED020B51ECAE
:1044B000100B0FF035FCCDE904019DED040B51EC20
:1044C000100B0FF0F3FCB74988660798007A0002DA
:1044D00000B20799497A084301900FF093FC1FED51
:1044E0005C0B53EC102BCDE902019DED020B51EC5E
:1044F000100B0FF015FCCDE904019DED040B51EC00
:10450000100B0FF0D3FCA74948660798807A000289
:1045100000B20799C97A084301900FF073FC1FEDB0
:104520006C0B53EC102BCDE902019DED020B51EC0D
:10453000100B0FF0F5FBCDE904019DED040B51ECE0
:10454000100B0FF0B3FC00E0AFE096490867079846
:10455000007B000200B20799497B084301900FF0ED
:1045600051FC1FED7D0B53EC102BCDE902019DEDAD
:10457000020B51EC100B0FF0D3FBCDE904019DEDC4
:10458000040B51EC100B0FF091FC864988670798DB
:10459000807B000200B20799C97B084301900FF0AD
:1045A00031FC1FED8D0B53EC102BCDE902019DED7D
:1045B000020B51EC100B0FF0B3FBCDE904019DEDA4
:1045C000040B51EC100B0FF071FC7649486707980B
:1045D000007C000200B20799497C084301900FF06B
:1045E00011FC1FED9D0B53EC102BCDE902019DED4D
:1045F000020B51EC100B0FF093FBCDE904019DED84
:10460000040B51EC100B0FF051FC6649C1F880000F
:104610000798807C000200B20799C97C084301908A
:104620000FF0F0FB1FEDAE0B53EC102BCDE90201A8
:104630009DED020B51EC100B0FF072FBCDE9040164
:104640009DED040B51EC100B0FF030FC5549C1F8F7
:1046500088000798007D000200B20799497D084351
:1046600001900FF0CFFB1FEDBE0B53EC102BCDE9EB
:1046700002019DED020B51EC100B0FF051FBCDE947
:1046800004019DED040B51EC100B0FF00FFC45499C
:10469000C1F884000798807805900699FFF73EFBE3
:1046A000FCF762F801203E490880079880781328BB
:1046B00073D107980079000200B20799497908433D
:1046C00001900FF09FFB1FEDD60B53EC102BCDE9A3
:1046D00002019DED020B51EC100B0FF021FBCDE917
:1046E00004019DED040B51EC100B0FF0DFFB2D4985
:1046F000C1F8900007988079000200B20799C97943
:10470000084301900FF07EFB1FEDE70B53EC102BDD
:10471000CDE902019DED020B51EC100B0FF000FBF7
:10472000CDE904019DED040B51EC100B0FF0BEFB25
:104730001C49C1F898000798007A000200B2079956
:10474000497A084301900FF05DFB1FEDF70B53EC26
:10475000102BCDE902019DED020B51EC100B0FF077
:10476000DFFACDE904019DED040B51EC100B0FF0C5
:104770009DFB0C49C1F894000798807A000200B2B2
:104780000799C97A084301900FF03CFB9FED060B97
:1047900053EC102BCDE902010AE0C7E0E02800202D
:1047A00058040020E8060020FCA9F1D24D62503FD9
:1047B0009DED020B51EC100B0FF0B2FACDE90401A4
:1047C0009DED040B51EC100B0FF070FB994908673D
:1047D0000798007B000200B20799497B08430190CB
:1047E0000FF010FB1FED100B53EC102BCDE9020165
:1047F0009DED020B51EC100B0FF092FACDE9040184
:104800009DED040B51EC100B0FF050FB89498867AC
:104810000798807B000200B20799C97B084301908A
:104820000FF0F0FA1FED200B53EC102BCDE9020135
:104830009DED020B51EC100B0FF072FACDE9040163
:104840009DED040B51EC100B0FF030FB79494867DC
:104850000798007C000200B20799497C0843019048
:104860000FF0D0FA1FED300B53EC102BCDE9020105
:104870009DED020B51EC100B0FF052FACDE9040143
:104880009DED040B51EC100B0FF010FB6949C1F8C2
:1048900080000798807C000200B20799C97C084319
:1048A00001900FF0AFFA1FED400B53EC102BCDE948
:1048B00002019DED020B51EC100B0FF031FACDE926
:1048C00004019DED040B51EC100B0FF0EFFA594968
:1048D000C1F888000798007D000200B20799497D61
:1048E000084301900FF08EFA1FED510B53EC102B83
:1048F000CDE902019DED020B51EC100B0FF010FA07
:10490000CDE904019DED040B51EC100B0FF0CEFA34
:104910004849C1F884000798807805900699FFF708
:10492000FDF9FBF721FF01204349088007988078B3
:10493000142805D10798807805900699FFF7EEF9BD
:1049400007988078152805D10798807805900699F2
:10495000FFF7E4F900BFFFF720BA10B50446374867
:10496000007838B9AA2C05D10120344908703448A0
:1049700004705DE031480078012807D1AF2C05D1E3
:1049800002202E4908702E48447051E02B480078D0
:10499000022807D1F12C05DA03202849087028489D
:1049A000847045E02548007803280CD1322C0ADABF
:1049B0000420224908702248C47022480470002054
:1049C0002149087034E01D480078042819D11D4899
:1049D0000078002815DD1B480078401E1949087032
:1049E0001948007818490978491C174A1170001DA8
:1049F00013490C5413480078D0B905200F490870AA
:104A000016E00E48007805280FD100200B490870E9
:104A10000D480078001D0A490C540B480078401DD1
:104A2000C1B20748FFF79BF902E000200349087074
:104A300010BD0000E8060020580400206604002095
:104A4000D42A0020640400206504002002460020CF
:104A500007E0FC4B1B5632F8133021F81030431C92
:104A6000D8B20828F5DB7047F748D0ED020A9FED71
:104A7000F71AF4EEC10AF1EE10FA51D2D0ED030AA2
:104A80009FEDF21AF4EEC10AF1EE10FA1AD2F048D4
:104A9000B0F90000401CC8B3EE480078B0B3EC4851
:104AA000B0F9000000EE900AF8EEE00A9FEDEA1A75
:104AB00041EE000AFDEEE00A10EE900A00B2E44971
:104AC000088030E0E048D0ED030A9FEDE41AF4EEF0
:104AD000C10AF1EE10FA1ADDDD48B0F90000401C01
:104AE000A0B1DC48007888B9D948B0F9000000EEE0
:104AF000900AF8EEE00A9FEDD81A41EE000AFDEEAA
:104B0000E00A10EE900A00B2D14908800BE0D048CC
:104B1000B0F90000401C30B90020CD49088002E007
:104B20000020CB490880CA48B0F90000B0F57A7F70
:104B300010DD4FF0FF30C6490880C648007830B914
:104B40000120C44908700220C549487002E00020D5
:104B5000C049087070473FB5F0EE401A0546C1489D
:104B60000078012804D1C0492846FFF76FFF07E00D
:104B7000BC480078022803D1BB49BC48FFF766FF58
:104B8000002407E2B84830F8140040F6C411884207
:104B900005DCB54830F81400B0F5FA7F07DA0120DB
:104BA000B34908550020B34921F8140012E0B14878
:104BB00030F81400401CAF4921F81400084630F8C2
:104BC0001400C82806DD4FF4FA6021F81400002014
:104BD000A7490855A3480078012803D0A1480078C8
:104BE00002287CD1A248005D0028FAD19E4830F806
:104BF000140000B22DF814009F4830F914009F49AA
:104C000031F9141088426BDD9D48005D002878D191
:104C10003DF91400994931F91410401A00EE100AB8
:104C2000B8EEC01A944830F91400944931F91410C0
:104C3000401A00EE100AB8EEC00AC1EE000A9FED5D
:104C4000861A9FED900A10EE810ABDEEC00A10EEA2
:104C5000100A00B210F5FA7F01DA8B484DE03DF9F9
:104C60001400864931F91410401A00EE100AB8EE0B
:104C7000C01A814830F91400804931F91410401AE3
:104C800000EE100AB8EEC00AC1EE000A9FED721ADB
:104C90009FED7C0A10EE810ABDEEC00A10EE100AEC
:104CA00000B2B0F5FA7F02DD4FF4FA7025E03DF96D
:104CB0001400724931F91410401A00EE100AB8EECF
:104CC000C01A6D4830F914006C4931F91410401ABB
:104CD00000EE100AB8EEC00AC1EE000A02E08AE057
:104CE00086E00EE09FED5C1A9FED660A10EE810AE9
:104CF000BDEEC00A10EE100A00B2644921F814009B
:104D000079E03DF914005D4931F91410401A00EEC4
:104D1000100AB8EEC01A584830F91400574931F952
:104D20001410401A00EE100AB8EEC00AC1EE000AD4
:104D30009FED491A9FED530A10EE810ABDEEC00A9D
:104D400010EE100A00B210F5FA7F01DA4E4849E081
:104D50003DF91400494931F91410401A00EE100AC7
:104D6000B8EEC01A444830F91400444931F914101F
:104D7000401A00EE100AB8EEC00AC1EE000A9FED1C
:104D8000361A9FED400A10EE810ABDEEC00A10EE01
:104D9000100A00B2B0F5FA7F02DD4FF4FA7021E09C
:104DA0003DF91400354931F91410401A00EE100A8B
:104DB000B8EEC01A304830F91400304931F91410F7
:104DC000401A00EE100AB8EEC00AC1EE000A9FEDCC
:104DD000221A9FED2C0A10EE810ABDEEC00A10EED9
:104DE000100A00B2404200B2284921F8140002E043
:104DF0000020184908709FED260A21EE800A2548F8
:104E000080ED000A3DF9140000EE100AB8EEC00A69
:104E10000D4800EB8400D0ED000A30EE600AB5EEDC
:104E2000C00AF1EE10FA37DD3DF9140000EE100A69
:104E3000B8EEC00A044800EB8400D0ED000A30EE62
:104E4000600A38E068040020382B00200000C8C346
:104E5000AA040020A804002000007A440000C843EF
:104E60005031002070040020A82B0020C42A00200C
:104E700071040020982B00207C0400208C0400206A
:104E80009C0400200000FA430CFEFFFF082B0020CA
:104E900034337B42A40400203DF9140000EE100AD4
:104EA000B8EEC00A494800EB8400D0ED000A30EEAD
:104EB000600AB1EE400ADFED460AB4EEE00AF1EE18
:104EC00010FA1DD2434830F9140000EE100AB8EE73
:104ED000C00A3E4800EB8400D0ED000A70EE600A84
:104EE0003A4800EB840090ED000A3B4890ED001A30
:104EF00001EE200A354800EB840080ED000A20E036
:104F0000344830F9140000EE100AB8EEC00A2F48F9
:104F100000EB8400D0ED000A70EE600A2B4800EB35
:104F2000840090ED000A2C4890ED001AB6EE002A9D
:104F300021EE021A01EE200A244800EB840080EDE5
:104F4000000A224800EB840090ED000A234800EBA1
:104F50008400D0ED000A30EE600A214800EB8400A6
:104F600080ED000A194800EB840090ED000A1B4810
:104F700000EB840080ED000A164830F9140000EEC2
:104F8000100AB8EEC00A174800EB840080ED000A52
:104F9000601CC4B2082CFFF6F5ADB0EE610AFFF755
:104FA00063FD11480088401C80B20F490880C82862
:104FB00003DD002008800D4908703FBD0B490870D3
:104FC0000021094A1180704770470000382B0020EB
:104FD0000000C842082B0020A4040020582B002009
:104FE000782B0020182B00207A0400207004002069
:104FF0000CF012B870470020704700207047002066
:105000007047002070470020704700207047002044
:105010007047002070470020704700207047002034
:1050200070470020704700207047002070470CF048
:105030001AB8704700207047002070470BF05EBE22
:105040007047000010B50BF05DF801200BF065F81B
:1050500010BD70B5024600200AE0145C864B1D7836
:105060001B785B1C844E3370844B5C55431CD8B258
:105070008842F2DB70BD10B57F480078804909781E
:1050800088425BDD7C4800787D490978401A3F28DA
:105090001BDB00207B4908703F207B490870002003
:1050A0000BE077490A780978491C754B19707349E8
:1050B0008A5C754B411C5A54C8B23F28F1DB402230
:1050C000714900200CF0B5F89FE06E480078401C54
:1050D0006C490870084600786C4909788842F3D119
:1050E0000020684908706448007865490978401ACA
:1050F00065490870002015E05F490978604A127818
:10510000891A814208DD5E49097801445B4A525C94
:105110005D4B411C5A5403E000225B4B411C5A5426
:10512000411CC8B23F28E7DB534800785449087057
:105130004022554900200CF07CF866E04E4800788B
:105140004F490978884260DA4D480078C0F5807090
:105150004949097808443F281BDB00204949087069
:105160003F204949087000200BE045490A7809783A
:10517000491C434B197041498A5C434B411C5A54AA
:10518000C8B23F28F1DB40223F4900200CF051F823
:105190003BE03C480078401C3A49087008460078DB
:1051A0003A490978884230D100203649087034489D
:1051B000007840423049097808443349087000209B
:1051C00018E02F490978C1F580712B4A12781144F3
:1051D000814209DD2A4909780144C9B2274A525C53
:1051E000294B411C5A5403E00022274B411C5A54BE
:1051F000411CC8B23F28E4DB1F48007820490870F2
:105200004022214900200CF014F810BD10B50446CE
:10521000012C02D0032C11D10EE059B923B1012B7E
:1052200005D0022B04D100E000BF402010BD00BF1C
:1052300000BF00BF00BF01E00120F7E700BF002072
:10524000F4E72DE9F0470646884614469946089F3C
:10525000022E02D0032E0CD10AE0012504E0605D8D
:10526000FFF77BFB681CC5B22078A842F7DA00E0A4
:1052700000BF00BFBDE8F087B9040020D82E002091
:10528000B8040020BA040020D82F0020B704002062
:1052900010B505480EF096FC022101EB4000C0B2AB
:1052A00010BD0248704700001C300020353000203F
:1052B00030B50446084615886D1CADB21580854290
:1052C00004DD002515800125558007E015888542FD
:1052D00001D1002501E015886D1C5580158804EB6F
:1052E000850585ED000A558804EB8505D5ED000A96
:1052F00030EE601A00EE900AF8EE601AC1EE210A54
:1053000093ED001A70EE810AC3ED000A30BD70B54E
:105310008BB0F0EE400A022801DA0B2903DB9FED87
:105320007B0A0BB070BD7A4C245C641CE4B2784DEF
:105330002C548C4201DB00242C5400EB400404EB81
:10534000C004744D05EB8404714D2D5C04EB8504A1
:10535000C4ED000A002211E000EB400404EBC0049D
:105360006C4D05EB840404EB820494ED000A6C465A
:1053700004EB820484ED000A541CE2B28A42EBDBA7
:1053800000222DE0002325E06C4604EB830494ED1D
:10539000000A6D465C1C05EB8404D4ED001AB4EEE3
:1053A000E10AF1EE10FA13DD6C4604EB830494ED90
:1053B000001A5C1C05EB840494ED000A6C4604EBB7
:1053C000830484ED000A5C1C05EB840484ED001A60
:1053D0005C1CE3B24C1EA41A9C42D5DC541CE2B205
:1053E0004C1E9442CEDC0C4601EBD4756D106E461B
:1053F00006EB850595ED000A93E770B52DED028B60
:1054000004460D461646D4ED020AB0EE600AFDF7DA
:1054100079F9F0EE408AD4ED010AB0EE600AFDF7AA
:1054200071F938EE800AB0EE408AFDF770F93A481B
:1054300080ED000AD4ED020AB0EE600AFDF762F9D1
:10544000F0EE408AD4ED000AB0EE600AFDF75AF99A
:1054500038EE800AB0EE408AFDF759F92F4880ED0A
:10546000000A94ED020AB5EEC00AF1EE10FA02D27B
:105470004FF0FF3000E001202949087095ED000A47
:105480002548D0ED000A20EE200A94ED001A0846C7
:1054900090F9000000EE900AF8EEE00A61EE200AB2
:1054A00095ED021A00EEC10A86ED000A084690F951
:1054B000000000EE100AB8EEC00A1848D0ED000A4D
:1054C00020EE200AD5ED010A20EE200AD4ED010AD3
:1054D00095ED021A00EEC10A86ED010A94ED000A6C
:1054E000D5ED000A20EE200AD4ED010A95ED011A4F
:1054F00000EE810AD4ED020A95ED021A00EE810A4F
:1055000086ED020ABDEC028B70BD000000000000B9
:10551000C40400206C300020C8040020CC0400200B
:10552000C604002010B52DED068BF0EE408AF0EE9B
:10553000609ADFEDFE0A79EEE00AB0EE600ADFED78
:10554000FC0AFDF76BFADFEDFB0A20EE200ADFED27
:10555000FA0A80EE201AF94880ED001A90ED000A50
:10556000DFEDF70AB4EEE00AF1EE10FA02D29FED99
:10557000F40A0FE0F14890ED000ADFEDEE0AB4EE18
:10558000E00AF1EE10FA02DD9FEDEA0A02E0EB48D4
:1055900090ED000AE94880ED000AEA4890ED000A23
:1055A000DFEDE90AB4EEE00AF1EE10FA0CDDE348B3
:1055B00090ED000AB5EEC00AF1EE10FA1ADD9FED8B
:1055C000E30A80ED000A15E0DE4890ED000AF3EEF4
:1055D000040AB4EEE00AF1EE10FA0BD2D74890EDCF
:1055E000000AB5EEC00AF1EE10FA03D29FEDD70A19
:1055F00080ED000AD34890ED000AD048D0ED000AB3
:1056000000EEA80ACF4880ED000A9FEDD10AF4EE23
:10561000C09AF1EE10FA19D29FEDCE0A68EE800A18
:10562000B7EE001A81EE200AF7EE000A30EE200AEB
:10563000B7EE001AC1EE000A90ED000AB1EE401A72
:1056400090ED000A00EE810A80ED000AC248B0F930
:10565000000000EE100AB8EEC00AC0EE280AB0EE54
:1056600060AAB0EE4A0A05210020FFF750FEB0EE16
:10567000409ABA48008800EE100AB8EE400A0521A8
:105680000120FFF744FEB0EE408A9FEDB50AB4EE6C
:10569000C08AF1EE10FA47D2B5EEC09AF1EE10FAD8
:1056A00002DDB0EE490A01E0B1EE490ADFEDA80AD9
:1056B000B4EEE00AF1EE10FA1BD29FEDAA0A28EE32
:1056C000800AF7EE000A80EE801AB7EE000A31EE8B
:1056D000000AB7EE001AC1EE000AA34890ED000AD6
:1056E00039EE401A90ED000A00EE810A80ED000AC2
:1056F0001AE09FED9E0A68EE800AB7EE001A81EE6E
:10570000200AF7EE000A30EE200AB7EE001AC1EECA
:10571000000A954890ED000A39EE401A90ED000A13
:1057200000EE810A80ED000A9FED8D0AB4EEC08A7A
:10573000F1EE10FA37D28E4890ED000A38EE400AAA
:10574000B5EEC00AF1EE10FA04DD90ED000A38EE75
:10575000400A06E0864890ED000A38EE400AB1EEB5
:10576000400ADFED7B0AB4EEE00AF1EE10FA1BD23C
:105770009FED7C0A28EE800AF7EE000A80EE801A80
:10578000B7EE000A31EE000AB7EE001AC1EE000AC9
:10579000774890ED000A38EE401A90ED000A00EECE
:1057A000810A80ED000A8CE0714890ED000A38EE25
:1057B000400AB5EEC00AF1EE10FA04DD90ED000AE1
:1057C00038EE400A06E06A4890ED000A38EE400ADA
:1057D000B1EE400ADFED580AB4EEE00AF1EE10FA3D
:1057E0001BD29FED640A28EE800AB7EE001AC1EEC4
:1057F000000AB7EE000A30EE800AB7EE001AC1EEDA
:10580000000A5B4890ED000A38EE401A90ED000A5D
:1058100000EE810A80ED000A53E0554890ED000A41
:1058200038EE400AB5EEC00AF1EE10FA04DD90ED54
:10583000000A38EE400A06E04D4890ED000A38EEC6
:10584000400AB1EE400ADFED4C0AB4EEE00AF1EE98
:1058500010FA1BD29FED490A68EE800AB7EE001AD3
:1058600081EE200AF7EE000A30EE200AB7EE001AA9
:10587000C1EE000A3E4890ED000A38EE401A90ED65
:10588000000A00EE810A80ED000A1AE09FED3C0A52
:1058900028EE800AF7EE000A80EE801AB7EE000AC2
:1058A00031EE000AB7EE001AC1EE000A304890ED62
:1058B000000A38EE401A90ED000A00EE810A80EDF1
:1058C000000A304890ED000A1E48D0ED000A284832
:1058D00090ED001A70EEC10A20EE200A2A4880EDF1
:1058E000000A284890ED020A2748D0ED000A60EE31
:1058F000200A90ED030A00EEA80A80ED030A90ED5D
:10590000030A2248D0ED000AF1EE600A9FED091A61
:1059100060EE810AB4EEE00AF1EE10FA3BD290EDAF
:10592000000AB1EE400ADFED030A31E00000FA435D
:10593000000048420000964300004843E404002071
:10594000000096C3E804002000007A440000000034
:105950000000C8429CC4203FFC050020F805002040
:105960000000FA44C3F54841EC040020C3F5484068
:10597000F0040020570EDD400000C843EB267140C4
:10598000EB26F13FF8300020E4300020100000202A
:1059900020EE200A18E0FB4890ED030AFA48D0ED0B
:1059A000000A1FED1C1A60EE810AB4EEE00AF1EE67
:1059B00010FA06DD90ED000A5FED220A20EE200AC3
:1059C00002E0F04890ED030AEE4880ED030A90ED06
:1059D000000AD0ED010A30EE600ADFEDEC0A20EE9D
:1059E000200AEB48D0ED000AF1EE600A60EEA80A4A
:1059F0009FEDE81A01EE200AE748D0ED010A20EEFB
:105A0000200AE04880ED020A90ED000AD0ED030A7A
:105A100030EE200AD0ED020A30EE200A80ED040AB2
:105A200090ED040ADFEDDD0AB4EEE00AF1EE10FAC3
:105A300002D29FEDDA0A0FE0D24890ED040A5FED42
:105A4000450AB4EEE00AF1EE10FA02DD1FED490A54
:105A500002E0CC4890ED040ACA4880ED040A90EDBB
:105A6000040ACF4880ED000AC64890ED000A80ED98
:105A7000010ABDEC068B10BD10B52DED068BB0EE06
:105A8000408AB0EE609AF0EE418AF0EE619AB0EE94
:105A9000000A29EE000AB5EEC00AF1EE10FA02D2B1
:105AA0001FED560A11E0B0EE000A29EE000ADFED04
:105AB000BD0AB4EEE00AF1EE10FA02DD9FEDB90A7C
:105AC00003E0B0EE000A29EE000AB0EE40AA9FED16
:105AD000B60A68EE000AB7EE001A81EE200AF7EE69
