:020000040800F2
:100000001840002075020108B50100087F020108B0
:10001000B7010008BB010008BF0100080000000094
:10002000000000000000000000000000C301000804
:10003000C5010008000000008B020108C70100088C
:100040008F0201088F0201088F0201088F02010848
:100050008F0201088F0201088F0201088F02010838
:100060008F0201088F0201088F0201088F02010828
:100070008F0201088F0201088F0201088F02010818
:100080008F0201088F0201088F0201088F02010808
:100090008F0201088F0201088F0201088F020108F8
:1000A0008F0201088F0201088F0201088F020108E8
:1000B0008F020108D9010008E10100088F02010840
:1000C0008F0201088F0201088F0201088F020108C8
:1000D0008F0201088F020108E90100088F02010860
:1000E0008F0201088F0201088F0201088F020108A8
:1000F0008F0201088F0201088F0201088F02010898
:100100008F0201088F0201088F0201088F02010887
:100110008F020108F10100088F0201088F02010817
:100120008F0201088F0201088F0201088F02010867
:100130008F0201088F0201088F0201088F02010857
:100140008F0201088F0201088F0201085D8F0008ED
:100150008F0201088F0201088F0201088F02010837
:100160008F0201088F0201088F0201088F02010827
:100170008F0201088F0201088F0201088F02010817
:100180008F0201088F020108DFF80CD014F098F8F4
:1001900000480047A10100081840002000BFFEE70A
:1001A00000F046F90249087001E000F0EAF8FCE7C7
:1001B00000000020704700BFFEE700BFFEE700BF61
:1001C000FEE77047704710B50B480068401C0A49AD
:1001D000086006F0E7F810BD10B506F0DAFA10BDB9
:1001E00010B506F0DDFB10BD10B507F086FF10BDA1
:1001F00010B508F044F810BD300500208248C089D1
:10020000401C8149C88108468088401C00B2888013
:100210000846C088401C00B2C88008460089401CBF
:1002200000B2088108464089401C00B24881084657
:100230008089401C00B2888108460078012804D1DA
:1002400008464078401C487002E001206E49087062
:10025000704710B5012006F0E4F803F0BBFA10BDBA
:1002600010B52DED028B002006F0DBF8B0EE408AD1
:1002700006F068F800EE100AB8EE400ADFED630AF7
:1002800080EE201A624880ED001A07F01BF8B0EEED
:10029000480A07F04DFAB0EE480A01F03BF95D4814
:1002A000B0EE480A04F05FFC06F04CF800EE100ACD
:1002B000B8EE400ADFED550A80EE201A544880ED72
:1002C000011ABDEC028B10BD10B52DED028B022082
:1002D00006F0A7F8B0EE408A06F034F800EE100AF7
:1002E000B8EE400ADFED490A80EE201A484880ED5A
:1002F000021A4948D0ED063AB0EE633AD0ED053A1D
:10030000F0EE632AD0ED043AB0EE632AD0ED0C3A59
:10031000F0EE631AD0ED0B3AB0EE631AD0ED0A3A64
:10032000F0EE630AF6EE003A68EE233AB0EE630AA6
:100330003A4A3B493B4801F09BFCB0EE480A00F0CA
:10034000ABFB05F0FFFF00EE100AB8EE400ADFED50
:100350002F0A80EE201A2E4880ED031ABDEC028B86
:1003600010BD10B507F012FE10BD10B500F059FB1E
:1003700010BD10B504F030FE07F028FE09F064FB54
:1003800010BD10B52048007801283BD126480088D0
:1003900000B226490880FFF75CFF1B48B0F9040053
:1003A000022804DB002018498880FFF759FF16480F
:1003B000B0F90600052804DB00201349C880FFF7C8
:1003C00083FF1148B0F908000A2804DB00200E4919
:1003D0000881FFF7C6FF0C48B0F90A00142804DBB7
:1003E000002009494881FFF7C0FF0748B0F90C0019
:1003F000322804DB002004498881FFF7BAFF00207F
:100400000149087010BD0000AC06002000247449AA
:10041000BC060020FC3200200C3300202400002009
:10042000200000201C0000204005002002000020C9
:1004300010B54FF4806009F059FB05F051FF06F04C
:1004400082FD06F049F84FF4C87006F0A7FBC820FB
:1004500005F09CFF142007F017F807F09DFD4FF4FE
:10046000E13007F0D7FD04F041FE00F045FA6420CA
:1004700005F08CFF09F0E2FA06F00EF807F060FBD9
:1004800080F00100074908700748007810B907F0AC
:10049000B3FD04E00348007808B907F0AEFD012081
:1004A00010BD0000B40500206C05002038B5012205
:1004B000FBA1FC4812F0F0F80446C4B1002211463A
:1004C000F7A013F0E2F8044614B14FF0FF3038BD46
:1004D0000022F3A1F34812F0DFF804463CB10022F9
:1004E000EFA1104612F0D8F86FF00100EFE7EEA18F
:1004F000EE4812F088FD04463CB10022E8A1104607
:1005000012F0CAF86FF00200E1E70122E8A1EB481F
:1005100012F0EDF804463CB10022E1A1104612F0C1
:10052000BBF86FF00300D2E76B464022E449E34892
:1005300012F08FF90446009878B3E04812F0E8FB17
:100540000122E0A1DD4812F0D2F804463CB10022BD
:10055000D3A1104612F0A0F86FF00300B7E76B4686
:10056000C022DA49D54812F074F90446009848B11F
:10057000D24812F0CDFB0022C9A1104612F08CF82F
:100580000120A4E7CD4812F0C3FB0022C4A110460D
:1005900012F082F86FF0030099E7FFE7C74812F006
:1005A000B7FB0022BEA1104612F076F86FF00400EF
:1005B0008DE738B50022BAA1BA4812F06DF80446AA
:1005C000C4B100221146B6A013F05FF8044614B17E
:1005D0004FF0FF3038BD0022B1A1B24812F05CF8F4
:1005E00004463CB10022AEA1104612F055F86FF05F
:1005F0000100EFE7ACA1AD4812F005FD04463CB1A7
:100600000022A7A1104612F047F86FF00200E1E7C0
:100610000A22A7A1A94812F06AF804463CB10022B8
:100620009FA1104612F038F86FF00300D2E76B4636
:100630004022A349A14812F005FA044674BB9F4822
:1006400012F066FB0A229FA19C4812F050F8044663
:100650003CB1002292A1104612F01EF86FF0030088
:10066000B8E76B46C0229949944812F0EBF904466A
:100670004CB9924812F04CFB002289A1104612F0AE
:100680000BF80120A6E78D4812F042FB002284A15E
:10069000104612F001F86FF003009BE7874812F054
:1006A00037FB00227EA1104611F0F6FF6FF0040028
:1006B00090E710B58648824BD3E900219B68C0E9DA
:1006C0000E1342637E4BD3E903215B69C0E911132A
:1006D000026480487A4B18330ECB08300EC07C4A37
:1006E000774B24330BCB58320BC2754890ED0D0A73
:1006F000774880ED190A724890ED0E0A744880ED33
:100700001A0A7548714C1ECC54301EC064386F49AB
:10071000D1E905340A69C969C0E91A34426601673A
:100720006A4BD3E909141A6ADB6AC0E91F43C0E9BE
:100730001D216A48654BD3E90C41D3E90E23C0E97A
:100740001541C0E917236149D1E911430A6CC96C0D
:10075000C0E91A43426601675C49D1E91434D1E922
:100760001621C0E91D34C0E91F2110BD10B500F0ED
:1007700081F905F0F4FC05F011FD10BD10B5002263
:10078000012147A012F081FF9FED550A4F4880EDEF
:10079000040A9FED530A80ED000A9FED520A80ED96
:1007A000080A9FED510A80ED060A9FED4F0A80ED81
:1007B000020AB7EE000A80ED0A0AB0EE000A80EDE8
:1007C000050AB0EE000A80ED010AB7EE000A80EDDE
:1007D000090AB7EE000A80ED070AB7EE000A80EDBD
:1007E000030AB7EE000A80ED0B0AB6EE000A80EDB0
:1007F000100AB6EE000A80ED0C0A9FED3C0A80ED6F
:10080000140A9FED3B0A80ED120A9FED390A80ED34
:100810000E0A9FED370A80ED160A9FED360A80ED2D
:10082000110A9FED340A80ED0D0A9FED2F0A80ED2D
:10083000150AB7EE000A80ED200AB7EE000A80ED37
:10084000220AB7EE000A80ED210AB7EE000A80ED19
:10085000240AB7EE000A80ED260AB7EE000A80ED02
:10086000250AB7EE000A80ED180AB7EE000A80EDFF
:100870001A0AB7EE000A80ED190AB7EE000A80EDF9
:100880001C0AB7EE000A80ED1E0AB7EE000A80EDE2
:100890001D0AFFF78EFEFFF70CFFFFF767FF10BD85
:1008A000303A0000D00700202F0000002828002048
:1008B00073656E736F722E62696E000000180020FF
:1008C000D00600207069642E62696E001007002057
:1008D0000C3300208805002044280020082900202F
:1008E000CDCC4C3F9A99993FCDCCCC3DCDCC4C3E14
:1008F000CDCC4C3D9A99993E10B5FFF7D7FD0446F3
:10090000002C04DAFFF73AFF012051490870FFF785
:10091000D0FEFFF72BFF10BD10B504464D4894E8FC
:100920000E0034300EC04C4894E80E000EC049480A
:1009300090ED190A484880ED0D0AFFF73AFE10BD08
:1009400010B50446434894E80E0040300EC04248BB
:1009500094E80E000C300EC03E4890ED1A0A3E4856
:1009600080ED0E0AFFF725FE10BD10B504463B488A
:1009700094E80E0008300EC0374894E80E00183096
:100980000EC0FFF716FE10BD10B50446314894E8BE
:100990000E0058300EC0304894E80E0024300EC0CF
:1009A000FFF707FE10BD10B52D482E49D1E91634CA
:1009B0004A6D096E80E81C00C16001462948D0E9F3
:1009C0001A34426E006FC1E905340A61C8612548D6
:1009D000D0E91E34426FD0F88000C1E909340A62C0
:1009E000C8620A46204CD4E91530D4E91714C2E98C
:1009F0000E14C2E90C3010461B49D1E91942D1E965
:100A00001B31C0E91042C0E912311749D1E91D423A
:100A1000D1E91F31C0E91442C0E91631FFF7C9FD21
:100A200010BD10B51148008820B110480088401C46
:100A30000E4908800D4800883C2807DD00200B493E
:100A400008800B48007808B9FFF7ADFF10BD000023
:100A5000040000200C330020D00600208805002070
:100A600010070020442800200829002058040020F6
:100A7000A8040020B7EE000AFE4880ED180AB7EE81
:100A8000000A80ED1C0AB7EE000A80ED200A9FEDF7
:100A9000FA0A80ED300A704710B52DED0E8BB0EEDE
:100AA000408AF648D0ED000AB0EE600AF3EE0E0A76
:100AB00001F04FFFDFEDF20A80EE201AB3EE090AD3
:100AC00021EE000AEF4880ED000AEC48D0ED010A63
:100AD000F1EE600AB0EE600AF3EE0E0A01F039FFA3
:100AE000DFEDE70A80EE201AB3EE090A21EE000AD4
:100AF000E44880ED010AE448007808BBDF48D0ED07
:100B0000030AB0EE600ADFEDE10A01F071FFDFEDEC
:100B1000DC0A80EE201A9FEDDE0A21EE000ABDEE0F
:100B2000C00A10EE100A00B200EE100AF8EEC00A79
:100B3000D44890ED020A00EE880A80ED020A36E001
:100B4000D04890ED020AD348D0ED000A30EEC00A3A
:100B500010EE101A084613F030FA41EC1C0B18EE98
:100B6000100A13F02AFA41EC1E0B9FEDCB0B53EC4D
:100B7000102B13F09FF941EC1D0B53EC1C2B13F0C1
:100B800099F941EC1A0BBF4890ED020A10EE101AC9
:100B9000084613F012FA41EC1B0B53EC1A2B13F01E
:100BA000E2F841EC190B13F04BFAB6498860B548EE
:100BB000D0ED020AB0EE600A01F02EFFB14880EDE0
:100BC000020AB748D0ED000AAE4890ED001A70EE68
:100BD000810AB44890ED001A70EEC10AB0EE600AC6
:100BE00001F01AFFB04880ED000AAD48D0ED010ACF
:100BF000A44890ED011A70EE810AAC4890ED001AFD
:100C000070EEC10AB0EE600A01F006FFA64880ED62
:100C1000010AA348D0ED020A9A4890ED021A70EE3C
:100C2000810A9C4890ED001A70EEC10AB0EE600A8D
:100C300001F0F2FE9C4880ED020A90ED000AB5EE4C
:100C4000C00AF1EE10FA02DD90ED000A04E09648C9
:100C500090ED000AB1EE400AF3EE0E0A80EE201A83
:100C6000914880ED2D1A90ED010AB5EEC00AF1EE23
:100C700010FA02DD90ED010A04E08B4890ED010AC4
:100C8000B1EE400AF3EE0E0A80EE201A864880ED9F
:100C90002E1A90ED020AB5EEC00AF1EE10FA02DD4E
:100CA00090ED020A04E0804890ED020AB1EE400A9D
:100CB000F3EE0E0A80EE201A7B4880ED2F1ADFED4E
:100CC0007C0A80EE880AD0ED000A90ED031A70EEDF
:100CD000C10A90ED161AF2EE041A21EE211A60EE06
:100CE000810A60EE200A90ED2D1A9FED720ADFED69
:100CF000721A01EE810A20EE800A80ED0C0ADFED07
:100D00006C0A80EE880AD0ED010A90ED041A70EEAC
:100D1000C10A90ED1A1AF2EE041A21EE211A60EEC1
:100D2000810A60EE200A90ED2E1A9FED620ADFED37
:100D3000621A01EE810A20EE800A80ED0D0ADFEDD5
:100D40005C0A80EE880AD0ED020A90ED051A70EE7A
:100D5000C10A90ED1E1AF2EE041A21EE211A60EE7D
:100D6000810A60EE200A90ED2F1A9FED520ADFED06
:100D7000521A01EE810A20EE800A80ED0E0A90EDF3
:100D8000170AD0ED000A60EE200A90ED060A00EE88
:100D9000880A80ED060A90ED1B0AD0ED010A60EE8C
:100DA000200A90ED070A00EE880A80ED070A90ED10
:100DB0001F0AD0ED020A60EE200A90ED080A00EE4C
:100DC000880A80ED080A3D4890ED000AF6EE000A18
:100DD00020EE200AF3EE090A20EE200A324880EDC8
:100DE000090A364890ED000AF6EE000A20EE200AC5
:100DF000F3EE090A20EE200A2B4880ED0A0A2F485C
:100E000090ED000AF6EE000A20EE200AF3EE090A41
:100E100020EE200A244880ED0B0A90ED060AD0ED62
:100E2000090AF1EE600AB4EEE00AF1EE10FA04D21B
:100E300090ED090AB1EE400A0FE01B4890ED060A5A
:100E4000D0ED090AB4EEE00AF1EE10FA02DD90ED01
:100E5000090A02E0144890ED060A134880ED060ADC
:100E600090ED070AD0ED0A0AF1EE600AB4EEE00A4E
:100E700026E0000044280020CDCC4C3E602B002012
:100E80000000FA43CC2900200C0000200000204282
:100E900000001643240000201F85EB51B81E0940B6
:100EA000D82900201C000020082900202000002054
:100EB0000AD7A33B6666263F3333B33E10000020BB
:100EC000F1EE10FA04D290ED0A0AB1EE400A0FE0FA
:100ED000FC4890ED070AD0ED0A0AB4EEE00AF1EE04
:100EE00010FA02DD90ED0A0A02E0F64890ED070ADA
:100EF000F44880ED070A90ED080AD0ED0B0AF1EEF8
:100F0000600AB4EEE00AF1EE10FA04D290ED0B0A9A
:100F1000B1EE400A0FE0EB4890ED080AD0ED0B0A65
:100F2000B4EEE00AF1EE10FA02DD90ED0B0A02E0F9
:100F3000E44890ED080AE34880ED080A90ED000AC5
:100F4000DFEDE10AB4EEE00AF1EE10FA02D29FED15
:100F5000DE0A0FE0DB4890ED000ADFEDDC0AB4EEBC
:100F6000E00AF1EE10FA02DD9FEDD80A02E0D54862
:100F700090ED000AD34880ED000A90ED010ADFED04
:100F8000D20AB4EEE00AF1EE10FA02D29FEDCE0AD8
:100F90000FE0CC4890ED010ADFEDCC0AB4EEE00A98
:100FA000F1EE10FA02DD9FEDC90A02E0C54890EDAE
:100FB000010AC44880ED010A90ED020ADFEDC20A81
:100FC000B4EEE00AF1EE10FA02D29FEDBF0A0FE094
:100FD000BC4890ED020ADFEDBD0AB4EEE00AF1EE86
:100FE00010FA02DD9FEDB90A02E0B64890ED020A60
:100FF000B44880ED020A90ED000AD0ED0C0A30EE04
:10100000200AD0ED060A30EE200AD0ED150A20EEB7
:10101000200A80ED120A90ED010AD0ED0D0A30EEA3
:10102000200AD0ED070A30EE200AD0ED190A20EE92
:10103000200A80ED130A90ED020AD0ED0E0A30EE80
:10104000200AD0ED080A30EE200AD0ED1D0A20EE6D
:10105000200A80ED140A90ED000A80ED030A90ED5D
:10106000010A80ED040A90ED020A80ED050ABDEC4C
:101070000E8B10BD10B52DED048B8AB0F0EE408ABA
:10108000B0EE609AB0EE418A9FED910AB4EEC08A4C
:10109000F1EE10FA02D29FED8E0A0BE09FED8D0A61
:1010A000B4EEC08AF1EE10FA02DD9FED8A0A01E08B
:1010B000B0EE480AB0EE408AB1EE680A30EE090A96
:1010C00030EE080A8DED040A38EE890A30EE480A3F
:1010D0008DED050A38EEC90A30EE080A8DED060AD4
:1010E000B1EE680A30EE490A30EE480A8DED070A83
:1010F000002429E004A800EB840090ED000ADFED55
:10110000760AB4EEE00AF1EE10FA02D29FED720A0E
:1011100013E004A800EB840090ED000ADFED6F0AF5
:10112000B4EEE00AF1EE10FA02DD9FED6C0A04E085
:1011300004A800EB840090ED000A04A800EB8400F2
:1011400080ED000A601CC4B2042CD3DB9DED040AC0
:10115000B5EEC00AF1EE10FA02DD9DED040A03E0DF
:101160009DED040AB1EE400ADFED5D0A60EE200A53
:101170009FED5A1A80EE810ADFED5A0A30EE200AFE
:10118000DDED040A20EE200A8DED000A9DED050A32
:10119000B5EEC00AF1EE10FA02DD9DED050A03E09E
:1011A0009DED050AB1EE400ADFED4D0A60EE200A22
:1011B0009FED4A1A80EE810ADFED4A0A30EE200ADE
:1011C000DDED050A20EE200A8DED010A9DED060AEF
:1011D000B5EEC00AF1EE10FA02DD9DED060A03E05D
:1011E0009DED060AB1EE400ADFED3D0A60EE200AF1
:1011F0009FED3A1A80EE810ADFED3A0A30EE200ABE
:10120000DDED060A20EE200A8DED020A9DED070AAB
:10121000B5EEC00AF1EE10FA02DD9DED070A03E01B
:101220009DED070AB1EE400ADFED2D0A60EE200ABF
:101230009FED2A1A80EE810ADFED2A0A30EE200A9D
:10124000DDED070A20EE200A8DED030ADDED000A30
:10125000254890ED000A254890ED001A01EE200A7D
:10126000234880ED000ADDED010A1F4890ED000AD9
:101270001E4890ED001A01EE200A1D4880ED010A7B
:10128000DDED020A184890ED000A184890ED001AAA
:1012900001EE200A164880ED020ADDED030A12482D
:1012A00090ED000A114890ED001A01EE200A104856
:1012B00080ED030A0F48007878B30F48007868BBC8
:1012C000002447E0082900200000B4C20000B44216
:1012D0000000C8C30000C84300007AC400007A447C
:1012E0006666E63ECDCC0C3F0800002010000020D2
:1012F000182A0020A80400200C000020FE4800EB63
:10130000840090ED000ADFEDFD0AB4EEE00AF1EE94
:1013100010FA04D29FEDF90A15E04BE01DE0F64803
:1013200000EB840090ED000A5FED140AB4EEE00AD1
:10133000F1EE10FA02DD1FED170A04E0EE4800EBB3
:10134000840090ED000AEC4800EB840080ED000A78
:10135000601CC4B2042CD1DB39E0002427E0E6484D
:1013600000EB840090ED000AB5EEC00AF1EE10FA31
:1013700002D29FEDE30A13E0DF4800EB840090ED1A
:10138000000A5FED2A0AB4EEE00AF1EE10FA02DD7F
:101390001FED2E0A04E0D84800EB840090ED000A0F
:1013A000D54800EB840080ED000A601CC4B2042C18
:1013B000D5DB0CE0002408E09FEDD10ACE4800EB1D
:1013C000840080ED000A601CC4B2042CF4DBCA481F
:1013D00090ED000ABDEEC00A10EE100A00B2ADF8A2
:1013E0002000C54890ED010ABDEEC00A10EE100ABB
:1013F00000B2ADF82200C04890ED020ABDEEC00A6E
:1014000010EE100A00B2ADF82400BB4890ED030ABC
:10141000BDEEC00A10EE100A00B2ADF826004FF47F
:101420007A72002108A805F028FD0AB0BDEC048BF3
:1014300010BDB448D0ED020A9FEDB31A70EE810AD8
:10144000B248C0ED000A90ED001A5FED5E1AC1EEE1
:10145000210AAF4890ED001A30EEC11ADFEDAD0A57
:1014600060EE201AD0ED000A41EE810AC0ED000ABC
:10147000D0ED000AF5EEC00AF1EE10FA02D2DFED6F
:10148000A00A0FE0A248D0ED000AB7EE001AF4EE71
:10149000C10AF1EE10FA02DDF7EE000A02E09C4804
:1014A000D0ED000A9C48C0ED000A9848D0ED000A33
:1014B0009FED9A1AF4EEC10AF1EE10FA03D2012060
:1014C0009749087002E00020954908708F48D0EDD8
:1014D000000A9448C0ED000AD0ED000AF5EEC00AFB
:1014E000F1EE10FA02D2DFED860A0FE08D48D0ED62
:1014F000000A9FED8D1AF4EEC10AF1EE10FA02DD3A
:10150000DFED890A02E08748D0ED000A8548C0ED8A
:10151000000A704700B52DED028B83B0B0EE408A13
:10152000824890ED120AF3EE0E0A80EE201A9FED2B
:10153000800A21EE000A8DED000AD0ED130AB3EE09
:101540000E1A80EE810ADFED7A0A20EE200A8DED78
:10155000010A90ED140AF3EE0E0A80EE201A9FEDB8
:10156000740A21EE000A8DED020A9DED000A714811
:1015700080ED000A9DED010A80ED010A9DED020A51
:1015800080ED020A90ED000ADFED6B0AB4EEE00A8E
:10159000F1EE10FA02D29FED680A0FE0654890ED77
:1015A000000ADFED630AB4EEE00AF1EE10FA02DDA4
:1015B0009FED5F0A02E05F4890ED000A5D4880ED14
:1015C000000A90ED010ADFED5C0AB4EEE00AF1EEEC
:1015D00010FA02D29FED580A0FE0564890ED010A2A
:1015E000DFED530AB4EEE00AF1EE10FA02DD9FEDF2
:1015F000500A02E04F4890ED010A4E4880ED010A82
:1016000090ED020ADFED4C0AB4EEE00AF1EE10FABA
:1016100002D29FED490A0FE0464890ED020ADFED45
:10162000440AB4EEE00AF1EE10FA02DD9FED400A42
:1016300002E0404890ED020A3E4880ED020ADFEDEC
:101640003F0A80EE880A3E48D0ED0A0A3D4890EDF8
:10165000001A70EEC10A20EE200A3B4880ED0F0A06
:10166000DFED360A80EE880A3548D0ED0B0AF1EE40
:10167000600A344890ED011A70EEC10A20EE200A8B
:10168000314880ED100ADFED2D0A80EE880A2C48E3
:10169000D0ED0C0AF1EE600A2A4890ED021A70EEC5
:1016A000C10A20EE200A284880ED110A214890ED59
:1016B000000A2348D0ED0A0A30EE600AF7EE000A6D
:1016C00020EE200A204880ED000A1A4890ED010A19
:1016D0001B48D0ED0B0A30EE200AF7EE000A20EE90
:1016E000200A194880ED010A124890ED020A1448B8
:1016F000D0ED0C0A2AE00000182A00200000484320
:1017000000000000602B00200000FA4314000020BD
:10171000180000203433FB41100000200000C842B4
:101720000C00002008000020000048440829002088
:1017300000009643F0290020000096C36F12033B7F
:101740000C330020FC2900204428002030EE200A21
:10175000F7EE000A20EE200AFE4880ED020A90ED26
:10176000000AB5EEC00AF1EE10FA02DD90ED000AB3
:1017700004E0F84890ED000AB1EE400A5FED140A6B
:1017800080EE201AF34880ED2D1A90ED010AB5EE97
:10179000C00AF1EE10FA02DD90ED010A04E0ED4816
:1017A00090ED010AB1EE400A5FED1F0A80EE201AAB
:1017B000E84880ED2E1A90ED020AB5EEC00AF1EE6F
:1017C00010FA02DD90ED020A04E0E24890ED020A10
:1017D000B1EE400ADFEDE00A80EE201ADD4880ED30
:1017E0002F1A5FED2A0A80EE880AD0ED160A90EDD6
:1017F0000F1AFAEE041A21EE211A60EE810A20EE89
:10180000200A80ED0C0A5FED330A80EE880AD0EDE5
:101810001A0A90ED101AFAEE041A21EE211A60EE5F
:10182000810A20EE200A80ED0D0A5FED3C0A80EE71
:10183000880AD0ED1E0A90ED111AFAEE041A21EE74
:10184000211A60EE810A20EE200A80ED0E0A90ED4A
:10185000000AD0ED0F0A30EE600AD0ED170A60EEF4
:10186000200A90ED060A00EE880A80ED060A90ED47
:10187000010AD0ED100A30EE600AD0ED1B0A60EECE
:10188000200A90ED070A00EE880A80ED070A90ED25
:10189000020AD0ED110A30EE600AD0ED1F0A60EEA8
:1018A000200A90ED080A00EE880A80ED080AAB488D
:1018B00090ED000AF6EE000A20EE200A5FED640AC1
:1018C00020EE200AA34880ED090AA44890ED000A02
:1018D000F6EE000A20EE200A5FED6B0A20EE200AE9
:1018E0009C4880ED0A0A9D4890ED000AF6EE000A39
:1018F00020EE200A5FED720A20EE200A954880ED66
:101900000B0A90ED060AD0ED090AF1EE600AB4EE7A
:10191000E00AF1EE10FA04D290ED090AB1EE400AA5
:101920000FE08C4890ED060AD0ED090AB4EEE00A0B
:10193000F1EE10FA02DD90ED090A02E0854890ED23
:10194000060A844880ED060A90ED070AD0ED0A0ADF
:10195000F1EE600AB4EEE00AF1EE10FA04D290ED76
:101960000A0AB1EE400A0FE07A4890ED070AD0ED7E
:101970000A0AB4EEE00AF1EE10FA02DD90ED0A0A6E
:1019800002E0744890ED070A724880ED070A90ED76
:10199000080AD0ED0B0AF1EE600AB4EEE00AF1EEAF
:1019A00010FA04D290ED0B0AB1EE400A0FE069483C
:1019B00090ED080AD0ED0B0AB4EEE00AF1EE10FA51
:1019C00002DD90ED0B0A02E0624890ED080A6148E2
:1019D00080ED080A90ED300AF7EE000A30EEC00AFA
:1019E000D0ED150A20EE200AD0ED000A90ED0C1A79
:1019F00070EE810A90ED061A70EE810A60EE200A00
:101A000090ED301A5648D0ED2D1A9FED560A9FEDF5
:101A1000562A02EE210AB5EEC00AF1EE10FA02D201
:101A20001FEDC90A1BE04E48D0ED2D1A9FED4D0A5F
:101A30009FED4D2A02EE210AF7EE001AB4EEE10AFC
:101A4000F1EE10FA02DDB7EE000A08E04448D0EDEE
:101A50002D1A9FED440A9FED442A02EE210A21EE41
:101A6000000A424890ED001A40EE010AB0EE080A62
:101A700020EE800A374880ED120A90ED300AF7EE2A
:101A8000000A30EEC00AD0ED190A20EE200AD0ED8F
:101A9000010A90ED0D1A70EE810A90ED071A70EEB2
:101AA000810A60EE200A90ED301A2D48D0ED2E1AF2
:101AB0009FED2C0A9FED2C2A02EE210AB5EEC00AFA
:101AC000F1EE10FA02D21FEDF20A1BE02448D0ED2D
:101AD0002E1A9FED240A9FED242A02EE210AF7EE2A
:101AE000001AB4EEE10AF1EE10FA02DDB7EE000AD8
:101AF00008E01B48D0ED2E1A9FED1A0A9FED1A2A16
:101B000002EE210A21EE000A184890ED011A40EE7B
:101B1000010AB0EE080A20EE800A0E4880ED130A92
:101B200090ED300AF7EE000A30EEC00AD0ED1D0A43
:101B300020EE200AD0ED020A90ED0E1A70EE810A16
:101B400090ED081A70EE810A60EE200A90ED301ACE
:101B500003480DE044280020000016431000002038
:101B6000082900206666E63ECDCC0C3FF029002017
:101B7000D0ED2F1A1FED050A1FED052A02EE210AEE
:101B8000B5EEC00AF1EE10FA02D29FED330A1BE067
:101B90003248D0ED2F1A1FED0D0A1FED0D2A02EE6F
:101BA000210AF7EE001AB4EEE10AF1EE10FA02DDB6
:101BB000B7EE000A08E02948D0ED2F1A1FED170AEA
:101BC0001FED172A02EE210A21EE000A244890EDAB
:101BD000021A40EE010AB0EE080A20EE800A2148FF
:101BE00080ED140AB0EE480AFFF723FC1D48D0ED43
:101BF000141AB0EE611AD0ED131AF0EE610AD0EDAE
:101C0000121AB0EE610AFFF735FA164890ED000A95
:101C100080ED030A90ED010A80ED040A90ED020ABE
:101C200080ED050A104890ED0A0A104880ED000A80
:101C30000D4890ED0B0AB1EE400A0C4880ED010A08
:101C4000094890ED0C0AB1EE400A084880ED020AFE
:101C500003B0BDEC028B00BD00000000082900208D
:101C6000F0290020442800200C330020FC2900200B
:101C700070B52DED108BB0EE408AB0EE60EAF0EE5C
:101C800041EAB0EE61FAF0EE429AB0EE629AF0EEFE
:101C9000438A04460D4616469FEDFB0A28EE000ACD
:101CA000F3EE040A20EE200AF0EE40AAF748D0ED49
:101CB000080A60EEA00A90ED091AD0ED091A41EE6B
:101CC000210A90ED0A1AD0ED0A1A41EE210AB0EE6F
:101CD000600A00F006FDEE4880ED000A90ED000A73
:101CE000B5EEC00AF1EE10FA38D0E84890ED080AD7
:101CF000E748D0ED000A80EE201AE64890ED000A91
:101D000071EE400A90ED000A0AEEA00A80ED000A8A
:101D1000DE4890ED090ADE48D0ED000A80EE201A78
:101D2000DC4890ED010A71EE400A90ED010A0AEEDE
:101D3000A00A80ED010AD548D0ED0A0AD44890EDFA
:101D4000001A80EE810AD348D0ED020A70EE600AD4
:101D500090ED020A0AEEA00A80ED020ACE4ACD49B1
:101D6000CE4803F09EFBCC48D0ED000A60EEA00AFE
:101D700090ED011AD0ED011A41EE210AB0EE600A91
:101D800000F0AFFCC64880ED000AC34890ED000AA1
:101D9000B5EEC00AF1EE10FA36D090ED010AB5EEBC
:101DA000C00AF1EE10FA2FD090ED020AB5EEC00A8B
:101DB000F1EE10FA28D0BA4890ED000AB5EEC00A4C
:101DC000F1EE10FA20D0B44890ED000AB448D0EDFE
:101DD000000A80EE201AB0EE41BAAF4890ED010A39
:101DE000AF48D0ED000A80EE201AF0EE41BAF0EED6
:101DF0004B0AB0EE6B0A00F0B4FBDFEDAA0A20EE4E
:101E0000200AA94880ED000AA84890ED010AD0ED0B
:101E1000030A20EE200AD0ED000A90ED021A00EE2F
:101E2000C10AF0EE000A20EE200A9C4880ED000A6C
:101E30009E4890ED000AD0ED010A20EE200AD0ED78
:101E4000020A90ED031A00EE810AF0EE000A20EE7D
:101E5000200A924880ED010A944890ED010A20EE94
:101E6000000AD0ED020A90ED021A00EE810AF7EEA8
:101E7000000AB0EE001A41EE400A8848C0ED020A9E
:101E800069EEA90A49EE090A48EEA80AB0EE600A0E
:101E900000F027FC864880ED000A9FED7B0A28EEC3
:101EA000000AF2EE040A60EE200A90ED000A814872
:101EB00090ED001A30EE411A90ED000A00EE810A12
:101EC00080ED000AF5EEC09AF1EE10FA02DDB0EEF8
:101ED000690A01E0B1EE690ADFED770AB4EEE00AC3
:101EE000F1EE10FA7DD2B5EEC09AF1EE10FA02DDF5
:101EF000B0EE490A01E0B1EE490ADFED6F0AB4EE37
:101F0000E00AF1EE10FA78D2F5EEC08AF1EE10FA9E
:101F100002DDB0EE680A01E0B1EE680ADFED660AA4
:101F2000B4EEE00AF1EE10FA67D2614890ED000AD3
:101F3000C9EE800AF0EE609A90ED000AC9EE000A40
:101F4000B0EE609A90ED000AC8EE800AF0EE608A6A
:101F500090ED000ADFED590AB4EEE00AF1EE10FA56
:101F600054DD90ED000ADFED540AB4EEE00AF1EE24
:101F700010FA4BD2494890ED020A20EE090AD0ED42
:101F8000010A08EEE00A4E4880ED030A434890ED4E
:101F9000000A20EE280AD0ED020A09EEE00A4848BD
:101FA00080ED040A9FED380A28EE000AF7EE000AD9
:101FB00020EE20AA90ED030AD0ED060A70EE600A2A
:101FC00090ED060A0AEE200A80ED060A90ED040A5A
:101FD000D0ED070A70EE600A90ED070A0AEE200ABB
:101FE00000E00AE080ED070A90ED060A80ED000AA5
:101FF00090ED070A80ED010A08E09FED320A3048B3
:1020000080ED000A9FED2F0A80ED010A2C4890ED2B
:10201000090AD0ED000A9FED2C1A60EE810AB0EE9D
:10202000001A60EE810A00EE880A80ED090A90ED40
:102030000A0AD0ED010A9FED241A60EE810AB0EE83
:10204000001A60EE810A00EE880A80ED0A0A90ED1F
:102050000B0AD0ED020A9FED1C1A60EE810AB0EE69
:10206000001A60EE810A00EE880A80ED0B0A90EDFE
:10207000090ADFED160AB4EEE00AF1EE10FA27D2F3
:102080009FED120A34E00000C3F5C8408805002027
:10209000480000209C2A0020902A0020482A002086
:1020A0004400002033336542500000202800002007
:1020B00038000020400000200080894500806D45E8
:1020C000542A002000000000CDCCCC3D34FA0EBDD7
:1020D000FE4890ED090ADFEDFE0AB4EEE00AF1EEEB
:1020E00010FA02DD9FEDFA0A02E0F84890ED090AC5
:1020F000F64880ED090A90ED0A0A5FED0C0AB4EE8D
:10210000E00AF1EE10FA02D21FED100A0FE0EF48DC
:1021100090ED0A0ADFEDEE0AB4EEE00AF1EE10FAF5
:1021200002DD9FEDEB0A02E0E84890ED0A0AE7487D
:1021300080ED0A0A90ED0B0A5FED1C0AB4EEE00A8E
:10214000F1EE10FA02D21FED1F0A0FE0DF4890ED0A
:102150000B0ADFEDDF0AB4EEE00AF1EE10FA02DD61
:102160009FEDDB0A02E0D94890ED0B0AD74880EDDD
:102170000B0AD84890ED020AB5EEC00AF1EE10FA4B
:1021800029DDD548007898B1D448D0ED000AD4486C
:1021900090ED001A70EEC10AB0EE600A00F03CFC4F
:1021A000DFEDD00A20EE200ACF4880ED000A12E0D1
:1021B000CA48D0ED000ACA4890ED001A70EEC10A74
:1021C000B0EE600A00F028FCDFEDC80A20EE200A1D
:1021D000C54880ED000ABD4890ED000AD0ED090A1F
:1021E00030EE200ADFEDC20A20EE200AB94890ED59
:1021F000001ABD48D0ED001AF0EE4E0A41EE610A19
:102200009FEDBC1A00EE810AB04880ED0C0A90EDFB
:10221000010AD0ED0A0A30EE200ADFEDB50A20EE01
:10222000200AAC4890ED011AAF48D0ED001AF0EE4C
:102230006E0A41EE610A9FEDAF1A00EE810AA348D3
:1022400080ED0D0AA348D0ED020AA74890ED001AD0
:10225000B0EE4F0A00EEC10ADFEDA60A20EE200A1A
:102260009A4880ED0E0AA44890ED010AB1EE400AAA
:102270009648D0ED0C0A20EE200A9F48D0ED020AC5
:10228000924890ED0D1A00EEC10A9B48D0ED030A6A
:102290008E4890ED0E1A00EEC10A9748D0ED000A64
:1022A00040EE080AC0ED000A90ED000A8748D0ED24
:1022B0000C0A20EE200A9048D0ED020A834890EDE7
:1022C0000E1A00EE810A8C48D0ED030A7F4890ED8B
:1022D0000D1A00EEC10A8848D0ED010A40EE080A46
:1022E000C0ED010A90ED000A7848D0ED0D0A20EE0D
:1022F000200A8148D0ED010A744890ED0E1A00EED4
:10230000C10A7D48D0ED030A704890ED0C1A00EE2A
:10231000810A7948D0ED020A40EE080AC0ED020AAF
:1023200090ED000A6948D0ED0E0A20EE200A7248AE
:10233000D0ED010A654890ED0D1A00EE810A6E4855
:10234000D0ED020A614890ED0C1A00EEC10A6A480D
:10235000D0ED030A40EE080AC0ED030AD0ED000AF2
:1023600060EEA00A90ED011AD0ED011A41EE210AAB
:1023700090ED021AD0ED021A41EE210A90ED031AF7
:10238000D0ED031A41EE210AB0EE600A00F0A9F97F
:102390005A4880ED000A584890ED000A5748D0EDA1
:1023A000000A80EE201A544880ED001A90ED010AD0
:1023B0005248D0ED000A80EE201A4F4880ED011AF5
:1023C00090ED020A4D48D0ED000A80EE201A4A48EE
:1023D00080ED021A90ED030A4848D0ED000A80EE25
:1023E000201A454880ED031A90ED011A21EE011ADA
:1023F000D0ED021A90ED022A01EE821AF7EE001AD1
:10240000B0EE002A42EE411AF0EE610A90ED001A99
:10241000D0ED011A21EE211AD0ED021A90ED032A17
:1024200001EE821AF0EE001A21EE211AB0EE410AF6
:1024300000F097F85FEDE50A20EE200A84ED000A2F
:102440002D4890ED010AD0ED030A20EE200AD0EDD0
:10245000000A90ED021A00EEC10AF0EE000A20EE2A
:10246000200A10EE101A084611F0A7FD41EC1D0BD2
:10247000B0EE4D0AF0EE6D0A11F0DAFFB0EE40CA90
:10248000F0EE60CA9FED1E0B53EC102B51EC1C0BB1
:1024900011F010FD41EC1B0B11F0D2FD2860164825
:1024A00090ED001A21EE011AD0ED011A90ED012AEB
:1024B00001EE821AF7EE001AB0EE002A52EE011A6F
:1024C000F0EE610A90ED011A1EE00000542A00208F
:1024D00034FA0E3D482A0020A804002050000020B5
:1024E0002400002090C2F53D4C0000206766663F46
:1024F0009A99193F34FA8E3C280000203C000020B5
:102500000000006066A64C40B1EE411AD0ED021A00
:1025100021EE211AD0ED001A90ED032A01EEC21A25
:10252000F0EE001A21EE211AB0EE410A00F019F87F
:10253000DFED040A20EE200A86ED000ABDEC108BC8
:1025400070BD000033336542F0EE400AF5EEC00A7C
:10255000F1EE10FA02DBB0EE600A7047B1EE600AED
:10256000FBE700B5B0EE403AB0EE602AB5EEC03AF7
:10257000F1EE10FA07D1B5EEC02AF1EE10FA02D151
:102580009FEDFD1A99E0B0EE430AFFF7DDFFF0EE94
:10259000403AB0EE420AFFF7D7FFF0EE402AF4EEE1
:1025A000E23AF1EE10FA02D283EEA24A01E082EEA4
:1025B000A34A9FEDF20AB4EEC04AF1EE10FA02D23D
:1025C000F0EE441A2DE0DFEDEE0AB6EE000A14EE4E
:1025D000200AF0EE404ABDEEE40A10EE100A00EECA
:1025E000100AB8EEC00A34EEC00AF0EE404AE549DF
:1025F00001EB800191ED000AF0EE401AE14A411C26
:1026000002EB810191ED000A114601EB8001D1ED51
:10261000000A70EE600AB0EE610A00EEA40AF0EE65
:10262000401AF4EEE32AF1EE10FA20DDB5EEC02AEE
:10263000F1EE10FA0ADBB5EEC03AF1EE10FA02DB69
:10264000B0EE611A39E0B1EE611A36E09FEDCE1AB4
:10265000B5EEC03AF1EE10FA04DB31EE610AB0EEED
:10266000401A2AE031EEC10AB0EE401A25E0B5EE7C
:10267000C03AF1EE10FA10DB9FEDC41AB5EEC02A95
:10268000F1EE10FA04DB31EE610AB0EE401A14E00C
:1026900031EE210AB0EE401A0FE09FEDBD1AB5EE03
:1026A000C02AF1EE10FA04DB31EE210AB0EE401A36
:1026B00003E031EE610AB0EE401AB0EE410A00BD0F
:1026C00000B5B0EE405AF0EE605AF0EE450AB0EEBA
:1026D000650AFFF746FF00BDF0EE400A20EEA00AB3
:1026E0007047B0EE401AB7EE080AB0EE402AB6EED8
:1026F000000A21EE000AF0EE401AF0EE410A10EE58
:10270000900AA449A1EB600000EE900A61EEA02AB5
:10271000B7EE080A02EEE00A20EE200AF0EE400AC8
:1027200061EEA02AB7EE080A02EEE00A20EE200AC7
:10273000F0EE400A21EE200A704710B52DED0A8B0D
:10274000B0EE409AF0EE609A9FED930B53EC102B95
:1027500051EC190B11F044FC18D29FED910B53EC86
:10276000102B51EC190B11F0A5FB41EC1B0B9FED4D
:102770008E0B53EC102B11F0F6FA41EC1A0B53ECC4
:10278000192B11F097FB41EC180B17E09FED840B10
:1027900053EC102B51EC190B11F08CFB41EC1B0B83
:1027A0009FED810B53EC102B11F081FB41EC1A0BC8
:1027B00053EC192B11F07EFB41EC180B9FED760BBF
:1027C00053EC102B51EC180B11F00AFC20D29FEDAA
:1027D000780B53EC102B51EC180B11F0C4FA41ECB0
:1027E0001C0B9FED750B53EC102B11F063FB41ECB0
:1027F0001B0B9FED6F0B53EC102B11F0B4FA41EC57
:102800001A0B53EC182B11F055FB41EC180B1FE081
:102810009FED670B53EC102B51EC180B11F044FBA0
:1028200041EC1C0B9FED660B53EC102B11F042FB9F
:1028300041EC1B0B9FED5E0B53EC102B11F093FA48
:1028400041EC1A0B53EC182B11F034FB41EC180B34
:10285000B0EE480AF0EE680ABDEC0A8B10BD10B568
:102860002DED068BB0EE408AF0EE608A01249FEDDC
:10287000560B53EC102B51EC180B11F0C9FB0AD876
:102880009FED510B53EC102B51EC180B11F00CFB7E
:1028900041EC180BA41E204611F07EFB41EC190BF5
:1028A000B0EE480AF0EE680AFFF747FFB0EE40AA24
:1028B000F0EE60AA53EC192B51EC1A0B11F0FAFA56
:1028C00041EC100BBDEC068B10BD10B52DED088B47
:1028D000B0EE408AF0EE608A01249FED3D0B53EC90
:1028E000102B51EC180B11F03EFA41EC180B9FED38
:1028F000360B53EC102B51EC180B11F089FB0AD856
:10290000A41E9FED310B53EC102B51EC180B11F062
:10291000CBFA41EC180B204611F03EFB41EC1A0BB0
:10292000B0EE480AF0EE680AFFF799FFB0EE40BA41
:10293000F0EE60BA53EC1A2B51EC1B0B11F0BAFA03
:1029400041EC190B11F07CFB00EE100ABDEC088B7A
:1029500010BDB0EE401AB5EEC01AF1EE10FA3BDD34
:1029600031EE600AB5EEC00AF1EE10FA3FD2DFEDAB
:10297000021AB0EE610A3AE0000000008180803B5C
:102980000000804354000020DB0F4940DB0FC93FAB
:10299000DB0FC9BFDF59375F0000000000000000F7
:1029A000000000602FF0D93F00000060305FF43F6E
:1029B000000000000000F03F000000C0CCCCCCBF05
:1029C000000000C0CCCCCC3FF1D4C853FB2109405F
:1029D000F1D4C853FB21F93F31EE200AB5EEC00A0D
:1029E000F1EE10FA03DD5FED1C1AB0EE610A7047DC
:1029F000B0EE401AF1EE601AB4EEE11AF1EE10FA00
:102A000007DDB4EEE01AF1EE10FA02D21FED260A4D
:102A100001E0B0EE410A7047F0EE400A9FED210A56
:102A2000F4EEC00AF1EE10FA04DD9FED1F0A30EE5D
:102A3000C00A70479FED1D0AF4EEC00AF1EE10FACD
:102A400004D29FED190A30EE800AF2E7B0EE600A78
:102A5000EFE7F0EE401AB7EE000AF4EEC00AF1EE2E
:102A600010FA04DCF5EEC00AF1EE10FA02D21FED06
:102A70003E0A704781EE810AB5EEC00AF1EE10FA07
:102A800002DD81EE810A03E081EE810AB1EE400AA7
:102A900020EE202AB7EE000A30EE600A02EE210A8C
:102AA000E7E70000000034430000B443000034C3F3
:102AB00070B505460C462146F84805F05AFB70BD36
:102AC0002DE9F0432DED028B83B005460E461746E7
:102AD0009846B0EE408A0024AA222146641CEF48A2
:102AE00042542146641C425404222146641C425430
:102AF00000222146641C42542146641C4554214650
:102B0000641C465401979DF807202146641C4254DA
:102B10009DF806202046611CCCB2E0490A549DF87D
:102B200005202046611CCCB2DC490A549DF80420E3
:102B30002046611CCCB2D9490A54CDF804809DF8D6
:102B400007202046611CCCB2D4490A549DF80620C7
:102B50002046611CCCB2D1490A549DF8052020467C
:102B6000611CCCB2CD490A549DF804202046611C5A
:102B7000CCB2CA490A549FEDCA0A28EE000ABDEE3B
:102B8000C00A10EE100A00B202909DF809202046FB
:102B9000611CCCB2C1490A549DF808202046611C32
:102BA000CCB2BE490A54201FC8704FF00009002063
:102BB00006E0BA49095C494401F0FF09411CC8B26A
:102BC000A042F6DB2046611CCCB2B44901F800906B
:102BD0002146B248FFF76CFF03B0BDEC028BBDE8A5
:102BE000F08370B52DED0A8B82B00546B0EE408AB9
:102BF000F0EE608AB0EE419AF0EE619AB0EE42AA31
:102C0000F0EE62AAB0EE43BAF0EE63BAB0EE44CA98
:102C10000024AA222146641CA04842542146641C78
:102C2000425405F10F00C2B22146641C9B48425435
:102C300000222146641C42549FED9A0A28EE000AA5
:102C4000BDEEC00A10EE100A00B201909DF80520FA
:102C50002146641C914842549DF804202146641C7E
:102C600042549FED900A28EE800ABDEEC00A10EE95
:102C7000100A00B201909DF805202146641C874887
:102C800042549DF804202046611CCCB283490A546A
:102C90009FED840A29EE000ABDEEC00A10EE100A6C
:102CA00000B201909DF805202046611CCCB27B4902
:102CB0000A549DF804202046611CCCB277490A547E
:102CC0009FED780A29EE800ABDEEC00A10EE100AC8
:102CD00000B201909DF805202046611CCCB26F49DE
:102CE0000A549DF804202046611CCCB26B490A545A
:102CF0009FED6C0A2AEE000ABDEEC00A10EE100A23
:102D000000B201909DF805202046611CCCB26349B9
:102D10000A549DF804202046611CCCB25F490A5435
:102D20009FED600A2AEE800ABDEEC00A10EE100A7E
:102D300000B201909DF805202046611CCCB2574995
:102D40000A549DF804202046611CCCB253490A5411
:102D50009FED540A2BEE000ABDEEC00A10EE100AD9
:102D600000B201909DF805202046611CCCB24B4971
:102D70000A549DF804202046611CCCB247490A54ED
:102D80009FED480A2BEE800ABDEEC00A10EE100A35
:102D900000B201909DF805202046611CCCB23F494D
:102DA0000A549DF804202046611CCCB23B490A54C9
:102DB0009FED3C0A2CEE000ABDEEC00A10EE100A90
:102DC00000B201909DF805202046611CCCB2334929
:102DD0000A549DF804202046611CCCB22F490A54A5
:102DE000201FC8700026002005E02C49095C3144F2
:102DF000CEB2411CC8B2A042F7DB2046611CCCB267
:102E000026490E5421462548FFF752FE02B0BDEC7C
:102E10000A8B70BDF8B505460E460024AA2221464D
:102E2000641C1E4842542146641C4254052221461B
:102E3000641C425400222146641C425400959DF8B3
:102E400001202146641C42549DF800202146641C48
:102E5000425400969DF801202146641C42549DF87E
:102E600000202146601CC4B20C484254201F0B496C
:102E7000C8700027002005E00849095C3944CFB23A
:102E8000411CC8B2A042F7DB2046611CCCB203490A
:102E90000F5421460148FFF70BFEF8BDB92A002068
:102EA0000000C84200007A447FB50024AA222146CF
:102EB000641CFE4842542146641C425406222146AA
:102EC000641C425400222146641C42549DF8012097
:102ED0002146641C42549DF800202146641C425443
:102EE0009DF805202146641C42549DF8042020468C
:102EF000611CCCB2ED490A549DF809202046611CA2
:102F0000CCB2EA490A549DF808202046611CCCB294
:102F1000E6490A549DF80D202046611CCCB2E349D5
:102F20000A549DF80C202146601CC4B2DF4842546C
:102F30009DF821202046611CCCB2DC490A549DF842
:102F400020202046611CCCB2D8490A549DF8252087
:102F50002046611CCCB2D5490A549DF82420204655
:102F6000611CCCB2D1490A549DF829202046611C2D
:102F7000CCB2CE490A549DF828202046611CCCB220
:102F8000CA490A549DF82D202046611CCCB2C7497D
:102F90000A549DF82C202046611CCCB2C3490A5427
:102FA000201FC8700025002005E0C049095C2944A5
:102FB000CDB2411CC8B2A042F7DB2046611CCCB2A6
:102FC000BA490D542146B948FFF772FD7FBD7FB560
:102FD0000024AA222146641CB44842542146641CA1
:102FE000425403222146641C425400222146641CA0
:102FF00042549DF801202146641C42549DF8002053
:103000002146641C42549DF805202146641C42540C
:103010009DF804202046611CCCB2A4490A549DF8B6
:1030200009202046611CCCB2A0490A549DF8082012
:103030002046611CCCB29D490A549DF80D202046C3
:10304000611CCCB299490A549DF80C202046611CA1
:10305000CCB296490A549DF821202046611CCCB27E
:1030600092490A549DF820202146601CC4B28F4822
:1030700042549DF825202046611CCCB28B490A544D
:103080009DF824202046611CCCB288490A549DF842
:1030900029202046611CCCB284490A549DF828207E
:1030A0002046611CCCB281490A549DF82D2020464F
:1030B000611CCCB27D490A549DF82C202046611C2D
:1030C000CCB27A490A549DF831202046611CCCB21A
:1030D00076490A549DF830202046611CCCB27349D1
:1030E0000A549DF835202046611CCCB26F490A5421
:1030F0009DF834202046611CCCB26C490A54201F34
:10310000C8700025002005E06849095C2944CDB25B
:10311000411CC8B2A042F7DB2046611CCCB2634917
:103120000D5421466148FFF7C3FC7FBD73B50024F1
:10313000AA222146641C5D4842542146641C425424
:1031400007222146641C425400222146641C42543A
:103150009DF803202146641C42549DF8022021461C
:10316000641C42549DF801202146641C42549DF881
:1031700000202046611CCCB24C490A549DF8052021
:103180002046611CCCB249490A549DF804202046CF
:10319000611CCCB245490A54201FC870002500208C
:1031A00005E04249095C2944CDB2411CC8B2A042A5
:1031B000F7DB2046611CCCB23C490D5421463B480C
:1031C000FFF776FC7CBD2DE9F84F05460E46174605
:1031D0009846DDE90AAB0024AA222146641C334844
:1031E00042542146641C425402222146641C42542B
:1031F00000222146641C425400959DF8012021467E
:10320000641C42549DF800202146641C42540096E0
:103210009DF801202146641C42549DF8002021465F
:10322000601CC4B22148425400979DF801202046FA
:10323000611CCCB21D490A549DF800202046611C37
:10324000CCB21A490A54CDF800809DF801202046DE
:10325000611CCCB215490A549DF800202046611C1F
:10326000CCB212490A54CDF800A09DF801202046A6
:10327000611CCCB20D490A549DF800202046611C07
:10328000CCB20A490A54CDF800B09DF8012021467D
:10329000601CC4B2054842549DF800202146601CC1
:1032A000C4B2024842540C98009001E0B92A0020B0
:1032B0009DF801202046611CCCB2FE490A549DF8BD
:1032C00000202046611CCCB2FA490A540D980090A7
:1032D0009DF801202046611CCCB2F6490A549DF8A5
:1032E00000202046611CCCB2F2490A540E9800908E
:1032F0009DF801202046611CCCB2EE490A549DF88D
:1033000000202046611CCCB2EA490A5400200090FB
:103310009DF801202046611CCCB2E6490A549DF874
:1033200000202046611CCCB2E2490A54201FC8701C
:103330004FF00009002006E0DE49095C494401F035
:10334000FF09411CC8B2A042F6DB2046611CCCB28A
:10335000D84901F800902146D648FFF7A9FBBDE8FF
:10336000F88F38B50024AA222146641CD148425463
:103370002146641C4254F1222146641C425400221E
:103380002146641C4254CC4890ED000ABDEEC00AB0
:1033900010EE100A00B200909DF801202146641C36
:1033A000C44842549DF800202146641C4254C3483E
:1033B00090ED000ABDEEC00A10EE100A00B20090B7
:1033C0009DF801202146641CBA4842549DF8002013
:1033D0002046611CCCB2B7490A54B84890ED000AA7
:1033E000BDEEC00A10EE100A00B200909DF8012058
:1033F0002046611CCCB2AF490A549DF800202046FB
:10340000611CCCB2AB490A54AD4890ED000ABDEE48
:10341000C00A10EE100A00B200909DF8012020466C
:10342000611CCCB2A3490A549DF800202046611CBF
:10343000CCB2A0490A54A34890ED000ABDEEC00AE0
:1034400010EE100A00B200909DF801202046611C89
:10345000CCB298490A549DF800202046611CCCB299
:1034600094490A54201FC8700025002005E09149A6
:10347000095C2944CDB2411CC8B2A042F7DB20460A
:10348000611CCCB28B490D5421468A48FFF710FBD2
:1034900038BD30B52DED048B81B0B0EE408AF0EE32
:1034A000608AB0EE419A0024AA222146641C814819
:1034B00042542146641C42540B222146641C42544F
:1034C00000222146641C42549FED7F0A28EE000A28
:1034D000BDEEC00A10EE100A00B200909DF8012067
:1034E0002146641C734842549DF800202146641C08
:1034F00042549FED750A28EE800ABDEEC00A10EE18
:10350000100A00B200909DF801202146641C694811
:1035100042549DF800202046611CCCB265490A54F3
:103520009FED690A29EE000ABDEEC00A10EE100AEE
:1035300000B200909DF801202046611CCCB25D498C
:103540000A549DF800202046611CCCB259490A5407
:10355000201FC8700025002005E05649095C294459
:10356000CDB2411CC8B2A042F7DB2046611CCCB2F0
:1035700050490D5421464F48FFF79AFA01B0BDEC6F
:10358000048B30BD2DE9F0432DED048B83B0B0EEFC
:10359000408AF0EE608AB0EE419A05460E46174624
:1035A000984600240196AA222146641C41484254B0
:1035B0002146641C425401222146641C42540022CC
:1035C0002146641C42549FED410A28EE000ABDEEDC
:1035D000C00A10EE100A00B202909DF809202146A0
:1035E000641C344842549DF808202146641C42540F
:1035F0009FED360A28EE800ABDEEC00A10EE100AD2
:1036000000B202909DF809202146641C29484254CA
:103610009DF808202046611CCCB226490A549FED33
:103620002B0A29EE000ABDEEC00A10EE100A00B205
:1036300002909DF809202046611CCCB21D490A5415
:103640009DF808202046611CCCB21A490A54029504
:103650009DF809202046611CCCB216490A549DF8F9
:1036600008202046611CCCB212490A549DF807205C
:103670002046611CCCB20F490A549DF80620204612
:10368000611CCCB20B490A549DF805202046611CF0
:10369000CCB208490A549DF804202046611CCCB2E3
:1036A00004490A542046611CCCB202490F542046FA
:1036B000611C0DE0B92A0020F8040020E00400207D
:1036C000D0040020F0040020CDCCCC3D0000C84246
:1036D000CCB2FD4901F80080201FC8704FF00009EE
:1036E000002006E0F849095C494401F0FF09411C4B
:1036F000C8B2A042F6DB2046611CCCB2F24901F808
:1037000000902146F048FFF7D3F903B0BDEC048BDD
:10371000BDE8F0837FB505460024AA222146641C3B
:10372000E94842542146641C425400222146641C4C
:1037300042542146641C42542146641C45549DF861
:1037400005202146641C42549DF804202146641C37
:1037500042549DF809202046611CCCB2DA490A5433
:103760009DF808202046611CCCB2D7490A549DF828
:103770000D202046611CCCB2D3490A549DF80C2080
:103780002046611CCCB2D0490A549DF82120204625
:10379000611CCCB2CC490A549DF820202046611C03
:1037A000CCB2C9490A54201FC8700026002005E089
:1037B000C549095C3144CEB2411CC8B2A042F7DB16
:1037C0002046611CCCB2C0490E542146BE48FFF7CA
:1037D0006FF97FBD10B586B0BC480078BC49097848
:1037E00090FBF1F201FB1201B9480078401E8142C2
:1037F00002D10120B7498870B4480078B6490978E9
:1038000090FBF1F201FB1201B3480078401E8142A7
:1038100002D10120AF49C870AC480078AF4909789F
:1038200090FBF1F201FB1201AC480078801E81424E
:1038300002D10120A7498873A4480078A8490978D3
:1038400090FBF1F201FB1201A5480078401E814275
:1038500002D101209F4948709C480078A14909780D
:1038600090FBF1F201FB12019E480078401E81425C
:1038700002D1012097498872944800789A490978C2
:1038800090FBF1F201FB120197480078801E814203
:1038900002D101208F4908738C4800789349097838
:1038A00090FBF1F201FB120190480078801E8142EA
:1038B00002D1012087494873844800788C490978EF
:1038C00090FBF1F201FB120189480078C01E814291
:1038D00002D101207F49C8737C4800788549097866
:1038E00090FBF1F201FB120182480078C01E814278
:1038F00004D17848007C401C7649087473480078ED
:10390000401CC0B271490870C82801DD0020087051
:103910007048007860B100206E4908704FF4C87399
:1039200064224FF4967100900420FFF7F3FE08E242
:1039300068484078F8B10020664948706E4890EDBC
:10394000000A5FED9F0A20EE200ABDEEC00A10EECD
:10395000101A6A48037800226948008800B2694C4E
:1039600094ED001A684CD4ED000A684C94ED000AFE
:10397000FFF708FEE5E15748C07B60B100205549DC
:10398000C873634890ED001ADFED620A9FED610A8B
:10399000FFF77FFDD5E14F48807B28B100204D49DE
:1039A0008873FFF7DEFCCCE14A488078E8B300205A
:1039B00048498870584890ED0A0ABDEEC00A10EEDA
:1039C000100A00B2544991ED090ABDEEC00A10EE8A
:1039D000101A09B2504A92ED080ABDEEC00A10EE64
:1039E000102A12B24D4B93ED090ABDEEC00A10EE3B
:1039F000103A1BB2CDE90132CDE90310474890EDF2
:103A0000080ABDEEC00A10EE100A00B2434C009046
:103A100094ED070ABDEEC00A10EE104A23B23F4CE7
:103A200094ED060ABDEEC00A00E015E010EE104A63
:103A300022B23A4C94ED050ABDEEC00A10EE104ACF
:103A400021B2364C94ED040ABDEEC00A10EE104AC5
:103A500020B2FFF7B8FB74E11E48C07870B10020B7
:103A60001C49C870264800880A2190FBF1F084B2F6
:103A700021462B480068FFF759FB62E11548807A20
:103A800008B300201349887240F2DC522548C089EF
:103A900000F2DC5080B22349898901F2DC5189B2FD
:103AA000CDE903021F4805920291408900F2DC50E3
:103AB00080B21C49098901F2DC5189B2194CCDE967
:103AC0000010648830E044E0B92A00205A04002045
:103AD0005B040020A82A00205C0400205D04002074
:103AE0005E0400205F0400206004002061040020C8
:103AF0006204002063040020F0040020A8040020D9
:103B00002006002024000020200000201C000020AF
:103B1000E004002000000000880500200C33002095
:103B2000DC050020302B002004F2DC54A3B2FB4C57
:103B3000248804F2DC54A2B2F84CE48804F2DC5489
:103B4000A1B2F64CA48804F2DC54A0B2FFF73FFA0D
:103B5000F7E0F348007B48B30020F1490873009078
:103B600001900290EF4C039094ED030ABCEEC00A62
:103B700010EE104AA3B2EB4C94ED020ABCEEC00A60
:103B800010EE104AA2B2E74C94ED010ABCEEC00A56
:103B900010EE104AA1B2E34C94ED000ABCEEC00A4C
:103BA00010EE104AA0B2FFF77FF9CAE0DC48407B74
:103BB00040B10020DA4948734FF4E4717B20FFF7ED
:103BC00029F9BEE0D648007958B30020D4490871DD
:103BD000D548D0ED1E4AB0EE644AD0ED1F4AF0EE53
:103BE000643AD0ED1D4AB0EE643AD0ED1A4AF0EED8
:103BF000642AD0ED1B4AB0EE642AD0ED194AF0EEEB
:103C0000641AD0ED164AB0EE641AD0ED174AF0EE01
:103C1000640AD0ED154AB0EE640A0120FEF7E1FF18
:103C20008FE0BF48407958B30020BD494871BF4874
:103C3000D0ED1E4AB0EE644AD0ED1F4AF0EE643A71
:103C4000D0ED1D4AB0EE643AD0ED1A4AF0EE642A87
:103C5000D0ED1B4AB0EE642AD0ED194AF0EE641A9A
:103C6000D0ED164AB0EE641AD0ED174AF0EE640AB1
:103C7000D0ED154AB0EE640A0220FEF7B2FF60E014
:103C8000A748807958B30020A5498871A848D0ED8D
:103C9000214AB0EE644AD0ED224AF0EE643AD0ED0B
:103CA000204AB0EE643AD0ED1D4AF0EE642AD0ED21
:103CB0001E4AB0EE642AD0ED1C4AF0EE641AD0ED34
:103CC000194AB0EE641AD0ED1A4AF0EE640AD0ED4B
:103CD000184AB0EE640A0320FEF783FF31E09048F3
:103CE000C079F8B100208E49C8719148D0ED251AED
:103CF000B0EE611AD0ED261AF0EE610AD0ED241A6A
:103D0000B0EE610A1FED7D4A5FED7E3A1FED7F3A0E
:103D10005FED802A1FED812A5FED821A0420FEF7F5
:103D200060FF0EE07E48007C02280AD100207C491A
:103D300008741FED880A00231A4619461846FEF734
:103D4000BFFE01F0ECF906B010BD70B504460D469B
:103D5000AA20784908704870EF2088700220C87047
:103D60000846047145710026002005E07149095C90
:103D70003144CEB2411CC8B20628F7DB6D488671CB
:103D80000721FEF795FE70BD03B587B000200690B1
:103D900005900AE005990798415C06980844C0B26E
:103DA00006900598401CC0B205900898401E0599E1
:103DB0008842EFDCDDE90701084410F8011C069891
:103DC000814201D009B000BD07980078AA2803D12C
:103DD00007984078AF2800D0F4E70798807801284A
:103DE00028D107980079012802D15349087021E0B1
:103DF00007980079022803D101204F49487019E043
:103E000007980079032804D101204B4908704870B5
:103E100010E007980079042803D101204749087071
:103E200008E007980079212803DB07980079262805
:103E300000DD00BF07988078022817D10798007925
:103E4000012806D13649087148718871C871087215
:103E5000487207980079A02802D1012030490870E3
:103E600007980079A12801D1FCF788FC0798807891
:103E7000032846D132480078022802D0022001F0FF
:103E8000A5F8079800790799497941EA00202D495A
:103E90008880079880790799C97941EA00202949E3
:103EA000C8800798007A0799497A41EA0020254995
:103EB00008800798807A0799C97A41EA0020214949
:103EC00048800798007B0799497B41EA00201D49FB
:103ED00008810798807B0799C97B41EA002019492E
:103EE00048810798007C0799497C41EA00201549E0
:103EF00088810798807C0799C97C41EA0020114994
:103F0000C8810798807804282BD107980079012868
:103F10001CD100200C49087023E00000302B002049
:103F2000A82A0020182A0020442800200829002060
:103F300010070020B92A00200C330020B50500200E
:103F400070040020EC2A0020A804002007980079C3
:103F5000022806D14FF67060FE4988800120FE4994
:103F600008700798807810287ED1079800790002A1
:103F700000B2079949790843019010F00DF89FEDC0
:103F8000F70B53EC102BCDE902019DED020B51EC28
:103F9000100B0FF08FFFCDE904019DED040B51ECE8
:103FA000100B10F04DF8EF49486507988079000232
:103FB00000B20799C979084301900FF0EDFF9FED1A
:103FC000E70B53EC102BCDE902019DED020B51ECF8
:103FD000100B0FF06FFFCDE904019DED040B51ECC8
:103FE000100B10F02DF8DF49C8650798007A000221
:103FF00000B20799497A084301900FF0CDFF9FED79
:10400000D70B53EC102BCDE902019DED020B51ECC7
:10401000100B0FF04FFFCDE904019DED040B51ECA7
:10402000100B10F00DF8CF4988650798807A0002D0
:1040300000B20799C97A084301900FF0ADFF9FEDD8
:10404000C70B53EC102BCDE902019DED020B51EC97
:10405000100B0FF02FFFCDE904019DED040B51EC87
:10406000100B0FF0EDFF00E0B0E0BE494866079886
:10407000007B000200B20799497B084301900FF0D2
:104080008BFF9FEDB60B53EC102BCDE902019DED9C
:10409000020B51EC100B0FF00DFFCDE904019DED6B
:1040A000040B51EC100B0FF0CBFF0146AD48C1667D
:1040B0000798807B000200B20799C97B08430190F2
:1040C0000FF06AFF9FEDA50B53EC102BCDE9020119
:1040D0009DED020B51EC100B0FF0ECFECDE904014D
:1040E0009DED040B51EC100B0FF0AAFF01469D480B
:1040F00081660798007C000200B20799497C08435A
:1041000001900FF049FF9FED950B53EC102BCDE97B
:1041100002019DED020B51EC100B0FF0CBFECDE92F
:1041200004019DED040B51EC100B0FF089FF8D493C
:1041300048670798807C000200B20799C97C084351
:1041400001900FF029FF9FED850B53EC102BCDE96B
:1041500002019DED020B51EC100B0FF0ABFECDE90F
:1041600004019DED040B51EC100B0FF069FF0146AB
:104170007C48C1670798007D000200B20799497D1D
:10418000084301900FF008FF9FED740B53EC102BC8
:10419000CDE902019DED020B51EC100B0FF08AFEF0
:1041A000CDE904019DED040B51EC100B0FF048FF1D
:1041B00001466C4881670798807805900699FFF75B
:1041C000C4FDFCF7D3FA012067490880079880787E
:1041D00011287CD107980079000200B2079949792B
:1041E000084301900FF0D8FE9FED5C0B53EC102BB1
:1041F000CDE902019DED020B51EC100B0FF05AFEC0
:10420000CDE904019DED040B51EC100B0FF018FFEC
:104210005649486507988079000200B20799C97924
:10422000084301900FF0B8FE9FED4C0B53EC102BA0
:10423000CDE902019DED020B51EC100B0FF03AFE9F
:10424000CDE904019DED040B51EC100B0FF0F8FECD
:104250004649C8650798007A000200B20799497A72
:10426000084301900FF098FE9FED3C0B53EC102B90
:10427000CDE902019DED020B51EC100B0FF01AFE7F
:10428000CDE904019DED040B51EC100B0FF0D8FEAD
:10429000364988650798807A000200B20799C97A82
:1042A000084301900FF078FE9FED2C0B53EC102B80
:1042B000CDE902019DED020B51EC100B0FF0FAFD60
:1042C000CDE904019DED040B51EC100B00E0C1E0C1
:1042D0000FF0B6FE254948660798007B000200B241
:1042E0000799497B084301900FF056FE9FED1B0B89
:1042F00053EC102BCDE902019DED020B51EC100B9C
:104300000FF0D8FDCDE904019DED040B51EC100B2D
:104310000FF096FE01461548C1660798807B0002A3
:1043200000B20799C97B084301900FF035FE9FED5D
:104330000B0B53EC102BCDE902019DED020B51EC60
:10434000100B0FF0B7FDCDE904019DED040B51EC0E
:10435000100B0DE0302B0020A8040020FCA9F1D2A6
:104360004D62503F442800205804002008290020B6
:104370000FF066FE0146FE4881660798007C000249
:1043800000B20799497C084301900FF005FE1FED2C
:104390000D0B53EC102BCDE902019DED020B51ECFE
:1043A000100B0FF087FDCDE904019DED040B51ECDE
:1043B000100B0FF045FEEE4948670798807C00021D
:1043C00000B20799C97C084301900FF0E5FD1FED8D
:1043D0001D0B53EC102BCDE902019DED020B51ECAE
:1043E000100B0FF067FDCDE904019DED040B51ECBE
:1043F000100B0FF025FE0146DD48C1670798007DD0
:10440000000200B20799497D084301900FF0C4FDF6
:104410001FED2E0B53EC102BCDE902019DED020B8D
:1044200051EC100B0FF046FDCDE904019DED040B9E
:1044300051EC100B0FF004FE0146CD488167079840
:10444000807805900699FFF780FCFCF78FF9012032
:10445000C84908800798807812287CD1079800798D
:10446000000200B207994979084301900FF094FDCA
:104470001FED460B53EC102BCDE902019DED020B15
:1044800051EC100B0FF016FDCDE904019DED040B6E
:1044900051EC100B0FF0D4FDB749086607988079EE
:1044A000000200B20799C979084301900FF074FD2A
:1044B0001FED560B53EC102BCDE902019DED020BC5
:1044C00051EC100B0FF0F6FCCDE904019DED040B4F
:1044D00051EC100B0FF0B4FDA74988660798007ADD
:1044E000000200B20799497A084301900FF054FD89
:1044F0001FED660B53EC102BCDE902019DED020B75
:1045000051EC100B0FF0D6FCCDE904019DED040B2E
:1045100051EC100B0FF094FD974948660798807A8C
:10452000000200B20799C97A084301900FF034FDE8
:104530001FED760B53EC102BCDE902019DED020B24
:1045400051EC100B0FF0B6FCCDE904019DED040B0E
:1045500051EC100B00E0B1E00FF072FD86490867E6
:104560000798007B000200B20799497B084301903D
:104570000FF012FD1FED870B53EC102BCDE902015C
:104580009DED020B51EC100B0FF094FCCDE90401F2
:104590009DED040B51EC100B0FF052FD764988672E
:1045A0000798807B000200B20799C97B08430190FD
:1045B0000FF0F2FC1FED970B53EC102BCDE902012D
:1045C0009DED020B51EC100B0FF074FCCDE90401D2
:1045D0009DED040B51EC100B0FF032FD664948675E
:1045E0000798007C000200B20799497C08430190BB
:1045F0000FF0D2FC1FEDA70B53EC102BCDE90201FD
:104600009DED020B51EC100B0FF054FCCDE90401B1
:104610009DED040B51EC100B0FF012FD5649C1F843
:1046200080000798807C000200B20799C97C08438B
:1046300001900FF0B1FC1FEDB70B53EC102BCDE93F
:1046400002019DED020B51EC100B0FF033FCCDE994
:1046500004019DED040B51EC100B0FF0F1FC4649E9
:10466000C1F888000798007D000200B20799497DD3
:10467000084301900FF090FC1FEDC80B53EC102B7A
:10468000CDE902019DED020B51EC100B0FF012FC75
:10469000CDE904019DED040B51EC100B0FF0D0FCA3
:1046A0003549C1F884000798807805900699FFF78E
:1046B0004CFBFCF75BF801202E49088007988078B6
:1046C000132854D107980079000200B2079949795C
:1046D000084301900FF060FC1FEDE00B53EC102B32
:1046E000CDE902019DED020B51EC100B0FF0E2FB46
:1046F000CDE904019DED040B51EC100B0FF0A0FC73
:104700001D49C1F8900007988079000200B207990E
:10471000C979084301900FF03FFC1FEDF00B53ECFB
:10472000102BCDE902019DED020B51EC100B0FF0A7
:10473000C1FBCDE904019DED040B51EC100B0FF012
:104740007FFC0D49C1F898000798007A000200B27A
:104750000799497A084301900FF01EFC9FED070B63
:1047600053EC102BCDE902019DED020B0AE0E6E0CF
:10477000082900205804002010070020FCA9F1D2CD
:104780004D62503F51EC100B0FF094FBCDE904014A
:104790009DED040B51EC100B0FF052FCA949C1F830
:1047A00094000798807A000200B20799C97A0843FA
:1047B00001900FF0F1FB1FED0F0B53EC102BCDE927
:1047C00002019DED020B51EC100B0FF073FBCDE9D4
:1047D00004019DED040B51EC100B0FF031FC9949D5
:1047E00008670798007B000200B20799497B0843DD
:1047F00001900FF0D1FB1FED1F0B53EC102BCDE9F7
:1048000002019DED020B51EC100B0FF053FBCDE9B3
:1048100004019DED040B51EC100B0FF011FC8949C4
:1048200088670798807B000200B20799C97B08431C
:1048300001900FF0B1FB1FED2F0B53EC102BCDE9C6
:1048400002019DED020B51EC100B0FF033FBCDE993
:1048500004019DED040B51EC100B0FF0F1FB7949B5
:1048600048670798007C000200B20799497C08431A
:1048700001900FF091FB1FED3F0B53EC102BCDE996
:1048800002019DED020B51EC100B0FF013FBCDE973
:1048900004019DED040B51EC100B0FF0D1FB6949A5
:1048A000C1F880000798807C000200B20799C97C9B
:1048B000084301900FF070FB1FED500B53EC102BD1
:1048C000CDE902019DED020B51EC100B0FF0F2FA55
:1048D000CDE904019DED040B51EC100B0FF0B0FB82
:1048E0005849C1F888000798007D000200B2079976
:1048F000497D084301900FF04FFB1FED600B53EC17
:10490000102BCDE902019DED020B51EC100B0FF0C5
:10491000D1FACDE904019DED040B51EC100B0FF021
:104920008FFB4849C1F88400079880780590069964
:10493000FFF70BFAFBF71AFF01204349088007989D
:104940008078142805D10798807805900699FFF79C
:10495000FCF907988078152805D10798807805908C
:104960000699FFF7F2F900BFFFF72CBA10B504461D
:104970003648007838B9AA2C05D10120334908708F
:10498000334804705DE031480078012807D1AF2C2E
:1049900005D102202D4908702D48447051E02B4864
:1049A0000078022807D1F12C05DA03202749087086
:1049B0002748847045E02548007803280CD1322C24
:1049C0000ADA0420214908702148C4702148047083
:1049D00000202149087034E01C480078042819D1CF
:1049E0001C480078002815DD1A480078401E194937
:1049F00008701948007818490978491C164A11703E
:104A0000001D13490C5413480078D0B905200F49F4
:104A1000087016E00D48007805280FD100200B49DA
:104A200008700D480078001D09490C540A480078A8
:104A3000401DC1B20648FFF7A7F902E00020034974
:104A4000087010BD100700205804002066040020E4
:104A5000FC2A002064040020650400200246002097
:104A600007E0FC4B1B5632F8133021F81030431C82
:104A7000D8B20828F5DB7047F748D0ED020A9FED61
:104A8000F71AF4EEC10AF1EE10FA51D2D0ED030A92
:104A90009FEDF21AF4EEC10AF1EE10FA1AD2F048C4
:104AA000B0F90000401CC8B3EE480078B0B3EC4841
:104AB000B0F9000000EE900AF8EEE00A9FEDEA1A65
:104AC00041EE000AFDEEE00A10EE900A00B2E44961
:104AD000088030E0E048D0ED030A9FEDE41AF4EEE0
:104AE000C10AF1EE10FA1ADDDD48B0F90000401CF1
:104AF000A0B1DC48007888B9D948B0F9000000EED0
:104B0000900AF8EEE00A9FEDD81A41EE000AFDEE99
:104B1000E00A10EE900A00B2D14908800BE0D048BC
:104B2000B0F90000401C30B90020CD49088002E0F7
:104B30000020CB490880CA48B0F90000B0F57A7F60
:104B400010DD4FF0FF30C6490880C648007830B904
:104B50000120C44908700220C549487002E00020C5
:104B6000C049087070473FB5F0EE401A0546C1488D
:104B70000078012804D1C0492846FFF76FFF07E0FD
:104B8000BC480078022803D1BB49BC48FFF766FF48
:104B9000002407E2B84830F8140040F6C4118842F7
:104BA00005DCB54830F81400B0F5FA7F07DA0120CB
:104BB000B34908550020B34921F8140012E0B14868
:104BC00030F81400401CAF4921F81400084630F8B2
:104BD0001400C82806DD4FF4FA6021F81400002004
:104BE000A7490855A3480078012803D0A1480078B8
:104BF00002287CD1A248005D0028FAD19E4830F8F6
:104C0000140000B22DF814009F4830F914009F4999
:104C100031F9141088426BDD9D48005D002878D181
:104C20003DF91400994931F91410401A00EE100AA8
:104C3000B8EEC01A944830F91400944931F91410B0
:104C4000401A00EE100AB8EEC00AC1EE000A9FED4D
:104C5000861A9FED900A10EE810ABDEEC00A10EE92
:104C6000100A00B210F5FA7F01DA8B484DE03DF9E9
:104C70001400864931F91410401A00EE100AB8EEFB
:104C8000C01A814830F91400804931F91410401AD3
:104C900000EE100AB8EEC00AC1EE000A9FED721ACB
:104CA0009FED7C0A10EE810ABDEEC00A10EE100ADC
:104CB00000B2B0F5FA7F02DD4FF4FA7025E03DF95D
:104CC0001400724931F91410401A00EE100AB8EEBF
:104CD000C01A6D4830F914006C4931F91410401AAB
:104CE00000EE100AB8EEC00AC1EE000A02E08AE047
:104CF00086E00EE09FED5C1A9FED660A10EE810AD9
:104D0000BDEEC00A10EE100A00B2644921F814008A
:104D100079E03DF914005D4931F91410401A00EEB4
:104D2000100AB8EEC01A584830F91400574931F942
:104D30001410401A00EE100AB8EEC00AC1EE000AC4
:104D40009FED491A9FED530A10EE810ABDEEC00A8D
:104D500010EE100A00B210F5FA7F01DA4E4849E071
:104D60003DF91400494931F91410401A00EE100AB7
:104D7000B8EEC01A444830F91400444931F914100F
:104D8000401A00EE100AB8EEC00AC1EE000A9FED0C
:104D9000361A9FED400A10EE810ABDEEC00A10EEF1
:104DA000100A00B2B0F5FA7F02DD4FF4FA7021E08C
:104DB0003DF91400354931F91410401A00EE100A7B
:104DC000B8EEC01A304830F91400304931F91410E7
:104DD000401A00EE100AB8EEC00AC1EE000A9FEDBC
:104DE000221A9FED2C0A10EE810ABDEEC00A10EEC9
:104DF000100A00B2404200B2284921F8140002E033
:104E00000020184908709FED260A21EE800A2548E7
:104E100080ED000A3DF9140000EE100AB8EEC00A59
:104E20000D4800EB8400D0ED000A30EE600AB5EECC
:104E3000C00AF1EE10FA37DD3DF9140000EE100A59
:104E4000B8EEC00A044800EB8400D0ED000A30EE52
:104E5000600A38E068040020602B00200000C8C30E
:104E6000AA040020A804002000007A440000C843DF
:104E70000C33002070040020D02B0020EC2A0020EE
:104E800071040020C02B00207C0400208C04002032
:104E90009C0400200000FA430CFEFFFF302B002092
:104EA00034337B42A40400203DF9140000EE100AC4
:104EB000B8EEC00A6A4800EB8400D0ED000A30EE7C
:104EC000600AB1EE400ADFED670AB4EEE00AF1EEE7
:104ED00010FA1DD2644830F9140000EE100AB8EE42
:104EE000C00A5F4800EB8400D0ED000A70EE600A53
:104EF0005B4800EB840090ED000A5C4890ED001ADE
:104F000001EE200A564800EB840080ED000A20E004
:104F1000554830F9140000EE100AB8EEC00A5048A7
:104F200000EB8400D0ED000A70EE600A4C4800EB04
:104F3000840090ED000A4D4890ED001AB6EE002A6C
:104F400021EE021A01EE200A454800EB840080EDB4
:104F5000000A434800EB840090ED000A444800EB4F
:104F60008400D0ED000A30EE600A424800EB840075
:104F700080ED000A3A4800EB840090ED000A3C48BE
:104F800000EB840080ED000A374830F9140000EE91
:104F9000100AB8EEC00A384800EB840080ED000A21
:104FA000601CC4B2082CFFF6F5ADB0EE610AFFF745
:104FB00063FD32480088401C80B230490880C82810
:104FC00003DD002008802E4908703FBD2C49087081
:104FD00000212A4A118070472A48007848B12048A9
:104FE00090ED020A5FED630AB4EEE00AF1EE10FA0A
:104FF00027D21B4890ED040ADFED230AB4EEE00A45
:10500000F1EE10FA03D200202049087026E014487F
:1050100090ED040ADFED1E0AB4EEE00AF1EE10FA9C
:1050200003D201201949087018E01A4800780128B5
:1050300003D102201549087010E0012013490870BF
:105040000CE0074890ED040ADFED0F0AB4EEE00A29
:10505000F1EE10FA02D200200C49087070470000EF
:10506000602B00200000C842302B0020A404002048
:10507000802B0020A02B0020402B00207A04002051
:1050800070040020A8040020000048C3AC040020E5
:10509000000048431E0600200CF088B8704700202E
:1050A00070470020704700207047002070470020A4
:1050B0007047002070470020704700207047002094
:1050C0007047002070470020704700207047002084
:1050D0007047002070470CF090B870470020704770
:1050E000002070470BF0D4BE7047000010B50BF0E5
:1050F000D3F801200BF0DBF810BD70B5024600209C
:105100000AE0145C864B1D781B785B1C844E337060
:10511000844B5C55431CD8B28842F2DB70BD10B59D
:105120007F4800788049097888425BDD7C480078B8
:105130007D490978401A3F281BDB00207B49087015
:105140003F207B49087000200BE077490A780978F6
:10515000491C754B197073498A5C754B411C5A5434
:10516000C8B23F28F1DB4022714900200CF02BF936
:105170009FE06E480078401C6C4908700846007833
:105180006C4909788842F3D1002068490870644866
:10519000007865490978401A65490870002015E0D3
:1051A0005F490978604A1278891A814208DD5E49B0
:1051B000097801445B4A525C5D4B411C5A5403E040
:1051C00000225B4B411C5A54411CC8B23F28E7DB0C
:1051D00053480078544908704022554900200CF08B
:1051E000F2F866E04E4800784F490978884260DA64
:1051F0004D480078C0F580704949097808443F2837
:105200001BDB0020494908703F20494908700020F5
:105210000BE045490A780978491C434B197041490C
:105220008A5C434B411C5A54C8B23F28F1DB4022F0
:105230003F4900200CF0C7F83BE03C480078401C98
:105240003A490870084600783A490978884230D1CE
:1052500000203649087034480078404230490978C7
:10526000084433490870002018E02F490978C1F537
:1052700080712B4A12781144814209DD2A4909784C
:105280000144C9B2274A525C294B411C5A5403E0DD
:105290000022274B411C5A54411CC8B23F28E4DB72
:1052A0001F480078204908704022214900200CF056
:1052B0008AF810BD10B50446012C02D0032C11D180
:1052C0000EE059B923B1012B05D0022B04D100E027
:1052D00000BF402010BD00BF00BF00BF00BF01E005
:1052E0000120F7E700BF0020F4E72DE9F04706466C
:1052F000884614469946089F022E02D0032E0CD1F0
:105300000AE0012504E0605DFFF730FB681CC5B2D0
:105310002078A842F7DA00E000BF00BFBDE8F087C0
:10532000B9040020002F0020B8040020BA04002097
:1053300000300020B704002010B505480EF00CFD29
:10534000022101EB4000C0B210BD024870470000CE
:10535000443000205D30002030B5044608461588F2
:105360006D1CADB21580854204DD00251580012538
:10537000558007E01588854201D1002501E0158898
:105380006D1C5580158804EB850585ED000A558850
:1053900004EB8505D5ED000A30EE601A00EE900AA8
:1053A000F8EE601AC1EE210A93ED001A70EE810A40
:1053B000C3ED000A30BD70B58BB0F0EE400A022894
:1053C00001DA0B2903DB9FED7B0A0BB070BD7A4C31
:1053D000245C641CE4B2784D2C548C4201DB002424
:1053E0002C5400EB400404EBC004744D05EB840422
:1053F000714D2D5C04EB8504C4ED000A002211E020
:1054000000EB400404EBC0046C4D05EB840404EB9A
:10541000820494ED000A6C4604EB820484ED000AD9
:10542000541CE2B28A42EBDB00222DE0002325E08F
:105430006C4604EB830494ED000A6D465C1C05EB9E
:105440008404D4ED001AB4EEE10AF1EE10FA13DD93
:105450006C4604EB830494ED001A5C1C05EB840499
:1054600094ED000A6C4604EB830484ED000A5C1C96
:1054700005EB840484ED001A5C1CE3B24C1EA41AF4
:105480009C42D5DC541CE2B24C1E9442CEDC0C464D
:1054900001EBD4756D106E4606EB850595ED000A9F
:1054A00093E770B52DED028B04460D461646D4EDFC
:1054B000020AB0EE600AFDF70FF9F0EE408AD4ED73
:1054C000010AB0EE600AFDF707F938EE800AB0EE87
:1054D000408AFDF706F93A4880ED000AD4ED020A49
:1054E000B0EE600AFDF7F8F8F0EE408AD4ED000A5D
:1054F000B0EE600AFDF7F0F838EE800AB0EE408AB0
:10550000FDF7EFF82F4880ED000A94ED020AB5EEA2
:10551000C00AF1EE10FA02D24FF0FF3000E0012095
:105520002949087095ED000A2548D0ED000A20EEC3
:10553000200A94ED001A084690F9000000EE900A47
:10554000F8EEE00A61EE200A95ED021A00EEC10ABB
:1055500086ED000A084690F9000000EE100AB8EE49
:10556000C00A1848D0ED000A20EE200AD5ED010A45
:1055700020EE200AD4ED010A95ED021A00EEC10AD0
:1055800086ED010A94ED000AD5ED000A20EE200A0E
:10559000D4ED010A95ED011A00EE810AD4ED020A5C
:1055A00095ED021A00EE810A86ED020ABDEC028B2F
:1055B00070BD000000000000C404002094300020F2
:1055C000C8040020CC040020C604002010B52DED36
:1055D000068BF0EE408AF0EE609ADFEDFE0A79EE7F
:1055E000E00AB0EE600ADFEDFC0AFDF701FADFED3C
:1055F000FB0A20EE200ADFEDFA0A80EE201AF948B5
:1056000080ED001A90ED000ADFEDF70AB4EEE00A33
:10561000F1EE10FA02D29FEDF40A0FE0F14890ED9E
:10562000000ADFEDEE0AB4EEE00AF1EE10FA02DD58
:105630009FEDEA0A02E0EB4890ED000AE94880EDB0
:10564000000AEA4890ED000ADFEDE90AB4EEE00A4C
:10565000F1EE10FA0CDDE34890ED000AB5EEC00A59
:10566000F1EE10FA1ADD9FEDE30A80ED000A15E075
:10567000DE4890ED000AF3EE040AB4EEE00AF1EE23
:1056800010FA0BD2D74890ED000AB5EEC00AF1EE41
:1056900010FA03D29FEDD70A80ED000AD34890EDAF
:1056A000000AD048D0ED000A00EEA80ACF4880EDED
:1056B000000A9FEDD10AF4EEC09AF1EE10FA19D269
:1056C0009FEDCE0A68EE800AB7EE001A81EE200A3E
:1056D000F7EE000A30EE200AB7EE001AC1EE000A1B
:1056E00090ED000AB1EE401A90ED000A00EE810A3A
:1056F00080ED000AC248B0F9000000EE100AB8EED2
:10570000C00AC0EE280AB0EE60AAB0EE4A0A05212F
:105710000020FFF750FEB0EE409ABA48008800EE35
:10572000100AB8EE400A05210120FFF744FEB0EE52
:10573000408A9FEDB50AB4EEC08AF1EE10FA47D266
:10574000B5EEC09AF1EE10FA02DDB0EE490A01E0C2
:10575000B1EE490ADFEDA80AB4EEE00AF1EE10FA64
:105760001BD29FEDAA0A28EE800AF7EE000A80EE0F
:10577000801AB7EE000A31EE000AB7EE001AC1EE49
:10578000000AA34890ED000A39EE401A90ED000A95
:1057900000EE810A80ED000A1AE09FED9E0A68EE95
:1057A000800AB7EE001A81EE200AF7EE000A30EE0A
:1057B000200AB7EE001AC1EE000A954890ED000AE3
:1057C00039EE401A90ED000A00EE810A80ED000AE1
:1057D0009FED8D0AB4EEC08AF1EE10FA37D28E48F2
:1057E00090ED000A38EE400AB5EEC00AF1EE10FA6C
:1057F00004DD90ED000A38EE400A06E0864890EDA0
:10580000000A38EE400AB1EE400ADFED7B0AB4EE42
:10581000E00AF1EE10FA1BD29FED7C0A28EE800A16
:10582000F7EE000A80EE801AB7EE000A31EE000AA9
:10583000B7EE001AC1EE000A774890ED000A38EE84
:10584000401A90ED000A00EE810A80ED000A8CE01B
:10585000714890ED000A38EE400AB5EEC00AF1EE4C
:1058600010FA04DD90ED000A38EE400A06E06A48BE
:1058700090ED000A38EE400AB1EE400ADFED580A1A
:10588000B4EEE00AF1EE10FA1BD29FED640A28EEA6
:10589000800AB7EE001AC1EE000AB7EE000A30EE39
:1058A000800AB7EE001AC1EE000A5B4890ED000ACC
:1058B00038EE401A90ED000A00EE810A80ED000AF1
:1058C00053E0554890ED000A38EE400AB5EEC00AA4
:1058D000F1EE10FA04DD90ED000A38EE400A06E021
:1058E0004D4890ED000A38EE400AB1EE400ADFED77
:1058F0004C0AB4EEE00AF1EE10FA1BD29FED490A11
:1059000068EE800AB7EE001A81EE200AF7EE000A70
:1059100030EE200AB7EE001AC1EE000A3E4890EDC4
:10592000000A38EE401A90ED000A00EE810A80ED80
:10593000000A1AE09FED3C0A28EE800AF7EE000A02
:1059400080EE801AB7EE000A31EE000AB7EE001AB8
:10595000C1EE000A304890ED000A38EE401A90ED92
:10596000000A00EE810A80ED000A304890ED000A3E
:105970001E48D0ED000A284890ED001A70EEC10ACA
:1059800020EE200A2A4880ED000A284890ED020AFD
:105990002748D0ED000A60EE200A90ED030A00EEE1
:1059A000A80A80ED030A90ED030A2248D0ED000A10
:1059B000F1EE600A9FED091A60EE810AB4EEE00A8A
:1059C000F1EE10FA3BD290ED000AB1EE400ADFEDA5
:1059D000030A31E00000FA43000048420000964309
:1059E00000004843FC040020000096C3000500208E
:1059F0000080BB44000000000000C8429CC4203F5F
:105A000024060020200600200000FA44C3F5484187
:105A100004050020C3F5484008050020570EDD406E
:105A20000000C843EB267140EB26F13FB432002062
:105A3000A03200201000002020EE200A18E0FB48D1
:105A400090ED030AFA48D0ED000A1FED1C1A60EE33
:105A5000810AB4EEE00AF1EE10FA06DD90ED000ADC
:105A60005FED220A20EE200A02E0F04890ED030AE2
:105A7000EE4880ED030A90ED000AD0ED010A30EE09
:105A8000600ADFEDEC0A20EE200AEB48D0ED000AB8
:105A9000F1EE600A60EEA80A9FEDE81A01EE200A16
:105AA000E748D0ED010A20EE200AE04880ED020A26
:105AB00090ED000AD0ED030A30EE200AD0ED020A84
:105AC00030EE200A80ED040A90ED040ADFEDDD0AD5
:105AD000B4EEE00AF1EE10FA02D29FEDDA0A0FE01E
