:020000040800F2
:100000001018002025D50008B50100082FD50008DC
:10001000B7010008BB010008BF0100080000000094
:10002000000000000000000000000000C301000804
:10003000C5010008000000003BD50008C70100080A
:100040003FD500083FD500083FD500083FD5000840
:100050003FD500083FD500083FD500083FD5000830
:100060003FD500083FD500083FD500083FD5000820
:100070003FD500083FD500083FD500083FD5000810
:100080003FD500083FD500083FD500083FD5000800
:100090003FD500083FD500083FD500083FD50008F0
:1000A0003FD500083FD500083FD500083FD50008E0
:1000B0003FD50008D9010008E10100083FD500083C
:1000C0003FD500083FD500083FD500083FD50008C0
:1000D0003FD500083FD50008E90100083FD50008DA
:1000E0003FD500083FD500083FD500083FD50008A0
:1000F0003FD500083FD500083FD500083FD5000890
:100100003FD500083FD500083FD500083FD500087F
:100110003FD50008F10100083FD500083FD5000891
:100120003FD500083FD500083FD500083FD500085F
:100130003FD500083FD500083FD500083FD500084F
:100140003FD500083FD500083FD500083FD500083F
:100150003FD500083FD500083FD500083FD500082F
:100160003FD500083FD500083FD500083FD500081F
:100170003FD500083FD500083FD500083FD500080F
:100180003FD500083FD50008DFF80CD00DF09CFCEF
:1001900000480047A10100081018002000BFFEE73A
:1001A00000F044F90249087001E000F0E8F8FCE7CB
:1001B00000000020704700BFFEE700BFFEE700BF61
:1001C000FEE77047704710B50B480068401C0A49AD
:1001D000086005F081FB10BD10B505F074FD10BD81
:1001E00010B505F077FE10BD10B507F02AFA10BD66
:1001F00010B507F0E8FA10BD040500208148C08959
:10020000401C8049C88108468088401C00B2888014
:100210000846C088401C00B2C88008460089401CBF
:1002200000B2088108464089401C00B24881084657
:100230008089401C00B2888108460078012804D1DA
:1002400008464078401C487002E001206D49087063
:10025000704710B5012005F07EFB03F099F910BD41
:1002600010B52DED028B002005F075FBB0EE408A35
:1002700005F002FB00EE100AB8EE400ADFED620A5C
:1002800080EE201A614880ED001A06F0B5FAB0EE53
:10029000480A06F0E7FCB0EE480A01F02FF85C4887
:1002A000B0EE480A04F0CDF805F0E6FA00EE100AC8
:1002B000B8EE400ADFED540A80EE201A534880ED74
:1002C000011ABDEC028B10BD10B52DED028B022082
:1002D00005F041FBB0EE408A05F0CEFA00EE100AC0
:1002E000B8EE400ADFED480A80EE201A474880ED5C
:1002F000021A4848D0ED063AB0EE633AD0ED053A1E
:10030000F0EE632AD0ED043AB0EE632AD0ED0C3A59
:10031000F0EE631AD0ED0B3AB0EE631AD0ED0A3A64
:10032000F0EE630AF6EE003A68EE233AB0EE630AA6
:10033000394A3A493A4801F095FBB0EE480A00F0D4
:100340007FFA05F099FA00EE100AB8EE400ADFEDE8
:100350002E0A80EE201A2D4880ED031ABDEC028B88
:1003600010BD10B507F0ACF810BD10B500F021FAC3
:1003700010BD10B507F0C8F807F08CFA10BD10B525
:100380002048007801283BD12648008800B2264941
:100390000880FFF75EFF1B48B0F90400022804DB69
:1003A000002018498880FFF75BFF1648B0F9060067
:1003B000052804DB00201349C880FFF785FF11489A
:1003C000B0F908000A2804DB00200E490881FFF775
:1003D000C8FF0C48B0F90A00142804DB00200949C2
:1003E0004881FFF7C2FF0748B0F90C00322804DB50
:1003F000002004498881FFF7BCFF002001490870F4
:1004000010BD0000E005002000247449F005002024
:10041000740B0020840B0020200000201C00002012
:1004200018000020140500200200002010B54FF431
:10043000806007F08BFA05F0EDF907F047F806F059
:100440001CF805F0E3FA4FF4C87005F041FEC8202F
:1004500005F036FA142006F0B1FA4FF4E13007F057
:100460007DF800F027F9642005F02AFA07F00CFA6D
:1004700005F0ACFA06F0FEFD80F0010012490870AC
:100480001248007810B907F057F804E00E480078D9
:1004900008B907F058F84FF400710D4807F032FE24
:1004A0004FF47A7005F00CFA4FF40071084807F029
:1004B000F8FD4FF47A7005F003FA4FF40071044828
:1004C00007F020FE012010BD880500204005002017
:1004D0000004024010B5C248C24BD3E900219B681A
:1004E000C0E90E134263BF4BD3E903215B69C0E946
:1004F00011130264BC48BB4B18330ECB08300EC03E
:10050000B74AB84B24330BCB58320BC2B54890EDE9
:100510000D0AB34880ED190AB24890ED0E0AB048B2
:1005200080ED1A0AB148B24C1ECC54301EC064385B
:10053000AF49D1E905340A69C969C0E91A3442668C
:100540000167AB4BD3E909141A6ADB6AC0E91F43A0
:10055000C0E91D21A748A64BD3E90C41D3E90E23DE
:10056000C0E91541C0E91723A149D1E911430A6C3B
:10057000C96CC0E91A43426601679D49D1E9143448
:10058000D1E91621C0E91D34C0E91F2110BD10B505
:1005900000F044F905F03BF805F02BF810BD10B55C
:1005A0009FED950A924880ED040A9FED930A80ED35
:1005B000000A9FED920A80ED080A9FED910A80EDF6
:1005C000060A9FED8F0A80ED020AB7EE000A80ED61
:1005D0000A0AB0EE000A80ED050AB0EE000A80EDCE
:1005E000010AB7EE000A80ED090AB7EE000A80EDB5
:1005F000070AB7EE000A80ED030AB7EE000A80EDA5
:100600000B0AB6EE000A80ED100AB6EE000A80ED85
:100610000C0A9FED7C0A80ED140A9FED7B0A80EDA9
:10062000120A9FED790A80ED0E0A9FED770A80EDA0
:10063000160A9FED760A80ED110A9FED740A80ED8F
:100640000D0A9FED6F0A80ED150A9FED710A80ED8E
:10065000200A9FED6F0A80ED220A9FED6D0A80ED62
:10066000210A9FED6B0A80ED240A9FED690A80ED57
:10067000260A9FED670A80ED250AB7EE000A80ED95
:10068000180AB7EE000A80ED1A0AB7EE000A80EDEC
:10069000190AB7EE000A80ED1C0AB7EE000A80EDD9
:1006A0001E0AB7EE000A80ED1D0AFFF713FFFFF7E1
:1006B0006EFF10BD10B5FFF772FFFFF70BFFFFF7DE
:1006C00066FF10BD10B5464990E81C0034311CC1CE
:1006D000444990E81C001CC1414991ED190A414967
:1006E00081ED0D0A10BD10B53D4990E81C00403168
:1006F0001CC13C4990E81C000C311CC1384991EDEB
:100700001A0A384981ED0E0A10BD10B5364990E835
:100710001C0008311CC1334990E81C0018311CC171
:1007200010BD10B52E4990E81C0058311CC12D4950
:1007300090E81C0024311CC110BD10B52C482B4979
:10074000D1E916344A6D096E80E81C00C16001468B
:100750002648D0E91A34426E006FC1E905340A61B7
:10076000C8612248D0E91E34426FD0F88000C1E948
:1007700009340A62C8620A461E4CD4E91530D4E92D
:100780001714C2E90E14C2E90C3010461949D1E918
:100790001942D1E91B31C0E91042C0E912311549B3
:1007A000D1E91D42D1E91F31C0E91442C0E9163137
:1007B00010BD00B51748008820B116480088401CBD
:1007C00014490880134800883C2807DD002011499F
:1007D00008801148007808B9FFF7AFFF00BD00009E
:1007E000840B0020040600205C0500200407002084
:1007F00044060020C8070020CDCC4C3F9A99993F71
:10080000CDCCCC3DCDCC4C3ECDCC4C3D9A99993EF7
:100810000000000054040020A4040020B7EE000AE9
:10082000FE4880ED180AB7EE000A80ED1C0AB7EE0C
:10083000000A80ED200A9FEDFA0A80ED300A704729
:1008400010B52DED0E8BB0EE408AF648D0ED000AC3
:10085000B0EE600AF3EE0E0A01F075FFDFEDF20A6A
:1008600080EE201AB3EE090A21EE000AEF4880ED6F
:10087000000AEC48D0ED010AF1EE600AB0EE600A21
:10088000F3EE0E0A01F05FFFDFEDE70A80EE201ABB
:10089000B3EE090A21EE000AE44880ED010AE448BB
:1008A000007808BBDF48D0ED030AB0EE600ADFED48
:1008B000E10A01F097FFDFEDDC0A80EE201A9FEDE0
:1008C000DE0A21EE000ABDEEC00A10EE100A00B2E8
:1008D00000EE100AF8EEC00AD44890ED020A00EECD
:1008E000880A80ED020A36E0D04890ED020AD3482B
:1008F000D0ED000A30EEC00A10EE101A08460CF0D7
:100900005FFF41EC1C0B18EE100A0CF059FF41EC94
:100910001E0B9FEDCB0B53EC102B0CF0CEFE41ECDD
:100920001D0B53EC1C2B0CF0C8FE41EC1A0BBF48FE
:1009300090ED020A10EE101A08460CF041FF41EC4F
:100940001B0B53EC1A2B0CF011FE41EC190B0CF0A5
:100950007BFFB6498860B548D0ED020AB0EE600A68
:1009600001F054FFB14880ED020AB748D0ED000A0B
:10097000AE4890ED001A70EE810AB44890ED001A6E
:1009800070EEC10AB0EE600A01F040FFB04880EDA1
:10099000000AAD48D0ED010AA44890ED011A70EEAE
:1009A000810AAC4890ED001A70EEC10AB0EE600A00
:1009B00001F02CFFA64880ED010AA348D0ED020A01
:1009C0009A4890ED021A70EE810A9C4890ED001A48
:1009D00070EEC10AB0EE600A01F018FF9C4880ED8D
:1009E000020A90ED000AB5EEC00AF1EE10FA02DD3F
:1009F00090ED000A04E0964890ED000AB1EE400A3E
:100A0000F3EE0E0A80EE201A914880ED2D1A90ED3B
:100A1000010AB5EEC00AF1EE10FA02DD90ED010A0E
:100A200004E08B4890ED010AB1EE400AF3EE0E0AA5
:100A300080EE201A864880ED2E1A90ED020AB5EE5F
:100A4000C00AF1EE10FA02DD90ED020A04E08048DF
:100A500090ED020AB1EE400AF3EE0E0A80EE201A83
:100A60007B4880ED2F1ADFED7C0A80EE880AD0EDFE
:100A7000000A90ED031A70EEC10A90ED161AF2EE1C
:100A8000041A21EE211A60EE810A60EE200A90ED30
:100A90002D1A9FED720ADFED721A01EE810A20EE27
:100AA000800A80ED0C0ADFED6C0A80EE880AD0ED3A
:100AB000010A90ED041A70EEC10A90ED1A1AF2EED6
:100AC000041A21EE211A60EE810A60EE200A90EDF0
:100AD0002E1A9FED620ADFED621A01EE810A20EE06
:100AE000800A80ED0D0ADFED5C0A80EE880AD0ED09
:100AF000020A90ED051A70EEC10A90ED1E1AF2EE90
:100B0000041A21EE211A60EE810A60EE200A90EDAF
:100B10002F1A9FED520ADFED521A01EE810A20EEE4
:100B2000800A80ED0E0A90ED170AD0ED000A60EE03
:100B3000200A90ED060A00EE880A80ED060A90ED84
:100B40001B0AD0ED010A60EE200A90ED070A00EEC4
:100B5000880A80ED070A90ED1F0AD0ED020A60EEC8
:100B6000200A90ED080A00EE880A80ED080A3D4848
:100B700090ED000AF6EE000A20EE200AF3EE090AD4
:100B800020EE200A324880ED090A364890ED000A2E
:100B9000F6EE000A20EE200AF3EE090A20EE200A03
:100BA0002B4880ED0A0A2F4890ED000AF6EE000A65
:100BB00020EE200AF3EE090A20EE200A244880EDF8
:100BC0000B0A90ED060AD0ED090AF1EE600AB4EEC8
:100BD000E00AF1EE10FA04D290ED090AB1EE400AF3
:100BE0000FE01B4890ED060AD0ED090AB4EEE00ACA
:100BF000F1EE10FA02DD90ED090A02E0144890EDE2
:100C0000060A134880ED060A90ED070AD0ED0A0A9D
:100C1000F1EE600AB4EEE00A26E0000004070020CE
:100C2000CDCC4C3E000A00200000FA438C08002086
:100C30000800002000002042000016432000002091
:100C40001F85EB51B81E09409808002018000020AD
:100C5000C80700201C0000200AD7A33B6666263F79
:100C60003333B33E0C000020F1EE10FA04D290EDC5
:100C70000A0AB1EE400A0FE0FC4890ED070AD0EDF9
:100C80000A0AB4EEE00AF1EE10FA02DD90ED0A0A6B
:100C900002E0F64890ED070AF44880ED070A90ED6F
:100CA000080AD0ED0B0AF1EE600AB4EEE00AF1EEAC
:100CB00010FA04D290ED0B0AB1EE400A0FE0EB48B7
:100CC00090ED080AD0ED0B0AB4EEE00AF1EE10FA4E
:100CD00002DD90ED0B0A02E0E44890ED080AE348DB
:100CE00080ED080A90ED000ADFEDE10AB4EEE00ABB
:100CF000F1EE10FA02D29FEDDE0A0FE0DB4890ED34
:100D0000000ADFEDDC0AB4EEE00AF1EE10FA02DDD3
:100D10009FEDD80A02E0D54890ED000AD34880ED57
:100D2000000A90ED010ADFEDD20AB4EEE00AF1EE1E
:100D300010FA02D29FEDCE0A0FE0CC4890ED010AE6
:100D4000DFEDCC0AB4EEE00AF1EE10FA02DD9FED21
:100D5000C90A02E0C54890ED010AC44880ED010AC5
:100D600090ED020ADFEDC20AB4EEE00AF1EE10FAED
:100D700002D29FEDBF0A0FE0BC4890ED020ADFED02
:100D8000BD0AB4EEE00AF1EE10FA02DD9FEDB90AF9
:100D900002E0B64890ED020AB44880ED020A90EDF8
:100DA000000AD0ED0C0A30EE200AD0ED060A30EE33
:100DB000200AD0ED150A20EE200A80ED120A90EDEF
:100DC000010AD0ED0D0A30EE200AD0ED070A30EE10
:100DD000200AD0ED190A20EE200A80ED130A90EDCA
:100DE000020AD0ED0E0A30EE200AD0ED080A30EEED
:100DF000200AD0ED1D0A20EE200A80ED140A90EDA5
:100E0000000A80ED030A90ED010A80ED040A90EDDE
:100E1000020A80ED050ABDEC0E8B10BD10B52DED5C
:100E2000048B8AB0F0EE408AB0EE609AB0EE418A50
:100E30009FED910AB4EEC08AF1EE10FA02D29FED56
:100E40008E0A0BE09FED8D0AB4EEC08AF1EE10FA27
:100E500002DD9FED8A0A01E0B0EE480AB0EE408A5A
:100E6000B1EE680A30EE090A30EE080A8DED040A88
:100E700038EE890A30EE480A8DED050A38EEC90AC7
:100E800030EE080A8DED060AB1EE680A30EE490A26
:100E900030EE480A8DED070A002429E004A800EB93
:100EA000840090ED000ADFED760AB4EEE00AF1EE80
:100EB00010FA02D29FED720A13E004A800EB84003E
:100EC00090ED000ADFED6F0AB4EEE00AF1EE10FAE1
:100ED00002DD9FED6C0A04E004A800EB840090EDB5
:100EE000000A04A800EB840080ED000A601CC4B274
:100EF000042CD3DB9DED040AB5EEC00AF1EE10FA26
:100F000002DD9DED040A03E09DED040AB1EE400A06
:100F1000DFED5D0A60EE200A9FED5A1A80EE810A2D
:100F2000DFED5A0A30EE200ADDED040A20EE200A39
:100F30008DED000A9DED050AB5EEC00AF1EE10FA3E
:100F400002DD9DED050A03E09DED050AB1EE400AC4
:100F5000DFED4D0A60EE200A9FED4A1A80EE810A0D
:100F6000DFED4A0A30EE200ADDED050A20EE200A08
:100F70008DED010A9DED060AB5EEC00AF1EE10FAFC
:100F800002DD9DED060A03E09DED060AB1EE400A82
:100F9000DFED3D0A60EE200A9FED3A1A80EE810AED
:100FA000DFED3A0A30EE200ADDED060A20EE200AD7
:100FB0008DED020A9DED070AB5EEC00AF1EE10FABA
:100FC00002DD9DED070A03E09DED070AB1EE400A40
:100FD000DFED2D0A60EE200A9FED2A1A80EE810ACD
:100FE000DFED2A0A30EE200ADDED070A20EE200AA6
:100FF0008DED030ADDED000A254890ED000A254835
:1010000090ED001A01EE200A234880ED000ADDED84
:10101000010A1F4890ED000A1E4890ED001A01EEEB
:10102000200A1D4880ED010ADDED020A184890ED06
:10103000000A184890ED001A01EE200A164880EDCB
:10104000020ADDED030A124890ED000A114890ED06
:10105000001A01EE200A104880ED030A0F480078BC
:1010600078B30F48007868BB002447E0C807002029
:101070000000B4C20000B4420000C8C30000C8436E
:1010800000007AC400007A446666E63ECDCC0C3F90
:10109000040000200C000020D8080020A404002038
:1010A00008000020FE4800EB840090ED000ADFED10
:1010B000FD0AB4EEE00AF1EE10FA04D29FEDF90A4F
:1010C00015E04BE01DE0F64800EB840090ED000ACF
:1010D0005FED140AB4EEE00AF1EE10FA02DD1FED46
:1010E000170A04E0EE4800EB840090ED000AEC489B
:1010F00000EB840080ED000A601CC4B2042CD1DB3C
:1011000039E0002427E0E64800EB840090ED000A77
:10111000B5EEC00AF1EE10FA02D29FEDE30A13E039
:10112000DF4800EB840090ED000A5FED2A0AB4EE80
:10113000E00AF1EE10FA02DD1FED2E0A04E0D848B5
:1011400000EB840090ED000AD54800EB840080EDB0
:10115000000A601CC4B2042CD5DB0CE0002408E0BB
:101160009FEDD10ACE4800EB840080ED000A601CA0
:10117000C4B2042CF4DBCA4890ED000ABDEEC00AEC
:1011800010EE100A00B2ADF82000C54890ED010A3B
:10119000BDEEC00A10EE100A00B2ADF82200C04841
:1011A00090ED020ABDEEC00A10EE100A00B2ADF8D2
:1011B0002400BB4890ED030ABDEEC00A10EE100AF1
:1011C00000B2ADF826004FF47A72002108A805F0AD
:1011D000EEF80AB0BDEC048B10BD10B52DED028BFE
:1011E000B0EE408AB14890ED020ADFEDB10A30EE70
:1011F000200AB04880ED000AD0ED000A1FED611A08
:1012000080EE810AAC48D0ED000A70EE600A9FEDD6
:10121000AB0A28EE001A90ED000A01EE200A80EDDC
:10122000000A90ED000AB5EEC00AF1EE10FA02D203
:101230009FED9D0A0FE0A04890ED000AF7EE000A2E
:10124000B4EEE00AF1EE10FA02DDB7EE000A02E0B9
:10125000994890ED000A9A4880ED000A954890ED73
:10126000000ADFED980AB4EEE00AF1EE10FA03D2BC
:1012700001209549087002E00020934908709348C6
:101280000078012802D104F017FA05E08F480078B1
:10129000022801D104F041FA8648D0ED000AB0EEF0
:1012A000480A04F0DEF8864890ED000A8848D0ED40
:1012B000000A20EE200A874880ED000A90ED000A1F
:1012C000B5EEC00AF1EE10FA02D29FED770A0FE0F8
:1012D000804890ED000ADFED800AB4EEE00AF1EEFE
:1012E00010FA02DD9FED7C0A02E07A4890ED000AD8
:1012F000784880ED000ABDEC028B10BD00B52DEDE5
:10130000028B83B0B0EE408A744890ED120AF3EE7F
:101310000E0A80EE201A9FED720A21EE000A8DED72
:10132000000AD0ED130AB3EE0E1A80EE810ADFED4B
:101330006C0A20EE200A8DED010A90ED140AF3EEFE
:101340000E0A80EE201A9FED660A21EE000A8DED4E
:10135000020A9DED000A634880ED000A9DED010A36
:1013600080ED010A9DED020A80ED020A90ED000A6F
:10137000DFED5D0AB4EEE00AF1EE10FA02D29FED65
:101380005A0A0FE0574890ED000ADFED550AB4EE17
:10139000E00AF1EE10FA02DD9FED510A02E0514839
:1013A00090ED000A4F4880ED000A90ED010ADFED54
:1013B0004E0AB4EEE00AF1EE10FA02D29FED4A0AAC
:1013C0000FE0484890ED010ADFED450AB4EEE00A6F
:1013D000F1EE10FA02DD9FED420A02E0414890ED85
:1013E000010A404880ED010A90ED020ADFED3E0A55
:1013F000B4EEE00AF1EE10FA02D29FED3B0A0FE0E4
:10140000384890ED020ADFED360AB4EEE00AF1EE5C
:1014100010FA02DD9FED320A02E0324890ED020A36
:10142000304880ED020ADFED310A80EE880A30484C
:10143000D0ED0A0A2F4890ED001A70EEC10A20EE96
:10144000200A2D4880ED0F0ADFED280A80EE880A79
:101450002748D0ED0B0AF1EE600A264890ED011AFC
:1014600070EEC10A20EE200A234880ED100ADFED5D
:101470001F0A80EE880A1E48D0ED0C0AF1EE600AC1
:101480001C4890ED021A70EEC10A20EE200A1A489C
:1014900080ED110A134890ED000A15482EE0000077
:1014A000D80800200000484300000000000A002087
:1014B0000000FA4310000020140000203433FB41E8
:1014C0000C0000200000C84208000020A8040020F2
:1014D000C00400200400002000004844C807002089
:1014E00000009643B0080020000096C36F12033B33
:1014F000840B0020BC08002004070020D0ED0A0A5D
:1015000030EE600AF7EE000A20EE200AFE4880ED79
:10151000000AFE4890ED010AFD48D0ED0B0A30EEBE
:10152000200AF7EE000A20EE200AF74880ED010AB3
:10153000F64890ED020AF648D0ED0C0A30EE200A8B
:10154000F7EE000A20EE200AEF4880ED020A90ED47
:10155000000AB5EEC00AF1EE10FA02DD90ED000AC5
:1015600004E0E94890ED000AB1EE400A5FED240A7C
:1015700080EE201AE44880ED2D1A90ED010AB5EEB8
:10158000C00AF1EE10FA02DD90ED010A04E0DE4837
:1015900090ED010AB1EE400A5FED2F0A80EE201AAD
:1015A000D94880ED2E1A90ED020AB5EEC00AF1EE90
:1015B00010FA02DD90ED020A04E0D34890ED020A31
:1015C000B1EE400ADFEDD30A80EE201ACE4880ED5E
:1015D0002F1A5FED3A0A80EE880AD0ED160A90EDD8
:1015E0000F1AFAEE041A21EE211A60EE810A20EE9B
:1015F000200A80ED0C0A5FED430A80EE880AD0EDE8
:101600001A0A90ED101AFAEE041A21EE211A60EE71
:10161000810A20EE200A80ED0D0A5FED4C0A80EE73
:10162000880AD0ED1E0A90ED111AFAEE041A21EE86
:10163000211A60EE810A20EE200A80ED0E0A90ED5C
:10164000000AD0ED0F0A30EE600AD0ED170A60EE06
:10165000200A90ED060A00EE880A80ED060A90ED59
:10166000010AD0ED100A30EE600AD0ED1B0A60EEE0
:10167000200A90ED070A00EE880A80ED070A90ED37
:10168000020AD0ED110A30EE600AD0ED1F0A60EEBA
:10169000200A90ED080A00EE880A80ED080A9E48AC
:1016A00090ED000AF6EE000A20EE200A5FED740AC3
:1016B00020EE200A944880ED090A974890ED000A30
:1016C000F6EE000A20EE200A5FED7B0A20EE200AEB
:1016D0008D4880ED0A0A904890ED000AF6EE000A67
:1016E00020EE200A5FED820A20EE200A864880ED77
:1016F0000B0A90ED060AD0ED090AF1EE600AB4EE8D
:10170000E00AF1EE10FA04D290ED090AB1EE400AB7
:101710000FE07D4890ED060AD0ED090AB4EEE00A2C
:10172000F1EE10FA02DD90ED090A02E0764890ED44
:10173000060A754880ED060A90ED070AD0ED0A0A00
:10174000F1EE600AB4EEE00AF1EE10FA04D290ED88
:101750000A0AB1EE400A0FE06B4890ED070AD0ED9F
:101760000A0AB4EEE00AF1EE10FA02DD90ED0A0A80
:1017700002E0654890ED070A634880ED070A90EDA6
:10178000080AD0ED0B0AF1EE600AB4EEE00AF1EEC1
:1017900010FA04D290ED0B0AB1EE400A0FE05A485D
:1017A00090ED080AD0ED0B0AB4EEE00AF1EE10FA63
:1017B00002DD90ED0B0A02E0534890ED080A524812
:1017C00080ED080A90ED300AF7EE000A30EEC00A0C
:1017D000D0ED150A20EE200AD0ED000A90ED0C1A8B
:1017E00070EE810A90ED061A70EE810A60EE200A12
:1017F00090ED301A4948D0ED2D1A9FED490A9FED22
:10180000492A02EE210AB5EEC00AF1EE10FA02D220
:101810001FEDDB0A1BE04148D0ED2D1A9FED400A79
:101820009FED402A02EE210AF7EE001AB4EEE10A1B
:10183000F1EE10FA02DDB7EE000A08E03748D0ED0D
:101840002D1A9FED370A9FED372A02EE210A21EE6D
:10185000000A2E4890ED001A40EE010AB0EE080A88
:1018600020EE800A284880ED120A90ED300AF7EE4B
:10187000000A30EEC00AD0ED190A20EE200AD0EDA1
:10188000010A90ED0D1A70EE810A90ED071A70EEC4
:10189000810A60EE200A90ED301A2048D0ED2E1A11
:1018A0009FED1F0A9FED1F2A02EE210AB5EEC00A26
:1018B000F1EE10FA02D29FED1C0A1BE01748D0EDA2
:1018C0002E1A9FED170A9FED172A02EE210AF7EE56
:1018D000001AB4EEE10AF1EE10FA02DDB7EE000AEA
:1018E00008E00E48D0ED2E1A9FED0D0A9FED0D2A4F
:1018F00002EE210A21EE000A044890ED011A40EEA2
:10190000010AB0EE080A11E004070020B008002028
:10191000840B0020000016430C000020C8070020A4
:101920006666E63ECDCC0C3F0000000020EE800A4B
:10193000474880ED130A90ED300AF7EE000A30EECA
:10194000C00AD0ED1D0A20EE200AD0ED020A90ED6B
:101950000E1A70EE810A90ED081A70EE810A60EEA0
:10196000200A90ED301A3B48D0ED2F1A1FED140AD3
:101970001FED142A02EE210AB5EEC00AF1EE10FAAC
:1019800002D21FED170A1BE03248D0ED2F1A1FEDCF
:101990001C0A1FED1C2A02EE210AF7EE001AB4EE13
:1019A000E10AF1EE10FA02DDB7EE000A08E029487C
:1019B000D0ED2F1A1FED260A1FED262A02EE210A6E
:1019C00021EE000A244890ED021A40EE010AB0EE22
:1019D000080A20EE800A1E4880ED140AB0EE480A7C
:1019E000FFF7FBFB1A48D0ED141AB0EE611AD0EDE8
:1019F000131AF0EE610AD0ED121AB0EE610AFFF789
:101A00000DFA134890ED000A80ED030A90ED010AEB
:101A100080ED040A90ED020A80ED050A0F4890ED72
:101A20000A0A0F4880ED000A0C4890ED0B0AB1EE4F
:101A3000400A0B4880ED010A084890ED0C0AB1EE0F
:101A4000400A074880ED020A03B0BDEC028B00BDDE
:101A500004070020C8070020B0080020840B0020E5
:101A6000BC08002070B52DED108BB0EE408AB0EEB2
:101A700060EAF0EE41EAB0EE61FAF0EE429AB0EEC2
:101A8000629AF0EE438A04460D4616469FEDFB0A25
:101A900028EE000AF3EE040A20EE200AF0EE40AA37
:101AA000F748D0ED080A60EEA00A90ED091AD0EDD3
:101AB000091A41EE210A90ED0A1AD0ED0A1A41EEF8
:101AC000210AB0EE600A00F006FDEE4880ED000A43
:101AD00090ED000AB5EEC00AF1EE10FA38D0E848F1
:101AE00090ED080AE748D0ED000A80EE201AE6489B
:101AF00090ED000A71EE400A90ED000A0AEEA00A8D
:101B000080ED000ADE4890ED090ADE48D0ED000ABB
:101B100080EE201ADC4890ED010A71EE400A90ED4B
:101B2000010A0AEEA00A80ED010AD548D0ED0A0AA2
:101B3000D44890ED001A80EE810AD348D0ED020A15
:101B400070EE600A90ED020A0AEEA00A80ED020A29
:101B5000CE4ACD49CE4802F058FFCC48D0ED000A1D
:101B600060EEA00A90ED011AD0ED011A41EE210AB3
:101B7000B0EE600A00F0AFFCC64880ED000AC34832
:101B800090ED000AB5EEC00AF1EE10FA36D090EDF5
:101B9000010AB5EEC00AF1EE10FA2FD090ED020A5C
:101BA000B5EEC00AF1EE10FA28D0BA4890ED000A5E
:101BB000B5EEC00AF1EE10FA20D0B44890ED000A5C
:101BC000B448D0ED000A80EE201AB0EE41BAAF481A
:101BD00090ED010AAF48D0ED000A80EE201AF0EE39
:101BE00041BAF0EE4B0AB0EE6B0A00F0B4FBDFED49
:101BF000AA0A20EE200AA94880ED000AA84890ED24
:101C0000010AD0ED030A20EE200AD0ED000A90ED83
:101C1000021A00EEC10AF0EE000A20EE200A9C48EB
:101C200080ED000A9E4890ED000AD0ED010A20EEFA
:101C3000200AD0ED020A90ED031A00EE810AF0EEC0
:101C4000000A20EE200A924880ED010A944890EDA7
:101C5000010A20EE000AD0ED020A90ED021A00EE11
:101C6000810AF7EE000AB0EE001A41EE400A8848F9
:101C7000C0ED020A69EEA90A49EE090A48EEA80A6F
:101C8000B0EE600A00F027FC864880ED000A9FED68
:101C90007B0A28EE000AF2EE040A60EE200A90EDBC
:101CA000000A814890ED001A30EE411A90ED000ACA
:101CB00000EE810A80ED000AF5EEC09AF1EE10FA0E
:101CC00002DDB0EE690A01E0B1EE690ADFED770AE4
:101CD000B4EEE00AF1EE10FA7DD2B5EEC09AF1EE64
:101CE00010FA02DDB0EE490A01E0B1EE490ADFED7B
:101CF0006F0AB4EEE00AF1EE10FA78D2F5EEC08A7F
:101D0000F1EE10FA02DDB0EE680A01E0B1EE680A09
:101D1000DFED660AB4EEE00AF1EE10FA67D2614830
:101D200090ED000AC9EE800AF0EE609A90ED000A8C
:101D3000C9EE000AB0EE609A90ED000AC8EE800A83
:101D4000F0EE608A90ED000ADFED590AB4EEE00A89
:101D5000F1EE10FA54DD90ED000ADFED540AB4EE16
:101D6000E00AF1EE10FA4BD2494890ED020A20EE5B
:101D7000090AD0ED010A08EEE00A4E4880ED030A98
:101D8000434890ED000A20EE280AD0ED020A09EE41
:101D9000E00A484880ED040A9FED380A28EE000A60
:101DA000F7EE000A20EE20AA90ED030AD0ED060A15
:101DB00070EE600A90ED060A0AEE200A80ED060A2F
:101DC00090ED040AD0ED070A70EE600A90ED070A64
:101DD0000AEE200A00E00AE080ED070A90ED060A0C
:101DE00080ED000A90ED070A80ED010A08E09FED02
:101DF000320A304880ED000A9FED2F0A80ED010A7B
:101E00002C4890ED090AD0ED000A9FED2C1A60EEE7
:101E1000810AB0EE001A60EE810A00EE880A80EDB9
:101E2000090A90ED0A0AD0ED010A9FED241A60EE2E
:101E3000810AB0EE001A60EE810A00EE880A80ED99
:101E40000A0A90ED0B0AD0ED020A9FED1C1A60EE13
:101E5000810AB0EE001A60EE810A00EE880A80ED79
:101E60000B0A90ED090ADFED160AB4EEE00AF1EE76
:101E700010FA27D29FED120A34E00000C3F5C840E3
:101E80005C050020440000205C090020500900206F
:101E90000809002040000020333365424C00002038
:101EA00024000020340000203C00002000808945F0
:101EB00000806D451409002000000000CDCCCC3D11
:101EC00034FA0EBDFE4890ED090ADFEDFE0AB4EECD
:101ED000E00AF1EE10FA02DD9FEDFA0A02E0F8489E
:101EE00090ED090AF64880ED090A90ED0A0A5FEDC7
:101EF0000C0AB4EEE00AF1EE10FA02D21FED100A5D
:101F00000FE0EF4890ED0A0ADFEDEE0AB4EEE00ACA
:101F1000F1EE10FA02DD9FEDEB0A02E0E84890EDE9
:101F20000A0AE74880ED0A0A90ED0B0A5FED1C0AE9
:101F3000B4EEE00AF1EE10FA02D21FED1F0A0FE034
:101F4000DF4890ED0B0ADFEDDF0AB4EEE00AF1EEB8
:101F500010FA02DD9FEDDB0A02E0D94890ED0B0A92
:101F6000D74880ED0B0AD84890ED020AB5EEC00ABA
:101F7000F1EE10FA29DDD548007898B1D448D0EDBB
:101F8000000AD44890ED001A70EEC10AB0EE600A63
:101F900000F03CFCDFEDD00A20EE200ACF4880EDB7
:101FA000000A12E0CA48D0ED000ACA4890ED001AB3
:101FB00070EEC10AB0EE600A00F028FCDFEDC80A3E
:101FC00020EE200AC54880ED000ABD4890ED000AC9
:101FD000D0ED090A30EE200ADFEDC20A20EE200A19
:101FE000B94890ED001ABD48D0ED001AF0EE4E0A47
:101FF00041EE610A9FEDBC1A00EE810AB04880ED07
:102000000C0A90ED010AD0ED0A0A30EE200ADFED4D
:10201000B50A20EE200AAC4890ED011AAF48D0ED89
:10202000001AF0EE6E0A41EE610A9FEDAF1A00EE63
:10203000810AA34880ED0D0AA348D0ED020AA74803
:1020400090ED001AB0EE4F0A00EEC10ADFEDA60ACD
:1020500020EE200A9A4880ED0E0AA44890ED010A6D
:10206000B1EE400A9648D0ED0C0A20EE200A9F48B7
:10207000D0ED020A924890ED0D1A00EEC10A9B487D
:10208000D0ED030A8E4890ED0E1A00EEC10A974873
:10209000D0ED000A40EE080AC0ED000A90ED000AFB
:1020A0008748D0ED0C0A20EE200A9048D0ED020AB5
:1020B000834890ED0E1A00EE810A8C48D0ED030A99
:1020C0007F4890ED0D1A00EEC10A8848D0ED010A54
:1020D00040EE080AC0ED010A90ED000A7848D0ED04
:1020E0000D0A20EE200A8148D0ED010A744890EDD7
:1020F0000E1A00EEC10A7D48D0ED030A704890ED3B
:102100000C1A00EE810A7948D0ED020A40EE080A66
:10211000C0ED020A90ED000A6948D0ED0E0A20EEEB
:10212000200A7248D0ED010A654890ED0D1A00EEC4
:10213000810A6E48D0ED020A614890ED0C1A00EE5B
:10214000C10A6A48D0ED030A40EE080AC0ED030A4E
:10215000D0ED000A60EEA00A90ED011AD0ED011A50
:1021600041EE210A90ED021AD0ED021A41EE210A49
:1021700090ED031AD0ED031A41EE210AB0EE600A89
:1021800000F0A9F95A4880ED000A584890ED000A7D
:102190005748D0ED000A80EE201A544880ED001A0E
:1021A00090ED010A5248D0ED000A80EE201A4F4807
:1021B00080ED011A90ED020A4D48D0ED000A80EE44
:1021C000201A4A4880ED021A90ED030A4848D0EDE3
:1021D000000A80EE201A454880ED031A90ED011A9E
:1021E00021EE011AD0ED021A90ED022A01EE821AB8
:1021F000F7EE001AB0EE002A42EE411AF0EE610A44
:1022000090ED001AD0ED011A21EE211AD0ED021A3C
:1022100090ED032A01EE821AF0EE001A21EE211A47
:10222000B0EE410A00F097F85FEDE50A20EE200AD3
:1022300084ED000A2D4890ED010AD0ED030A20EE4E
:10224000200AD0ED000A90ED021A00EEC10AF0EE6D
:10225000000A20EE200A10EE101A08460BF0B0FA21
:1022600041EC1D0BB0EE4D0AF0EE6D0A0BF0E4FCF4
:10227000B0EE40CAF0EE60CA9FED1E0B53EC102B7F
:1022800051EC1C0B0BF019FA41EC1B0B0BF0DCFAB8
:102290002860164890ED001A21EE011AD0ED011ABF
:1022A00090ED012A01EE821AF7EE001AB0EE002A34
:1022B00052EE011AF0EE610A90ED011A1EE00000E4
:1022C0001409002034FA0E3D08090020A40400205F
:1022D0004C0000202000002090C2F53D4800002066
:1022E0006766663F9A99193F34FA8E3C24000020B5
:1022F000380000200000006066A64C40B1EE411A94
:10230000D0ED021A21EE211AD0ED001A90ED032A29
:1023100001EEC21AF0EE001A21EE211AB0EE410AC7
:1023200000F019F8DFED040A20EE200A86ED000A1D
:10233000BDEC108B70BD000033336542F0EE400AF7
:10234000F5EEC00AF1EE10FA02DBB0EE600A70475B
:10235000B1EE600AFBE700B5B0EE403AB0EE602A9D
:10236000B5EEC03AF1EE10FA07D1B5EEC02AF1EEA3
:1023700010FA02D19FEDFD1A99E0B0EE430AFFF783
:10238000DDFFF0EE403AB0EE420AFFF7D7FFF0EE85
:10239000402AF4EEE23AF1EE10FA02D283EEA24ABB
:1023A00001E082EEA34A9FEDF20AB4EEC04AF1EEDC
:1023B00010FA02D2F0EE441A2DE0DFEDEE0AB6EE8E
:1023C000000A14EE200AF0EE404ABDEEE40A10EED8
:1023D000100A00EE100AB8EEC00A34EEC00AF0EEA1
:1023E000404AE54901EB800191ED000AF0EE401A08
:1023F000E14A411C02EB810191ED000A114601EB1B
:102400008001D1ED000A70EE600AB0EE610A00EEC4
:10241000A40AF0EE401AF4EEE32AF1EE10FA20DD01
:10242000B5EEC02AF1EE10FA0ADBB5EEC03AF1EED5
:1024300010FA02DBB0EE611A39E0B1EE611A36E053
:102440009FEDCE1AB5EEC03AF1EE10FA04DB31EE94
:10245000610AB0EE401A2AE031EEC10AB0EE401A2D
:1024600025E0B5EEC03AF1EE10FA10DB9FEDC41A8C
:10247000B5EEC02AF1EE10FA04DB31EE610AB0EEDF
:10248000401A14E031EE210AB0EE401A0FE09FED41
:10249000BD1AB5EEC02AF1EE10FA04DB31EE210AC6
:1024A000B0EE401A03E031EE610AB0EE401AB0EE31
:1024B000410A00BD00B5B0EE405AF0EE605AF0EEB1
:1024C000450AB0EE650AFFF746FF00BDF0EE400A90
:1024D00020EEA00A7047B0EE401AB7EE080AB0EE40
:1024E000402AB6EE000A21EE000AF0EE401AF0EEA5
:1024F000410A10EE900AA449A1EB600000EE900A98
:1025000061EEA02AB7EE080A02EEE00A20EE200AE9
:10251000F0EE400A61EEA02AB7EE080A02EEE00AE9
:1025200020EE200AF0EE400A21EE200A704710B596
:102530002DED0A8BB0EE409AF0EE609A9FED930B72
:1025400053EC102B51EC190B0BF04EF918D29FEDF8
:10255000910B53EC102B51EC190B0BF0AEF841EC36
:102560001B0B9FED8E0B53EC102B0AF0FFFF41EC81
:102570001A0B53EC192B0BF0A0F841EC180B17E0D9
:102580009FED840B53EC102B51EC190B0BF095F8CD
:1025900041EC1B0B9FED810B53EC102B0BF08AF8D9
:1025A00041EC1A0B53EC192B0BF087F841EC180B8C
:1025B0009FED760B53EC102B51EC180B0BF014F92C
:1025C00020D29FED780B53EC102B51EC180B0AF036
:1025D000CDFF41EC1C0B9FED750B53EC102B0BF05A
:1025E0006CF841EC1B0B9FED6F0B53EC102B0AF0BA
:1025F000BDFF41EC1A0B53EC182B0BF05EF841ECCD
:10260000180B1FE09FED670B53EC102B51EC180BD0
:102610000BF04DF841EC1C0B9FED660B53EC102BAF
:102620000BF04BF841EC1B0B9FED5E0B53EC102BAA
:102630000AF09CFF41EC1A0B53EC182B0BF03DF801
:1026400041EC180BB0EE480AF0EE680ABDEC0A8BBC
:1026500010BD10B52DED068BB0EE408AF0EE608A0D
:1026600001249FED560B53EC102B51EC180B0BF083
:10267000D3F80AD89FED510B53EC102B51EC180BEB
:102680000BF015F841EC180BA41E20460BF087F850
:1026900041EC190BB0EE480AF0EE680AFFF747FF6D
:1026A000B0EE40AAF0EE60AA53EC192B51EC1A0BD5
:1026B0000BF003F841EC100BBDEC068B10BD10B510
:1026C0002DED088BB0EE408AF0EE608A01249FED7C
:1026D0003D0B53EC102B51EC180B0AF047FF41EC6B
:1026E000180B9FED360B53EC102B51EC180B0BF025
:1026F00093F80AD8A41E9FED310B53EC102B51EC2C
:10270000180B0AF0D4FF41EC180B20460BF047F8E9
:1027100041EC1A0BB0EE480AF0EE680AFFF799FF99
:10272000B0EE40BAF0EE60BA53EC1A2B51EC1B0B32
:102730000AF0C3FF41EC190B0BF086F800EE100A0B
:10274000BDEC088B10BDB0EE401AB5EEC01AF1EE2C
:1027500010FA3BDD31EE600AB5EEC00AF1EE10FA78
:102760003FD2DFED021AB0EE610A3AE0000000004D
:102770008180803B0000804350000020DB0F4940F7
:10278000DB0FC93FDB0FC9BFDF59375F0000000017
:1027900000000000000000602FF0D93F0000006042
:1027A000305FF43F000000000000F03F000000C078
:1027B000CCCCCCBF000000C0CCCCCC3FF1D4C853B3
:1027C000FB210940F1D4C853FB21F93F31EE200A27
:1027D000B5EEC00AF1EE10FA03DD5FED1C1AB0EEA3
:1027E000610A7047B0EE401AF1EE601AB4EEE11AD9
:1027F000F1EE10FA07DDB4EEE01AF1EE10FA02D2B3
:102800001FED260A01E0B0EE410A7047F0EE400AE3
:102810009FED210AF4EEC00AF1EE10FA04DD9FEDFF
:102820001F0A30EEC00A70479FED1D0AF4EEC00A81
:10283000F1EE10FA04D29FED190A30EE800AF2E7A9
:10284000B0EE600AEFE7F0EE401AB7EE000AF4EEE1
:10285000C00AF1EE10FA04DCF5EEC00AF1EE10FA4F
:1028600002D21FED3E0A704781EE810AB5EEC00A22
:10287000F1EE10FA02DD81EE810A03E081EE810AB9
:10288000B1EE400A20EE202AB7EE000A30EE600AD0
:1028900002EE210AE7E70000000034430000B443E1
:1028A000000034C370B505460C462146F84804F0D4
:1028B00004FF70BD2DE9F0432DED028B83B005467A
:1028C0000E4617469846B0EE408A0024AA222146BA
:1028D000641CEF4842542146641C425404222146A1
:1028E000641C425400222146641C42542146641C4C
:1028F00045542146641C465401979DF80720214603
:10290000641C42549DF806202046611CCCB2E0496C
:102910000A549DF805202046611CCCB2DC490A54BB
:102920009DF804202046611CCCB2D9490A54CDF848
:1029300004809DF807202046611CCCB2D4490A547B
:102940009DF806202046611CCCB2D1490A549DF85E
:1029500005202046611CCCB2CD490A549DF80420C4
:102960002046611CCCB2CA490A549FEDCA0A28EE1F
:10297000000ABDEEC00A10EE100A00B202909DF8E7
:1029800009202046611CCCB2C1490A549DF8082098
:102990002046611CCCB2BE490A54201FC8704FF0BB
:1029A0000009002006E0BA49095C494401F0FF092A
:1029B000411CC8B2A042F6DB2046611CCCB2B4492F
:1029C00001F800902146B248FFF76CFF03B0BDEC60
:1029D000028BBDE8F08370B52DED0A8B82B0054601
:1029E000B0EE408AF0EE608AB0EE419AF0EE619A65
:1029F000B0EE42AAF0EE62AAB0EE43BAF0EE63BACD
:102A0000B0EE44CA0024AA222146641CA0484254C5
:102A10002146641C425405F10F00C2B22146641CD9
:102A20009B48425400222146641C42549FED9A0A5E
:102A300028EE000ABDEEC00A10EE100A00B20190A6
:102A40009DF805202146641C914842549DF80420BD
:102A50002146641C42549FED900A28EE800ABDEE88
:102A6000C00A10EE100A00B201909DF80520214620
:102A7000641C874842549DF804202046611CCCB257
:102A800083490A549FED840A29EE000ABDEEC00A6C
:102A900010EE100A00B201909DF805202046611C3E
:102AA000CCB27B490A549DF804202046611CCCB26C
:102AB00077490A549FED780A29EE800ABDEEC00AD4
:102AC00010EE100A00B201909DF805202046611C0E
:102AD000CCB26F490A549DF804202046611CCCB248
:102AE0006B490A549FED6C0A2AEE000ABDEEC00A3B
:102AF00010EE100A00B201909DF805202046611CDE
:102B0000CCB263490A549DF804202046611CCCB223
:102B10005F490A549FED600A2AEE800ABDEEC00AA2
:102B200010EE100A00B201909DF805202046611CAD
:102B3000CCB257490A549DF804202046611CCCB2FF
:102B400053490A549FED540A2BEE000ABDEEC00A09
:102B500010EE100A00B201909DF805202046611C7D
:102B6000CCB24B490A549DF804202046611CCCB2DB
:102B700047490A549FED480A2BEE800ABDEEC00A71
:102B800010EE100A00B201909DF805202046611C4D
:102B9000CCB23F490A549DF804202046611CCCB2B7
:102BA0003B490A549FED3C0A2CEE000ABDEEC00AD8
:102BB00010EE100A00B201909DF805202046611C1D
:102BC000CCB233490A549DF804202046611CCCB293
:102BD0002F490A54201FC8700026002005E02C4908
:102BE000095C3144CEB2411CC8B2A042F7DB20469A
:102BF000611CCCB226490E5421462548FFF752FEEF
:102C000002B0BDEC0A8B70BDF8B505460E46002437
:102C1000AA222146641C1E4842542146641C425488
:102C200005222146641C425400222146641C425461
:102C300000959DF801202146641C42549DF8002017
:102C40002146641C425400969DF801202146641CD4
:102C500042549DF800202146601CC4B20C484254E6
:102C6000201F0B49C8700027002005E00849095CB7
:102C70003944CFB2411CC8B2A042F7DB2046611CE8
:102C8000CCB203490F5421460148FFF70BFEF8BDB3
:102C9000790900200000C84200007A447FB5002472
:102CA000AA222146641CFE4842542146641C425418
:102CB00006222146641C425400222146641C4254D0
:102CC0009DF801202146641C42549DF800202146B5
:102CD000641C42549DF805202146641C42549DF812
:102CE00004202046611CCCB2ED490A549DF809200D
:102CF0002046611CCCB2EA490A549DF808202046BF
:102D0000611CCCB2E6490A549DF80D202046611C96
:102D1000CCB2E3490A549DF80C202146601CC4B291
:102D2000DF4842549DF821202046611CCCB2DC498A
:102D30000A549DF820202046611CCCB2D8490A5480
:102D40009DF825202046611CCCB2D5490A549DF837
:102D500024202046611CCCB2D1490A549DF8292078
:102D60002046611CCCB2CE490A549DF8282020464A
:102D7000611CCCB2CA490A549DF82D202046611C22
:102D8000CCB2C7490A549DF82C202046611CCCB215
:102D9000C3490A54201FC8700025002005E0C0491F
:102DA000095C2944CDB2411CC8B2A042F7DB2046E1
:102DB000611CCCB2BA490D542146B948FFF772FDE7
:102DC0007FBD7FB50024AA222146641CB44842542A
:102DD0002146641C425403222146641C42540022B2
:102DE0002146641C42549DF801202146641C425433
:102DF0009DF800202146641C42549DF80520214680
:102E0000641C42549DF804202046611CCCB2A449A5
:102E10000A549DF809202046611CCCB2A0490A54EE
:102E20009DF808202046611CCCB29D490A549DF8AB
:102E30000D202046611CCCB299490A549DF80C2003
:102E40002046611CCCB296490A549DF821202046A8
:102E5000611CCCB292490A549DF820202146601C86
:102E6000C4B28F4842549DF825202046611CCCB244
:102E70008B490A549DF824202046611CCCB2884915
:102E80000A549DF829202046611CCCB284490A547A
:102E90009DF828202046611CCCB281490A549DF837
:102EA0002D202046611CCCB27D490A549DF82C206F
:102EB0002046611CCCB27A490A549DF83120204644
:102EC000611CCCB276490A549DF830202046611C22
:102ED000CCB273490A549DF835202046611CCCB20F
:102EE0006F490A549DF834202046611CCCB26C49CD
:102EF0000A54201FC8700025002005E06849095CBD
:102F00002944CDB2411CC8B2A042F7DB2046611C67
:102F1000CCB263490D5421466148FFF7C3FC7FBD25
:102F200073B50024AA222146641C5D484254214600
:102F3000641C425407222146641C4254002221464C
:102F4000641C42549DF803202146641C42549DF8A1
:102F500002202146641C42549DF801202146641C35
:102F600042549DF800202046611CCCB24C490A54C2
:102F70009DF805202046611CCCB249490A549DF8B1
:102F800004202046611CCCB245490A54201FC87059
:102F90000025002005E04249095C2944CDB2411CCE
:102FA000C8B2A042F7DB2046611CCCB23C490D54AC
:102FB00021463B48FFF776FC7CBD2DE9F84F0546DE
:102FC0000E4617469846DDE90AAB0024AA222146A0
:102FD000641C334842542146641C42540222214658
:102FE000641C425400222146641C425400959DF802
:102FF00001202146641C42549DF800202146641C97
:10300000425400969DF801202146641C42549DF8CC
:1030100000202146601CC4B22148425400979DF80C
:1030200001202046611CCCB21D490A549DF80020A5
:103030002046611CCCB21A490A54CDF800809DF894
:1030400001202046611CCCB215490A549DF800208D
:103050002046611CCCB212490A54CDF800A09DF85C
:1030600001202046611CCCB20D490A549DF8002075
:103070002046611CCCB20A490A54CDF800B09DF834
:1030800001202146601CC4B2054842549DF800202E
:103090002146601CC4B2024842540C98009001E0E2
:1030A000790900209DF801202046611CCCB2F84926
:1030B0000A549DF800202046611CCCB2F4490A5401
:1030C0000D9800909DF801202046611CCCB2F0497B
:1030D0000A549DF800202046611CCCB2EC490A54E9
:1030E0000E9800909DF801202046611CCCB2E84962
:1030F0000A549DF800202046611CCCB2E4490A54D1
:10310000002000909DF801202046611CCCB2E049CF
:103110000A549DF800202046611CCCB2DC490A54B8
:10312000201FC8704FF00009002006E0D849095C54
:10313000494401F0FF09411CC8B2A042F6DB204619
:10314000611CCCB2D24901F800902146D048FFF76B
:10315000A9FBBDE8F88F38B50024AA222146641CDB
:10316000CB4842542146641C4254F1222146641C3F
:10317000425400222146641C4254002000909DF8D5
:1031800001202146641CC24842549DF8002021467B
:10319000641C4254BF4890ED000ABDEEC00A10EE18
:1031A000100A00B200909DF801202146641CB84826
:1031B00042549DF800202046611CCCB2B4490A5408
:1031C000B44890ED000ABDEEC00A10EE100A00B23D
:1031D00000909DF801202046611CCCB2AC490A54F5
:1031E0009DF800202046611CCCB2A9490A54002059
:1031F00000909DF801202046611CCCB2A4490A54DD
:103200009DF800202046611CCCB2A1490A54002040
:1032100000909DF801202046611CCCB29C490A54C4
:103220009DF800202046611CCCB299490A54201F09
:10323000C8700025002005E09549095C2944CDB2FD
:10324000411CC8B2A042F7DB2046611CCCB29049B9
:103250000D5421468E48FFF725FB38BD30B52DEDC6
:10326000048B81B0B0EE408AF0EE608AB0EE419AF5
:103270000024AA222146641C854842542146641C2D
:1032800042540B222146641C425400222146641CF5
:1032900042549FED810A28EE000ABDEEC00A10EEEE
:1032A000100A00B200909DF801202146641C784865
:1032B00042549DF800202146641C42549FED760A3A
:1032C00028EE800ABDEEC00A10EE100A00B200908F
:1032D0009DF801202146641C6D4842549DF8002051
:1032E0002046611CCCB26A490A549FED6B0A29EE54
:1032F000000ABDEEC00A10EE100A00B200909DF860
:1033000001202046611CCCB261490A549DF800207E
:103310002046611CCCB25E490A54201FC8700025AB
:10332000002005E05A49095C2944CDB2411CC8B2CD
:10333000A042F7DB2046611CCCB255490D54214612
:103340005348FFF7AFFA01B0BDEC048B30BD2DE957
:10335000F0432DED048B83B0B0EE408AF0EE608A2E
:10336000B0EE419A05460E4617469846002401964F
:10337000AA222146641C464842542146641C4254F9
:1033800001222146641C425400222146641C4254FE
:103390009FED420A28EE000ABDEEC00A10EE100AA8
:1033A00000B202909DF809202146641C384842541E
:1033B0009DF808202146641C42549FED380A28EEEF
:1033C000800ABDEEC00A10EE100A00B202909DF80D
:1033D00009202146641C2E4842549DF808202046AE
:1033E000611CCCB22A490A549FED2C0A29EE000A2E
:1033F000BDEEC00A10EE100A00B202909DF809203E
:103400002046611CCCB222490A549DF8082020466F
:10341000611CCCB21E490A5402959DF80920204631
:10342000611CCCB21A490A549DF808202046611C40
:10343000CCB217490A549DF807202046611CCCB233
:1034400013490A549DF806202046611CCCB210494D
:103450000A549DF805202046611CCCB20C490A5440
:103460009DF804202046611CCCB209490A5420462C
:10347000611CCCB206490F542046611CCCB20449F1
:1034800001F80080201FC8704FF0000900200EE0F6
:1034900079090020DC040020CDCCCC3D0000C842DE
:1034A000FB49095C494401F0FF09411CC8B2A04234
:1034B000F6DB2046611CCCB2F54901F800902146AC
:1034C000F348FFF7EFF903B0BDEC048BBDE8F083E0
:1034D0007FB505460024AA222146641CEC484254CC
:1034E0002146641C425400222146641C4254214659
:1034F000641C42542146641C45549DF80520214615
:10350000641C42549DF804202146641C42549DF8DA
:1035100009202046611CCCB2DD490A549DF80820E0
:103520002046611CCCB2DA490A549DF80D20204691
:10353000611CCCB2D6490A549DF80C202046611C6F
:10354000CCB2D3490A549DF821202046611CCCB24C
:10355000CF490A549DF820202046611CCCB2CC49AA
:103560000A54201FC8700026002005E0C849095CE5
:103570003144CEB2411CC8B2A042F7DB2046611CE8
:10358000CCB2C3490E542146C148FFF78BF97FBD29
:1035900010B586B0BF480078BF49097890FBF1F2BA
:1035A00001FB1201BC480078401E814202D101207B
:1035B000BA498870B7480078B949097890FBF1F2A8
:1035C00001FB1201B6480078401E814202D1012061
:1035D000B249C870AF480078B249097890FBF1F25F
:1035E00001FB1201AF480078801E814202D1012008
:1035F000AA498873A7480078AB49097890FBF1F293
:1036000001FB1201A8480078401E814202D101202E
:10361000A24948709F480078A449097890FBF1F2CC
:1036200001FB1201A1480078401E814202D1012015
:103630009A498872974800789D49097890FBF1F281
:1036400001FB12019A480078801E814202D10120BC
:10365000924908738F4800789649097890FBF1F2F7
:1036600001FB120193480078801E814202D10120A3
:103670008A494873874800788F49097890FBF1F2AE
:1036800001FB12018C480078C01E814202D101204A
:103690008249C8737F4800788849097890FBF1F225
:1036A00001FB120185480078C01E814204D17B488D
:1036B000007C401C7949087476480078401CC0B2F0
:1036C00074490870C82801DD00200870734800782C
:1036D00060B10020714908704FF4C87364224FF440
:1036E000967100900420FFF7F3FE03E26B484078E8
:1036F000B0B1002069494870714803787148027878
:1037000000217148008800B2704C94ED001A704C92
:10371000D4ED000A6F4C94ED000AFFF718FEE9E1C2
:103720005E48C07B60B100205C49C8736A4890ED78
:10373000001ADFED6A0A9FED690AFFF78FFDD9E1F4
:103740005648807B28B1002054498873FFF703FD59
:10375000D0E152488078E8B3002050498870604832
:1037600090ED0A0ABDEEC00A10EE100A01B25C48E4
:1037700090ED090ABDEEC00A10EE100A00B2584AD8
:1037800092ED080ABDEEC00A10EE102A12B2554B97
:1037900093ED090ABDEEC00A10EE103A1BB2CDE956
:1037A0000132CDE903014F4890ED080ABDEEC00A91
:1037B00010EE100A00B24B4C009094ED070ABDEEDB
:1037C000C00A10EE104A23B2464C94ED060ABDEE34
:1037D000C00A00E015E010EE104A22B2414C94ED10
:1037E000050ABDEEC00A10EE104A21B23D4C94ED20
:1037F000040ABDEEC00A10EE104A20B2FFF7DDFB4E
:1038000078E12648C07840B100202449C8702E488D
:1038100001880020FFF784FB6CE12048807AA8B380
:1038200000201E49887240F2DC522F48C08900F205
:10383000DC5080B22C49898901F2DC5189B2CDE992
:103840000302294805920291408900F2DC5080B2BF
:103850002549098901F2DC5189B2234CCDE90010D8
:10386000648804F2DC54A3B21F4C248804F2DC54B4
:10387000A2B21D4CE48804F2DC54A1B21A4CA48814
:1038800004F2DC54A0B2FFF79CFA33E12EE0000012
:103890007909002056040020570400206809002000
:1038A00058040020590400205A0400205B04002022
:1038B0005C0400205D0400205E0400205F04002002
:1038C000A4040020A9040020B0050020200000204E
:1038D0001C00002018000020DC0400200000000074
:1038E0005C050020840B0020F0090020FE48007BCE
:1038F00048B30020FC490873009001900290FB4CF3
:10390000039094ED030ABCEEC00A10EE104AA3B275
:10391000F64C94ED020ABCEEC00A10EE104AA2B2B8
:10392000F24C94ED010ABCEEC00A10EE104AA1B2AE
:10393000EE4C94ED000ABCEEC00A10EE104AA0B2A4
:10394000FFF7ACF9D6E0E848407B40B10020E649FB
:1039500048734FF4E4717B20FFF756F9CAE0E24860
:10396000007958B30020E0490871E148D0ED1E4AC3
:10397000B0EE644AD0ED1F4AF0EE643AD0ED1D4A35
:10398000B0EE643AD0ED1A4AF0EE642AD0ED1B4A4C
:10399000B0EE642AD0ED194AF0EE641AD0ED164A62
:1039A000B0EE641AD0ED174AF0EE640AD0ED154A75
:1039B000B0EE640A0120FFF70EF89BE0CA48407998
:1039C00058B30020C8494871CA48D0ED1E4AB0EE2D
:1039D000644AD0ED1F4AF0EE643AD0ED1D4AB0EED5
:1039E000643AD0ED1A4AF0EE642AD0ED1B4AB0EEEC
:1039F000642AD0ED194AF0EE641AD0ED164AB0EE02
:103A0000641AD0ED174AF0EE640AD0ED154AB0EE14
:103A1000640A0220FEF7DFFF6CE0B348807958B3F8
:103A20000020B1498871B448D0ED214AB0EE644A13
:103A3000D0ED224AF0EE643AD0ED204AB0EE643A7E
:103A4000D0ED1D4AF0EE642AD0ED1E4AB0EE642A95
:103A5000D0ED1C4AF0EE641AD0ED194AB0EE641AAB
:103A6000D0ED1A4AF0EE640AD0ED184AB0EE640ABE
:103A70000320FEF7B0FF3DE09B48C07958B300201B
:103A80009949C8719D48D0ED084AB0EE644AD0ED1E
:103A9000074AF0EE643AD0ED064AB0EE643AD0ED53
:103AA000054AF0EE642AD0ED044AB0EE642AD0ED67
:103AB000034AF0EE641AD0ED024AB0EE641AD0ED7B
:103AC000014AF0EE640AD0ED004AB0EE640A042028
:103AD000FEF781FF0EE08448007C02280AD1002016
:103AE000814908741FED830A00231A4619461846B7
:103AF000FEF7E0FE06B010BD70B504460D46AA20E4
:103B00007F4908704870EF2088700220C87008460E
:103B1000047145710026002005E07949095C3144B3
:103B2000CEB2411CC8B20628F7DB75488671072162
:103B3000FEF7B8FE70BD70B52DED048B04460D4642
:103B40000026002004E0215C3144CEB2411CC8B202
:103B5000691E8142F7DC601910F8010CB04202D0F6
:103B6000BDEC048B70BD2078AA2802D16078AF2804
:103B700000D0F5E7A078012822D12079012802D1D0
:103B8000604908701CE02079022803D101205D49BA
:103B9000487015E02079032804D1012059490870A4
:103BA00048700DE02079042803D10120564908709F
:103BB00006E02079212802DB2079262800DD00BFDD
:103BC000A078022814D12079012806D1464908712D
:103BD00048718871C871087248722079A02802D192
:103BE0000120414908702079A12801D1FCF7D7FCB8
:103BF000A078032836D145480078022802D0022058
:103C000000F046FE2079617941EA00204049888031
:103C1000A079E17941EA00203D49C880207A617AA3
:103C200041EA00203A490880A07AE17A41EA00207E
:103C300037494880207B617B41EA00203449088174
:103C4000A07BE17B41EA002031494881207C617CF6
:103C500041EA00202E498881A07CE17C41EA0020D5
:103C60002B49C881A078042822D12079012803D1CA
:103C70000020284908701BE0207902280BD14FF65C
:103C8000706025498880002008804880C880012015
:103C9000204908700CE02079032803D101201F4936
:103CA000087005E02079042802D102201B49087021
:103CB000A07810287DD12179090209B2627941EA00
:103CC000020009F06CFD41EC190B9FED150B53EC54
:103CD000102B09F0F2FC41EC180B09F0B5FD04497A
:103CE0004865A17909021FE068090020D808002072
:103CF00004070020C8070020440600200406002016
:103D000079090020840B0020890500206C04002024
:103D1000AC090020A4040020F0090020A804002021
:103D2000FCA9F1D24D62503F09B2E27941EA0200AA
:103D300009F035FD41EC190B1FED070B53EC102B6F
:103D400009F0BBFC41EC180B09F07EFDFD49C8658C
:103D5000217A090209B2627A41EA020009F01FFDE4
:103D600041EC190B1FED120B53EC102B09F0A5FCC5
:103D700041EC180B09F068FDF2498865A17A090247
:103D800009B2E27A41EA020009F009FD41EC190B9F
:103D90001FED1D0B53EC102B09F08FFC41EC180BA1
:103DA00009F052FDE7494866217B090209B2627BAE
:103DB00000E076E041EA020009F0F1FC41EC190B69
:103DC0001FED290B53EC102B09F077FC41EC180B7D
:103DD00009F03AFD0146DB48C166A17B090209B240
:103DE000E27B41EA020009F0DAFC41EC190B1FED1D
:103DF000340B53EC102B09F060FC41EC180B09F06C
:103E000023FD0146CF488166217C090209B2627C0C
:103E100041EA020009F0C3FC41EC190B1FED400B15
:103E200053EC102B09F049FC41EC180B09F00CFD88
:103E3000C4494867A17C090209B2E27C41EA020058
:103E400009F0ADFC41EC190B1FED4B0B53EC102BA3
:103E500009F033FC41EC180B09F0F6FC0146B948B7
:103E6000C167217D090209B2627D41EA020009F0C1
:103E700096FC41EC190B1FED560B53EC102B09F07F
:103E80001CFC41EC180B09F0DFFC0146AD488167D2
:103E9000A0783146FFF730FEFCF779FB0120AA49F4
:103EA0000880A07811287DD12179090209B26279B0
:103EB00041EA020009F073FC41EC190B1FED680B9D
:103EC00053EC102B09F0F9FB41EC180B09F0BCFC8A
:103ED0009E494865A179090209B2E27941EA0200E6
:103EE00009F05DFC41EC190B1FED730B53EC102B2B
:103EF00009F0E3FB41EC180B09F0A6FC9349C865F7
:103F0000217A090209B2627A41EA020009F047FC0B
:103F100041EC190B1FED7E0B53EC102B09F0CDFB80
:103F200041EC180B09F090FC88498865A17A0902D8
:103F300009B2E27A41EA020009F031FC41EC190BC6
:103F40001FED890B53EC102B09F0B7FB41EC180B5C
:103F500009F07AFC7D494866217B090209B2627B3F
:103F600041EA020009F01BFC41EC190B1FED940B18
:103F700053EC102B09F0A1FB41EC180B09F064FC89
:103F800001467248C166A17B090209B2E27B41EA9F
:103F9000020009F004FC41EC190B1FED9F0B53ECE0
:103FA000102B00E055E009F088FB41EC180B09F0FC
:103FB0004BFC014665488166217C090209B2627C9E
:103FC00041EA020009F0EBFB41EC190B1FEDAC0BD1
:103FD00053EC102B09F071FB41EC180B09F034FC89
:103FE0005A494867A17C090209B2E27C41EA020011
:103FF00009F0D5FB41EC190B1FEDB70B53EC102B5F
:1040000009F05BFB41EC180B09F01EFC01464F4820
:10401000C167217D090209B2627D41EA020009F00F
:10402000BEFB41EC190B1FEDC20B53EC102B09F03A
:1040300044FB41EC180B09F007FC0146434881673B
:10404000A0783146FFF758FDFCF7A1FA01203E4960
:104050000880A078122874D12179090209B2627906
:1040600041EA020009F09BFB41EC190B1FEDD40B58
:1040700053EC102B09F021FB41EC180B09F0E4FB89
:1040800033490866A179090209B2E27941EA0200DE
:1040900009F085FB41EC190B1FEDDF0B53EC102BE6
:1040A00009F00BFB41EC180B09F0CEFB28498866A0
:1040B000217A090209B2627A41EA020009F06FFB33
:1040C00041EC190B1FEDEA0B53EC102B09F0F5FA3C
:1040D00041EC180B09F0B8FB1D494866A17A0902AA
:1040E00009B2E27A41EA020009F059FB41EC190BEE
:1040F0001FEDF50B53EC102B09F0DFFA41EC180B18
:1041000009F0A2FB12490867217B090209B2627B10
:1041100041EA020009F043FB41EC190B9FED0D0B46
:1041200053EC102B09F0C9FA41EC180B09F08CFB89
:1041300007498867A17B090209B2E27B41EA0200D4
:104140000CE069E00407002054040020C8070020A8
:1041500044060020FCA9F1D24D62503F09F01FFB3C
:1041600041EC190B1FED050B53EC102B09F0A5FAD0
:1041700041EC180B09F068FB69494867217C09028A
:1041800009B2627C41EA020009F009FB41EC190B1B
:104190001FED100B53EC102B09F08FFA41EC180BAC
:1041A00009F052FB5E49C1F88000A17C090209B206
:1041B000E27C41EA020009F0F2FA41EC190B1FED32
:1041C0001B0B53EC102B09F078FA41EC180B09F09B
:1041D0003BFB5349C1F88800217D090209B2627D89
:1041E00041EA020009F0DBFA41EC190B1FED270B45
:1041F00053EC102B09F061FA41EC180B09F024FB89
:104200004749C1F88400A0783146FFF775FCFCF7F8
:10421000BEF9012043490880A078132803D1A07873
:104220003146FFF769FCA078142803D1A078314605
:10423000FFF762FCA078152803D1A0783146FFF77C
:104240005BFC00BF8CE410B504463748007838B9F1
:10425000AA2C05D1012034490870344804705DE06F
:1042600031480078012807D1AF2C05D102202E4912
:1042700008702E48447051E02B480078022807D17E
:10428000F12C05DA0320284908702848847045E09D
:104290002548007803280CD1322C0ADA0420224960
:1042A00008702248C4702248047000202149087018
:1042B00034E01D480078042819D11D4800780028F2
:1042C00015DD1B480078401E194908701948007810
:1042D00018490978491C174A1170001D13490C54DC
:1042E00013480078D0B905200F49087016E00E4831
:1042F000007805280FD100200B4908700D48007880
:10430000001D0A490C540B480078401DC1B20748F3
:10431000FFF711FC02E000200349087010BD000007
:10432000440600205404002062040020BC09002040
:1043300060040020610400200246002007E0FC4BDE
:104340001B5632F8133021F81030431CD8B208281D
:10435000F5DB7047F748D0ED020A9FEDF71AF4EE4F
:10436000C10AF1EE10FA51D2D0ED030A9FEDF21A14
:10437000F4EEC10AF1EE10FA1AD2F048B0F90000DA
:10438000401CC8B3EE480078B0B3EC48B0F9000068
:1043900000EE900AF8EEE00A9FEDEA1A41EE000AFC
:1043A000FDEEE00A10EE900A00B2E449088030E029
:1043B000E048D0ED030A9FEDE41AF4EEC10AF1EEF5
:1043C00010FA1ADDDD48B0F90000401CA0B1DC484D
:1043D000007888B9D948B0F9000000EE900AF8EEEC
:1043E000E00A9FEDD81A41EE000AFDEEE00A10EE59
:1043F000900A00B2D14908800BE0D048B0F9000023
:10440000401C30B90020CD49088002E00020CB4993
:104410000880CA48B0F90000B0F57A7F10DD4FF08F
:10442000FF30C6490880C648007830B90120C44929
:1044300008700220C549487002E00020C049087099
:1044400070473FB5F0EE401A0546C1480078012894
:1044500004D1C0492846FFF76FFF07E0BC48007849
:10446000022803D1BB49BC48FFF766FF0024FBE1EB
:10447000B84830F8140040F6C411884205DCB5484D
:1044800030F81400B0F5FA7F07DA0120B349085577
:104490000020B34921F8140012E0B14830F81400AC
:1044A000401CAF4921F81400084630F81400C82811
:1044B00006DD4FF4FA6021F814000020A7490855E2
:1044C000A3480078012803D0A148007802287BD1B6
:1044D000A248005D0028FAD19E4830F814002DF85B
:1044E0001400A04830F914009F4931F91410884293
:1044F0006BDD9E48005D002878D13DF814009A4994
:1045000031F91410401A00EE100AB8EEC01A95489E
:1045100030F91400944931F91410401A00EE100AD1
:10452000B8EEC00AC1EE000A9FED861A9FED900A10
:1045300010EE810ABDEEC00A10EE100A00B210F5AE
:10454000FA7F01DA8B484DE03DF81400864931F9D5
:104550001410401A00EE100AB8EEC01A814830F963
:104560001400814931F91410401A00EE100AB8EE17
:10457000C00AC1EE000A9FED731A9FED7D0A10EE8E
:10458000810ABDEEC00A10EE100A00B2B0F5FA7F43
:1045900002DD4FF4FA7025E03DF81400724931F95C
:1045A0001410401A00EE100AB8EEC01A6D4830F927
:1045B00014006D4931F91410401A00EE100AB8EEDB
:1045C000C00AC1EE000A02E08AE086E00EE09FED3C
:1045D0005D1A9FED670A10EE810ABDEEC00A10EE6B
:1045E000100A00B2644921F8140079E03DF8140083
:1045F0005D4931F91410401A00EE100AB8EEC01AE5
:10460000584830F91400584931F91410401A00EE96
:10461000100AB8EEC00AC1EE000A9FED4A1A9FEDDB
:10462000540A10EE810ABDEEC00A10EE100A00B264
:1046300010F5FA7F01DA4F4849E03DF814004A4985
:1046400031F91410401A00EE100AB8EEC01A4548AD
:1046500030F91400444931F91410401A00EE100AE0
:10466000B8EEC00AC1EE000A9FED361A9FED400A6F
:1046700010EE810ABDEEC00A10EE100A00B2B0F5CD
:10468000FA7F02DD4FF4FA7021E03DF8140036495C
:1046900031F91410401A00EE100AB8EEC01A314871
:1046A00030F91400304931F91410401A00EE100AA4
:1046B000B8EEC00AC1EE000A9FED221A9FED2C0A47
:1046C00010EE810ABDEEC00A10EE100A00B24042A0
:1046D00000B2294921F8140002E0002018490870AE
:1046E0009FED260A21EE800A254880ED000A3DF85C
:1046F000140000EE100AB8EE400A0E4800EB8400E9
:10470000D0ED000A30EE600AB5EEC00AF1EE10FA04
:1047100038DD3DF8140000EE100AB8EE400A0548F6
:1047200000EB8400D0ED000A30EE600A39E00000B2
:1047300064040020000A00200000C8C3A604002072
:10474000A404002000007A440000C843840B002029
:104750006C040020700A0020AC0900206D040020C9
:10476000600A0020780400208804002098040020BB
:104770000000FA430CFEFFFFF009002034337B42B7
:10478000A00400203DF8140000EE100AB8EE400A24
:10479000434800EB8400D0ED000A30EE600AB1EE31
:1047A000400ADFED400AB4EEE00AF1EE10FA1DD245
:1047B0003D4830F9140000EE100AB8EEC00A38483F
:1047C00000EB8400D0ED000A70EE600A344800EB84
:1047D000840090ED000A354890ED001A01EE200AA1
:1047E0002F4800EB840080ED000A20E02E4830F9CD
:1047F000140000EE100AB8EEC00A294800EB84004D
:10480000D0ED000A70EE600A254800EB840090EDC0
:10481000000A264890ED001AB6EE002A21EE021A90
:1048200001EE200A1E4800EB840080ED000A1C48BF
:1048300000EB840090ED000A1D4800EB8400D0EDF1
:10484000000A30EE600A1B4800EB840080ED000A8D
:10485000134800EB840090ED000A154800EB84003B
:1048600080ED000A601CC4B2082CFFF601AEB0EE69
:10487000610AFFF76FFD10480088401C80B20E49A6
:104880000880C82803DD002008800C4908703FBD5F
:104890000A4908700021084A1180704770470000DB
:1048A000000A00200000C842F0090020A0040020F7
:1048B000200A0020400A0020760400206C0400201A
:1048C00030B50446084615886D1CADB2158085428A
:1048D00004DD002515800125558007E015888542F7
:1048E00001D1002501E015886D1C5580158804EB69
:1048F000850585ED000A558804EB8505D5ED000A90
:1049000030EE601A00EE900AF8EE601AC1EE210A4D
:1049100093ED001A70EE810AC3ED000A30BD70B548
:104920008BB0F0EE400A022801DA0B2903DB9FED81
:104930007B0A0BB070BD7A4C245C641CE4B2784DE9
:104940002C548C4201DB00242C5400EB400404EB7B
:10495000C004744D05EB8404714D2D5C04EB85049B
:10496000C4ED000A002211E000EB400404EBC00497
:104970006C4D05EB840404EB820494ED000A6C4654
:1049800004EB820484ED000A541CE2B28A42EBDBA1
:1049900000222DE0002325E06C4604EB830494ED17
:1049A000000A6D465C1C05EB8404D4ED001AB4EEDD
:1049B000E10AF1EE10FA13DD6C4604EB830494ED8A
:1049C000001A5C1C05EB840494ED000A6C4604EBB1
:1049D000830484ED000A5C1C05EB840484ED001A5A
:1049E0005C1CE3B24C1EA41A9C42D5DC541CE2B2FF
:1049F0004C1E9442CEDC0C4601EBD4756D106E4615
:104A000006EB850595ED000A93E770B52DED028B59
:104A100004460D461646D4ED020AB0EE600AFDF7D4
:104A200055FDF0EE408AD4ED010AB0EE600AFDF7C4
:104A30004DFD38EE800AB0EE408AFDF74CFD3A4855
:104A400080ED000AD4ED020AB0EE600AFDF73EFDEB
:104A5000F0EE408AD4ED000AB0EE600AFDF736FDB4
:104A600038EE800AB0EE408AFDF735FD2F4880ED24
:104A7000000A94ED020AB5EEC00AF1EE10FA02D275
:104A80004FF0FF3000E001202949087095ED000A41
:104A90002548D0ED000A20EE200A94ED001A0846C1
:104AA00090F9000000EE900AF8EEE00A61EE200AAC
:104AB00095ED021A00EEC10A86ED000A084690F94B
:104AC000000000EE100AB8EEC00A1848D0ED000A47
:104AD00020EE200AD5ED010A20EE200AD4ED010ACD
:104AE00095ED021A00EEC10A86ED010A94ED000A66
:104AF000D5ED000A20EE200AD4ED010A95ED011A49
:104B000000EE810AD4ED020A95ED021A00EE810A48
:104B100086ED020ABDEC028B70BD000000000000B3
:104B2000B4040020800A0020B8040020BC04002047
:104B3000B604002010B52DED068BF0EE408AF0EEA5
:104B4000609ADFEDFE0A79EEE00AB0EE600ADFED72
:104B5000FC0AFDF747FEDFEDFB0A20EE200ADFED41
:104B6000FA0A80EE201AF94880ED001A90ED000A4A
:104B7000DFEDF70AB4EEE00AF1EE10FA02D29FED93
:104B8000F40A0FE0F14890ED000ADFEDEE0AB4EE12
:104B9000E00AF1EE10FA02DD9FEDEA0A02E0EB48CE
:104BA00090ED000AE94880ED000AEA4890ED020A1B
:104BB000DFEDE20A30EE200ADFEDE70A20EE200A00
:104BC000DFEDE50A80EE201AE44880ED001A90ED52
:104BD000000ADFEDE10AB4EEE00AF1EE10FA0CDDB6
:104BE000DA4890ED000AB5EEC00AF1EE10FA1ADDCF
:104BF0009FEDDB0A80ED000A15E0D84890ED000A31
:104C0000F3EE040AB4EEE00AF1EE10FA0BD2CF484C
:104C100090ED000AB5EEC00AF1EE10FA03D29FED56
:104C2000D00A80ED000ACD4890ED000AC748D0EDCB
:104C3000000A00EEA80AC94880ED000A9FEDC90AE3
:104C4000F4EEC09AF1EE10FA19D29FEDC70A28EEE1
:104C5000800AF7EE000A80EE801AB7EE000A31EE05
:104C6000000AB7EE001AC1EE000A90ED000AB1EE9C
:104C7000401A90ED000A00EE810A80ED000ABB4860
:104C8000B0F9000000EE100AB8EEC00AC0EE280A23
:104C9000B0EE60AAB0EE4A0A05210020FFF73FFE01
:104CA000B0EE409AB248008800EE100AB8EE400A12
:104CB00005210120FFF733FEB0EE408A9FEDAD0ADB
:104CC000B4EEC08AF1EE10FA47D2B5EEC09AF1EE1A
:104CD00010FA02DDB0EE490A01E0B1EE490ADFED5B
:104CE000A10AB4EEE00AF1EE10FA1BD29FEDA20A7F
:104CF00028EE800AF7EE000A80EE801AB7EE000A6E
:104D000031EE000AB7EE001AC1EE000A9B4890EDA2
:104D1000000A39EE401A90ED000A00EE810A80ED9B
:104D2000000A1AE09FED960A68EE800AB7EE001AB4
:104D300081EE200AF7EE000A30EE200AB7EE001AE4
:104D4000C1EE000A8D4890ED000A39EE401A90ED50
:104D5000000A00EE810A80ED000A9FED860AB4EE9B
:104D6000C08AF1EE10FA37D2864890ED000A38EE8C
:104D7000400AB5EEC00AF1EE10FA04DD90ED000A2B
:104D800038EE400A06E07F4890ED000A38EE400A0F
:104D9000B1EE400ADFED730AB4EEE00AF1EE10FA6C
:104DA0001BD29FED750A28EE800AF7EE000A80EE0E
:104DB000801AB7EE000A31EE000AB7EE001AC1EE13
:104DC000000A704890ED000A38EE401A90ED000A93
:104DD00000EE810A80ED000A8CE06A4890ED000A3E
:104DE00038EE400AB5EEC00AF1EE10FA04DD90ED9F
:104DF000000A38EE400A06E0624890ED000A38EEFC
:104E0000400AB1EE400ADFED500AB4EEE00AF1EEDE
:104E100010FA1BD29FED5C0A28EE800AB7EE001A4A
:104E2000C1EE000AB7EE000A30EE800AB7EE001AB3
:104E3000C1EE000A534890ED000A38EE401A90ED9A
:104E4000000A00EE810A80ED000A53E04D4890ED23
:104E5000000A38EE400AB5EEC00AF1EE10FA04DDA1
:104E600090ED000A38EE400A06E0464890ED000A50
:104E700038EE400AB1EE400ADFED440AB4EEE00A33
:104E8000F1EE10FA1BD29FED420A28EE800AB7EE2F
:104E9000001AC1EE000AB7EE000A30EE800AB7EE43
:104EA000001AC1EE000A374890ED000A38EE401AA9
:104EB00090ED000A00EE810A80ED000A1AE09FEDF5
:104EC000350A28EE800AF7EE000A80EE801AB7EE67
:104ED000000A31EE000AB7EE001AC1EE000A2948B6
:104EE00090ED000A38EE401A90ED000A00EE810ABB
:104EF00080ED000A284890ED000A1848D0ED000A1D
:104F0000204890ED001A70EEC10A20EE200A2348D6
:104F100080ED000A204890ED020A2048D0ED000AFA
:104F200060EE200A90ED030A00EEA80A80ED030A65
:104F300090ED030A1A48D0ED000A33E00000FA436E
:104F4000000048420000964300004843C804002087
:104F5000000096C3000A002000007A44CC04002020
:104F6000000000000000C8429CC4203FB40500209F
:104F7000B00500200000FA44C3F54841D0040020E9
:104F8000C3F54840D4040020570EDD400000C8435C
:104F9000EB267140EB26F13F1C0B0020080B002094
:104FA0000C000020F1EE600A1FED1A1A60EE810A73
:104FB000B4EEE00AF1EE10FA08D290ED000AB1EE7C
:104FC000400A5FED200A20EE200A18E0FA4890ED32
:104FD000030AFA48D0ED000A1FED261A60EE810A96
:104FE000B4EEE00AF1EE10FA06DD90ED000A5FED96
:104FF0002B0A20EE200A02E0EF4890ED030AEE486B
:1050000080ED030A90ED000AD0ED010A30EE600A4F
:10501000DFEDEB0A20EE200AEA48D0ED000AF1EEBF
:10502000600A60EEA80A9FEDE81A01EE200AE74840
:10503000D0ED010A20EE200ADF4880ED020A90ED53
:10504000000AD0ED030A30EE200AD0ED020A30EE5D
:10505000200A80ED040A90ED040ADFEDDD0AB4EECB
:10506000E00AF1EE10FA02D29FEDD90A0FE0D24821
:1050700090ED040A5FED4F0AB4EEE00AF1EE10FA8B
:1050800002DD1FED520A02E0CB4890ED040ACA4847
:1050900080ED040A90ED040ACE4880ED000AC6486F
:1050A00090ED000A80ED010ABDEC068B10BD10B535
:1050B0002DED068BB0EE408AB0EE609AF0EE418A9C
:1050C000F0EE619AB0EE000A29EE000AB5EEC00AD1
:1050D000F1EE10FA02D21FED5E0A11E0B0EE000A06
:1050E00029EE000ADFEDBC0AB4EEE00AF1EE10FA98
:1050F00002DD9FEDB90A03E0B0EE000A29EE000AD6
:10510000B0EE40AA9FEDB50A68EE000AB7EE001AAD
:1051100081EE200AF7EE000A30EE200AB7EE001A00
:10512000C1EE000AAE4890ED000A3AEE401A90ED4A
:10513000000A00EE810A80ED000AAA4890ED000AFC
:105140009FEDA91AC0EE010AA84890ED000A9FED54
:10515000A81A00EE810AA74880ED000A5FED7F0AD9
:1051600090ED000AFDF7EFFAA348D0ED000A40EEFB
:10517000080AC0ED000A934890ED000A9F48D0ED60
:10518000000A30EE600AC0EE080A9A4890ED000A64
:1051900070EEC00A9FED8A0A28EE001A934890ED3F
:1051A000000A01EE200A80ED000A90ED000ADFED12
:1051B000880AB4EEE00AF1EE10FA02D29FED840AFA
:1051C0000FE08A4890ED000A5FEDA40AB4EEE00A11
:1051D000F1EE10FA02DD1FEDA70A02E0834890ED20
:1051E000000A824880ED000A9FED850A28EE000A39
:1051F000F7EE000A80EE801AB7EE000A31EE000AE0
:10520000B7EE001AC1EE000A7B4890ED000A39EEB5
:10521000C01A90ED000A00EE810A80ED000A90EDC0
:10522000000A784880ED000A90ED000AB5EEC00A49
:10523000F1EE10FA02DD90ED000A04E0714890ED05
:10524000000AB1EE400A5FEDC20AB4EEE00AF1EEE8
:1052500010FA04D21FEDBE0A6A4880ED000A6948C0
:1052600090ED000A574880ED000A90ED000A63486F
:1052700080ED000A644890ED000A5248D0ED000A23
:1052800078EEE00A20EE200A604880ED000ADFEDAB
:10529000600A80EE880AF2EE040A20EE200A5A48DC
:1052A000D0ED010A20EE200A5248D0ED000AF1EEBE
:1052B000600A20EE200A20EE080A544880ED020A17
:1052C000514890ED020AD0ED000A20EE200A78EE57
:1052D000E90A60EE200A4D4890ED030A00EE880AC4
:1052E00080ED030A90ED030A3448D0ED000AF1EE98
:1052F000600A1FEDEC1A60EE810AB4EEE00AF1EEEE
:1053000010FA08D290ED000AB1EE400A5FEDF30A00
:1053100020EE200A18E03D4890ED030A2748D0ED22
:10532000000A1FEDF81A60EE810AB4EEE00AF1EE11
:1053300010FA06DD90ED000ADFED360A20EE200AB5
:1053400002E0324890ED030A304880ED030A90ED08
:10535000000A2D48D0ED000A00EEA80A2B48D0ED37
:10536000020A30EE200AD0ED030A30EE200ADFED0B
:105370002A0AB4EEE00AF1EE10FA02D29FED260AF4
:105380005DE0224890ED000A1F48D0ED000A00EED3
:10539000A80A1E48D0ED020A30EE200AD0ED030A1A
:1053A00030EE200ADFED1B0AB4EEE00AF1EE10FA4F
:1053B00034DD9FED180A42E0080B00200C000020AD
:1053C000CDCCCC3EDC0400209A99193F1C0B002068
:1053D0000000FAC3D804002000001644C3F5C83FFB
:1053E000F4040020C404002000008045F8040020DC
:1053F00000401C46E4040020FC040020E0040020DF
:105400009CC4A03E00050020EC0A0020D80A002021
:105410006F12033B00009643000096C38B4890ED4B
:10542000000A8B48D0ED000A00EEA80A8748D0EDAC
:10543000020A30EE200AD0ED030A30EE200A854839
:10544000D0ED000A844890ED001A41EE000A7F4832
:10545000C0ED040A90ED000A80ED010ABDEC068B58
:1054600010BD10B52DED028BB0EE408AF0EE608AD3
:105470007A48007810B101287ED11AE0784890ED82
:10548000060ADFED780AB4EEE00AF1EE10FA03DD69
:105490000120724908700BE073480088401C80B2FC
:1054A00071490880B0F5FA7F02DD01206B49087070
:1054B0009BE09FED6E0A28EE000AF7EE000A80EEF0
:1054C000801AB7EE000A31EE000AB7EE001AC1EEFC
:1054D000000A674890ED020A614890ED061A20EE36
:1054E000010A634890ED001A5D48D0ED041A01EE00
:1054F000210A5F4890ED011A5948D0ED051A01EED6
:10550000210A1FED471A30EE410A5A4890ED001A61
:1055100030EE411A90ED000A00EE810A80ED000A9B
:105520001FED520A68EE000AB7EE001A81EE200A5B
:10553000F7EE000A30EE200AF7EE000A80EE801A3D
:105540009FED4D0A78EEC00A4C4890ED000A5FEDE1
:10555000641A11EEA00AD0ED000A41EE000AC0ED77
:10556000000A47480078022830D146480078401C9D
:1055700044490870084600E036E000780A2190FBB4
:10558000F1F201FB12003F4908700846007888B923
:105590003D4890ED000A5FED760A20EE200AB0EE5D
:1055A000401A3A48D0ED001AF0EE680A9FED380A2A
:1055B000FFF77DFD3748007840B9F0EE680A9FEDAF
:1055C000360AFFF7B7FAFF20324908702C480078F6
:1055D00030B11E4890ED040A304880ED000A02E028
:1055E0002E48C0ED008A00E000BF00BFBDEC028B7A
:1055F00010BDB7EE080A2A4880ED000AB0EE040A92
:1056000080ED010A9FED270A80ED020A70472648C7
:1056100090ED180ADFED250A20EE200A0C4880EDF7
:10562000000A214890ED190ADFED210A20EE200A38
:10563000074880ED010A1C4890ED1A0ADFED1D0AAB
:1056400020EE200A024880ED020A7047D80A0020A6
:10565000EC0A0020F40400200C000020EC040020E0
:10566000840B002000007A45EE04002034337B4296
:1056700008090020C40400200000FA43E8040020C8
:10568000A9040020F0040020D8040020D004002049
:105690000AD7A33CAC050020CDCCCC3DC0040020F3
:1056A0001C0B002000000000440600209A99993E3F
:1056B0003333B33F8FC2F53D1CB5C820ADF80000B1
:1056C000ADF80200ADF80400ADF806004FF47A72B0
:1056D0000021684600F06BFE4FF4FA6000F0F0F82D
:1056E0004FF4FA70ADF80000ADF80200ADF8040018
:1056F000ADF8060042000021684600F058FE4FF465
:10570000FA7000F0DDF800201B49888001201B4959
:10571000087000201A4908701CBD1A480088B0F5AE
:10572000167F0CDD1448B0F9040010F1C80F21DD1C
:10573000114880880A3800B20F4988801AE0114861
:105740000088B0F5C87F0CDD0B48B0F9040010F1FB
:10575000C80F0FDD08488088401E00B206498880C7
:1057600008E04FF670600449888000200349087003
:105770000349087070470000F0090020A4040020CD
:10578000A8040020B00500200EB50121084603F052
:10579000C1FA4FF0804003F019FD4FF47A70019088
:1057A0005320ADF800000020ADF80800ADF802006D
:1057B00069464FF0804003F0E5FD0121880706F0BF
:1057C000C7F801221146900705F0B8FF01218807AC
:1057D00004F072F90021012003F09CFA0EBD08B517
:1057E0001C208DF8000002208DF8010000208DF8AB
:1057F000020001208DF80300684602F0C2F808BDDF
:1058000010B5FFF7C1FFFFF7EAFF0121084603F0DB
:1058100081FA10BD7FB5684603F09AF84FF47A71AB
:105820000198B0FBF1F4E4082146B1F1807F00D388
:105830001DE021F07F40401E4FF0E02250615017E4
:105840000F22002807DA13071E0E664B00F00F0523
:105850002D1F5E5503E013071D0E634B1D5400BF43
:1058600000204FF0E02290610720106100BF6FF030
:10587000040002F01DF97FBD5C4A11684FF0E02280
:1058800052694FF0E0239B69D21A4FF47A735A435E
:105890004FF0E0235B69B2FBF3F201EB4103C3EB92
:1058A000C11302EBC300704730B50446FFF7E4FFB5
:1058B000054600BFFFF7E0FF401BA042FAD330BD12
:1058C00010B5044603E04FF47A70FFF7EDFF2000B7
:1058D000A4F10104F7D110BD10B54548007800B916
:1058E00010BD4448006840F2E731884207DA414879
:1058F0000068401C3F490860FAF780FC29E000205E
:105900003C4908603C4800683B2805DA3A48006892
:10591000401C394908601CE00020374908603748BE
:1059200000683B2805DA35480068401C33490860A8
:105930000FE000203149086031480068172805DA77
:105940002F480068401C2E49086002E000202C49C6
:10595000086000BFC4E710B5044604EB44002949C1
:1059600001EB800090ED000A04EB440001EB8000A5
:1059700080ED010AFFF780FF00EE100AB8EE400A42
:10598000DFED210A80EE201A04EB44001D4901EBF3
:10599000800080ED001A04EB440001EB800090EDE4
:1059A000000A04EB440001EB8000D0ED010A30EE68
:1059B000600A04EB440001EB800080ED020A04EB76
:1059C000440001EB800090ED020A10BD10B50024E8
:1059D00004E02046FFF7BFFF601CC4B2052CF8DBD3
:1059E00010BD000018ED00E000E400E00405002018
:1059F0000000002014050020100500200C050020E8
:105A000008050020380B00200024744900B587B039
:105A10000121062003F07EF901210E2003F0B4F8E5
:105A20001D208DF8040001208DF805008DF806007A
:105A30008DF8070001A801F0A4FF1E208DF80400D6
:105A400001208DF805008DF806008DF8070001A8EB
:105A500001F097FFC020059002208DF81800032068
:105A60008DF8190000208DF81A0002208DF81B0017
:105A700005A9FB4802F0EEF80320059002208DF8FE
:105A8000180003208DF8190000208DF81A0002205C
:105A90008DF81B0005A9F34802F0DCF8022206216C
:105AA000EF4802F014FC02220721ED4802F00FFC3F
:105AB00002220021EB4802F00AFC02220121E948FF
:105AC00002F005FC5320E84908800020ADF80800EA
:105AD0000A20ADF80A000120ADF80C000020ADF856
