:020000040800F2
:100000005040002059060108B501000863060108A8
:10001000B7010008BB010008BF0100080000000094
:10002000000000000000000000000000C301000804
:10003000C5010008000000006F060108C7010008A4
:1000400073060108730601087306010873060108A8
:100050007306010873060108730601087306010898
:100060007306010873060108730601087306010888
:100070007306010873060108730601087306010878
:100080007306010873060108730601087306010868
:100090007306010873060108730601087306010858
:1000A0007306010873060108730601087306010848
:1000B00073060108D9010008E10100087306010870
:1000C0007306010873060108730601087306010828
:1000D0007306010873060108E901000873060108A8
:1000E0007306010873060108730601087306010808
:1000F00073060108730601087306010873060108F8
:1001000073060108730601087306010873060108E7
:1001100073060108F101000873060108730601085F
:1001200073060108730601087306010873060108C7
:1001300073060108730601087306010873060108B7
:10014000730601087306010873060108419300084D
:100150007306010873060108730601087306010897
:100160007306010873060108730601087306010887
:100170007306010873060108730601087306010877
:100180007306010873060108DFF80CD014F08AFA30
:1001900000480047A10100085040002000BFFEE7D2
:1001A00000F052F90249087001E000F0F3F8FCE7B2
:1001B00000000020704700BFFEE700BFFEE700BF61
:1001C000FEE77047704710B50B480068401C0A49AD
:1001D000086005F0DDFE10BD10B506F0D0F810BDCA
:1001E00010B506F0D3F910BD10B508F078F910BDC0
:1001F00010B508F036FA10BD300500208648C089D9
:10020000401C8549C88108468088401C00B288800F
:100210000846C088401C00B2C88008460089401CBF
:1002200000B2088108464089401C00B24881084657
:100230008089401C00B2888108460078012804D1DA
:1002400008464078401C487002E00120724908705E
:10025000704710B5012005F0DAFE704807F0CEFCBB
:1002600003F0E6FA10BD10B52DED028B002005F06D
:10027000CEFEB0EE408A05F05BFE00EE100AB8EE4E
:10028000400ADFED670A80EE201A664880ED001A0A
:1002900006F00EFEB0EE480A07F040F8B0EE480A4D
:1002A00001F061F96048B0EE480A04F052FA05F036
:1002B0003FFE00EE100AB8EE400ADFED590A80EE6C
:1002C000201A584880ED011ABDEC028B10BD10B504
:1002D0002DED028B022005F09AFEB0EE408A05F06B
:1002E00027FE00EE100AB8EE400ADFED4D0A80EE60
:1002F000201A4C4880ED021A4C48D0ED063AB0EE78
:10030000633AD0ED053AF0EE632AD0ED043AB0EE50
:10031000632AD0ED0C3AF0EE631AD0ED0B3AB0EE52
:10032000631AD0ED0A3AF0EE630AF6EE003A68EE90
:10033000233AB0EE630A3E4A3E493F4801F0C6FC0C
:10034000B0EE480A00F0BEFB05F0F2FD00EE100A28
:10035000B8EE400ADFED320A80EE201A314880ED17
:10036000031ABDEC028B10BD10B507F0F3FF10B1FE
:1003700001203249087007F0FFFB10BD10B500F0F6
:1003800066FB10BD10B504F01DFC07F083FC09F0FE
:100390004DFD10BD10B52048007801283BD12848FC
:1003A000008800B227490880FFF753FF1A48B0F9C8
:1003B0000400022804DB002017498880FFF753FF60
:1003C0001548B0F90600052804DB00201249C88052
:1003D000FFF77DFF1048B0F908000A2804DB002071
:1003E0000D490881FFF7C0FF0B48B0F90A00142837
:1003F00004DB002008494881FFF7C0FF0648B0F938
:100400000C00322804DB002003498881FFF7BAFF83
:1004100000200149087010BDD4060020D20500203C
:1004200000247449E40600202433002034330020E3
:1004300024000020200000201C000020EC040020EC
:10044000400500200200002010B54FF4806009F044
:100450003FFD05F03BFD06F06CFB05F033FE4FF46D
:10046000C87006F091F907F01EFEC82005F084FD63
:10047000142006F0FFFD07F085FB4FF4E13007F094
:10048000B7FF112111480FF016FB04F025FC00F016
:1004900049FA642005F070FD09F0C2FC05F0F2FD98
:1004A00007F044F980F00100094908700948007814
:1004B00028B907F02BFD222104480FF0FCFA442153
:1004C00002480FF0F8FA012010BD0000004400407F
:1004D000B40500206C05002038B50122FBA1FC48C2
:1004E00012F0CCFA0446C4B100221146F7A013F072
:1004F000BEFA044614B14FF0FF3038BD0022F3A11C
:10050000F34812F0BBFA04463CB10022EFA11046BA
:1005100012F0B4FA6FF00100EFE7EEA1EE4812F02E
:1005200064FF04463CB10022E8A1104612F0A6FA8E
:100530006FF00200E1E70122E8A1EB4812F0C9FAEE
:1005400004463CB10022E1A1104612F097FA6FF088
:100550000300D2E76B464022E449E34812F06BFB0C
:100560000446009878B3E04812F0C4FD0122E0A1EF
:10057000DD4812F0AEFA04463CB10022D3A1104689
:1005800012F07CFA6FF00300B7E76B46C022DA493D
:10059000D54812F050FB0446009848B1D24812F0FA
:1005A000A9FD0022C9A1104612F068FA0120A4E7B3
:1005B000CD4812F09FFD0022C4A1104612F05EFA51
:1005C0006FF0030099E7FFE7C74812F093FD0022A0
:1005D000BEA1104612F052FA6FF004008DE738B554
:1005E0000022BAA1BA4812F049FA0446C4B1002266
:1005F0001146B6A013F03BFA044614B14FF0FF3099
:1006000038BD0022B1A1B24812F038FA04463CB11C
:100610000022AEA1104612F031FA6FF00100EFE7B0
:10062000ACA1AD4812F0E1FE04463CB10022A7A106
:10063000104612F023FA6FF00200E1E70A22A7A1A8
:10064000A94812F046FA04463CB100229FA1104688
:1006500012F014FA6FF00300D2E76B464022A34970
:10066000A14812F0E1FB044674BB9F4812F042FD22
:100670000A229FA19C4812F02CFA04463CB10022A9
:1006800092A1104612F0FAF96FF00300B8E76B463A
:10069000C0229949944812F0C7FB04464CB99248CD
:1006A00012F028FD002289A1104612F0E7F901207E
:1006B000A6E78D4812F01EFD002284A1104612F01C
:1006C000DDF96FF003009BE7874812F013FD00226D
:1006D0007EA1104612F0D2F96FF0040090E710B539
:1006E0008648824BD3E900219B68C0E90E13426320
:1006F0007E4BD3E903215B69C0E911130264804892
:100700007A4B18330ECB08300EC07C4A774B24331B
:100710000BCB58320BC2754890ED0D0A774880ED2F
:10072000190A724890ED0E0A744880ED1A0A75484D
:10073000714C1ECC54301EC064386F49D1E9053469
:100740000A69C969C0E91A34426601676A4BD3E98C
:1007500009141A6ADB6AC0E91F43C0E91D216A480F
:10076000654BD3E90C41D3E90E23C0E91541C0E93B
:1007700017236149D1E911430A6CC96CC0E91A43D6
:10078000426601675C49D1E91434D1E91621C0E918
:100790001D34C0E91F2110BD10B500F081F905F02E
:1007A000D4FA05F0F1FA10BD10B50022012147A0DE
:1007B00013F05DF99FED550A4F4880ED040A9FED57
:1007C000530A80ED000A9FED520A80ED080A9FED62
:1007D000510A80ED060A9FED4F0A80ED020AB7EE3E
:1007E000000A80ED0A0AB0EE000A80ED050AB0EEBC
:1007F000000A80ED010AB7EE000A80ED090AB7EEA3
:10080000000A80ED070AB7EE000A80ED030AB7EE92
:10081000000A80ED0B0AB6EE000A80ED100AB6EE73
:10082000000A80ED0C0A9FED3C0A80ED140A9FED52
:100830003B0A80ED120A9FED390A80ED0E0A9FED0A
:10084000370A80ED160A9FED360A80ED110A9FEDFA
:10085000340A80ED0D0A9FED2F0A80ED150AB7EEE0
:10086000000A80ED200AB7EE000A80ED220AB7EEFA
:10087000000A80ED210AB7EE000A80ED240AB7EEE7
:10088000000A80ED260AB7EE000A80ED250AB7EED1
:10089000000A80ED180AB7EE000A80ED1A0AB7EEDA
:1008A000000A80ED190AB7EE000A80ED1C0AB7EEC7
:1008B000000A80ED1E0AB7EE000A80ED1D0AFFF760
:1008C0008EFEFFF70CFFFFF767FF10BD303A000008
:1008D000F80700202F0000005028002073656E7379
:1008E0006F722E62696E000028180020F806002042
:1008F0007069642E62696E0038070020343300206E
:10090000880500206C28002030290020CDCC4C3FE9
:100910009A99993FCDCCCC3DCDCC4C3ECDCC4C3DE5
:100920009A99993E10B5FFF7D7FD0446002C04DADA
:10093000FFF73AFF012051490870FFF7D0FEFFF79B
:100940002BFF10BD10B504464D4894E80E0034301E
:100950000EC04C4894E80E000EC0494890ED190AAC
:10096000484880ED0D0AFFF73AFE10BD10B5044669
:10097000434894E80E0040300EC0424894E80E0010
:100980000C300EC03E4890ED1A0A3E4880ED0E0A2B
:10099000FFF725FE10BD10B504463B4894E80E0055
:1009A00008300EC0374894E80E0018300EC0FFF72C
:1009B00016FE10BD10B50446314894E80E005830BC
:1009C0000EC0304894E80E0024300EC0FFF707FE3A
:1009D00010BD10B52D482E49D1E916344A6D096E67
:1009E00080E81C00C16001462948D0E91A34426EF3
:1009F000006FC1E905340A61C8612548D0E91E3499
:100A0000426FD0F88000C1E909340A62C8620A4620
:100A1000204CD4E91530D4E91714C2E90E14C2E908
:100A20000C3010461B49D1E91942D1E91B31C0E90C
:100A30001042C0E912311749D1E91D42D1E91F31F5
:100A4000C0E91442C0E91631FFF7C9FD10BD10B569
:100A50001148008820B110480088401C0E490880C9
:100A60000D4800883C2807DD00200B4908800B4812
:100A7000007808B9FFF7ADFF10BD000004000020AA
:100A800034330020F80600208805002038070020B5
:100A90006C2800203029002058040020A8040020E1
:100AA000B7EE000AFE4880ED180AB7EE000A80EDA6
:100AB0001C0AB7EE000A80ED200A9FEDFA0A80EDCD
:100AC000300A704710B52DED0E8BB0EE408AF64817
:100AD000D0ED000AB0EE600AF3EE0E0A01F067FFF7
:100AE000DFEDF20A80EE201AB3EE090A21EE000AC9
:100AF000EF4880ED000AEC48D0ED010AF1EE600A03
:100B0000B0EE600AF3EE0E0A01F051FFDFEDE70AE6
:100B100080EE201AB3EE090A21EE000AE44880EDC7
:100B2000010AE448007808BBDF48D0ED030AB0EEC4
:100B3000600ADFEDE10A01F089FFDFEDDC0A80EEFB
:100B4000201A9FEDDE0A21EE000ABDEEC00A10EE6B
:100B5000100A00B200EE100AF8EEC00AD44890ED78
:100B6000020A00EE880A80ED020A36E0D04890EDD5
:100B7000020AD348D0ED000A30EEC00A10EE101A77
:100B8000084613F00CFC41EC1C0B18EE100A13F095
:100B900006FC41EC1E0B9FEDCB0B53EC102B13F01E
:100BA0007BFB41EC1D0B53EC1C2B13F075FB41EC54
:100BB0001A0BBF4890ED020A10EE101A084613F007
:100BC000EEFB41EC1B0B53EC1A2B13F0BEFA41EC7D
:100BD000190B13F027FCB6498860B548D0ED020A1E
:100BE000B0EE600A01F046FFB14880ED020AB74856
:100BF000D0ED000AAE4890ED001A70EE810AB448BC
:100C000090ED001A70EEC10AB0EE600A01F032FFFA
:100C1000B04880ED000AAD48D0ED010AA44890ED3F
:100C2000011A70EE810AAC4890ED001A70EEC10A0C
:100C3000B0EE600A01F01EFFA64880ED010AA3484D
:100C4000D0ED020A9A4890ED021A70EE810A9C4893
:100C500090ED001A70EEC10AB0EE600A01F00AFFD2
:100C60009C4880ED020A90ED000AB5EEC00AF1EE54
:100C700010FA02DD90ED000A04E0964890ED000ABB
:100C8000B1EE400AF3EE0E0A80EE201A914880ED94
:100C90002D1A90ED010AB5EEC00AF1EE10FA02DD50
:100CA00090ED010A04E08B4890ED010AB1EE400A94
:100CB000F3EE0E0A80EE201A864880ED2E1A90ED93
:100CC000020AB5EEC00AF1EE10FA02DD90ED020A5A
:100CD00004E0804890ED020AB1EE400AF3EE0E0AFD
:100CE00080EE201A7B4880ED2F1ADFED7C0A80EE23
:100CF000880AD0ED000A90ED031A70EEC10A90ED5B
:100D0000161AF2EE041A21EE211A60EE810A60EE44
:100D1000200A90ED2D1A9FED720ADFED721A01EE96
:100D2000810A20EE800A80ED0C0ADFED6C0A80EE6D
:100D3000880AD0ED010A90ED041A70EEC10A90ED18
:100D40001A1AF2EE041A21EE211A60EE810A60EE00
:100D5000200A90ED2E1A9FED620ADFED621A01EE75
:100D6000810A20EE800A80ED0D0ADFED5C0A80EE3C
:100D7000880AD0ED020A90ED051A70EEC10A90EDD6
:100D80001E1AF2EE041A21EE211A60EE810A60EEBC
:100D9000200A90ED2F1A9FED520ADFED521A01EE54
:100DA000810A20EE800A80ED0E0A90ED170AD0ED40
:100DB000000A60EE200A90ED060A00EE880A80ED37
:100DC000060A90ED1B0AD0ED010A60EE200A90EDB4
:100DD000070A00EE880A80ED070A90ED1F0AD0EDA1
:100DE000020A60EE200A90ED080A00EE880A80ED03
:100DF000080A3D4890ED000AF6EE000A20EE200AAF
:100E0000F3EE090A20EE200A324880ED090A36483E
:100E100090ED000AF6EE000A20EE200AF3EE090A31
:100E200020EE200A2B4880ED0A0A2F4890ED000A98
:100E3000F6EE000A20EE200AF3EE090A20EE200A60
:100E4000244880ED0B0A90ED060AD0ED090AF1EE78
:100E5000600AB4EEE00AF1EE10FA04D290ED090A4D
:100E6000B1EE400A0FE01B4890ED060AD0ED090AEA
:100E7000B4EEE00AF1EE10FA02DD90ED090A02E0AC
:100E8000144890ED060A134880ED060A90ED070A13
:100E9000D0ED0A0AF1EE600AB4EEE00A26E00000A6
:100EA0006C280020CDCC4C3E882B00200000FA435B
:100EB000F42900200C00002000002042000016430E
:100EC000240000201F85EB51B81E0940002A002095
:100ED0001C00002030290020200000200AD7A33B5E
:100EE0006666263F3333B33E10000020F1EE10FA61
:100EF00004D290ED0A0AB1EE400A0FE0FC4890EDF2
:100F0000070AD0ED0A0AB4EEE00AF1EE10FA02DDAB
:100F100090ED0A0A02E0F64890ED070AF44880EDE9
:100F2000070A90ED080AD0ED0B0AF1EE600AB4EE64
:100F3000E00AF1EE10FA04D290ED0B0AB1EE400A8D
:100F40000FE0EB4890ED080AD0ED0B0AB4EEE00A92
:100F5000F1EE10FA02DD90ED0B0A02E0E44890EDAC
:100F6000080AE34880ED080A90ED000ADFEDE10A87
:100F7000B4EEE00AF1EE10FA02D29FEDDE0A0FE0C5
:100F8000DB4890ED000ADFEDDC0AB4EEE00AF1EE9A
:100F900010FA02DD9FEDD80A02E0D54890ED000A74
:100FA000D34880ED000A90ED010ADFEDD20AB4EEDD
:100FB000E00AF1EE10FA02D29FEDCE0A0FE0CC4823
:100FC00090ED010ADFEDCC0AB4EEE00AF1EE10FA82
:100FD00002DD9FEDC90A02E0C54890ED010AC44850
:100FE00080ED010A90ED020ADFEDC20AB4EEE00ADC
:100FF000F1EE10FA02D29FEDBF0A0FE0BC4890ED6F
:10100000020ADFEDBD0AB4EEE00AF1EE10FA02DDED
:101010009FEDB90A02E0B64890ED020AB44880EDAF
:10102000020A90ED000AD0ED0C0A30EE200AD0ED55
:10103000060A30EE200AD0ED150A20EE200A80EDD7
:10104000120A90ED010AD0ED0D0A30EE200AD0ED23
:10105000070A30EE200AD0ED190A20EE200A80EDB2
:10106000130A90ED020AD0ED0E0A30EE200AD0ED00
:10107000080A30EE200AD0ED1D0A20EE200A80ED8D
:10108000140A90ED000A80ED030A90ED010A80ED4C
:10109000040A90ED020A80ED050ABDEC0E8B10BD2E
:1010A00010B52DED048B8AB0F0EE408AB0EE609A58
:1010B000B0EE418A9FED910AB4EEC08AF1EE10FACB
:1010C00002D29FED8E0A0BE09FED8D0AB4EEC08A2E
:1010D000F1EE10FA02DD9FED8A0A01E0B0EE480A57
:1010E000B0EE408AB1EE680A30EE090A30EE080A26
:1010F0008DED040A38EE890A30EE480A8DED050AB6
:1011000038EEC90A30EE080A8DED060AB1EE680A1B
:1011100030EE490A30EE480A8DED070A002429E036
:1011200004A800EB840090ED000ADFED760AB4EE2F
:10113000E00AF1EE10FA02D29FED720A13E004A861
:1011400000EB840090ED000ADFED6F0AB4EEE00AD8
:10115000F1EE10FA02DD9FED6C0A04E004A800EB4A
:10116000840090ED000A04A800EB840080ED000AE2
:10117000601CC4B2042CD3DB9DED040AB5EEC00A9A
:10118000F1EE10FA02DD9DED040A03E09DED040A84
:10119000B1EE400ADFED5D0A60EE200A9FED5A1ABB
:1011A00080EE810ADFED5A0A30EE200ADDED040AF6
:1011B00020EE200A8DED000A9DED050AB5EEC00A6D
:1011C000F1EE10FA02DD9DED050A03E09DED050A42
:1011D000B1EE400ADFED4D0A60EE200A9FED4A1A9B
:1011E00080EE810ADFED4A0A30EE200ADDED050AC5
:1011F00020EE200A8DED010A9DED060AB5EEC00A2B
:10120000F1EE10FA02DD9DED060A03E09DED060AFF
:10121000B1EE400ADFED3D0A60EE200A9FED3A1A7A
:1012200080EE810ADFED3A0A30EE200ADDED060A93
:1012300020EE200A8DED020A9DED070AB5EEC00AE8
:10124000F1EE10FA02DD9DED070A03E09DED070ABD
:10125000B1EE400ADFED2D0A60EE200A9FED2A1A5A
:1012600080EE810ADFED2A0A30EE200ADDED070A62
:1012700020EE200A8DED030ADDED000A254890EDF1
:10128000000A254890ED001A01EE200A234880ED5F
:10129000000ADDED010A1F4890ED000A1E4890ED9E
:1012A000001A01EE200A1D4880ED010ADDED020A58
:1012B000184890ED000A184890ED001A01EE200A37
:1012C000164880ED020ADDED030A124890ED000A8F
:1012D000114890ED001A01EE200A104880ED030A33
:1012E0000F48007878B30F48007868BB002447E0C7
:1012F000302900200000B4C20000B4420000C8C37E
:101300000000C84300007AC400007A446666E63EE6
:10131000CDCC0C3F0800002010000020402A002007
:10132000A80400200C000020FE4800EB840090ED93
:10133000000ADFEDFD0AB4EEE00AF1EE10FA04D285
:101340009FEDF90A15E04BE01DE0F64800EB840044
:1013500090ED000A5FED140AB4EEE00AF1EE10FA27
:1013600002DD1FED170A04E0EE4800EB840090ED6B
:10137000000AEC4800EB840080ED000A601CC4B257
:10138000042CD1DB39E0002427E0E64800EB8400A0
:1013900090ED000AB5EEC00AF1EE10FA02D29FED10
:1013A000E30A13E0DF4800EB840090ED000A5FEDF4
:1013B0002A0AB4EEE00AF1EE10FA02DD1FED2E0A61
:1013C00004E0D84800EB840090ED000AD54800EB1B
:1013D000840080ED000A601CC4B2042CD5DB0CE054
:1013E000002408E09FEDD10ACE4800EB840080ED98
:1013F000000A601CC4B2042CF4DBCA4890ED000A59
:10140000BDEEC00A10EE100A00B2ADF82000C548CB
:1014100090ED010ABDEEC00A10EE100A00B2ADF860
:101420002200C04890ED020ABDEEC00A10EE100A7C
:1014300000B2ADF82400BB4890ED030ABDEEC00A2F
:1014400010EE100A00B2ADF826004FF47A720021B7
:1014500008A805F008FB0AB0BDEC048B10BD10B560
:101460002DED028BB0EE408AB14890ED020ADFED1F
:10147000B10A30EE200AB04880ED000AD0ED000A33
:101480001FED611A80EE810AAC48D0ED000A70EEC3
:10149000600A9FEDAB0A28EE001A90ED000A01EEFB
:1014A000200A80ED000A90ED000AB5EEC00AF1EEC8
:1014B00010FA02D29FED9D0A0FE0A04890ED000ABD
:1014C000F7EE000AB4EEE00AF1EE10FA02DDB7EE34
:1014D000000A02E0994890ED000A9A4880ED000A5F
:1014E000954890ED000ADFED980AB4EEE00AF1EEBF
:1014F00010FA03D201209549087002E000209349B8
:1015000008708D48D0ED000AB0EE480A04F019FBCF
:101510008C4890ED000A8E48D0ED000A20EE200A9B
:101520008C4880ED000A90ED000AB5EEC00AF1EE9D
:1015300010FA02D29FED7D0A0FE0864890ED000A76
:10154000DFED850AB4EEE00AF1EE10FA02DD9FED60
:10155000820A02E07F4890ED000A7E4880ED000A92
:10156000BDEC028B10BD00B52DED028B83B0B0EE4B
:10157000408A7A4890ED120AF3EE0E0A80EE201AA5
:101580009FED770A21EE000A8DED000AD0ED130AD7
:10159000B3EE0E1A80EE810ADFED710A20EE200A0A
:1015A0008DED010A90ED140AF3EE0E0A80EE201A7A
:1015B0009FED6B0A21EE000A8DED020A9DED000AF7
:1015C000684880ED000A9DED010A80ED010A9DED5D
:1015D000020A80ED020A90ED000ADFED630AB4EE24
:1015E000E00AF1EE10FA02D29FED5F0A0FE05D48CB
:1015F00090ED000ADFED5A0AB4EEE00AF1EE10FABF
:1016000002DD9FED570A02E0564890ED000A55486A
:1016100080ED000A90ED010ADFED530AB4EEE00A16
:10162000F1EE10FA02D29FED500A0FE04D4890ED16
:10163000010ADFED4B0AB4EEE00AF1EE10FA02DD2A
:101640009FED470A02E0474890ED010A454880EDCA
:10165000010A90ED020ADFED440AB4EEE00AF1EE71
:1016600010FA02D29FED400A0FE03E4890ED020AC8
:10167000DFED3B0AB4EEE00AF1EE10FA02DD9FED79
:10168000380A02E0374890ED020A364880ED020A37
:10169000DFED360A80EE880A3548D0ED0A0A354873
:1016A00090ED001A70EEC10A20EE200A324880ED5B
:1016B0000F0ADFED2E0A80EE880A2D48D0ED0B0AC6
:1016C000F1EE600A2B4890ED011A70EEC10A20EE8F
:1016D000200A294880ED100ADFED240A80EE880AEE
:1016E0002348D0ED0C0AF1EE600A224890ED021A70
:1016F00070EEC10A20EE200A1F4880ED110A194839
:1017000090ED000A1A48D0ED0A0A30EE600AF7EEB2
:10171000000A20EE200A184880ED000A114890EDDA
:10172000010A2BE0402A002000004843000000008E
:10173000882B00200000FA4314000020180000202D
:101740003433FB41100000200000C8420C00002090
:10175000D404002008000020000048443029002064
:1017600000009643182A0020000096C36F12033B26
:1017700034330020242A00206C280020FE48D0EDBD
:101780000B0A30EE200AF7EE000A20EE200AFB4892
:1017900080ED010AFA4890ED020AF748D0ED0C0AF4
:1017A00030EE200AF7EE000A20EE200AF34880ED22
:1017B000020A90ED000AB5EEC00AF1EE10FA02DD61
:1017C00090ED000A04E0ED4890ED000AB1EE400A09
:1017D0005FED1D0A80EE201AE84880ED2D1A90ED8D
:1017E000010AB5EEC00AF1EE10FA02DD90ED010A31
:1017F00004E0E24890ED010AB1EE400A5FED280AEC
:1018000080EE201ADD4880ED2E1A90ED020AB5EE2A
:10181000C00AF1EE10FA02DD90ED020A04E0D748AA
:1018200090ED020AB1EE400ADFEDD60A80EE201AF2
:10183000D24880ED2F1A5FED330A80EE880AD0ED92
:10184000160A90ED0F1AFAEE041A21EE211A60EE34
:10185000810A20EE200A80ED0C0A5FED3C0A80EE42
:10186000880AD0ED1A0A90ED101AFAEE041A21EE49
:10187000211A60EE810A20EE200A80ED0D0A5FED4C
:10188000450A80EE880AD0ED1E0A90ED111AFAEE94
:10189000041A21EE211A60EE810A20EE200A80ED62
:1018A0000E0A90ED000AD0ED0F0A30EE600AD0ED7E
:1018B000170A60EE200A90ED060A00EE880A80ED15
:1018C000060A90ED010AD0ED100A30EE600AD0ED64
:1018D0001B0A60EE200A90ED070A00EE880A80EDF0
:1018E000070A90ED020AD0ED110A30EE600AD0ED41
:1018F0001F0A60EE200A90ED080A00EE880A80EDCB
:10190000080AA14890ED000AF6EE000A20EE200A2F
:101910005FED6D0A20EE200A984880ED090A9A488A
:1019200090ED000AF6EE000A20EE200A5FED740A40
:1019300020EE200A914880ED0A0A934890ED000AB3
:10194000F6EE000A20EE200A5FED7B0A20EE200A68
:101950008A4880ED0B0A90ED060AD0ED090AF1EEF7
:10196000600AB4EEE00AF1EE10FA04D290ED090A32
:10197000B1EE400A0FE0814890ED060AD0ED090A69
:10198000B4EEE00AF1EE10FA02DD90ED090A02E091
:101990007A4890ED060A794880ED060A90ED070A2C
:1019A000D0ED0A0AF1EE600AB4EEE00AF1EE10FAA8
:1019B00004D290ED0A0AB1EE400A0FE06F4890EDB4
:1019C000070AD0ED0A0AB4EEE00AF1EE10FA02DDE1
:1019D00090ED0A0A02E0694890ED070A674880ED39
:1019E000070A90ED080AD0ED0B0AF1EE600AB4EE9A
:1019F000E00AF1EE10FA04D290ED0B0AB1EE400AC3
:101A00000FE05E4890ED080AD0ED0B0AB4EEE00A54
:101A1000F1EE10FA02DD90ED0B0A02E0574890ED6E
:101A2000080A564880ED080A90ED300AF7EE000AE1
:101A300030EEC00AD0ED150A20EE200AD0ED000AE3
:101A400090ED0C1A70EE810A90ED061A70EE810A84
:101A500060EE200A90ED301A4C48D0ED2D1A9FED23
:101A60004C0A9FED4C2A02EE210AB5EEC00AF1EEB7
:101A700010FA02D21FEDD30A1BE04448D0ED2D1A14
:101A80009FED430A9FED432A02EE210AF7EE001A6A
:101A9000B4EEE10AF1EE10FA02DDB7EE000A08E05A
:101AA0003A48D0ED2D1A9FED3A0A9FED3A2A02EE00
:101AB000210A21EE000A324890ED001A40EE010A98
:101AC000B0EE080A20EE800A2C4880ED120A90ED54
:101AD000300AF7EE000A30EEC00AD0ED190A20EE07
:101AE000200AD0ED010A90ED0D1A70EE810A90EDFA
:101AF000071A70EE810A60EE200A90ED301A234832
:101B0000D0ED2E1A9FED220A9FED222A02EE210A25
:101B1000B5EEC00AF1EE10FA02D21FEDFC0A1BE08E
:101B20001A48D0ED2E1A9FED1A0A9FED1A2A02EEDE
:101B3000210AF7EE001AB4EEE10AF1EE10FA02DD26
:101B4000B7EE000A08E01148D0ED2E1A9FED100AFA
:101B50009FED102A02EE210A21EE000A084890EDBE
:101B6000011A40EE010AB0EE080A20EE800A03488E
:101B700080ED130A10E00000343300206C280020B0
:101B8000182A0020000016431000002030290020F1
:101B90006666E63ECDCC0C3F90ED300AF7EE000ACB
:101BA00030EEC00AD0ED1D0A20EE200AD0ED020A68
:101BB00090ED0E1A70EE810A90ED081A70EE810A0F
:101BC00060EE200A90ED301A3A48D0ED2F1A1FED42
:101BD000100A1FED102A02EE210AB5EEC00AF1EE3E
:101BE00010FA02D29FED340A1BE03248D0ED2F1AD2
:101BF0001FED190A1FED192A02EE210AF7EE001A4D
:101C0000B4EEE10AF1EE10FA02DDB7EE000A08E0E8
:101C10002848D0ED2F1A1FED220A1FED222A02EECE
:101C2000210A21EE000A254890ED021A40EE010A31
:101C3000B0EE080A20EE800A214880ED140AB0EECA
:101C4000480AFFF70CFC1E48D0ED141AB0EE611ADA
:101C5000D0ED131AF0EE610AD0ED121AB0EE610A5F
:101C6000FFF71EFA164890ED000A80ED030A90ED8A
:101C7000010A80ED040A90ED020A80ED050A114880
:101C800090ED0A0A104880ED000A0E4890ED0B0A0C
:101C9000B1EE400A0C4880ED010A0A4890ED0C0AAA
:101CA000B1EE400A084880ED020A03B0BDEC028B99
:101CB00000BD00003029002000000000182A00208C
:101CC0006C28002034330020242A002070B52DED2C
:101CD000108BB0EE408AB0EE60EAF0EE41EAB0EE72
:101CE00061FAF0EE429AB0EE629AF0EE438A044650
:101CF0000D4616469FEDFB0A28EE000AF3EE040A95
:101D000020EE200AF0EE40AAF748D0ED080A60EE77
:101D1000A00A90ED091AD0ED091A41EE210A90EDC2
:101D20000A1AD0ED0A1A41EE210AB0EE600A00F05C
:101D300006FDEE4880ED000A90ED000AB5EEC00AFF
:101D4000F1EE10FA38D0E84890ED080AE748D0EDF7
:101D5000000A80EE201AE64890ED000A71EE400A73
:101D600090ED000A0AEEA00A80ED000ADE4890ED30
:101D7000090ADE48D0ED000A80EE201ADC4890ED1A
:101D8000010A71EE400A90ED010A0AEEA00A80ED08
:101D9000010AD548D0ED0A0AD44890ED001A80EE29
:101DA000810AD348D0ED020A70EE600A90ED020A73
:101DB0000AEEA00A80ED020ACE4ACD49CE4803F0D1
:101DC00066F9CC48D0ED000A60EEA00A90ED011A49
:101DD000D0ED011A41EE210AB0EE600A00F0AFFC2E
:101DE000C64880ED000AC34890ED000AB5EEC00A6F
:101DF000F1EE10FA36D090ED010AB5EEC00AF1EE20
:101E000010FA2FD090ED020AB5EEC00AF1EE10FAEA
:101E100028D0BA4890ED000AB5EEC00AF1EE10FAEB
:101E200020D0B44890ED000AB448D0ED000A80EE0E
:101E3000201AB0EE41BAAF4890ED010AAF48D0ED9C
:101E4000000A80EE201AF0EE41BAF0EE4B0AB0EE36
:101E50006B0A00F0B4FBDFEDAA0A20EE200AA948C5
:101E600080ED000AA84890ED010AD0ED030A20EEAB
:101E7000200AD0ED000A90ED021A00EEC10AF0EE41
:101E8000000A20EE200A9C4880ED000A9E4890ED52
:101E9000000AD0ED010A20EE200AD0ED020A90EDF2
:101EA000031A00EE810AF0EE000A20EE200A9248A2
:101EB00080ED010A944890ED010A20EE000AD0ED71
:101EC000020A90ED021A00EE810AF7EE000AB0EE67
:101ED000001A41EE400A8848C0ED020A69EEA90ADC
:101EE00049EE090A48EEA80AB0EE600A00F027FCA5
:101EF000864880ED000A9FED7B0A28EE000AF2EE8C
:101F0000040A60EE200A90ED000A814890ED001A64
:101F100030EE411A90ED000A00EE810A80ED000AD1
:101F2000F5EEC09AF1EE10FA02DDB0EE690A01E0BA
:101F3000B1EE690ADFED770AB4EEE00AF1EE10FACD
:101F40007DD2B5EEC09AF1EE10FA02DDB0EE490A8C
:101F500001E0B1EE490ADFED6F0AB4EEE00AF1EEFE
:101F600010FA78D2F5EEC08AF1EE10FA02DDB0EE8A
:101F7000680A01E0B1EE680ADFED660AB4EEE00A35
:101F8000F1EE10FA67D2614890ED000AC9EE800ABE
:101F9000F0EE609A90ED000AC9EE000AB0EE609A89
:101FA00090ED000AC8EE800AF0EE608A90ED000A1B
:101FB000DFED590AB4EEE00AF1EE10FA54DD90EDCF
:101FC000000ADFED540AB4EEE00AF1EE10FA4BD24B
:101FD000494890ED020A20EE090AD0ED010A08EE08
:101FE000E00A4E4880ED030A434890ED000A20EED7
:101FF000280AD0ED020A09EEE00A484880ED040AFA
:102000009FED380A28EE000AF7EE000A20EE20AA1B
:1020100090ED030AD0ED060A70EE600A90ED060A14
:102020000AEE200A80ED060A90ED040AD0ED070AB8
:1020300070EE600A90ED070A0AEE200A00E00AE05E
:1020400080ED070A90ED060A80ED000A90ED070A80
:1020500080ED010A08E09FED320A304880ED000A69
:102060009FED2F0A80ED010A2C4890ED090AD0ED72
:10207000000A9FED2C1A60EE810AB0EE001A60EEA5
:10208000810A00EE880A80ED090A90ED0A0AD0ED77
:10209000010A9FED241A60EE810AB0EE001A60EE8C
:1020A000810A00EE880A80ED0A0A90ED0B0AD0ED55
:1020B000020A9FED1C1A60EE810AB0EE001A60EE73
:1020C000810A00EE880A80ED0B0A90ED090ADFED27
:1020D000160AB4EEE00AF1EE10FA27D29FED120ACA
:1020E00034E00000C3F5C840880500204800002007
:1020F000C42A0020B82A0020702A002044000020B2
:1021000033336542500000202800002038000020B2
:10211000400000200080894500806D457C2A002019
:1021200000000000CDCCCC3D34FA0EBDFE4890ED51
:10213000090ADFEDFE0AB4EEE00AF1EE10FA02DD64
:102140009FEDFA0A02E0F84890ED090AF64880EDA2
:10215000090A90ED0A0A5FED0C0AB4EEE00AF1EE0E
:1021600010FA02D21FED100A0FE0EF4890ED0A0AB4
:10217000DFEDEE0AB4EEE00AF1EE10FA02DD9FEDBB
:10218000EB0A02E0E84890ED0A0AE74880ED0A0A07
:1021900090ED0B0A5FED1C0AB4EEE00AF1EE10FAC6
:1021A00002D21FED1F0A0FE0DF4890ED0B0ADFEDB2
:1021B000DF0AB4EEE00AF1EE10FA02DD9FEDDB0A71
:1021C00002E0D94890ED0B0AD74880ED0B0AD848B9
:1021D00090ED020AB5EEC00AF1EE10FA29DDD548FD
:1021E000007898B1D448D0ED000AD44890ED001A98
:1021F00070EEC10AB0EE600A00F03CFCDFEDD00AE0
:1022000020EE200ACF4880ED000A12E0CA48D0ED47
:10221000000ACA4890ED001A70EEC10AB0EE600ADA
:1022200000F028FCDFEDC80A20EE200AC54880ED4A
:10223000000ABD4890ED000AD0ED090A30EE200AF0
:10224000DFEDC20A20EE200AB94890ED001ABD4821
:10225000D0ED001AF0EE4E0A41EE610A9FEDBC1A75
:1022600000EE810AB04880ED0C0A90ED010AD0ED35
:102270000A0A30EE200ADFEDB50A20EE200AAC484B
:1022800090ED011AAF48D0ED001AF0EE6E0A41EE63
:10229000610A9FEDAF1A00EE810AA34880ED0D0A96
:1022A000A348D0ED020AA74890ED001AB0EE4F0AFD
:1022B00000EEC10ADFEDA60A20EE200A9A4880ED62
:1022C0000E0AA44890ED010AB1EE400A9648D0EDFE
:1022D0000C0A20EE200A9F48D0ED020A924890EDA9
:1022E0000D1A00EEC10A9B48D0ED030A8E4890ED0E
:1022F0000E1A00EEC10A9748D0ED000A40EE080A17
:10230000C0ED000A90ED000A8748D0ED0C0A20EEDF
:10231000200A9048D0ED020A834890ED0E1A00EE94
:10232000810A8C48D0ED030A7F4890ED0D1A00EE2B
:10233000C10A8848D0ED010A40EE080AC0ED010A42
:1023400090ED000A7848D0ED0D0A20EE200A814871
:10235000D0ED010A744890ED0E1A00EEC10A7D48D6
:10236000D0ED030A704890ED0C1A00EE810A79480E
:10237000D0ED020A40EE080AC0ED020A90ED000A14
:102380006948D0ED0E0A20EE200A7248D0ED010A0D
:10239000654890ED0D1A00EE810A6E48D0ED020AF4
:1023A000614890ED0C1A00EEC10A6A48D0ED030AAC
:1023B00040EE080AC0ED030AD0ED000A60EEA00A64
:1023C00090ED011AD0ED011A41EE210A90ED021AAA
:1023D000D0ED021A41EE210A90ED031AD0ED031A56
:1023E00041EE210AB0EE600A00F0A9F95A4880EDEA
:1023F000000A584890ED000A5748D0ED000A80EED8
:10240000201A544880ED001A90ED010A5248D0ED90
:10241000000A80EE201A4F4880ED011A90ED020A62
:102420004D48D0ED000A80EE201A4A4880ED021A8D
:1024300090ED030A4848D0ED000A80EE201A454886
:1024400080ED031A90ED011A21EE011AD0ED021A67
:1024500090ED022A01EE821AF7EE001AB0EE002A81
:1024600042EE411AF0EE610A90ED001AD0ED011A29
:1024700021EE211AD0ED021A90ED032A01EE821A04
:10248000F0EE001A21EE211AB0EE410A00F097F8A2
:102490005FEDE50A20EE200A84ED000A2D4890ED5C
:1024A000010AD0ED030A20EE200AD0ED000A90EDDB
:1024B000021A00EEC10AF0EE000A20EE200A10EE29
:1024C000101A084611F06BFF41EC1D0BB0EE4D0ADF
:1024D000F0EE6D0A12F09CF9B0EE40CAF0EE60CA60
:1024E0009FED1E0B53EC102B51EC1C0B11F0D4FE86
:1024F00041EC1B0B11F096FF2860164890ED001A76
:1025000021EE011AD0ED011A90ED012A01EE821A96
:10251000F7EE001AB0EE002A52EE011AF0EE610A50
:1025200090ED011A1EE000007C2A002034FA0E3DD6
:10253000702A0020A8040020500000202400002061
:1025400090C2F53D4C0000206766663F9A99193F9E
:1025500034FA8E3C280000203C000020000000607F
:1025600066A64C40B1EE411AD0ED021A21EE211AB6
:10257000D0ED001A90ED032A01EEC21AF0EE001A17
:1025800021EE211AB0EE410A00F019F8DFED040A3D
:1025900020EE200A86ED000ABDEC108B70BD000015
:1025A00033336542F0EE400AF5EEC00AF1EE10FA60
:1025B00002DBB0EE600A7047B1EE600AFBE700B5DF
:1025C000B0EE403AB0EE602AB5EEC03AF1EE10FA45
:1025D00007D1B5EEC02AF1EE10FA02D19FEDFD1A37
:1025E00099E0B0EE430AFFF7DDFFF0EE403AB0EEBF
:1025F000420AFFF7D7FFF0EE402AF4EEE23AF1EE9E
:1026000010FA02D283EEA24A01E082EEA34A9FEDC5
:10261000F20AB4EEC04AF1EE10FA02D2F0EE441A19
:102620002DE0DFEDEE0AB6EE000A14EE200AF0EE21
:10263000404ABDEEE40A10EE100A00EE100AB8EEB1
:10264000C00A34EEC00AF0EE404AE54901EB8001D1
:1026500091ED000AF0EE401AE14A411C02EB8101C3
:1026600091ED000A114601EB8001D1ED000A70EEF8
:10267000600AB0EE610A00EEA40AF0EE401AF4EE31
:10268000E32AF1EE10FA20DDB5EEC02AF1EE10FAE1
:102690000ADBB5EEC03AF1EE10FA02DBB0EE611AD9
:1026A00039E0B1EE611A36E09FEDCE1AB5EEC03AD0
:1026B000F1EE10FA04DB31EE610AB0EE401A2AE0C6
:1026C00031EEC10AB0EE401A25E0B5EEC03AF1EEA7
:1026D00010FA10DB9FEDC41AB5EEC02AF1EE10FA25
:1026E00004DB31EE610AB0EE401A14E031EE210A4B
:1026F000B0EE401A0FE09FEDBD1AB5EEC02AF1EE24
:1027000010FA04DB31EE210AB0EE401A03E031EE9C
:10271000610AB0EE401AB0EE410A00BD00B5B0EE5D
:10272000405AF0EE605AF0EE450AB0EE650AFFF747
:1027300046FF00BDF0EE400A20EEA00A7047B0EE62
:10274000401AB7EE080AB0EE402AB6EE000A21EEB3
:10275000000AF0EE401AF0EE410A10EE900AA44989
:10276000A1EB600000EE900A61EEA02AB7EE080A25
:1027700002EEE00A20EE200AF0EE400A61EEA02A06
:10278000B7EE080A02EEE00A20EE200AF0EE400A58
:1027900021EE200A704710B52DED0A8BB0EE409A5D
:1027A000F0EE609A9FED930B53EC102B51EC190B4C
:1027B00011F008FE18D29FED910B53EC102B51EC49
:1027C000190B11F069FD41EC1B0B9FED8E0B53ECC7
:1027D000102B11F0BAFC41EC1A0B53EC192B11F031
:1027E0005BFD41EC180B17E09FED840B53EC102BB5
:1027F00051EC190B11F050FD41EC1B0B9FED810BBF
:1028000053EC102B11F045FD41EC1A0B53EC192B36
:1028100011F042FD41EC180B9FED760B53EC102BA1
:1028200051EC180B11F0CEFD20D29FED780B53EC3C
:10283000102B51EC180B11F088FC41EC1C0B9FED98
:10284000750B53EC102B11F027FD41EC1B0B9FED8A
:102850006F0B53EC102B11F078FC41EC1A0B53EC7E
:10286000182B11F019FD41EC180B1FE09FED670BC1
:1028700053EC102B51EC180B11F008FD41EC1C0B24
:102880009FED660B53EC102B11F006FD41EC1B0B7A
:102890009FED5E0B53EC102B11F057FC41EC1A0B23
:1028A00053EC182B11F0F8FC41EC180BB0EE480A71
:1028B000F0EE680ABDEC0A8B10BD10B52DED068B4D
:1028C000B0EE408AF0EE608A01249FED560B53EC87
:1028D000102B51EC180B11F08DFD0AD89FED510B08
:1028E00053EC102B51EC180B11F0D0FC41EC180BF1
:1028F000A41E204611F042FD41EC190BB0EE480A2F
:10290000F0EE680AFFF747FFB0EE40AAF0EE60AACB
:1029100053EC192B51EC1A0B11F0BEFC41EC100BCF
:10292000BDEC068B10BD10B52DED088BB0EE408AC6
:10293000F0EE608A01249FED3D0B53EC102B51EC1F
:10294000180B11F002FC41EC180B9FED360B53EC09
:10295000102B51EC180B11F04DFD0AD8A41E9FED61
:10296000310B53EC102B51EC180B11F08FFC41EC98
:10297000180B204611F002FD41EC1A0BB0EE480A8C
:10298000F0EE680AFFF799FFB0EE40BAF0EE60BAD9
:1029900053EC1A2B51EC1B0B11F07EFC41EC190B84
:1029A00011F040FD00EE100ABDEC088B10BDB0EE3A
:1029B000401AB5EEC01AF1EE10FA3BDD31EE600AB6
:1029C000B5EEC00AF1EE10FA3FD2DFED021AB0EE1A
:1029D000610A3AE0000000008180803B00008043F3
:1029E00054000020DB0F4940DB0FC93FDB0FC9BF9C
:1029F000DF59375F000000000000000000000060A9
:102A00002FF0D93F00000060305FF43F000000006D
:102A10000000F03F000000C0CCCCCCBF000000C0E4
:102A2000CCCCCC3FF1D4C853FB210940F1D4C853DE
:102A3000FB21F93F31EE200AB5EEC00AF1EE10FAA3
:102A400003DD5FED1C1AB0EE610A7047B0EE401A6C
:102A5000F1EE601AB4EEE11AF1EE10FA07DDB4EE11
:102A6000E01AF1EE10FA02D21FED260A01E0B0EEF4
:102A7000410A7047F0EE400A9FED210AF4EEC00AC9
:102A8000F1EE10FA04DD9FED1F0A30EEC00A704728
:102A90009FED1D0AF4EEC00AF1EE10FA04D29FED8C
:102AA000190A30EE800AF2E7B0EE600AEFE7F0EEC6
:102AB000401AB7EE000AF4EEC00AF1EE10FA04DC98
:102AC000F5EEC00AF1EE10FA02D21FED3E0A704791
:102AD00081EE810AB5EEC00AF1EE10FA02DD81EE58
:102AE000810A03E081EE810AB1EE400A20EE202A3D
:102AF000B7EE000A30EE600A02EE210AE7E70000B6
:102B0000000034430000B443000034C370B50546F0
:102B10000C462146F84805F01EFD70BD2DE9F04336
:102B20002DED028B83B005460E4617469846B0EE53
:102B3000408A0024AA222146641CEF4842542146C0
:102B4000641C425404222146641C42540022214643
:102B5000641C42542146641C45542146641C46545E
:102B600001979DF807202146641C42549DF80620D9
:102B70002046611CCCB2E0490A549DF8052020464D
:102B8000611CCCB2DC490A549DF804202046611C2B
:102B9000CCB2D9490A54CDF804809DF807202046CC
:102BA000611CCCB2D4490A549DF806202046611C11
:102BB000CCB2D1490A549DF805202046611CCCB204
:102BC000CD490A549DF804202046611CCCB2CA4964
:102BD0000A549FEDCA0A28EE000ABDEEC00A10EEA4
:102BE000100A00B202909DF809202046611CCCB268
:102BF000C1490A549DF808202046611CCCB2BE4948
:102C00000A54201FC8704FF00009002006E0BA499E
:102C1000095C494401F0FF09411CC8B2A042F6DB3F
:102C20002046611CCCB2B44901F800902146B2485C
:102C3000FFF76CFF03B0BDEC028BBDE8F08370B50D
:102C40002DED0A8B82B00546B0EE408AF0EE608A28
:102C5000B0EE419AF0EE619AB0EE42AAF0EE62AAAE
:102C6000B0EE43BAF0EE63BAB0EE44CA0024AA2232
:102C70002146641CA04842542146641C425405F17C
:102C80000F00C2B22146641C9B48425400222146D8
:102C9000641C42549FED9A0A28EE000ABDEEC00A59
:102CA00010EE100A00B201909DF805202146641C28
:102CB000914842549DF804202146641C42549FEDE3
:102CC000900A28EE800ABDEEC00A10EE100A00B28B
:102CD00001909DF805202146641C874842549DF8C8
:102CE00004202046611CCCB283490A549FED840A1B
:102CF00029EE000ABDEEC00A10EE100A00B20190E3
:102D00009DF805202046611CCCB27B490A549DF8F1
:102D100004202046611CCCB277490A549FED780A02
:102D200029EE800ABDEEC00A10EE100A00B2019032
:102D30009DF805202046611CCCB26F490A549DF8CD
:102D400004202046611CCCB26B490A549FED6C0AEA
:102D50002AEE000ABDEEC00A10EE100A00B2019081
:102D60009DF805202046611CCCB263490A549DF8A9
:102D700004202046611CCCB25F490A549FED600AD2
:102D80002AEE800ABDEEC00A10EE100A00B20190D1
:102D90009DF805202046611CCCB257490A549DF885
:102DA00004202046611CCCB253490A549FED540ABA
:102DB0002BEE000ABDEEC00A10EE100A00B2019020
:102DC0009DF805202046611CCCB24B490A549DF861
:102DD00004202046611CCCB247490A549FED480AA2
:102DE0002BEE800ABDEEC00A10EE100A00B2019070
:102DF0009DF805202046611CCCB23F490A549DF83D
:102E000004202046611CCCB23B490A549FED3C0A89
:102E10002CEE000ABDEEC00A10EE100A00B20190BE
:102E20009DF805202046611CCCB233490A549DF818
:102E300004202046611CCCB22F490A54201FC870C0
:102E40000026002005E02C49095C3144CEB2411C2B
:102E5000C8B2A042F7DB2046611CCCB226490E5412
:102E600021462548FFF752FE02B0BDEC0A8B70BD2B
:102E7000F8B505460E460024AA222146641C1E48C9
:102E800042542146641C425405222146641C42548B
:102E900000222146641C425400959DF801202146E1
:102EA000641C42549DF800202146641C4254009644
:102EB0009DF801202146641C42549DF800202146C3
:102EC000601CC4B20C484254201F0B49C870002734
:102ED000002005E00849095C3944CFB2411CC8B262
:102EE000A042F7DB2046611CCCB203490F542146B7
:102EF0000148FFF70BFEF8BDE12A00200000C842A0
:102F000000007A447FB50024AA222146641CFE48B2
:102F100042542146641C425406222146641C4254F9
:102F200000222146641C42549DF801202146641C65
:102F300042549DF800202146641C42549DF805200F
:102F40002146641C42549DF804202046611CCCB2EA
:102F5000ED490A549DF809202046611CCCB2EA498B
:102F60000A549DF808202046611CCCB2E6490A5458
:102F70009DF80D202046611CCCB2E3490A549DF80F
:102F80000C202146601CC4B2DF4842549DF8212029
:102F90002046611CCCB2DC490A549DF82020204612
:102FA000611CCCB2D8490A549DF825202046611CEA
:102FB000CCB2D5490A549DF824202046611CCCB2DD
:102FC000D1490A549DF829202046611CCCB2CE4933
:102FD0000A549DF828202046611CCCB2CA490A54E4
:102FE0009DF82D202046611CCCB2C7490A549DF89B
:102FF0002C202046611CCCB2C3490A54201FC87043
:103000000025002005E0C049095C2944CDB2411CDF
:10301000C8B2A042F7DB2046611CCCB2BA490D54BD
:103020002146B948FFF772FD7FBD7FB50024AA2273
:103030002146641CB44842542146641C4254032275
:103040002146641C425400222146641C42549DF8CF
:1030500001202146641C42549DF800202146641C36
:1030600042549DF805202146641C42549DF80420DA
:103070002046611CCCB2A4490A549DF80920204680
:10308000611CCCB2A0490A549DF808202046611C5E
:10309000CCB29D490A549DF80D202046611CCCB24B
:1030A00099490A549DF80C202046611CCCB29649DF
:1030B0000A549DF821202046611CCCB292490A5442
:1030C0009DF820202146601CC4B28F4842549DF8D0
:1030D00025202046611CCCB28B490A549DF824203F
:1030E0002046611CCCB288490A549DF8292020460C
:1030F000611CCCB284490A549DF828202046611CEA
:10310000CCB281490A549DF82D202046611CCCB2D6
:103110007D490A549DF82C202046611CCCB27A4986
:103120000A549DF831202046611CCCB276490A54DD
:103130009DF830202046611CCCB273490A549DF89A
:1031400035202046611CCCB26F490A549DF83420CA
:103150002046611CCCB26C490A54201FC87000255F
:10316000002005E06849095C2944CDB2411CC8B281
:10317000A042F7DB2046611CCCB263490D542146C6
:103180006148FFF7C3FC7FBD73B50024AA22214626
:10319000641C5D4842542146641C42540722214667
:1031A000641C425400222146641C42549DF80320B2
:1031B0002146641C42549DF802202146641C42545E
:1031C0009DF801202146641C42549DF800202046B1
:1031D000611CCCB24C490A549DF805202046611C64
:1031E000CCB249490A549DF804202046611CCCB257
:1031F00045490A54201FC8700025002005E04249B7
:10320000095C2944CDB2411CC8B2A042F7DB20467C
:10321000611CCCB23C490D5421463B48FFF776FC7B
:103220007CBD2DE9F84F05460E4617469846DDE968
:103230000AAB0024AA222146641C3348425421468A
:10324000641C425402222146641C4254002221463E
:10325000641C425400959DF801202146641C425490
:103260009DF800202146641C425400969DF80120E0
:103270002146641C42549DF800202146601CC4B2C3
:103280002148425400979DF801202046611CCCB291
:103290001D490A549DF800202046611CCCB21A49F1
:1032A0000A54CDF800809DF801202046611CCCB264
:1032B00015490A549DF800202046611CCCB21249E1
:1032C0000A54CDF800A09DF801202046611CCCB224
:1032D0000D490A549DF800202046611CCCB20A49D1
:1032E0000A54CDF800B09DF801202146601CC4B2FC
:1032F000054842549DF800202146601CC4B2024893
:1033000042540C98009001E0E12A00209DF8012031
:103310002046611CCCB2FE490A549DF8002020468C
:10332000611CCCB2FA490A540D9800909DF8012016
:103330002046611CCCB2F6490A549DF80020204674
:10334000611CCCB2F2490A540E9800909DF80120FD
:103350002046611CCCB2EE490A549DF8002020465C
:10336000611CCCB2EA490A54002000909DF801206B
:103370002046611CCCB2E6490A549DF80020204644
:10338000611CCCB2E2490A54201FC8704FF00009FA
:10339000002006E0DE49095C494401F0FF09411CB8
:1033A000C8B2A042F6DB2046611CCCB2D84901F875
:1033B00000902146D648FFF7A9FBBDE8F88F38B545
:1033C0000024AA222146641CD14842542146641C90
:1033D0004254F1222146641C425400222146641CBE
:1033E0004254CC4890ED000ABDEEC00A10EE100A1F
:1033F00000B200909DF801202146641CC44842544C
:103400009DF800202146641C4254C34890ED000AF8
:10341000BDEEC00A10EE100A00B200909DF8012027
:103420002146641CBA4842549DF800202046611C85
:10343000CCB2B7490A54B84890ED000ABDEEC00AB4
:1034400010EE100A00B200909DF801202046611C89
:10345000CCB2AF490A549DF800202046611CCCB282
:10346000AB490A54AD4890ED000ABDEEC00A10EE1B
:10347000100A00B200909DF801202046611CCCB2D9
:10348000A3490A549DF800202046611CCCB2A049F3
:103490000A54A34890ED000ABDEEC00A10EE100ACF
:1034A00000B200909DF801202046611CCCB29849E2
:1034B0000A549DF800202046611CCCB294490A545D
:1034C000201FC8700025002005E09149095C2944AF
:1034D000CDB2411CC8B2A042F7DB2046611CCCB281
:1034E0008B490D5421468A48FFF710FB38BD30B593
:1034F0002DED048B81B0B0EE408AF0EE608AB0EE24
:10350000419A0024AA222146641C81484254214643
:10351000641C42540B222146641C42540022214662
:10352000641C42549FED7F0A28EE000ABDEEC00ADB
:1035300010EE100A00B200909DF801202146641C94
:10354000734842549DF800202146641C42549FED6C
:10355000750A28EE800ABDEEC00A10EE100A00B20D
:1035600000909DF801202146641C694842549DF852
:1035700000202046611CCCB265490A549FED690ABF
:1035800029EE000ABDEEC00A10EE100A00B200904B
:103590009DF801202046611CCCB25D490A549DF87B
:1035A00000202046611CCCB259490A54201FC87023
:1035B0000025002005E05649095C2944CDB2411C94
:1035C000C8B2A042F7DB2046611CCCB250490D5472
:1035D00021464F48FFF79AFA01B0BDEC048B30BD8D
:1035E0002DE9F0432DED048B83B0B0EE408AF0EE70
:1035F000608AB0EE419A05460E461746984600246A
:103600000196AA222146641C414842542146641C6A
:10361000425401222146641C425400222146641C6B
:1036200042549FED410A28EE000ABDEEC00A10EE9A
:10363000100A00B202909DF809202146641C34480B
:1036400042549DF808202146641C42549FED360ADE
:1036500028EE800ABDEEC00A10EE100A00B20290F9
:103660009DF809202146641C294842549DF80820F1
:103670002046611CCCB226490A549FED2B0A29EE44
:10368000000ABDEEC00A10EE100A00B202909DF8CA
:1036900009202046611CCCB21D490A549DF808201F
:1036A0002046611CCCB21A490A5402959DF80920A3
:1036B0002046611CCCB216490A549DF808202046C9
:1036C000611CCCB212490A549DF807202046611CA7
:1036D000CCB20F490A549DF806202046611CCCB29A
:1036E0000B490A549DF805202046611CCCB20849BC
:1036F0000A549DF804202046611CCCB204490A54A7
:103700002046611CCCB202490F542046611C0DE0DA
:10371000E12A0020F8040020E0040020D00400206A
:10372000F0040020CDCCCC3D0000C842CCB2FD4915
:1037300001F80080201FC8704FF00009002006E04B
:10374000F849095C494401F0FF09411CC8B2A04294
:10375000F6DB2046611CCCB2F24901F8009021460C
:10376000F048FFF7D3F903B0BDEC048BBDE8F0835C
:103770007FB505460024AA222146641CE94842542C
:103780002146641C425400222146641C42542146B6
:10379000641C42542146641C45549DF80520214672
:1037A000641C42549DF804202146641C42549DF838
:1037B00009202046611CCCB2DA490A549DF8082041
:1037C0002046611CCCB2D7490A549DF80D202046F2
:1037D000611CCCB2D3490A549DF80C202046611CD0
:1037E000CCB2D0490A549DF821202046611CCCB2AD
:1037F000CC490A549DF820202046611CCCB2C9490E
:103800000A54201FC8700026002005E0C549095C45
:103810003144CEB2411CC8B2A042F7DB2046611C45
:10382000CCB2C0490E542146BE48FFF76FF97FBDA8
:1038300010B586B0BC480078BC49097890FBF1F21D
:1038400001FB1201B9480078401E814202D10120DB
:10385000B7498870B4480078B649097890FBF1F20E
:1038600001FB1201B3480078401E814202D10120C1
:10387000AF49C870AC480078AF49097890FBF1F2C5
:1038800001FB1201AC480078801E814202D1012068
:10389000A7498873A4480078A849097890FBF1F2F9
:1038A00001FB1201A5480078401E814202D101208F
:1038B0009F4948709C480078A149097890FBF1F233
:1038C00001FB12019E480078401E814202D1012076
:1038D00097498872944800789A49097890FBF1F2E8
:1038E00001FB120197480078801E814202D101201D
:1038F0008F4908738C4800789349097890FBF1F25E
:1039000001FB120190480078801E814202D1012003
:1039100087494873844800788C49097890FBF1F214
:1039200001FB120189480078C01E814202D10120AA
:103930007F49C8737C4800788549097890FBF1F28B
:1039400001FB120182480078C01E814204D17848F0
:10395000007C401C7649087473480078401CC0B253
:1039600071490870C82801DD00200870704800788F
:1039700060B100206E4908704FF4C87364224FF4A0
:10398000967100900420FFF7F3FE08E26848407843
:10399000F8B10020664948706E4890ED000A5FED6E
:1039A0009F0A20EE200ABDEEC00A10EE101A6A48E7
:1039B000037800226948008800B2694C94ED001A2F
:1039C000684CD4ED000A684C94ED000AFFF708FE3D
:1039D000E5E15748C07B60B100205549C873634892
:1039E00090ED001ADFED620A9FED610AFFF77FFD9F
:1039F000D5E14F48807B28B100204D498873FFF7FF
:103A0000DEFCCCE14A488078E8B300204849887061
:103A1000584890ED0A0ABDEEC00A10EE100A00B236
:103A2000544991ED090ABDEEC00A10EE101A09B210
:103A3000504A92ED080ABDEEC00A10EE102A12B2EA
:103A40004D4B93ED090ABDEEC00A10EE103A1BB2C1
:103A5000CDE90132CDE90310474890ED080ABDEEEB
:103A6000C00A10EE100A00B2434C009094ED070A11
:103A7000BDEEC00A10EE104A23B23F4C94ED060A88
:103A8000BDEEC00A00E015E010EE104A22B23A4C3A
:103A900094ED050ABDEEC00A10EE104A21B2364C74
:103AA00094ED040ABDEEC00A10EE104A20B2FFF7F2
:103AB000B8FB74E11E48C07870B100201C49C87082
:103AC000264800880A2190FBF1F084B221462B4859
:103AD0000068FFF759FB62E11548807A08B30020BF
:103AE0001349887240F2DC522548C08900F2DC504C
:103AF00080B22349898901F2DC5189B2CDE9030200
:103B00001F4805920291408900F2DC5080B21C49A6
:103B1000098901F2DC5189B2194CCDE900106488A1
:103B200030E044E0E12A00205A0400205B04002039
:103B3000D02A00205C0400205D0400205E040020E8
:103B40005F04002060040020610400206204002063
:103B500063040020F0040020A80400204806002090
:103B600024000020200000201C000020E004002091
:103B7000000000008805002034330020E405002008
:103B8000582B002004F2DC54A3B2FE4C248804F22B
:103B9000DC54A2B2FB4CE48804F2DC54A1B2F94C30
:103BA000A48804F2DC54A0B2FFF73FFAF7E0F6482D
:103BB000007B48B30020F449087300900190029004
:103BC000F24C039094ED030ABCEEC00A10EE104ACA
:103BD000A3B2EE4C94ED020ABCEEC00A10EE104AFD
:103BE000A2B2EA4C94ED010ABCEEC00A10EE104AF3
:103BF000A1B2E64C94ED000ABCEEC00A10EE104AE9
:103C0000A0B2FFF77FF9CAE0DF48407B40B1002057
:103C1000DD4948734FF4E4717B20FFF729F9BEE0DA
:103C2000D948007958B30020D7490871D848D0ED59
:103C30001E4AB0EE644AD0ED1F4AF0EE643AD0ED71
:103C40001D4AB0EE643AD0ED1A4AF0EE642AD0ED87
:103C50001B4AB0EE642AD0ED194AF0EE641AD0ED9A
:103C6000164AB0EE641AD0ED174AF0EE640AD0EDB1
:103C7000154AB0EE640A0120FEF7E1FF8FE0C2486A
:103C8000407958B30020C0494871C248D0ED1E4A5F
:103C9000B0EE644AD0ED1F4AF0EE643AD0ED1D4A12
:103CA000B0EE643AD0ED1A4AF0EE642AD0ED1B4A29
:103CB000B0EE642AD0ED194AF0EE641AD0ED164A3F
:103CC000B0EE641AD0ED174AF0EE640AD0ED154A52
:103CD000B0EE640A0220FEF7B2FF60E0AA488079E5
:103CE00058B30020A8498871AB48D0ED214AB0EE06
:103CF000644AD0ED224AF0EE643AD0ED204AB0EEAC
:103D0000643AD0ED1D4AF0EE642AD0ED1E4AB0EEC2
:103D1000642AD0ED1C4AF0EE641AD0ED194AB0EED8
:103D2000641AD0ED1A4AF0EE640AD0ED184AB0EEEB
:103D3000640A0320FEF783FF31E09348C079F8B1AD
:103D400000209149C8719448D0ED251AB0EE611A4F
:103D5000D0ED261AF0EE610AD0ED241AB0EE610A19
:103D60001FED7D4A5FED7E3A1FED7F3A5FED802AC1
:103D70001FED812A5FED821A0420FEF760FF0EE03E
:103D80008148007C02280AD100207F4908741FED79
:103D9000880A00231A4619461846FEF7BFFE00F0AF
:103DA000B4FF06B010BD70B504460D46AA207B498D
:103DB00008704870EF2088700220C87008460471AF
:103DC00045710026002005E07449095C3144CEB2FB
:103DD000411CC8B20628F7DB704886710721FEF740
:103DE00095FE70BD70B52DED048B04460D46002682
:103DF000002004E0215C3144CEB2411CC8B2691EEF
:103E00008142F7DC601910F8010CB04202D0BDEC21
:103E1000048B70BD2078AA2802D16078AF2800D02A
:103E2000F5E7A078012822D12079012802D15C4948
:103E300008701CE02079022803D1012058494870FD
:103E400015E02079032804D10120554908704870F5
:103E50000DE02079042803D101205249087006E0C2
:103E60002079212802DB2079262800DD00BFA078F8
:103E7000022814D12079012806D1434908714871DC
:103E80008871C871087248722079A02802D1012077
:103E90003D4908702079A12801D1FCF785FCA07864
:103EA000032836D140480078012802D0022000F0D3
:103EB00083FE2079617941EA00203C498880A0791D
:103EC000E17941EA00203949C880207A617A41EAE3
:103ED000002036490880A07AE17A41EA002033497F
:103EE0004880207B617B41EA002030490881A07B2B
:103EF000E17B41EA00202D494881207C617C41EA38
:103F000000202A498881A07CE17C41EA00202749E1
:103F1000C881A07804280CD12079012803D1002081
:103F20002349087005E02079022802D101202049A8
:103F30000870A07810287CD12179090209B2627931
:103F400041EA020010F01AFA41EC190B9FED190B2F
:103F500053EC102B10F0A0F941EC180B10F062FAA2
:103F60000B494865A179090209B2E27941EA0200E8
:103F700010F004FA41EC190B9FED0E0B53EC102BD3
:103F80001CE00000582B0020D02A0020402A0020EE
:103F90006C2800203029002038070020E12A00206A
:103FA00034330020B505002070040020142B0020BD
:103FB000A8040020FCA9F1D24D62503F10F06CF92A
:103FC00041EC180B10F02EFAFD49C865217A090260
:103FD00009B2627A41EA020010F0D0F941EC190B03
:103FE0001FED0C0B53EC102B10F056F941EC180B95
:103FF00010F018FAF2498865A17A090209B2E27A4A
:1040000041EA020010F0BAF941EC190B1FED170B51
:1040100053EC102B10F040F941EC180B10F002FAA1
:10402000E7494866217B090209B2627B41EA020046
:1040300000E074E010F0A2F941EC190B1FED230B26
:1040400053EC102B10F028F941EC180B10F0EAF9A2
:104050000146DB48C166A17B090209B2E27B41EA65
:10406000020010F08BF941EC190B1FED2E0B53ECF5
:10407000102B10F011F941EC180B10F0D3F9014698
:10408000CF488166217C090209B2627C41EA0200C4
:1040900010F074F941EC190B1FED3A0B53EC102B97
:1040A00010F0FAF841EC180B10F0BCF9C44948675D
:1040B000A17C090209B2E27C41EA020010F05EF93B
:1040C00041EC190B1FED450B53EC102B10F0E4F8ED
:1040D00041EC180B10F0A6F90146B948C167217DE3
:1040E000090209B2627D41EA020010F047F941EC91
:1040F000190B1FED500B53EC102B10F0CDF841ECC9
:10410000180B10F08FF90146AD488167A078314651
:10411000FFF749FEFCF740FB0120AA490880A07880
:1041200011287DD12179090209B2627941EA0200A0
:1041300010F024F941EC190B1FED620B53EC102B1E
:1041400010F0AAF841EC180B10F06CF99E49486584
:10415000A179090209B2E27941EA020010F00EF9F0
:1041600041EC190B1FED6D0B53EC102B10F094F874
:1041700041EC180B10F056F99349C865217A0902F1
:1041800009B2627A41EA020010F0F8F841EC190B2A
:104190001FED780B53EC102B10F07EF841EC180B50
:1041A00010F040F988498865A17A090209B2E27ADB
:1041B00041EA020010F0E2F841EC190B1FED830B0D
:1041C00053EC102B10F068F841EC180B10F02AF9A2
:1041D0007D494866217B090209B2627B41EA0200FF
:1041E00010F0CCF841EC190B1FED8E0B53EC102B9B
:1041F00010F052F841EC180B10F014F90146724817
:10420000C166A17B090209B2E27B41EA020010F01B
:10421000B5F841EC190B1FED990B53EC102B00E096
:1042200055E010F039F841EC180B10F0FBF801469E
:1042300065488166217C090209B2627C41EA02007C
:1042400010F09CF841EC190B1FEDA60B53EC102B52
:1042500010F022F841EC180B10F0E4F85A494867C6
:10426000A17C090209B2E27C41EA020010F086F862
:1042700041EC190B1FEDB10B53EC102B10F00CF8A7
:1042800041EC180B10F0CEF801464F48C167217D74
:10429000090209B2627D41EA020010F06FF841ECB8
:1042A000190B1FEDBC0B53EC102B0FF0F5FF41EC7D
:1042B000180B10F0B7F8014643488167A0783146E3
:1042C000FFF771FDFCF768FA01203E490880A078ED
:1042D000122874D12179090209B2627941EA0200F7
:1042E00010F04CF841EC190B1FEDCE0B53EC102BDA
:1042F0000FF0D2FF41EC180B10F094F83349086628
:10430000A179090209B2E27941EA020010F036F817
:1043100041EC190B1FEDD90B53EC102B0FF0BCFF28
:1043200041EC180B10F07EF828498866217A0902C2
:1043300009B2627A41EA020010F020F841EC190B50
:104340001FEDE40B53EC102B0FF0A6FF41EC180B04
:1043500010F068F81D494866A17A090209B2E27AAC
:1043600041EA020010F00AF841EC190B1FEDEF0BC7
:1043700053EC102B0FF090FF41EC180B10F052F89B
:1043800012490867217B090209B2627B41EA0200F7
:104390000FF0F4FF41EC190B1FEDFA0B53EC102B4F
:1043A0000FF07AFF41EC180B10F03CF807498867D2
:1043B000A17B090209B2E27B41EA020008E065E064
:1043C0006C280020580400203029002038070020E5
:1043D0000FF0D4FF41EC190B9FED930B53EC102B16
:1043E0000FF05AFF41EC180B10F01CF89049486789
:1043F000217C090209B2627C41EA02000FF0BEFF93
:1044000041EC190B9FED880B53EC102B0FF044FF80
:1044100041EC180B10F006F88549C1F88000A17C2A
:10442000090209B2E27C41EA02000FF0A7FF41EC69
:10443000190B9FED7D0B53EC102B0FF02DFF41EC72
:10444000180B0FF0EFFF7A49C1F88800217D0902AF
:1044500009B2627D41EA02000FF090FF41EC190BB6
:104460009FED710B53EC102B0FF016FF41EC180B66
:104470000FF0D8FF6E49C1F88400A0783146FFF7ED
:1044800092FCFCF789F901206A490880A07813287A
:104490004DD12179090209B2627941EA02000FF097
:1044A0006DFF41EC190B9FED600B53EC102B0FF0DF
:1044B000F3FE41EC180B0FF0B5FF5D49C1F8900019
:1044C000A179090209B2E27941EA02000FF056FF30
:1044D00041EC190B9FED540B53EC102B0FF0DCFE4D
:1044E00041EC180B0FF09EFF5149C1F89800217A5A
:1044F000090209B2627A41EA02000FF03FFF41EC83
:10450000190B9FED490B53EC102B0FF0C5FE41EC3E
:10451000180B0FF087FF4649C1F89400A078314688
:10452000FFF741FCFCF738F9012042490880A078E8
:10453000142803D1A0783146FFF735FCA078152860
:1045400003D1A0783146FFF72EFC00BF5FE410B521
:1045500004463948007838B9AA2C05D101203649DB
:104560000870364804705DE033480078012807D1B0
:10457000AF2C05D10220304908703048447051E01A
:104580002D480078022807D1F12C05DA03202A49AA
:1045900008702A48847045E02748007803280CD129
:1045A000322C0ADA0420244908702448C4702448B4
:1045B000047000202349087034E01F480078042864
:1045C00019D11F480078002815DD1D480078401ECD
:1045D0001B4908701B4800781A490978491C194A78
:1045E0001170001D15490C5415480078D0B90520EC
:1045F0001149087016E01048007805280FD10020F6
:104600000D4908700F480078001D0C490C540D48E6
:104610000078401DC1B20948FFF7E4FB02E000202A
:104620000549087010BD0000FCA9F1D24D62503F51
:10463000380700205804002066040020242B0020A6
:1046400064040020650400200246002007E0FC4BC3
:104650001B5632F8133021F81030431CD8B208280A
:10466000F5DB7047F748D0ED020A9FEDF71AF4EE3C
:10467000C10AF1EE10FA51D2D0ED030A9FEDF21A01
:10468000F4EEC10AF1EE10FA1AD2F048B0F90000C7
:10469000401CC8B3EE480078B0B3EC48B0F9000055
:1046A00000EE900AF8EEE00A9FEDEA1A41EE000AE9
:1046B000FDEEE00A10EE900A00B2E449088030E016
:1046C000E048D0ED030A9FEDE41AF4EEC10AF1EEE2
:1046D00010FA1ADDDD48B0F90000401CA0B1DC483A
:1046E000007888B9D948B0F9000000EE900AF8EED9
:1046F000E00A9FEDD81A41EE000AFDEEE00A10EE46
:10470000900A00B2D14908800BE0D048B0F900000F
:10471000401C30B90020CD49088002E00020CB4980
:104720000880CA48B0F90000B0F57A7F10DD4FF07C
:10473000FF30C6490880C648007830B90120C44916
:1047400008700220C549487002E00020C049087086
:1047500070473FB5F0EE401A0546C1480078012881
:1047600004D1C0492846FFF76FFF07E0BC48007836
:10477000022803D1BB49BC48FFF766FF002407E2CB
:10478000B84830F8140040F6C411884205DCB5483A
:1047900030F81400B0F5FA7F07DA0120B349085564
:1047A0000020B34921F8140012E0B14830F8140099
:1047B000401CAF4921F81400084630F81400C828FE
:1047C00006DD4FF4FA6021F814000020A7490855CF
:1047D000A3480078012803D0A148007802287CD1A2
:1047E000A248005D0028FAD19E4830F8140000B2BB
:1047F0002DF814009F4830F914009F4931F9141026
:1048000088426BDD9D48005D002878D13DF9140099
:10481000994931F91410401A00EE100AB8EEC01A86
:10482000944830F91400944931F91410401A00EEFC
:10483000100AB8EEC00AC1EE000A9FED861A9FED7D
:10484000900A10EE810ABDEEC00A10EE100A00B206
:1048500010F5FA7F01DA8B484DE03DF914008649E6
:1048600031F91410401A00EE100AB8EEC01A81484F
:1048700030F91400804931F91410401A00EE100A82
:10488000B8EEC00AC1EE000A9FED721A9FED7C0AD5
:1048900010EE810ABDEEC00A10EE100A00B2B0F5AB
:1048A000FA7F02DD4FF4FA7025E03DF914007249F9
:1048B00031F91410401A00EE100AB8EEC01A6D4813
:1048C00030F914006C4931F91410401A00EE100A46
:1048D000B8EEC00AC1EE000A02E08AE086E00EE00F
:1048E0009FED5C1A9FED660A10EE810ABDEEC00ACC
:1048F00010EE100A00B2644921F8140079E03DF985
:1049000014005D4931F91410401A00EE100AB8EE97
:10491000C01A584830F91400574931F91410401A98
:1049200000EE100AB8EEC00AC1EE000A9FED491A67
:104930009FED530A10EE810ABDEEC00A10EE100A78
:1049400000B210F5FA7F01DA4E4849E03DF9140053
:10495000494931F91410401A00EE100AB8EEC01A95
:10496000444830F91400444931F91410401A00EE5B
:10497000100AB8EEC00AC1EE000A9FED361A9FED8C
:10498000400A10EE810ABDEEC00A10EE100A00B215
:10499000B0F5FA7F02DD4FF4FA7021E03DF9140022
:1049A000354931F91410401A00EE100AB8EEC01A59
:1049B000304830F91400304931F91410401A00EE33
:1049C000100AB8EEC00AC1EE000A9FED221A9FED50
:1049D0002C0A10EE810ABDEEC00A10EE100A00B2D9
:1049E000404200B2284921F8140002E00020184992
:1049F00008709FED260A21EE800A254880ED000A06
:104A00003DF9140000EE100AB8EEC00A0D4800EBA4
:104A10008400D0ED000A30EE600AB5EEC00AF1EE77
:104A200010FA37DD3DF9140000EE100AB8EEC00AA6
:104A3000044800EB8400D0ED000A30EE600A38E054
:104A400068040020882B00200000C8C3AA040020AE
:104A5000A804002000007A440000C843343300203A
:104A600070040020F82B0020142B0020710400207B
:104A7000E82B00207C0400208C0400209C040020F3
:104A80000000FA430CFEFFFF582B002034337B421A
:104A9000A40400203DF9140000EE100AB8EEC00A8C
:104AA0006A4800EB8400D0ED000A30EE600AB1EEF7
:104AB000400ADFED670AB4EEE00AF1EE10FA1DD20B
:104AC000644830F9140000EE100AB8EEC00A5F48DE
:104AD00000EB8400D0ED000A70EE600A5B4800EB4A
:104AE000840090ED000A5C4890ED001A01EE200A67
:104AF000564800EB840080ED000A20E0554830F96C
:104B0000140000EE100AB8EEC00A504800EB840012
:104B1000D0ED000A70EE600A4C4800EB840090ED86
:104B2000000A4D4890ED001AB6EE002A21EE021A56
:104B300001EE200A454800EB840080ED000A43485E
:104B400000EB840090ED000A444800EB8400D0EDB7
:104B5000000A30EE600A424800EB840080ED000A53
:104B60003A4800EB840090ED000A3C4800EB8400DA
:104B700080ED000A374830F9140000EE100AB8EE54
:104B8000C00A384800EB840080ED000A601CC4B203
:104B9000082CFFF6F5ADB0EE610AFFF763FD324871
:104BA0000088401C80B230490880C82803DD0020FE
:104BB00008802E4908703FBD2C49087000212A4A00
:104BC000118070472A48007848B1204890ED020AC9
:104BD0005FED630AB4EEE00AF1EE10FA27D21B484B
:104BE00090ED040ADFED230AB4EEE00AF1EE10FACC
:104BF00003D200202049087026E0144890ED040AF2
:104C0000DFED1E0AB4EEE00AF1EE10FA03D2012045
:104C10001949087018E01A480078012803D10220C9
:104C20001549087010E00120134908700CE007488E
:104C300090ED040ADFED0F0AB4EEE00AF1EE10FA8F
:104C400002D200200C49087070470000882B002019
:104C50000000C842582B0020A4040020A82B0020EC
:104C6000C82B0020682B00207A040020700400204C
:104C7000A8040020000048C3AC0400200000484302
:104C8000460600200CF084BC7047002070470020CE
:104C900070470020704700207047002070470020B8
:104CA00070470020704700207047002070470020A8
:104CB0007047002070470020704700207047002098
:104CC00070470CF08CBC7047002070470020704784
:104CD0000CF0D0BA7047000010B50BF0CFFC0120EB
:104CE0000BF0D7FC10BD70B5024600200AE0145C42
:104CF000864B1D781B785B1C844E3370844B5C554F
:104D0000431CD8B28842F2DB70BD10B57F480078F2
:104D10008049097888425BDD7C4800787D490978C4
:104D2000401A3F281BDB00207B4908703F207B494D
:104D3000087000200BE077490A780978491C754B08
:104D4000197073498A5C754B411C5A54C8B23F288C
:104D5000F1DB4022714900200CF027FD9FE06E48F6
:104D60000078401C6C490870084600786C49097846
:104D70008842F3D10020684908706448007865498A
:104D80000978401A65490870002015E05F490978E4
:104D9000604A1278891A814208DD5E490978014427
:104DA0005B4A525C5D4B411C5A5403E000225B4B52
:104DB000411C5A54411CC8B23F28E7DB53480078D5
:104DC000544908704022554900200CF0EEFC66E082
:104DD0004E4800784F490978884260DA4D4800789B
:104DE000C0F580704949097808443F281BDB002042
:104DF000494908703F204949087000200BE04549A7
:104E00000A780978491C434B197041498A5C434B25
:104E1000411C5A54C8B23F28F1DB40223F490020D0
:104E20000CF0C3FC3BE03C480078401C3A49087059
:104E3000084600783A490978884230D1002036493E
:104E400008703448007840423049097808443349B2
:104E50000870002018E02F490978C1F580712B4AAD
:104E600012781144814209DD2A4909780144C9B206
:104E7000274A525C294B411C5A5403E00022274B1D
:104E8000411C5A54411CC8B23F28E4DB1F4800783B
:104E9000204908704022214900200CF086FC10BDFA
:104EA00010B50446012C02D0032C11D10EE059B9E3
:104EB00023B1012B05D0022B04D100E000BF40201C
:104EC00010BD00BF00BF00BF00BF01E00120F7E739
:104ED00000BF0020F4E72DE9F04706468846144657
:104EE0009946089F022E02D0032E0CD10AE001251C
:104EF00004E0605DFFF72BFB681CC5B22078A84278
:104F0000F7DA00E000BF00BFBDE8F087B904002079
:104F1000282F0020B8040020BA04002028300020E8
:104F2000B704002010B505480FF008F9022101EB85
:104F30004000C0B210BD0248704700006C30002035
:104F40008530002030B50446084615886D1CADB28A
:104F50001580854204DD002515800125558007E078
:104F60001588854201D1002501E015886D1C55800A
:104F7000158804EB850585ED000A558804EB850549
:104F8000D5ED000A30EE601A00EE900AF8EE601AD5
:104F9000C1EE210A93ED001A70EE810AC3ED000AFA
:104FA00030BD70B58BB0F0EE400A022801DA0B2953
:104FB00003DB9FED7B0A0BB070BD7A4C245C641C54
:104FC000E4B2784D2C548C4201DB00242C5400EBCD
:104FD000400404EBC004744D05EB8404714D2D5C5A
:104FE00004EB8504C4ED000A002211E000EB40044C
:104FF00004EBC0046C4D05EB840404EB820494EDD7
:10500000000A6C4604EB820484ED000A541CE2B2F0
:105010008A42EBDB00222DE0002325E06C4604EB06
:10502000830494ED000A6D465C1C05EB8404D4ED0A
:10503000001AB4EEE10AF1EE10FA13DD6C4604EB4F
:10504000830494ED001A5C1C05EB840494ED000AC3
:105050006C4604EB830484ED000A5C1C05EB8404BD
:1050600084ED001A5C1CE3B24C1EA41A9C42D5DCF1
:10507000541CE2B24C1E9442CEDC0C4601EBD475BB
:105080006D106E4606EB850595ED000A93E770B549
:105090002DED028B04460D461646D4ED020AB0EE05
:1050A000600AFDF747FBF0EE408AD4ED010AB0EE4E
:1050B000600AFDF73FFB38EE800AB0EE408AFDF74C
:1050C0003EFB3A4880ED000AD4ED020AB0EE600AD9
:1050D000FDF730FBF0EE408AD4ED000AB0EE600A36
:1050E000FDF728FB38EE800AB0EE408AFDF727FB7B
:1050F0002F4880ED000A94ED020AB5EEC00AF1EEE9
:1051000010FA02D24FF0FF3000E001202949087068
:1051100095ED000A2548D0ED000A20EE200A94ED16
:10512000001A084690F9000000EE900AF8EEE00A36
:1051300061EE200A95ED021A00EEC10A86ED000A22
:10514000084690F9000000EE100AB8EEC00A1848B0
:10515000D0ED000A20EE200AD5ED010A20EE200A4B
:10516000D4ED010A95ED021A00EEC10A86ED010A9E
:1051700094ED000AD5ED000A20EE200AD4ED010AD4
:1051800095ED011A00EE810AD4ED020A95ED021A9E
:1051900000EE810A86ED020ABDEC028B70BD0000B4
:1051A00000000000C4040020BC300020C80400201F
:1051B000CC040020C604002010B52DED068BF0EEC7
:1051C000408AF0EE609ADFEDFE0A79EEE00AB0EE7A
:1051D000600ADFEDFC0AFDF739FCDFEDFB0A20EE8B
:1051E000200ADFEDFA0A80EE201AF94880ED001A55
:1051F00090ED000ADFEDF70AB4EEE00AF1EE10FAE6
:1052000002D29FEDF40A0FE0F14890ED000ADFEDC5
:10521000EE0AB4EEE00AF1EE10FA02DD9FEDEA0AC2
:1052200002E0EB4890ED000AE94880ED000AEA4808
:1052300090ED000ADFEDE90AB4EEE00AF1EE10FAB3
:105240000CDDE34890ED000AB5EEC00AF1EE10FA6D
:105250001ADD9FEDE30A80ED000A15E0DE4890EDCF
:10526000000AF3EE040AB4EEE00AF1EE10FA0BD2F3
:10527000D74890ED000AB5EEC00AF1EE10FA03D25D
:105280009FEDD70A80ED000AD34890ED000AD04880
:10529000D0ED000A00EEA80ACF4880ED000A9FED8D
:1052A000D10AF4EEC09AF1EE10FA19D29FEDCE0AAF
:1052B00068EE800AB7EE001A81EE200AF7EE000AC7
:1052C00030EE200AB7EE001AC1EE000A90ED000A97
:1052D000B1EE401A90ED000A00EE810A80ED000A5E
:1052E000C248B0F9000000EE100AB8EEC00AC0EEE5
:1052F000280AB0EE60AAB0EE4A0A05210020FFF7A6
:1053000050FEB0EE409ABA48008800EE100AB8EE9F
:10531000400A05210120FFF744FEB0EE408A9FEDD0
:10532000B50AB4EEC08AF1EE10FA47D2B5EEC09AD3
:10533000F1EE10FA02DDB0EE490A01E0B1EE490AE1
:10534000DFEDA80AB4EEE00AF1EE10FA1BD29FEDF1
:10535000AA0A28EE800AF7EE000A80EE801AB7EE5D
:10536000000A31EE000AB7EE001AC1EE000AA348A7
:1053700090ED000A39EE401A90ED000A00EE810A25
:1053800080ED000A1AE09FED9E0A68EE800AB7EEF3
:10539000001A81EE200AF7EE000A30EE200AB7EE7E
:1053A000001AC1EE000A954890ED000A39EE401A45
:1053B00090ED000A00EE810A80ED000A9FED8D0A53
:1053C000B4EEC08AF1EE10FA37D28E4890ED000AA2
:1053D00038EE400AB5EEC00AF1EE10FA04DD90EDA9
:1053E000000A38EE400A06E0864890ED000A38EEE2
:1053F000400AB1EE400ADFED7B0AB4EEE00AF1EEBE
:1054000010FA1BD29FED7C0A28EE800AF7EE000A04
:1054100080EE801AB7EE000A31EE000AB7EE001AED
:10542000C1EE000A774890ED000A38EE401A90ED80
:10543000000A00EE810A80ED000A8CE0714890EDD0
:10544000000A38EE400AB5EEC00AF1EE10FA04DDAB
:1054500090ED000A38EE400A06E06A4890ED000A36
:1054600038EE400AB1EE400ADFED580AB4EEE00A29
:10547000F1EE10FA1BD29FED640A28EE800AB7EE17
:10548000001AC1EE000AB7EE000A30EE800AB7EE4D
:10549000001AC1EE000A5B4890ED000A38EE401A8F
:1054A00090ED000A00EE810A80ED000A53E05548B5
:1054B00090ED000A38EE400AB5EEC00AF1EE10FA9F
:1054C00004DD90ED000A38EE400A06E04D4890ED0C
:1054D000000A38EE400AB1EE400ADFED4C0AB4EEA5
:1054E000E00AF1EE10FA1BD29FED490A68EE800A3D
:1054F000B7EE001A81EE200AF7EE000A30EE200A1D
:10550000B7EE001AC1EE000A3E4890ED000A38EEF0
:10551000401A90ED000A00EE810A80ED000A1AE0C0
:105520009FED3C0A28EE800AF7EE000A80EE801A12
:10553000B7EE000A31EE000AB7EE001AC1EE000A1B
:10554000304890ED000A38EE401A90ED000A00EE67
:10555000810A80ED000A304890ED000A1E48D0ED27
:10556000000A284890ED001A70EEC10A20EE200AC9
:105570002A4880ED000A284890ED020A2748D0ED1D
:10558000000A60EE200A90ED030A00EEA80A80ED02
:10559000030A90ED030A2248D0ED000AF1EE600AFA
:1055A0009FED091A60EE810AB4EEE00AF1EE10FAFE
:1055B0003BD290ED000AB1EE400ADFED030A31E084
:1055C0000000FA43000048420000964300004843B0
:1055D000FC040020000096C3000500200080BB44AE
:1055E000000000000000C8429CC4203F4C06002080
:1055F000480600200000FA44C3F548410405002095
:10560000C3F5484008050020570EDD400000C843A0
:10561000EB267140EB26F13FDC320020C83200203F
:105620001000002020EE200A18E0FB4890ED030A4D
:10563000FA48D0ED000A1FED1C1A60EE810AB4EEA4
:10564000E00AF1EE10FA06DD90ED000A5FED220AA5
:1056500020EE200A02E0F04890ED030AEE4880EDCB
:10566000030A90ED000AD0ED010A30EE600ADFED8A
:10567000EC0A20EE200AEB48D0ED000AF1EE600AB9
:1056800060EEA80A9FEDE81A01EE200AE748D0ED87
:10569000010A20EE200AE04880ED020A90ED000A9F
:1056A000D0ED030A30EE200AD0ED020A30EE200AD7
:1056B00080ED040A90ED040ADFEDDD0AB4EEE00AA5
:1056C000F1EE10FA02D29FEDDA0A0FE0D24890ED27
:1056D000040A5FED450AB4EEE00AF1EE10FA02DDCD
:1056E0001FED490A02E0CC4890ED040ACA4880ED5B
:1056F000040A90ED040ACF4880ED000AC64890EDF8
:10570000000A80ED010ABDEC068B10BD10B52DED31
:10571000068BB0EE408AB0EE609AF0EE418AF0EE71
:10572000619AB0EE000A29EE000AB5EEC00AF1EE69
:1057300010FA02D21FED560A11E0B0EE000A29EE6F
:10574000000ADFEDBD0AB4EEE00AF1EE10FA02DD68
:105750009FEDB90A03E0B0EE000A29EE000AB0EEB0
:1057600040AA9FEDB60A68EE000AB7EE001A81EE75
:10577000200AF7EE000A30EE200AB7EE001AC1EE5A
:10578000000AAF4890ED000A3AEE401A90ED000A88
:1057900000EE810A80ED000AAA4890ED000A9FED14
:1057A000AA1AC0EE010AA94890ED000A9FEDA81AB6
:1057B00000EE810AA74880ED000A5FED760A90EDC1
:1057C000000AFDF7F4F8A448D0ED000A40EE080AFC
:1057D000C0ED000A934890ED000AA048D0ED000A01
:1057E00030EE600AC0EE080A9A4890ED000A70EEAA
:1057F000C00A9FED8B0A28EE001A944890ED000A2B
:1058000001EE200A80ED000A90ED000ADFED880A23
:10581000B4EEE00AF1EE10FA02D29FED850A0FE035
:105820008A4890ED000A5FED9A0AB4EEE00AF1EEC4
:1058300010FA02DD1FED9E0A02E0844890ED000A96
:10584000824880ED000A9FED860A28EE000AF7EEF6
:10585000000A80EE801AB7EE000A31EE000AB7EEB9
:10586000001AC1EE000A7C4890ED000A39EEC01A19
:1058700090ED000A00EE810A80ED000A90ED000A2A
:10588000784880ED000A90ED000AB5EEC00AF1EE0E
:1058900010FA02DD90ED000A04E0724890ED000A73
:1058A000B1EE400A5FEDB90AB4EEE00AF1EE10FA8B
:1058B00004D21FEDB50A6B4880ED000A694890EDEF
:1058C000000A584880ED000A90ED000A634880ED18
:1058D000000A654890ED000A5248D0ED000A78EEC3
:1058E000E00A20EE200A614880ED000ADFED600A40
:1058F00080EE880AF2EE040A20EE200A5A48D0ED23
:10590000010A20EE200A5348D0ED000AF1EE600AA9
:1059100020EE200A20EE080A544880ED020A524880
:1059200090ED020AD0ED000A20EE200A78EEE90A96
:1059300060EE200A4D4890ED030A00EE880A80EDE3
:10594000030A90ED030A3548D0ED000AF1EE600A33
:105950001FEDE31A60EE810AB4EEE00AF1EE10FAF0
:1059600008D290ED000AB1EE400A5FEDE90A20EEA0
:10597000200A18E03D4890ED030A2848D0ED000ABF
:105980001FEDEF1A60EE810AB4EEE00AF1EE10FAB4
:1059900006DD90ED000A5FEDF40A20EE200A02E039
:1059A000324890ED030A314880ED030A90ED000A79
:1059B0002D48D0ED000A00EEA80A2C48D0ED020ACE
:1059C00030EE200AD0ED030A30EE200ADFED290A7E
:1059D000B4EEE00AF1EE10FA02D29FED260A5EE084
:1059E000224890ED000A2048D0ED000A00EEA80AF7
:1059F0001E48D0ED020A30EE200AD0ED030A30EE48
:105A0000200ADFED1D0AB4EEE00AF1EE10FA35DDF2
:105A10009FED190A43E00000C8320020100000206A
:105A2000CDCCCC3EE00400209A99193FDC32002016
:105A30000000FAC30C05002000001644C3F5C83F5F
:105A40001C050020D804002000008045200500200F
:105A500000401C46E804002024050020E404002047
:105A60009CC4A03E280500202831002014310020CD
:105A70006F12033B000096C300009643C94890EDA7
:105A8000000AC948D0ED000A00EEA80AC548D0EDCA
:105A9000020A30EE200AD0ED030A30EE200AC34895
:105AA000D0ED000AC24890ED001A41EE000ABD4850
:105AB000C0ED040A90ED000A80ED010ABDEC068BF2
:105AC00010BDBC4890ED001ABDEEC11A11EE100ACF
:105AD00000B238B9B84890ED001AB8EEC11AB5480E
