:020000040800F2
:100000001017002009D00008B501000813D000081F
:10001000B7010008BB010008BF0100080000000094
:10002000000000000000000000000000C301000804
:10003000C5010008000000001FD00008C70100082B
:1000400023D0000823D0000823D0000823D00008C4
:1000500023D0000823D0000823D0000823D00008B4
:1000600023D0000823D0000823D0000823D00008A4
:1000700023D0000823D0000823D0000823D0000894
:1000800023D0000823D0000823D0000823D0000884
:1000900023D0000823D0000823D0000823D0000874
:1000A00023D0000823D0000823D0000823D0000864
:1000B00023D00008D9010008E101000823D000087E
:1000C00023D0000823D0000823D0000823D0000844
:1000D00023D0000823D00008E901000823D000083D
:1000E00023D0000823D0000823D0000823D0000824
:1000F00023D0000823D0000823D0000823D0000814
:1001000023D0000823D0000823D0000823D0000803
:1001100023D00008F101000823D0000823D00008F4
:1001200023D0000823D0000823D0000823D00008E3
:1001300023D0000823D0000823D0000823D00008D3
:1001400023D0000823D0000823D0000823D00008C3
:1001500023D0000823D0000823D0000823D00008B3
:1001600023D0000823D0000823D0000823D00008A3
:1001700023D0000823D0000823D0000823D0000893
:1001800023D0000823D00008DFF80CD00DF00EFAC1
:1001900000480047A10100081017002000BFFEE73B
:1001A00000F046F90249087001E000F0EAF8FCE7C7
:1001B00000000020704700BFFEE700BFFEE700BF61
:1001C000FEE77047704710B50B480068401C0A49AD
:1001D000086005F0E5F810BD10B505F0D8FA10BDBF
:1001E00010B505F0DDFB10BD10B506F090FF10BD99
:1001F00010B507F04EF810BDF80400208248C08901
:10020000401C8149C88108468088401C00B2888013
:100210000846C088401C00B2C88008460089401CBF
:1002200000B2088108464089401C00B24881084657
:100230008089401C00B2888108460078012804D1DA
:1002400008464078401C487002E001206E49087062
:10025000704710B5012005F0E2F803F095F910BDE4
:1002600010B52DED028B002005F0D9F8B0EE408AD4
:1002700005F066F800EE100AB8EE400ADFED630AFA
:1002800080EE201A624880ED001A06F01BF8B0EEEE
:10029000480A06F04DFAB0EE480A01F02CF85D4825
:1002A000B0EE480A04F0BFF804F061FF05F048F82A
:1002B00000EE100AB8EE400ADFED540A80EE201A74
:1002C000534880ED011ABDEC028B10BD10B52DED29
:1002D000028B022005F0A3F8B0EE408A05F030F85A
:1002E00000EE100AB8EE400ADFED480A80EE201A50
:1002F000474880ED021A4848D0ED063AB0EE633A1E
:10030000D0ED053AF0EE632AD0ED043AB0EE632A60
:10031000D0ED0C3AF0EE631AD0ED0B3AB0EE631A62
:10032000D0ED0A3AF0EE630AF6EE003A68EE233AB0
:10033000B0EE630A394A3A493A4801F08FFBB0EE11
:10034000480A00F07FFA04F0FBFF00EE100AB8EE56
:10035000400ADFED2E0A80EE201A2D4880ED031AA8
:10036000BDEC028B10BD10B506F010FE10BD10B52F
:1003700000F021FA10BD10B506F02CFE06F0F0FFDB
:1003800010BD10B52048007801283BD126480088D0
:1003900000B226490880FFF75CFF1B48B0F9040053
:1003A000022804DB002018498880FFF759FF16480F
:1003B000B0F90600052804DB00201349C880FFF7C8
:1003C00085FF1148B0F908000A2804DB00200E4917
:1003D0000881FFF7C8FF0C48B0F90A00142804DBB5
:1003E000002009494881FFF7C2FF0748B0F90C0017
:1003F000322804DB002004498881FFF7BCFF00207D
:100400000149087010BD0000D40500200024744983
:10041000E4050020700B0020800B0020200000204D
:100420001C00002018000020080500200200002009
:1004300010B54FF4806006F0FBFF04F04FFF06F0AC
:10044000ABFD05F080FD05F045F84FF4C87005F0F0
:10045000A5FBC82004F098FF142006F015F84FF40F
:10046000E13006F0E1FD00F027F9642004F08CFF94
:1004700006F070FF05F00EF806F062FB80F0010058
:10048000124908701248007810B906F0BBFD04E06C
:100490000E48007808B906F0BCFD4FF400710D4815
:1004A00007F0A2FB4FF47A7004F06EFF4FF4007176
:1004B000084807F068FB4FF47A7004F065FF4FF4CA
:1004C0000071044807F090FB012010BD7C0500205E
:1004D000340500200004024010B5C248C24BD3E9E5
:1004E00000219B68C0E90E134263BF4BD3E903218F
:1004F0005B69C0E911130264BC48BB4B18330ECBD7
:1005000008300EC0B74AB84B24330BCB58320BC25D
:10051000B54890ED0D0AB34880ED190AB24890ED48
:100520000E0AB04880ED1A0AB148B24C1ECC5430C5
:100530001EC06438AF49D1E905340A69C969C0E908
:100540001A3442660167AB4BD3E909141A6ADB6AB5
:10055000C0E91F43C0E91D21A748A64BD3E90C41C0
:10056000D3E90E23C0E91541C0E91723A149D1E918
:1005700011430A6CC96CC0E91A43426601679D4980
:10058000D1E91434D1E91621C0E91D34C0E91F2195
:1005900010BD10B500F044F904F090FB04F040FBEE
:1005A00010BD10B59FED950A924880ED040A9FEDAD
:1005B000930A80ED000A9FED920A80ED080A9FEDF4
:1005C000910A80ED060A9FED8F0A80ED020AB7EED0
:1005D000000A80ED0A0AB0EE000A80ED050AB0EECE
:1005E000000A80ED010AB7EE000A80ED090AB7EEB5
:1005F000000A80ED070AB7EE000A80ED030AB7EEA5
:10060000000A80ED0B0AB6EE000A80ED100AB6EE85
:10061000000A80ED0C0A9FED7C0A80ED140A9FED24
:100620007B0A80ED120A9FED790A80ED0E0A9FED9C
:10063000770A80ED160A9FED760A80ED110A9FED8C
:10064000740A80ED0D0A9FED6F0A80ED150A9FED8B
:10065000710A80ED200A9FED6F0A80ED220A9FED5E
:100660006D0A80ED210A9FED6B0A80ED240A9FED53
:10067000690A80ED260A9FED670A80ED250AB7EE2C
:10068000000A80ED180AB7EE000A80ED1A0AB7EEEC
:10069000000A80ED190A9FED5F0A80ED1C0A9FEDAC
:1006A0005D0A80ED1E0A9FED5B0A80ED1D0AFFF7D3
:1006B00013FFFFF76EFF10BD10B5FFF772FFFFF7D6
:1006C0000BFFFFF766FF10BD10B5464990E81C0010
:1006D00034311CC1444990E81C001CC1414991EDD2
:1006E000190A414981ED0D0A10BD10B53D4990E848
:1006F0001C0040311CC13C4990E81C000C311CC15D
:10070000384991ED1A0A384981ED0E0A10BD10B52D
:10071000364990E81C0008311CC1334990E81C00A0
:1007200018311CC110BD10B52E4990E81C0058317D
:100730001CC12D4990E81C0024311CC110BD10B50E
:100740002C482B49D1E916344A6D096E80E81C000B
:10075000C16001462648D0E91A34426E006FC1E9F3
:1007600005340A61C8612248D0E91E34426FD0F8CE
:100770008000C1E909340A62C8620A461E4CD4E905
:100780001530D4E91714C2E90E14C2E90C30104632
:100790001949D1E91942D1E91B31C0E91042C0E938
:1007A00012311549D1E91D42D1E91F31C0E9144286
:1007B000C0E9163110BD00B51748008820B11648B1
:1007C0000088401C14490880134800883C2807DD35
:1007D0000020114908801148007808B9FFF7AFFFE1
:1007E00000BD0000800B0020F8050020500500200F
:1007F000F806002038060020BC070020CDCC4C3F76
:100800009A99993FCDCCCC3DCDCC4C3ECDCC4C3DF6
:100810009A99993E0000000054040020A40400208E
:10082000B7EE000AFE4880ED180AB7EE000A80ED28
:100830001C0AB7EE000A80ED200A9FEDFA0A80ED4F
:10084000300A704710B52DED0E8BB0EE408AF64899
:10085000D0ED000AB0EE600AF3EE0E0A01F06FFF71
:10086000DFEDF20A80EE201AB3EE090A21EE000A4B
:10087000EF4880ED000AEC48D0ED010AF1EE600A85
:10088000B0EE600AF3EE0E0A01F059FFDFEDE70A61
:1008900080EE201AB3EE090A21EE000AE44880ED4A
:1008A000010AE448007808BBDF48D0ED030AB0EE47
:1008B000600ADFEDE10A01F091FFDFEDDC0A80EE76
:1008C000201A9FEDDE0A21EE000ABDEEC00A10EEEE
:1008D000100A00B200EE100AF8EEC00AD44890EDFB
:1008E000020A00EE880A80ED020A36E0D04890ED58
:1008F000020AD348D0ED000A30EEC00A10EE101AFA
:1009000008460CF0CFFC41EC1C0B18EE100A0CF062
:10091000C9FC41EC1E0B9FEDCB0B53EC102B0CF0E4
:100920003EFC41EC1D0B53EC1C2B0CF038FC41EC55
:100930001A0BBF4890ED020A10EE101A08460CF090
:10094000B1FC41EC1B0B53EC1A2B0CF081FB41EC7E
:10095000190B0CF0EBFCB6498860B548D0ED020AE3
:10096000B0EE600A01F04EFFB14880ED020AB748D0
:10097000D0ED000AAE4890ED001A70EE810AB4483E
:1009800090ED001A70EEC10AB0EE600A01F03AFF75
:10099000B04880ED000AAD48D0ED010AA44890EDC2
:1009A000011A70EE810AAC4890ED001A70EEC10A8F
:1009B000B0EE600A01F026FFA64880ED010AA348C8
:1009C000D0ED020A9A4890ED021A70EE810A9C4816
:1009D00090ED001A70EEC10AB0EE600A01F012FF4D
:1009E0009C4880ED020A90ED000AB5EEC00AF1EED7
:1009F00010FA02DD90ED000A04E0964890ED000A3E
:100A0000B1EE400AF3EE0E0A80EE201A914880ED16
:100A10002D1A90ED010AB5EEC00AF1EE10FA02DDD2
:100A200090ED010A04E08B4890ED010AB1EE400A16
:100A3000F3EE0E0A80EE201A864880ED2E1A90ED15
:100A4000020AB5EEC00AF1EE10FA02DD90ED020ADC
:100A500004E0804890ED020AB1EE400AF3EE0E0A7F
:100A600080EE201A7B4880ED2F1ADFED7C0A80EEA5
:100A7000880AD0ED000A90ED031A70EEC10A90EDDD
:100A8000161AF2EE041A21EE211A60EE810A60EEC7
:100A9000200A90ED2D1A9FED720ADFED721A01EE19
:100AA000810A20EE800A80ED0C0ADFED6C0A80EEF0
:100AB000880AD0ED010A90ED041A70EEC10A90ED9B
:100AC0001A1AF2EE041A21EE211A60EE810A60EE83
:100AD000200A90ED2E1A9FED620ADFED621A01EEF8
:100AE000810A20EE800A80ED0D0ADFED5C0A80EEBF
:100AF000880AD0ED020A90ED051A70EEC10A90ED59
:100B00001E1AF2EE041A21EE211A60EE810A60EE3E
:100B1000200A90ED2F1A9FED520ADFED521A01EED6
:100B2000810A20EE800A80ED0E0A90ED170AD0EDC2
:100B3000000A60EE200A90ED060A00EE880A80EDB9
:100B4000060A90ED1B0AD0ED010A60EE200A90ED36
:100B5000070A00EE880A80ED070A90ED1F0AD0ED23
:100B6000020A60EE200A90ED080A00EE880A80ED85
:100B7000080A3D4890ED000AF6EE000A20EE200A31
:100B8000F3EE090A20EE200A324880ED090A3648C1
:100B900090ED000AF6EE000A20EE200AF3EE090AB4
:100BA00020EE200A2B4880ED0A0A2F4890ED000A1B
:100BB000F6EE000A20EE200AF3EE090A20EE200AE3
:100BC000244880ED0B0A90ED060AD0ED090AF1EEFB
:100BD000600AB4EEE00AF1EE10FA04D290ED090AD0
:100BE000B1EE400A0FE01B4890ED060AD0ED090A6D
:100BF000B4EEE00AF1EE10FA02DD90ED090A02E02F
:100C0000144890ED060A134880ED060A90ED070A95
:100C1000D0ED0A0AF1EE600AB4EEE00A26E0000028
:100C2000F8060020CDCC4C3EF40900200000FA4329
:100C30008008002008000020000020420000164329
:100C4000200000201F85EB51B81E09408C080020B1
:100C500018000020BC0700201C0000200AD7A33B7E
:100C60006666263F3333B33E0C000020F1EE10FAE7
:100C700004D290ED0A0AB1EE400A0FE0FC4890ED74
:100C8000070AD0ED0A0AB4EEE00AF1EE10FA02DD2E
:100C900090ED0A0A02E0F64890ED070AF44880ED6C
:100CA000070A90ED080AD0ED0B0AF1EE600AB4EEE7
:100CB000E00AF1EE10FA04D290ED0B0AB1EE400A10
:100CC0000FE0EB4890ED080AD0ED0B0AB4EEE00A15
:100CD000F1EE10FA02DD90ED0B0A02E0E44890ED2F
:100CE000080AE34880ED080A90ED000ADFEDE10A0A
:100CF000B4EEE00AF1EE10FA02D29FEDDE0A0FE048
:100D0000DB4890ED000ADFEDDC0AB4EEE00AF1EE1C
:100D100010FA02DD9FEDD80A02E0D54890ED000AF6
:100D2000D34880ED000A90ED010ADFEDD20AB4EE5F
:100D3000E00AF1EE10FA02D29FEDCE0A0FE0CC48A5
:100D400090ED010ADFEDCC0AB4EEE00AF1EE10FA04
:100D500002DD9FEDC90A02E0C54890ED010AC448D2
:100D600080ED010A90ED020ADFEDC20AB4EEE00A5E
:100D7000F1EE10FA02D29FEDBF0A0FE0BC4890EDF1
:100D8000020ADFEDBD0AB4EEE00AF1EE10FA02DD70
:100D90009FEDB90A02E0B64890ED020AB44880ED32
:100DA000020A90ED000AD0ED0C0A30EE200AD0EDD8
:100DB000060A30EE200AD0ED150A20EE200A80ED5A
:100DC000120A90ED010AD0ED0D0A30EE200AD0EDA6
:100DD000070A30EE200AD0ED190A20EE200A80ED35
:100DE000130A90ED020AD0ED0E0A30EE200AD0ED83
:100DF000080A30EE200AD0ED1D0A20EE200A80ED10
:100E0000140A90ED000A80ED030A90ED010A80EDCE
:100E1000040A90ED020A80ED050ABDEC0E8B10BDB0
:100E200010B52DED048B8AB0F0EE408AB0EE609ADA
:100E3000B0EE418A9FED910AB4EEC08AF1EE10FA4D
:100E400002D29FED8E0A0BE09FED8D0AB4EEC08AB0
:100E5000F1EE10FA02DD9FED8A0A01E0B0EE480AD9
:100E6000B0EE408AB1EE680A30EE090A30EE080AA8
:100E70008DED040A38EE890A30EE480A8DED050A38
:100E800038EEC90A30EE080A8DED060AB1EE680A9E
:100E900030EE490A30EE480A8DED070A002429E0B9
:100EA00004A800EB840090ED000ADFED760AB4EEB2
:100EB000E00AF1EE10FA02D29FED720A13E004A8E4
:100EC00000EB840090ED000ADFED6F0AB4EEE00A5B
:100ED000F1EE10FA02DD9FED6C0A04E004A800EBCD
:100EE000840090ED000A04A800EB840080ED000A65
:100EF000601CC4B2042CD3DB9DED040AB5EEC00A1D
:100F0000F1EE10FA02DD9DED040A03E09DED040A06
:100F1000B1EE400ADFED5D0A60EE200A9FED5A1A3D
:100F200080EE810ADFED5A0A30EE200ADDED040A78
:100F300020EE200A8DED000A9DED050AB5EEC00AEF
:100F4000F1EE10FA02DD9DED050A03E09DED050AC4
:100F5000B1EE400ADFED4D0A60EE200A9FED4A1A1D
:100F600080EE810ADFED4A0A30EE200ADDED050A47
:100F700020EE200A8DED010A9DED060AB5EEC00AAD
:100F8000F1EE10FA02DD9DED060A03E09DED060A82
:100F9000B1EE400ADFED3D0A60EE200A9FED3A1AFD
:100FA00080EE810ADFED3A0A30EE200ADDED060A16
:100FB00020EE200A8DED020A9DED070AB5EEC00A6B
:100FC000F1EE10FA02DD9DED070A03E09DED070A40
:100FD000B1EE400ADFED2D0A60EE200A9FED2A1ADD
:100FE00080EE810ADFED2A0A30EE200ADDED070AE5
:100FF00020EE200A8DED030ADDED000A254890ED74
:10100000000A254890ED001A01EE200A234880EDE1
:10101000000ADDED010A1F4890ED000A1E4890ED20
:10102000001A01EE200A1D4880ED010ADDED020ADA
:10103000184890ED000A184890ED001A01EE200AB9
:10104000164880ED020ADDED030A124890ED000A11
:10105000114890ED001A01EE200A104880ED030AB5
:101060000F48007878B30F48007868BB002447E049
:10107000BC0700200000B4C20000B4420000C8C396
:101080000000C84300007AC400007A446666E63E69
:10109000CDCC0C3F040000200C000020CC08002028
:1010A000A404002008000020FE4800EB840090ED1E
:1010B000000ADFEDFD0AB4EEE00AF1EE10FA04D208
:1010C0009FEDF90A15E04BE01DE0F64800EB8400C7
:1010D00090ED000A5FED140AB4EEE00AF1EE10FAAA
:1010E00002DD1FED170A04E0EE4800EB840090EDEE
:1010F000000AEC4800EB840080ED000A601CC4B2DA
:10110000042CD1DB39E0002427E0E64800EB840022
:1011100090ED000AB5EEC00AF1EE10FA02D29FED92
:10112000E30A13E0DF4800EB840090ED000A5FED76
:101130002A0AB4EEE00AF1EE10FA02DD1FED2E0AE3
:1011400004E0D84800EB840090ED000AD54800EB9D
:10115000840080ED000A601CC4B2042CD5DB0CE0D6
:10116000002408E09FEDD10ACE4800EB840080ED1A
:10117000000A601CC4B2042CF4DBCA4890ED000ADB
:10118000BDEEC00A10EE100A00B2ADF82000C5484E
:1011900090ED010ABDEEC00A10EE100A00B2ADF8E3
:1011A0002200C04890ED020ABDEEC00A10EE100AFF
:1011B00000B2ADF82400BB4890ED030ABDEEC00AB2
:1011C00010EE100A00B2ADF826004FF47A7200213A
:1011D00008A804F052FE0AB0BDEC048B10BD10B597
:1011E0002DED028BB0EE408AB14890ED020ADFEDA2
:1011F000B10A30EE200AB04880ED000AD0ED000AB6
:101200001FED611A80EE810AAC48D0ED000A70EE45
:10121000600A9FEDAB0A28EE001A90ED000A01EE7D
:10122000200A80ED000A90ED000AB5EEC00AF1EE4A
:1012300010FA02D29FED9D0A0FE0A04890ED000A3F
:10124000F7EE000AB4EEE00AF1EE10FA02DDB7EEB6
:10125000000A02E0994890ED000A9A4880ED000AE1
:10126000954890ED000ADFED980AB4EEE00AF1EE41
:1012700010FA03D201209549087002E0002093493A
:10128000087093480078012802D103F033FF05E08D
:101290008F480078022801D103F03BFF8648D0ED4B
:1012A000000AB0EE480A03F09BFC8A4890ED000A61
:1012B000894880ED000A90ED000AB5EEC00AF1EE13
:1012C00010FA02D29FED790A0FE0834890ED000AF0
:1012D000DFED820AB4EEE00AF1EE10FA02DD9FEDD6
:1012E0007F0A02E07C4890ED000A7B4880ED000A0E
:1012F000BDEC028B10BD00B52DED028B83B0B0EEBE
:10130000408A774890ED120AF3EE0E0A80EE201A1A
:101310009FED740A21EE000A8DED000AD0ED130A4C
:10132000B3EE0E1A80EE810ADFED6E0A20EE200A7F
:101330008DED010A90ED140AF3EE0E0A80EE201AEC
:101340009FED680A21EE000A8DED020A9DED000A6C
:10135000654880ED000A9DED010A80ED010A9DEDD2
:10136000020A80ED020A90ED000ADFED600AB4EE99
:10137000E00AF1EE10FA02D29FED5C0A0FE05A4843
:1013800090ED000ADFED570AB4EEE00AF1EE10FA34
:1013900002DD9FED540A02E0534890ED000A5248E6
:1013A00080ED000A90ED010ADFED500AB4EEE00A8C
:1013B000F1EE10FA02D29FED4D0A0FE04A4890ED8F
:1013C000010ADFED480AB4EEE00AF1EE10FA02DDA0
:1013D0009FED440A02E0444890ED010A424880ED46
:1013E000010A90ED020ADFED410AB4EEE00AF1EEE7
:1013F00010FA02D29FED3D0A0FE03B4890ED020A41
:10140000DFED380AB4EEE00AF1EE10FA02DD9FEDEE
:10141000350A02E0344890ED020A334880ED020AB2
:10142000DFED330A80EE880A3248D0ED0A0A3248EE
:1014300090ED001A70EEC10A20EE200A2F4880EDD0
:101440000F0ADFED2B0A80EE880A2A48D0ED0B0A3E
:10145000F1EE600A284890ED011A70EEC10A20EE04
:10146000200A264880ED100ADFED210A80EE880A66
:101470002048D0ED0C0AF1EE600A1F4890ED021AE8
:1014800070EEC10A20EE200A1C4880ED110A1648B1
:1014900090ED000A1748D0ED0A0A30EE600AF7EE28
:1014A000000A2DE0CC0800200000484300000000A6
:1014B000F40900200000FA4310000020140000206E
:1014C0003433FB410C0000200000C842080000201B
:1014D000A8040020C00400200400002000004844AC
:1014E000BC07002000009643A4080020000096C31B
:1014F0006F12033B800B0020B0080020F80600208C
:1015000020EE200AFE4880ED000AFE4890ED010A18
:10151000FD48D0ED0B0A30EE200AF7EE000A20EE6F
:10152000200AF74880ED010AF64890ED020AF648D5
:10153000D0ED0C0A30EE200AF7EE000A20EE200A69
:10154000EF4880ED020A90ED000AB5EEC00AF1EE18
:1015500010FA02DD90ED000A04E0E94890ED000A7F
:10156000B1EE400A5FED210A80EE201AE44880EDDA
:101570002D1A90ED010AB5EEC00AF1EE10FA02DD67
:1015800090ED010A04E0DE4890ED010AB1EE400A58
:101590005FED2C0A80EE201AD94880ED2E1A90EDCE
:1015A000020AB5EEC00AF1EE10FA02DD90ED020A71
:1015B00004E0D34890ED020AB1EE400ADFEDD30A11
:1015C00080EE201ACE4880ED2F1A5FED370A80EEAC
:1015D000880AD0ED160A90ED0F1AFAEE041A21EEE1
:1015E000211A60EE810A20EE200A80ED0C0A5FEDE0
:1015F000400A80EE880AD0ED1A0A90ED101AFAEE31
:10160000041A21EE211A60EE810A20EE200A80EDF4
:101610000D0A5FED490A80EE880AD0ED1E0A90EDB2
:10162000111AFAEE041A21EE211A60EE810A20EE58
:10163000200A80ED0E0A90ED000AD0ED0F0A30EE80
:10164000600AD0ED170A60EE200A90ED060A00EE5F
:10165000880A80ED060A90ED010AD0ED100A30EEFE
:10166000600AD0ED1B0A60EE200A90ED070A00EE3A
:10167000880A80ED070A90ED020AD0ED110A30EEDB
:10168000600AD0ED1F0A60EE200A90ED080A00EE15
:10169000880A80ED080A9E4890ED000AF6EE000ADE
:1016A00020EE200A5FED710A20EE200A944880EDBA
:1016B000090A974890ED000AF6EE000A20EE200A8B
:1016C0005FED780A20EE200A8D4880ED0A0A9048E6
:1016D00090ED000AF6EE000A20EE200A5FED7F0A88
:1016E00020EE200A864880ED0B0A90ED060AD0ED28
:1016F000090AF1EE600AB4EEE00AF1EE10FA04D243
:1017000090ED090AB1EE400A0FE07D4890ED060A1F
:10171000D0ED090AB4EEE00AF1EE10FA02DD90ED28
:10172000090A02E0764890ED060A754880ED060A3F
:1017300090ED070AD0ED0A0AF1EE600AB4EEE00A75
:10174000F1EE10FA04D290ED0A0AB1EE400A0FE071
:101750006B4890ED070AD0ED0A0AB4EEE00AF1EE0C
:1017600010FA02DD90ED0A0A02E0654890ED070AE2
:10177000634880ED070A90ED080AD0ED0B0AF1EE00
:10178000600AB4EEE00AF1EE10FA04D290ED0B0A12
:10179000B1EE400A0FE05A4890ED080AD0ED0B0A6E
:1017A000B4EEE00AF1EE10FA02DD90ED0B0A02E071
:1017B000534890ED080A524880ED080A90ED300A2F
:1017C000F7EE000A30EEC00AD0ED150A20EE200A2E
:1017D000D0ED000A90ED0C1A70EE810A90ED061A19
:1017E00070EE810A60EE200A90ED301A4948D0ED83
:1017F0002D1A9FED490A9FED492A02EE210AB5EE06
:10180000C00AF1EE10FA02D21FEDD80A1BE04148DF
:10181000D0ED2D1A9FED400A9FED402A02EE210ADD
:10182000F7EE001AB4EEE10AF1EE10FA02DDB7EEBF
:10183000000A08E03748D0ED2D1A9FED370A9FEDDA
:10184000372A02EE210A21EE000A2E4890ED001AF6
:1018500040EE010AB0EE080A20EE800A284880ED2A
:10186000120A90ED300AF7EE000A30EEC00AD0ED11
:10187000190A20EE200AD0ED010A90ED0D1A70EE43
:10188000810A90ED071A70EE810A60EE200A90ED51
:10189000301A2048D0ED2E1A9FED1F0A9FED1F2A07
:1018A00002EE210AB5EEC00AF1EE10FA02D29FED67
:1018B0001C0A1BE01748D0ED2E1A9FED170A9FED6A
:1018C000172A02EE210AF7EE001AB4EEE10AF1EE51
:1018D00010FA02DDB7EE000A08E00E48D0ED2E1A2D
:1018E0009FED0D0A9FED0D2A02EE210A21EE000A5E
:1018F000044890ED011A40EE010AB0EE080A11E02A
:10190000F8060020A4080020800B002000001643E9
:101910000C000020BC0700206666E63ECDCC0C3FE4
:101920000000000020EE800A474880ED130A90ED89
:10193000300AF7EE000A30EEC00AD0ED1D0A20EEA4
:10194000200AD0ED020A90ED0E1A70EE810A90ED99
:10195000081A70EE810A60EE200A90ED301A3B48BA
:10196000D0ED2F1A1FED140A1FED142A02EE210AE2
:10197000B5EEC00AF1EE10FA02D21FED170A1BE015
:101980003248D0ED2F1A1FED1C0A1FED1C2A02EE63
:10199000210AF7EE001AB4EEE10AF1EE10FA02DDC8
:1019A000B7EE000A08E02948D0ED2F1A1FED260AED
:1019B0001FED262A02EE210A21EE000A244890EDAE
:1019C000021A40EE010AB0EE080A20EE800A1E4814
:1019D00080ED140AB0EE480AFFF701FC1A48D0ED7A
:1019E000141AB0EE611AD0ED131AF0EE610AD0EDC0
:1019F000121AB0EE610AFFF713FA134890ED000ACD
:101A000080ED030A90ED010A80ED040A90ED020AD0
:101A100080ED050A0F4890ED0A0A0F4880ED000A94
:101A20000C4890ED0B0AB1EE400A0B4880ED010A1C
:101A3000084890ED0C0AB1EE400A074880ED020A12
:101A400003B0BDEC028B00BDF8060020BC070020EF
:101A5000A4080020800B0020B008002070B52DEDF8
:101A6000108BB0EE408AB0EE60EAF0EE41EAB0EEE4
:101A700061FAF0EE429AB0EE629AF0EE438A0446C2
:101A80000D4616469FEDFB0A28EE000AF3EE040A07
:101A900020EE200AF0EE40AAF748D0ED080A60EEEA
:101AA000A00A90ED091AD0ED091A41EE210A90ED35
:101AB0000A1AD0ED0A1A41EE210AB0EE600A00F0CF
:101AC00006FDEE4880ED000A90ED000AB5EEC00A72
:101AD000F1EE10FA38D0E84890ED080AE748D0ED6A
:101AE000000A80EE201AE64890ED000A71EE400AE6
:101AF00090ED000A0AEEA00A80ED000ADE4890EDA3
:101B0000090ADE48D0ED000A80EE201ADC4890ED8C
:101B1000010A71EE400A90ED010A0AEEA00A80ED7A
:101B2000010AD548D0ED0A0AD44890ED001A80EE9B
:101B3000810AD348D0ED020A70EE600A90ED020AE5
:101B40000AEEA00A80ED020ACE4ACD49CE4802F044
:101B500050FFCC48D0ED000A60EEA00A90ED011ACB
:101B6000D0ED011A41EE210AB0EE600A00F0AFFCA0
:101B7000C64880ED000AC34890ED000AB5EEC00AE1
:101B8000F1EE10FA36D090ED010AB5EEC00AF1EE92
:101B900010FA2FD090ED020AB5EEC00AF1EE10FA5D
:101BA00028D0BA4890ED000AB5EEC00AF1EE10FA5E
:101BB00020D0B44890ED000AB448D0ED000A80EE81
:101BC000201AB0EE41BAAF4890ED010AAF48D0ED0F
:101BD000000A80EE201AF0EE41BAF0EE4B0AB0EEA9
:101BE0006B0A00F0B4FBDFEDAA0A20EE200AA94838
:101BF00080ED000AA84890ED010AD0ED030A20EE1E
:101C0000200AD0ED000A90ED021A00EEC10AF0EEB3
:101C1000000A20EE200A9C4880ED000A9E4890EDC4
:101C2000000AD0ED010A20EE200AD0ED020A90ED64
:101C3000031A00EE810AF0EE000A20EE200A924814
:101C400080ED010A944890ED010A20EE000AD0EDE3
:101C5000020A90ED021A00EE810AF7EE000AB0EED9
:101C6000001A41EE400A8848C0ED020A69EEA90A4E
:101C700049EE090A48EEA80AB0EE600A00F027FC17
:101C8000864880ED000A9FED7B0A28EE000AF2EEFE
:101C9000040A60EE200A90ED000A814890ED001AD7
:101CA00030EE411A90ED000A00EE810A80ED000A44
:101CB000F5EEC09AF1EE10FA02DDB0EE690A01E02D
:101CC000B1EE690ADFED770AB4EEE00AF1EE10FA40
:101CD0007DD2B5EEC09AF1EE10FA02DDB0EE490AFF
:101CE00001E0B1EE490ADFED6F0AB4EEE00AF1EE71
:101CF00010FA78D2F5EEC08AF1EE10FA02DDB0EEFD
:101D0000680A01E0B1EE680ADFED660AB4EEE00AA7
:101D1000F1EE10FA67D2614890ED000AC9EE800A30
:101D2000F0EE609A90ED000AC9EE000AB0EE609AFB
:101D300090ED000AC8EE800AF0EE608A90ED000A8D
:101D4000DFED590AB4EEE00AF1EE10FA54DD90ED41
:101D5000000ADFED540AB4EEE00AF1EE10FA4BD2BD
:101D6000494890ED020A20EE090AD0ED010A08EE7A
:101D7000E00A4E4880ED030A434890ED000A20EE49
:101D8000280AD0ED020A09EEE00A484880ED040A6C
:101D90009FED380A28EE000AF7EE000A20EE20AA8E
:101DA00090ED030AD0ED060A70EE600A90ED060A87
:101DB0000AEE200A80ED060A90ED040AD0ED070A2B
:101DC00070EE600A90ED070A0AEE200A00E00AE0D1
:101DD00080ED070A90ED060A80ED000A90ED070AF3
:101DE00080ED010A08E09FED320A304880ED000ADC
:101DF0009FED2F0A80ED010A2C4890ED090AD0EDE5
:101E0000000A9FED2C1A60EE810AB0EE001A60EE17
:101E1000810A00EE880A80ED090A90ED0A0AD0EDE9
:101E2000010A9FED241A60EE810AB0EE001A60EEFE
:101E3000810A00EE880A80ED0A0A90ED0B0AD0EDC7
:101E4000020A9FED1C1A60EE810AB0EE001A60EEE5
:101E5000810A00EE880A80ED0B0A90ED090ADFED99
:101E6000160AB4EEE00AF1EE10FA27D29FED120A3C
:101E700034E00000C3F5C8405005002044000020B5
:101E80005009002044090020FC08002040000020E8
:101E9000333365424C000020240000203400002031
:101EA0003C0000200080894500806D450809002025
:101EB00000000000CDCCCC3D34FA0EBDFE4890EDC4
:101EC000090ADFEDFE0AB4EEE00AF1EE10FA02DDD7
:101ED0009FEDFA0A02E0F84890ED090AF64880ED15
:101EE000090A90ED0A0A5FED0C0AB4EEE00AF1EE81
:101EF00010FA02D21FED100A0FE0EF4890ED0A0A27
:101F0000DFEDEE0AB4EEE00AF1EE10FA02DD9FED2D
:101F1000EB0A02E0E84890ED0A0AE74880ED0A0A79
:101F200090ED0B0A5FED1C0AB4EEE00AF1EE10FA38
:101F300002D21FED1F0A0FE0DF4890ED0B0ADFED24
:101F4000DF0AB4EEE00AF1EE10FA02DD9FEDDB0AE3
:101F500002E0D94890ED0B0AD74880ED0B0AD8482B
:101F600090ED020AB5EEC00AF1EE10FA29DDD5486F
:101F7000007898B1D448D0ED000AD44890ED001A0A
:101F800070EEC10AB0EE600A00F03CFCDFEDD00A52
:101F900020EE200ACF4880ED000A12E0CA48D0EDBA
:101FA000000ACA4890ED001A70EEC10AB0EE600A4D
:101FB00000F028FCDFEDC80A20EE200AC54880EDBD
:101FC000000ABD4890ED000AD0ED090A30EE200A63
:101FD000DFEDC20A20EE200AB94890ED001ABD4894
:101FE000D0ED001AF0EE4E0A41EE610A9FEDBC1AE8
:101FF00000EE810AB04880ED0C0A90ED010AD0EDA8
:102000000A0A30EE200ADFEDB50A20EE200AAC48BD
:1020100090ED011AAF48D0ED001AF0EE6E0A41EED5
:10202000610A9FEDAF1A00EE810AA34880ED0D0A08
:10203000A348D0ED020AA74890ED001AB0EE4F0A6F
:1020400000EEC10ADFEDA60A20EE200A9A4880EDD4
:102050000E0AA44890ED010AB1EE400A9648D0ED70
:102060000C0A20EE200A9F48D0ED020A924890ED1B
:102070000D1A00EEC10A9B48D0ED030A8E4890ED80
:102080000E1A00EEC10A9748D0ED000A40EE080A89
:10209000C0ED000A90ED000A8748D0ED0C0A20EE52
:1020A000200A9048D0ED020A834890ED0E1A00EE07
:1020B000810A8C48D0ED030A7F4890ED0D1A00EE9E
:1020C000C10A8848D0ED010A40EE080AC0ED010AB5
:1020D00090ED000A7848D0ED0D0A20EE200A8148E4
:1020E000D0ED010A744890ED0E1A00EEC10A7D4849
:1020F000D0ED030A704890ED0C1A00EE810A794881
:10210000D0ED020A40EE080AC0ED020A90ED000A86
:102110006948D0ED0E0A20EE200A7248D0ED010A7F
:10212000654890ED0D1A00EE810A6E48D0ED020A66
:10213000614890ED0C1A00EEC10A6A48D0ED030A1E
:1021400040EE080AC0ED030AD0ED000A60EEA00AD6
:1021500090ED011AD0ED011A41EE210A90ED021A1C
:10216000D0ED021A41EE210A90ED031AD0ED031AC8
:1021700041EE210AB0EE600A00F0A9F95A4880ED5C
:10218000000A584890ED000A5748D0ED000A80EE4A
:10219000201A544880ED001A90ED010A5248D0ED03
:1021A000000A80EE201A4F4880ED011A90ED020AD5
:1021B0004D48D0ED000A80EE201A4A4880ED021A00
:1021C00090ED030A4848D0ED000A80EE201A4548F9
:1021D00080ED031A90ED011A21EE011AD0ED021ADA
:1021E00090ED022A01EE821AF7EE001AB0EE002AF4
:1021F00042EE411AF0EE610A90ED001AD0ED011A9C
:1022000021EE211AD0ED021A90ED032A01EE821A76
:10221000F0EE001A21EE211AB0EE410A00F097F814
:102220005FEDE50A20EE200A84ED000A2D4890EDCE
:10223000010AD0ED030A20EE200AD0ED000A90ED4D
:10224000021A00EEC10AF0EE000A20EE200A10EE9B
:10225000101A08460BF026F841EC1D0BB0EE4D0AA3
:10226000F0EE6D0A0BF058FAB0EE40CAF0EE60CA1C
:102270009FED1E0B53EC102B51EC1C0B0AF08FFF43
:1022800041EC1B0B0BF052F82860164890ED001A39
:1022900021EE011AD0ED011A90ED012A01EE821A09
:1022A000F7EE001AB0EE002A52EE011AF0EE610AC3
:1022B00090ED011A1EE000000809002034FA0E3DDE
:1022C000FC080020A40400204C0000202000002076
:1022D00090C2F53D480000206766663F9A99193F15
:1022E00034FA8E3C240000203800002000000060FA
:1022F00066A64C40B1EE411AD0ED021A21EE211A29
:10230000D0ED001A90ED032A01EEC21AF0EE001A89
:1023100021EE211AB0EE410A00F019F8DFED040AAF
:1023200020EE200A86ED000ABDEC108B70BD000087
:1023300033336542F0EE400AF5EEC00AF1EE10FAD2
:1023400002DBB0EE600A7047B1EE600AFBE700B551
:10235000B0EE403AB0EE602AB5EEC03AF1EE10FAB7
:1023600007D1B5EEC02AF1EE10FA02D19FEDFD1AA9
:1023700099E0B0EE430AFFF7DDFFF0EE403AB0EE31
:10238000420AFFF7D7FFF0EE402AF4EEE23AF1EE10
:1023900010FA02D283EEA24A01E082EEA34A9FED38
:1023A000F20AB4EEC04AF1EE10FA02D2F0EE441A8C
:1023B0002DE0DFEDEE0AB6EE000A14EE200AF0EE94
:1023C000404ABDEEE40A10EE100A00EE100AB8EE24
:1023D000C00A34EEC00AF0EE404AE54901EB800144
:1023E00091ED000AF0EE401AE14A411C02EB810136
:1023F00091ED000A114601EB8001D1ED000A70EE6B
:10240000600AB0EE610A00EEA40AF0EE401AF4EEA3
:10241000E32AF1EE10FA20DDB5EEC02AF1EE10FA53
:102420000ADBB5EEC03AF1EE10FA02DBB0EE611A4B
:1024300039E0B1EE611A36E09FEDCE1AB5EEC03A42
:10244000F1EE10FA04DB31EE610AB0EE401A2AE038
:1024500031EEC10AB0EE401A25E0B5EEC03AF1EE19
:1024600010FA10DB9FEDC41AB5EEC02AF1EE10FA97
:1024700004DB31EE610AB0EE401A14E031EE210ABD
:10248000B0EE401A0FE09FEDBD1AB5EEC02AF1EE96
:1024900010FA04DB31EE210AB0EE401A03E031EE0F
:1024A000610AB0EE401AB0EE410A00BD00B5B0EED0
:1024B000405AF0EE605AF0EE450AB0EE650AFFF7BA
:1024C00046FF00BDF0EE400A20EEA00A7047B0EED5
:1024D000401AB7EE080AB0EE402AB6EE000A21EE26
:1024E000000AF0EE401AF0EE410A10EE900AA449FC
:1024F000A1EB600000EE900A61EEA02AB7EE080A98
:1025000002EEE00A20EE200AF0EE400A61EEA02A78
:10251000B7EE080A02EEE00A20EE200AF0EE400ACA
:1025200021EE200A704710B52DED0A8BB0EE409ACF
:10253000F0EE609A9FED930B53EC102B51EC190BBE
:102540000AF0C4FE18D29FED910B53EC102B51EC06
:10255000190B0AF024FE41EC1B0B9FED8E0B53EC84
:10256000102B0AF075FD41EC1A0B53EC192B0AF0F5
:1025700016FE41EC180B17E09FED840B53EC102B6B
:1025800051EC190B0AF00BFE41EC1B0B9FED810B7C
:1025900053EC102B0AF000FE41EC1A0B53EC192BF4
:1025A0000AF0FDFD41EC180B9FED760B53EC102B60
:1025B00051EC180B0AF08AFE20D29FED780B53ECF9
:1025C000102B51EC180B0AF043FD41EC1C0B9FED56
:1025D000750B53EC102B0AF0E2FD41EC1B0B9FED49
:1025E0006F0B53EC102B0AF033FD41EC1A0B53EC3C
:1025F000182B0AF0D4FD41EC180B1FE09FED670B80
:1026000053EC102B51EC180B0AF0C3FD41EC1C0BE2
:102610009FED660B53EC102B0AF0C1FD41EC1B0B38
:102620009FED5E0B53EC102B0AF012FD41EC1A0BE0
:1026300053EC182B0AF0B3FD41EC180BB0EE480A2E
:10264000F0EE680ABDEC0A8B10BD10B52DED068BBF
:10265000B0EE408AF0EE608A01249FED560B53ECF9
:10266000102B51EC180B0AF049FE0AD89FED510BC4
:1026700053EC102B51EC180B0AF08BFD41EC180BAE
:10268000A41E20460AF0FDFD41EC190BB0EE480AED
:10269000F0EE680AFFF747FFB0EE40AAF0EE60AA3E
:1026A00053EC192B51EC1A0B0AF079FD41EC100B8D
:1026B000BDEC068B10BD10B52DED088BB0EE408A39
:1026C000F0EE608A01249FED3D0B53EC102B51EC92
:1026D000180B0AF0BDFC41EC180B9FED360B53ECC8
:1026E000102B51EC180B0AF009FE0AD8A41E9FED1E
:1026F000310B53EC102B51EC180B0AF04AFD41EC56
:10270000180B20460AF0BDFD41EC1A0BB0EE480A4A
:10271000F0EE680AFFF799FFB0EE40BAF0EE60BA4B
:1027200053EC1A2B51EC1B0B0AF039FD41EC190B41
:102730000AF0FCFD00EE100ABDEC088B10BDB0EEF7
:10274000401AB5EEC01AF1EE10FA3BDD31EE600A28
:10275000B5EEC00AF1EE10FA3FD2DFED021AB0EE8C
:10276000610A3AE0000000008180803B0000804365
:1027700050000020DB0F4940DB0FC93FDB0FC9BF12
:10278000DF59375F0000000000000000000000601B
:102790002FF0D93F00000060305FF43F00000000E0
:1027A0000000F03F000000C0CCCCCCBF000000C057
:1027B000CCCCCC3FF1D4C853FB210940F1D4C85351
:1027C000FB21F93F31EE200AB5EEC00AF1EE10FA16
:1027D00003DD5FED1C1AB0EE610A7047B0EE401ADF
:1027E000F1EE601AB4EEE11AF1EE10FA07DDB4EE84
:1027F000E01AF1EE10FA02D21FED260A01E0B0EE67
:10280000410A7047F0EE400A9FED210AF4EEC00A3B
:10281000F1EE10FA04DD9FED1F0A30EEC00A70479A
:102820009FED1D0AF4EEC00AF1EE10FA04D29FEDFE
:10283000190A30EE800AF2E7B0EE600AEFE7F0EE38
:10284000401AB7EE000AF4EEC00AF1EE10FA04DC0A
:10285000F5EEC00AF1EE10FA02D21FED3E0A704703
:1028600081EE810AB5EEC00AF1EE10FA02DD81EECA
:10287000810A03E081EE810AB1EE400A20EE202AAF
:10288000B7EE000A30EE600A02EE210AE7E7000028
:10289000000034430000B443000034C370B5054663
:1028A0000C462146F84804F06EFC70BD2DE9F0435B
:1028B0002DED028B83B005460E4617469846B0EEC6
:1028C000408A0024AA222146641CEF484254214633
:1028D000641C425404222146641C425400222146B6
:1028E000641C42542146641C45542146641C4654D1
:1028F00001979DF807202146641C42549DF806204C
:102900002046611CCCB2E0490A549DF805202046BF
:10291000611CCCB2DC490A549DF804202046611C9D
:10292000CCB2D9490A54CDF804809DF8072020463E
:10293000611CCCB2D4490A549DF806202046611C83
:10294000CCB2D1490A549DF805202046611CCCB276
:10295000CD490A549DF804202046611CCCB2CA49D6
:102960000A549FEDCA0A28EE000ABDEEC00A10EE16
:10297000100A00B202909DF809202046611CCCB2DA
:10298000C1490A549DF808202046611CCCB2BE49BA
:102990000A54201FC8704FF00009002006E0BA4911
:1029A000095C494401F0FF09411CC8B2A042F6DBB2
:1029B0002046611CCCB2B44901F800902146B248CF
:1029C000FFF76CFF03B0BDEC028BBDE8F08370B580
:1029D0002DED0A8B82B00546B0EE408AF0EE608A9B
:1029E000B0EE419AF0EE619AB0EE42AAF0EE62AA21
:1029F000B0EE43BAF0EE63BAB0EE44CA0024AA22A5
:102A00002146641CA04842542146641C425405F1EE
:102A10000F00C2B22146641C9B484254002221464A
:102A2000641C42549FED9A0A28EE000ABDEEC00ACB
:102A300010EE100A00B201909DF805202146641C9A
:102A4000914842549DF804202146641C42549FED55
:102A5000900A28EE800ABDEEC00A10EE100A00B2FD
:102A600001909DF805202146641C874842549DF83A
:102A700004202046611CCCB283490A549FED840A8D
:102A800029EE000ABDEEC00A10EE100A00B2019055
:102A90009DF805202046611CCCB27B490A549DF864
:102AA00004202046611CCCB277490A549FED780A75
:102AB00029EE800ABDEEC00A10EE100A00B20190A5
:102AC0009DF805202046611CCCB26F490A549DF840
:102AD00004202046611CCCB26B490A549FED6C0A5D
:102AE0002AEE000ABDEEC00A10EE100A00B20190F4
:102AF0009DF805202046611CCCB263490A549DF81C
:102B000004202046611CCCB25F490A549FED600A44
:102B10002AEE800ABDEEC00A10EE100A00B2019043
:102B20009DF805202046611CCCB257490A549DF8F7
:102B300004202046611CCCB253490A549FED540A2C
:102B40002BEE000ABDEEC00A10EE100A00B2019092
:102B50009DF805202046611CCCB24B490A549DF8D3
:102B600004202046611CCCB247490A549FED480A14
:102B70002BEE800ABDEEC00A10EE100A00B20190E2
:102B80009DF805202046611CCCB23F490A549DF8AF
:102B900004202046611CCCB23B490A549FED3C0AFC
:102BA0002CEE000ABDEEC00A10EE100A00B2019031
:102BB0009DF805202046611CCCB233490A549DF88B
:102BC00004202046611CCCB22F490A54201FC87033
:102BD0000026002005E02C49095C3144CEB2411C9E
:102BE000C8B2A042F7DB2046611CCCB226490E5485
:102BF00021462548FFF752FE02B0BDEC0A8B70BD9E
:102C0000F8B505460E460024AA222146641C1E483B
:102C100042542146641C425405222146641C4254FD
:102C200000222146641C425400959DF80120214653
:102C3000641C42549DF800202146641C42540096B6
:102C40009DF801202146641C42549DF80020214635
:102C5000601CC4B20C484254201F0B49C8700027A6
:102C6000002005E00849095C3944CFB2411CC8B2D4
:102C7000A042F7DB2046611CCCB203490F54214629
:102C80000148FFF70BFEF8BD6D0900200000C842A7
:102C900000007A447FB50024AA222146641CFE4825
:102CA00042542146641C425406222146641C42546C
:102CB00000222146641C42549DF801202146641CD8
:102CC00042549DF800202146641C42549DF8052082
:102CD0002146641C42549DF804202046611CCCB25D
:102CE000ED490A549DF809202046611CCCB2EA49FE
:102CF0000A549DF808202046611CCCB2E6490A54CB
:102D00009DF80D202046611CCCB2E3490A549DF881
:102D10000C202146601CC4B2DF4842549DF821209B
:102D20002046611CCCB2DC490A549DF82020204684
:102D3000611CCCB2D8490A549DF825202046611C5C
:102D4000CCB2D5490A549DF824202046611CCCB24F
:102D5000D1490A549DF829202046611CCCB2CE49A5
:102D60000A549DF828202046611CCCB2CA490A5456
:102D70009DF82D202046611CCCB2C7490A549DF80D
:102D80002C202046611CCCB2C3490A54201FC870B5
:102D90000025002005E0C049095C2944CDB2411C52
:102DA000C8B2A042F7DB2046611CCCB2BA490D5430
:102DB0002146B948FFF772FD7FBD7FB50024AA22E6
:102DC0002146641CB44842542146641C42540322E8
:102DD0002146641C425400222146641C42549DF842
:102DE00001202146641C42549DF800202146641CA9
:102DF00042549DF805202146641C42549DF804204D
:102E00002046611CCCB2A4490A549DF809202046F2
:102E1000611CCCB2A0490A549DF808202046611CD0
:102E2000CCB29D490A549DF80D202046611CCCB2BD
:102E300099490A549DF80C202046611CCCB2964951
:102E40000A549DF821202046611CCCB292490A54B4
:102E50009DF820202146601CC4B28F4842549DF842
:102E600025202046611CCCB28B490A549DF82420B1
:102E70002046611CCCB288490A549DF8292020467E
:102E8000611CCCB284490A549DF828202046611C5C
:102E9000CCB281490A549DF82D202046611CCCB249
:102EA0007D490A549DF82C202046611CCCB27A49F9
:102EB0000A549DF831202046611CCCB276490A5450
:102EC0009DF830202046611CCCB273490A549DF80D
:102ED00035202046611CCCB26F490A549DF834203D
:102EE0002046611CCCB26C490A54201FC8700025D2
:102EF000002005E06849095C2944CDB2411CC8B2F4
:102F0000A042F7DB2046611CCCB263490D54214638
:102F10006148FFF7C3FC7FBD73B50024AA22214698
:102F2000641C5D4842542146641C425407222146D9
:102F3000641C425400222146641C42549DF8032024
:102F40002146641C42549DF802202146641C4254D0
:102F50009DF801202146641C42549DF80020204623
:102F6000611CCCB24C490A549DF805202046611CD6
:102F7000CCB249490A549DF804202046611CCCB2C9
:102F800045490A54201FC8700025002005E0424929
:102F9000095C2944CDB2411CC8B2A042F7DB2046EF
:102FA000611CCCB23C490D5421463B48FFF776FCEE
:102FB0007CBD2DE9F84F05460E4617469846DDE9DB
:102FC0000AAB0024AA222146641C334842542146FD
:102FD000641C425402222146641C425400222146B1
:102FE000641C425400959DF801202146641C425403
:102FF0009DF800202146641C425400969DF8012053
:103000002146641C42549DF800202146601CC4B235
:103010002148425400979DF801202046611CCCB203
:103020001D490A549DF800202046611CCCB21A4963
:103030000A54CDF800809DF801202046611CCCB2D6
:1030400015490A549DF800202046611CCCB2124953
:103050000A54CDF800A09DF801202046611CCCB296
:103060000D490A549DF800202046611CCCB20A4943
:103070000A54CDF800B09DF801202146601CC4B26E
:10308000054842549DF800202146601CC4B2024805
:1030900042540C98009001E06D0900209DF8012039
:1030A0002046611CCCB2F8490A549DF80020204605
:1030B000611CCCB2F4490A540D9800909DF801208F
:1030C0002046611CCCB2F0490A549DF800202046ED
:1030D000611CCCB2EC490A540E9800909DF8012076
:1030E0002046611CCCB2E8490A549DF800202046D5
:1030F000611CCCB2E4490A54002000909DF80120E4
:103100002046611CCCB2E0490A549DF800202046BC
:10311000611CCCB2DC490A54201FC8704FF0000972
:10312000002006E0D849095C494401F0FF09411C30
:10313000C8B2A042F6DB2046611CCCB2D24901F8ED
:1031400000902146D048FFF7A9FBBDE8F88F38B5BD
:103150000024AA222146641CCB4842542146641C08
:103160004254F1222146641C425400222146641C30
:103170004254002000909DF801202146641CC24862
:1031800042549DF800202146641C4254BF4890EDF3
:10319000000ABDEEC00A10EE100A00B200909DF8C1
:1031A00001202146641CB84842549DF80020204666
:1031B000611CCCB2B4490A54B44890ED000ABDEE8B
:1031C000C00A10EE100A00B200909DF801202046BF
:1031D000611CCCB2AC490A549DF800202046611C09
:1031E000CCB2A9490A54002000909DF80120204645
:1031F000611CCCB2A4490A549DF800202046611CF1
:10320000CCB2A1490A54002000909DF8012020462C
:10321000611CCCB29C490A549DF800202046611CD8
:10322000CCB299490A54201FC8700025002005E03F
:103230009549095C2944CDB2411CC8B2A042F7DBD4
:103240002046611CCCB290490D5421468E48FFF7B0
:1032500025FB38BD30B52DED048B81B0B0EE408A32
:10326000F0EE608AB0EE419A0024AA222146641C46
:10327000854842542146641C42540B222146641C5A
:10328000425400222146641C42549FED810A28EEDC
:10329000000ABDEEC00A10EE100A00B200909DF8C0
:1032A00001202146641C784842549DF800202146A4
:1032B000641C42549FED760A28EE800ABDEEC00AD7
:1032C00010EE100A00B200909DF801202146641C07
:1032D0006D4842549DF800202046611CCCB26A49DA
:1032E0000A549FED6B0A29EE000ABDEEC00A10EEEB
:1032F000100A00B200909DF801202046611CCCB25B
:1033000061490A549DF800202046611CCCB25E49F8
:103310000A54201FC8700025002005E05A49095CA6
:103320002944CDB2411CC8B2A042F7DB2046611C43
:10333000CCB255490D5421465348FFF7AFFA01B0BE
:10334000BDEC048B30BD2DE9F0432DED048B83B033
:10335000B0EE408AF0EE608AB0EE419A05460E4625
:103360001746984600240196AA222146641C464826
:1033700042542146641C425401222146641C42549A
:1033800000222146641C42549FED420A28EE000AA6
:10339000BDEEC00A10EE100A00B202909DF809209E
:1033A0002146641C384842549DF808202146641C7C
:1033B00042549FED380A28EE800ABDEEC00A10EE96
:1033C000100A00B202909DF809202146641C2E4884
:1033D00042549DF808202046611CCCB22A490A5468
:1033E0009FED2C0A29EE000ABDEEC00A10EE100A6D
:1033F00000B202909DF809202046611CCCB22249FF
:103400000A549DF808202046611CCCB21E490A547B
:1034100002959DF809202046611CCCB21A490A5435
:103420009DF808202046611CCCB217490A549DF82B
:1034300007202046611CCCB213490A549DF806208F
:103440002046611CCCB210490A549DF80520204644
:10345000611CCCB20C490A549DF804202046611C22
:10346000CCB209490A542046611CCCB206490F541B
:103470002046611CCCB2044901F80080201FC870AE
:103480004FF0000900200EE06D090020DC04002050
:10349000CDCCCC3D0000C842FB49095C494401F059
:1034A000FF09411CC8B2A042F6DB2046611CCCB229
:1034B000F54901F800902146F348FFF7EFF903B012
:1034C000BDEC048BBDE8F0837FB505460024AA223D
:1034D0002146641CEC4842542146641C425400229C
:1034E0002146641C42542146641C42542146641CFB
:1034F00045549DF805202146641C42549DF8042043
:103500002146641C42549DF809202046611CCCB21F
:10351000DD490A549DF808202046611CCCB2DA49E6
:103520000A549DF80D202046611CCCB2D6490A549D
:103530009DF80C202046611CCCB2D3490A549DF85A
:1035400021202046611CCCB2CF490A549DF820208E
:103550002046611CCCB2CC490A54201FC8700026FA
:10356000002005E0C849095C3144CEB2411CC8B214
:10357000A042F7DB2046611CCCB2C3490E54214661
:10358000C148FFF78BF97FBD10B586B0BF48007802
:10359000BF49097890FBF1F201FB1201BC480078A9
:1035A000401E814202D10120BA498870B748007894
:1035B000B949097890FBF1F201FB1201B648007895
:1035C000401E814202D10120B249C870AF48007844
:1035D000B249097890FBF1F201FB1201AF48007883
:1035E000801E814202D10120AA498873A748007831
:1035F000AB49097890FBF1F201FB1201A848007871
:10360000401E814202D10120A24948709F480078A3
:10361000A449097890FBF1F201FB1201A14800785E
:10362000401E814202D101209A4988729748007851
:103630009D49097890FBF1F201FB12019A4800784C
:10364000801E814202D10120924908738F48007880
:103650009649097890FBF1F201FB1201934800783A
:10366000801E814202D101208A4948738748007830
:103670008F49097890FBF1F201FB12018C48007828
:10368000C01E814202D101208249C8737F48007860
:103690008849097890FBF1F201FB12018548007816
:1036A000C01E814204D17B48007C401C79490874CB
:1036B00076480078401CC0B274490870C82801DD03
:1036C000002008707348007860B1002071490870CC
:1036D0004FF4C87364224FF4967100900420FFF7F2
:1036E000F3FE03E26B484078B0B1002069494870AE
:1036F000714803787148027800217148008800B24F
:10370000704C94ED001A704CD4ED000A6F4C94ED9F
:10371000000AFFF718FEE9E15E48C07B60B10020B7
:103720005C49C8736A4890ED001ADFED6A0A9FEDA4
:10373000690AFFF78FFDD9E15648807B28B1002048
:1037400054498873FFF703FDD0E152488078E8B30D
:10375000002050498870604890ED0A0ABDEEC00A0A
:1037600010EE100A01B25C4890ED090ABDEEC00AE5
:1037700010EE100A00B2584A92ED080ABDEEC00AD7
:1037800010EE102A12B2554B93ED090ABDEEC00A95
:1037900010EE103A1BB2CDE90132CDE903014F48DA
:1037A00090ED080ABDEEC00A10EE100A00B24B4CB4
:1037B000009094ED070ABDEEC00A10EE104A23B245
:1037C000464C94ED060ABDEEC00A00E015E010EE8E
:1037D000104A22B2414C94ED050ABDEEC00A10EE2B
:1037E000104A21B23D4C94ED040ABDEEC00A10EE21
:1037F000104A20B2FFF7DDFB78E12648C07840B1DF
:1038000000202449C8702E4801880020FFF784FB5F
:103810006CE12048807AA8B300201E49887240F2EB
:10382000DC522F48C08900F2DC5080B22C498989D3
:1038300001F2DC5189B2CDE90302294805920291D7
:10384000408900F2DC5080B22549098901F2DC513F
:1038500089B2234CCDE90010648804F2DC54A3B291
:103860001F4C248804F2DC54A2B21D4CE48804F2FC
:10387000DC54A1B21A4CA48804F2DC54A0B2FFF7C5
:103880009CFA33E12EE000006D0900205604002070
:10389000570400205C09002058040020590400202F
:1038A0005A0400205B0400205C0400205D0400201A
:1038B0005E0400205F040020A4040020A90400206E
:1038C000A4050020200000201C000020180000207B
:1038D000DC0400200000000050050020800B0020C8
:1038E000E4090020FE48007B48B30020FC4908732F
:1038F000009001900290FB4C039094ED030ABCEE03
:10390000C00A10EE104AA3B2F64C94ED020ABCEEC7
:10391000C00A10EE104AA2B2F24C94ED010ABCEEBD
:10392000C00A10EE104AA1B2EE4C94ED000ABCEEB3
:10393000C00A10EE104AA0B2FFF7ACF9D6E0E84892
:10394000407B40B10020E64948734FF4E4717B208E
:10395000FFF756F9CAE0E248007958B30020E04981
:103960000871E148D0ED1E4AB0EE644AD0ED1F4A1E
:10397000F0EE643AD0ED1D4AB0EE643AD0ED1A4A4A
:10398000F0EE642AD0ED1B4AB0EE642AD0ED194A5D
:10399000F0EE641AD0ED164AB0EE641AD0ED174A74
:1039A000F0EE640AD0ED154AB0EE640A0120FFF78C
:1039B0000EF89BE0CA48407958B30020C8494871C6
:1039C000CA48D0ED1E4AB0EE644AD0ED1F4AF0EE70
:1039D000643AD0ED1D4AB0EE643AD0ED1A4AF0EEEA
:1039E000642AD0ED1B4AB0EE642AD0ED194AF0EEFD
:1039F000641AD0ED164AB0EE641AD0ED174AF0EE14
:103A0000640AD0ED154AB0EE640A0220FEF7DFFF2B
:103A10006CE0B348807958B30020B1498871B4484C
:103A2000D0ED214AB0EE644AD0ED224AF0EE643A7D
:103A3000D0ED204AB0EE643AD0ED1D4AF0EE642A93
:103A4000D0ED1E4AB0EE642AD0ED1C4AF0EE641AA6
:103A5000D0ED194AB0EE641AD0ED1A4AF0EE640ABD
:103A6000D0ED184AB0EE640A0320FEF7B0FF3DE047
:103A70009B48C07958B300209949C8719D48D0ED42
:103A8000084AB0EE644AD0ED074AF0EE643AD0ED51
:103A9000064AB0EE643AD0ED054AF0EE642AD0ED65
:103AA000044AB0EE642AD0ED034AF0EE641AD0ED79
:103AB000024AB0EE641AD0ED014AF0EE640AD0ED8D
:103AC000004AB0EE640A0420FEF781FF0EE084484D
:103AD000007C02280AD10020814908741FED830A66
:103AE00000231A4619461846FEF7E0FE06B010BD40
:103AF00070B504460D46AA207F4908704870EF2033
:103B000088700220C87008460471457100260020A4
:103B100005E07949095C3144CEB2411CC8B206289F
:103B2000F7DB754886710721FEF7B8FE70BD70B5EA
:103B30002DED048B04460D460026002004E0215C98
:103B40003144CEB2411CC8B2691E8142F7DC601913
:103B500010F8010CB04202D0BDEC048B70BD20788F
:103B6000AA2802D16078AF2800D0F5E7A078012814
:103B700022D12079012802D1604908701CE0207907
:103B8000022803D101205D49487015E020790328FF
:103B900004D101205949087048700DE020790428AB
:103BA00003D101205649087006E02079212802DB64
:103BB0002079262800DD00BFA078022814D12079C2
:103BC000012806D14649087148718871C871087288
:103BD00048722079A02802D101204149087020793B
:103BE000A12801D1FCF7DDFCA078032836D1454897
:103BF0000078022802D0022000F041FE207961798D
:103C000041EA002040498880A079E17941EA00201A
:103C10003D49C880207A617A41EA00203A4908800B
:103C2000A07AE17A41EA002037494880207B617B15
:103C300041EA002034490881A07BE17B41EA002071
:103C400031494881207C617C41EA00202E498881ED
:103C5000A07CE17C41EA00202B49C881A07804289F
:103C60002AD12079012803D100202849087023E0B7
:103C70002079022813D14FF6A260254988800020C0
:103C800008804880C8809FED230A234880ED000A01
:103C900001201E4908700220184948700CE0207964
:103CA000032803D101201D49087005E0207904286C
:103CB00002D1022019490870A07810287ED12179FC
:103CC000090209B2627941EA020009F0DAFA41EC2C
:103CD000190B9FED130B53EC102B09F060FA23E046
:103CE0005C090020CC080020F8060020BC0700205A
:103CF00038060020F80500206D090020800B002008
:103D00007D0500206C040020A0090020A4040020F0
:103D1000E409002000002043CC040020A804002077
:103D2000FCA9F1D24D62503F41EC180B09F0FEFAAC
:103D3000FE494865A179090209B2E27941EA020027
:103D400009F09FFA41EC190B1FED0B0B53EC102BF4
:103D500009F025FA41EC180B09F0E8FAF349C865B7
:103D6000217A090209B2627A41EA020009F089FA6D
:103D700041EC190B1FED160B53EC102B09F00FFA49
:103D800041EC180B09F0D2FAE8498865A17A0902DA
:103D900009B2E27A41EA020009F073FA41EC190B28
:103DA0001FED210B53EC102B09F0F9F941EC180B26
:103DB00009F0BCFADD494866217B00E079E00902A0
:103DC00009B2627B41EA020009F05BFA41EC190B8F
:103DD0001FED2D0B53EC102B09F0E1F941EC180B02
:103DE00009F0A4FA0146D148C166A17B090209B2D3
:103DF000E27B41EA020009F044FA41EC190B1FEDA5
:103E0000380B53EC102B09F0CAF941EC180B09F0F0
:103E10008DFA0146C5488166217C090209B2627C9F
:103E200041EA020009F02DFA41EC190B1FED440B99
:103E300053EC102B09F0B3F941EC180B09F076FAAA
:103E4000BA494867A17C090209B2E27C41EA020052
:103E500009F017FA41EC190B1FED4F0B53EC102B27
:103E600009F09DF941EC180B09F060FA0146AF48E2
:103E7000C167217D090209B2627D41EA020009F0B1
:103E800000FA41EC190B1FED5A0B53EC102B09F003
:103E900086F941EC180B09F049FA0146A3488167FD
:103EA000A0783146FFF724FEFCF773FB0120A04900
:103EB0000880A07811287DD12179090209B26279A0
:103EC00041EA020009F0DDF941EC190B1FED6C0B22
:103ED00053EC102B09F063F941EC180B09F026FAAA
:103EE00094494865A179090209B2E27941EA0200E0
:103EF00009F0C7F941EC190B1FED770B53EC102BB0
:103F000009F04DF941EC180B09F010FA8949C86520
:103F1000217A090209B2627A41EA020009F0B1F994
:103F200041EC190B1FED820B53EC102B09F037F904
:103F300041EC180B09F0FAF97E498865A17A09026B
:103F400009B2E27A41EA020009F09BF941EC190B4F
:103F50001FED8D0B53EC102B09F021F941EC180BE0
:103F600009F0E4F973494866217B090209B2627BD2
:103F700041EA020009F085F941EC190B1FED980B9D
:103F800053EC102B09F00BF941EC180B09F0CEF9AA
:103F900001466848C166A17B090209B2E27B41EA99
:103FA000020009F06EF941EC190B1FEDA30B53EC65
:103FB000102B00E055E009F0F2F841EC180B09F085
:103FC000B5F901465B488166217C090209B2627C31
:103FD00041EA020009F055F941EC190B1FEDB00B55
:103FE00053EC102B09F0DBF841EC180B09F09EF9AB
:103FF00050494867A17C090209B2E27C41EA02000B
:1040000009F03FF941EC190B1FEDBB0B53EC102BE2
:1040100009F0C5F841EC180B09F088F9014645484C
:10402000C167217D090209B2627D41EA020009F0FF
:1040300028F941EC190B1FEDC60B53EC102B09F0BE
:10404000AEF841EC180B09F071F901463948816767
:10405000A0783146FFF74CFDFCF79BFA012034496C
:104060000880A078122860D12179090209B262790A
:1040700041EA020009F005F941EC190B1FEDD80BDC
:1040800053EC102B09F08BF841EC180B09F04EF9AA
:1040900029490866A179090209B2E27941EA0200D8
:1040A00009F0EFF841EC190B1FEDE30B53EC102B6B
:1040B00009F075F841EC180B09F038F91E498866CB
:1040C000217A090209B2627A41EA020009F0D9F8BC
:1040D00041EC190B1FEDEE0B53EC102B09F05FF8C0
:1040E00041EC180B09F022F913494866A17A09023C
:1040F00009B2E27A41EA020009F0C3F841EC190B77
:104100001FEDF90B53EC102B09F049F841EC180B9B
:1041100009F00CF908490867217B090209B2627BA2
:1041200041EA020009F0ADF808E079E0F806002065
:1041300054040020BC0700203806002041EC190B75
:104140009FED790B53EC102B09F029F841EC180B7B
:1041500009F0ECF876498867A17B090209B2E27B95
:1041600041EA020009F08DF841EC190B9FED6E0B4E
:1041700053EC102B09F013F841EC180B09F0D6F8AA
:104180006B494867217C090209B2627C41EA02005E
:1041900009F077F841EC190B9FED630B53EC102BF2
:1041A00008F0FDFF41EC180B09F0C0F86049C1F8B8
:1041B0008000A17C090209B2E27C41EA020009F018
:1041C00060F841EC190B9FED580B53EC102B08F0E5
:1041D000E6FF41EC180B09F0A9F85549C1F8880031
:1041E000217D090209B2627D41EA020009F049F825
:1041F00041EC190B9FED4C0B53EC102B08F0CFFF4B
:1042000041EC180B09F092F84949C1F88400A078F4
:104210003146FFF76DFCFCF7BCF9012045490880E9
:10422000A078132803D1A0783146FFF761FCA0786D
:10423000142803D1A0783146FFF75AFCA07815283E
:1042400003D1A0783146FFF753FC00BF84E410B5DA
:1042500004463948007838B9AA2C05D101203649DE
:104260000870364804705DE033480078012807D1B3
:10427000AF2C05D10220304908703048447051E01D
:104280002D480078022807D1F12C05DA03202A49AD
:1042900008702A48847045E02748007803280CD12C
:1042A000322C0ADA0420244908702448C4702448B7
:1042B000047000202349087034E01F480078042867
:1042C00019D11F480078002815DD1D480078401ED0
:1042D0001B4908701B4800781A490978491C194A7B
:1042E0001170001D15490C5415480078D0B90520EF
:1042F0001149087016E01048007805280FD10020F9
:104300000D4908700F480078001D0C490C540D48E9
:104310000078401DC1B20948FFF709FC02E0002007
:104320000549087010BD0000FCA9F1D24D62503F54
:10433000380600205404002062040020B009002048
:1043400060040020610400200246002007E0FE4BCC
:104350001B5632F8133021F81030431CD8B208280D
:10436000F5DB7047F948D0ED020A9FEDF91AF4EE3B
:10437000C10AF1EE10FA3BD2D0ED030A9FEDF41A18
:10438000F4EEC10AF1EE10FA29D2D0ED010A9FED48
:10439000F11AF4EEC10AF1EE10FA2CDDD0ED000AAC
:1043A0009FEDEC1AF4EEC10AF1EE10FA23DDEA48B3
:1043B000B0F90000401CF0B1E748B0F9000000EE91
:1043C000900AF8EEE00A9FEDE51A41EE000AFDEED4
:1043D000E00A10EE900A00B2DF4908800BE0DE48E8
:1043E000B0F90000401C30B90020DB49088002E031
:1043F0000020D9490880D848B0F90000B0F57A7F8C
:1044000010DD4FF0FF30D4490880D548007830B92E
:104410000120D34908700220D249487002E00020F0
:10442000CF49087070473FB5F0EE401A0546CE48B8
:104430000078012804D1CD492846FFF785FF07E021
:10444000C9480078022803D1C849C948FFF77CFF52
:10445000002400E2C54830F8140040F6C411884238
:1044600005DCC24830F81400B0F5FA7F07DA012005
:10447000C04908550020C04921F8140012E0BE4888
:1044800030F81400401CBC4921F81400084630F8EC
:104490001400C82806DD4FF4FA6021F8140000204B
:1044A000B4490855B0480078012803D0AE480078D8
:1044B00002287DD1AF48005D0028FAD1AB4830F822
:1044C00014002DF81400AD4830F91400AC4931F94E
:1044D000141088426DDDAB48005D002878D13DF8AE
:1044E0001400A74931F91410401A00EE100AB8EE72
:1044F000C01AA24830F91400A14931F91410401A29
:1045000000EE100AB8EEC00AC1EE000A9FED9E1A36
:104510009FED9E0A10EE810ABDEEC00A10EE100A51
:1045200000B210F5FA7F01DA99484DE03DF8140029
:10453000934931F91410401A00EE100AB8EEC01A6F
:104540008E4830F914008E4931F91410401A00EEEB
:10455000100AB8EEC00AC1EE000A9FED8B1A9FED5B
:104560008B0A10EE810ABDEEC00A10EE100A00B2EE
:10457000B0F5FA7F02DD4FF4FA7025E03DF8140043
:104580007F4931F91410401A00EE100AB8EEC01A33
:104590007A4830F914007A4931F91410401A00EEC3
:1045A000100AB8EEC00AC1EE000A9FED771A02E0C9
:1045B00088E084E00CE09FED750A10EE810ABDEE04
:1045C000C00A10EE100A00B2724921F8140079E016
:1045D0003DF814006A4931F91410401A00EE100A2F
:1045E000B8EEC01A654830F91400654931F9141065
:1045F000401A00EE100AB8EEC00AC1EE000A9FEDA4
:10460000621A9FED620A10EE810ABDEEC00A10EE3A
:10461000100A00B210F5FA7F01DA5D4849E03DF872
:104620001400574931F91410401A00EE100AB8EE80
:10463000C01A524830F91400514931F91410401A87
:1046400000EE100AB8EEC00AC1EE000A9FED4E1A45
:104650009FED4E0A10EE810ABDEEC00A10EE100A60
:1046600000B2B0F5FA7F02DD4FF4FA7021E03DF8B8
:104670001400434931F91410401A00EE100AB8EE44
:10468000C01A3E4830F914003D4931F91410401A5F
:1046900000EE100AB8EEC00AC1EE000A9FED3A1A09
:1046A0009FED3A0A10EE810ABDEEC00A10EE100A24
:1046B00000B2404200B2374921F8140002E0002065
:1046C000274908709FED340A21EE800A334880EDB7
:1046D000000A3DF8140000EE100AB8EE400A1B482C
:1046E00000EB8400D0ED000A30EE600AB5EEC00A9F
:1046F000F1EE10FA0DDD3DF8140000EE100AB8EEF0
:10470000400A124800EB8400D0ED000A30EE600A47
:104710000EE03DF8140000EE100AB8EE400A0B4817
:1047200000EB8400D0ED000A30EE600AB1EE400AE2
:10473000DFED1B0AB4EEE00AF1EE10FA4DD2154897
:1047400030F914002EE0000064040020F409002079
:104750000000C8C30000C843A604002000803B45F9
:10476000A4040020800B00206C040020640A0020B8
:10477000A00900206D040020540A002078040020C5
:10478000880400209804002000007A440000FA43C6
:104790000CFEFFFFE409002034337B42A00400201C
:1047A0000000C84200EE100AB8EEC00A374800EB1D
:1047B0008400D0ED000A70EE600A344800EB8400FB
:1047C00090ED000A324890ED001A01EE200A2F48C1
:1047D00000EB840080ED000A20E02E4830F9140040
:1047E00000EE100AB8EEC00A284800EB8400D0EDB5
:1047F000000A70EE600A254800EB840090ED000A84
:10480000234890ED001AB6EE002A21EE021A01EEBE
:10481000200A1E4800EB840080ED000A1B4800EBD4
:10482000840090ED000A1C4800EB8400D0ED000AE3
:1048300030EE600A194800EB840080ED000A13484E
:1048400000EB840090ED000A134800EB840080ED3B
:10485000000A601CC4B2082CFFF6FCADB0EE610A81
:10486000FFF780FD0E480088401C80B20C4908808C
:10487000C82803DD002008800A4908703FBD0949A7
:1048800008700021064A118070477047F409002023
:10489000A0040020E4090020140A0020340A0020AB
:1048A000760400206C04002030B5044608461588C4
:1048B0006D1CADB21580854204DD002515800125F3
:1048C000558007E01588854201D1002501E0158853
:1048D0006D1C5580158804EB850585ED000A55880B
:1048E00004EB8505D5ED000A30EE601A00EE900A63
:1048F000F8EE601AC1EE210A93ED001A70EE810AFB
:10490000C3ED000A30BD70B58BB0F0EE400A02284E
:1049100001DA0B2903DB9FED7B0A0BB070BD7A4CEB
:10492000245C641CE4B2784D2C548C4201DB0024DE
:104930002C5400EB400404EBC004744D05EB8404DC
:10494000714D2D5C04EB8504C4ED000A002211E0DA
:1049500000EB400404EBC0046C4D05EB840404EB55
:10496000820494ED000A6C4604EB820484ED000A94
:10497000541CE2B28A42EBDB00222DE0002325E04A
:104980006C4604EB830494ED000A6D465C1C05EB59
:104990008404D4ED001AB4EEE10AF1EE10FA13DD4E
:1049A0006C4604EB830494ED001A5C1C05EB840454
:1049B00094ED000A6C4604EB830484ED000A5C1C51
:1049C00005EB840484ED001A5C1CE3B24C1EA41AAF
:1049D0009C42D5DC541CE2B24C1E9442CEDC0C4608
:1049E00001EBD4756D106E4606EB850595ED000A5A
:1049F00093E770B52DED028B04460D461646D4EDB7
:104A0000020AB0EE600AFDF75DFDF0EE408AD4EDDB
:104A1000010AB0EE600AFDF755FD38EE800AB0EEEF
:104A2000408AFDF754FD3A4880ED000AD4ED020AB1
:104A3000B0EE600AFDF746FDF0EE408AD4ED000AC4
:104A4000B0EE600AFDF73EFD38EE800AB0EE408A17
:104A5000FDF73DFD2F4880ED000A94ED020AB5EE0A
:104A6000C00AF1EE10FA02D24FF0FF3000E0012050
:104A70002949087095ED000A2548D0ED000A20EE7E
:104A8000200A94ED001A084690F9000000EE900A02
:104A9000F8EEE00A61EE200A95ED021A00EEC10A76
:104AA00086ED000A084690F9000000EE100AB8EE04
:104AB000C00A1848D0ED000A20EE200AD5ED010A00
:104AC00020EE200AD4ED010A95ED021A00EEC10A8B
:104AD00086ED010A94ED000AD5ED000A20EE200AC9
:104AE000D4ED010A95ED011A00EE810AD4ED020A17
:104AF00095ED021A00EE810A86ED020ABDEC028BEA
:104B000070BD000000000000B4040020740A002002
:104B1000B8040020BC040020B604002030EE601A67
:104B200080ED041A90ED031AD0ED041A31EE211A2B
:104B300080ED031A90ED031ADFEDFE1AB4EEE11AD0
:104B4000F1EE10FA03DD9FEDFB1A80ED031A90EDF4
:104B5000001AD0ED041A21EE211AD0ED021A90EDC0
:104B6000032A01EE821AD0ED041A90ED052A71EEA7
:104B7000C21A90ED012A02EE211A80ED071A90ED7B
:104B8000041A80ED051A90ED051A80ED061A70479B
:104B900000B5B0EE403AF0EE602AE74890ED000A2A
:104BA000DFEDE60AB4EEE00AF1EE10FA03DD9FED68
:104BB000E30A80ED000AE248008800EE100AF8EEF1
:104BC000400ADD4890ED000ADE48FFF7A7FFDD4808
:104BD00090ED070A30EE220ADB4880ED000A00BDA6
:104BE00000B5B0EE404AF0EE603AD84800780128AF
:104BF00008D1F0EE630AB0EE440AFFF7C9FF0020C7
:104C0000D2490870D248007830B1CF4890ED000A00
:104C1000D04880ED000A02E0CE48C0ED003A00BD69
:104C2000CD4890ED1C0AF7EE000A20EE200AC54898
:104C300080ED000AC84890ED1D0AF7EE000A20EE4C
:104C4000200AC04880ED010AC34890ED1E0AF7EE25
:104C5000000A20EE200ABB4880ED020A704730EEC1
:104C6000601A80ED041A90ED041AD0ED051A31EEA9
:104C7000611AD0ED001A21EE211AD0ED021A90ED42
:104C8000042A01EE821AD0ED041A90ED052AF0EE06
:104C9000002A42EEC21A90ED062A71EE821A90EDB9
:104CA000012A02EE211A80ED071A90ED041A80ED18
:104CB000051A90ED051A80ED061A7047A64890ED8A
:104CC000180ADFEDA60A20EE200AA54880ED000AAA
:104CD000A14890ED190ADFEDA30A20EE200AA048B2
:104CE00080ED010A9C4890ED1A0ADFED9F0A20EE44
:104CF000200A9B4880ED020A704710B52DED068B07
:104D0000B0EE408AB0EE609AF0EE418AF0EE619A21
:104D1000B0EE000A29EE000AB5EEC00AF1EE10FA74
:104D200002D29FED920A11E0B0EE000A29EE000ACD
:104D3000DFED8F0AB4EEE00AF1EE10FA02DD9FED2E
:104D40008C0A03E0B0EE000A29EE000AB0EE40AA99
:104D50009FED880A68EE000AB7EE001A81EE200A7D
:104D6000F7EE000A30EE200AB7EE001AC1EE000A94
:104D7000814890ED000A3AEE401A90ED000A00EEEC
:104D8000810A80ED000A7D4890ED000A9FED7C1AB3
:104D9000C0EE010A7B4890ED000A9FED7B1A00EE01
:104DA000810A7A4880ED000ADFED790A90ED000A69
:104DB000FDF7C5FC7748D0ED000A40EE080AC0EDCB
:104DC000000A754890ED000A7448D0ED000A30EEF4
:104DD000600AC0EE080A6D4890ED000A70EEC00A45
:104DE0009FED6F0A28EE001A664890ED000A01EE6A
:104DF000200A80ED000A90ED000ADFED6A0AB4EEA9
:104E0000E00AF1EE10FA02D29FED660A0FE05D486B
:104E100090ED000ADFED640AB4EEE00AF1EE10FA5C
:104E200002DD9FED610A02E0564890ED000A554808
:104E300080ED000A9FED5D0A28EE000AF7EE000AF9
:104E400080EE801AB7EE000A31EE000AB7EE001AC3
:104E5000C1EE000A4F4890ED000A39EEC01A90EDFD
:104E6000000A00EE810A80ED000A90ED000A504829
:104E700080ED000A90ED000AB5EEC00AF1EE10FADE
:104E800002DD90ED000A04E0494890ED000AB1EE21
:104E9000400ADFED480AB4EEE00AF1EE10FA04D25F
:104EA0009FED320A424880ED000A414890ED000A29
:104EB000394880ED000A90ED000A384880ED000A7C
:104EC000274890ED000A3448D0ED000A78EEE00A59
:104ED00020EE200A384880ED000ADFED380A80EE27
:104EE000880AF2EE040A20EE200A1D48D0ED010ADD
:104EF00020EE200A2548D0ED000AF1EE600A20EEEF
:104F0000200A20EE080A2C4880ED020A144890ED91
:104F1000020AD0ED000A20EE200A78EEE90A60EEDF
:104F2000200A254890ED030A00EE880A80ED030A66
:104F300046E0000000803B45CC04002000007A449D
:104F4000A4050020140B0020D8040020A205002096
:104F5000A9040020C0040020380600209A99993E38
:104F6000E00A00203333B33F8FC2F53D000000005C
:104F700000001644C3F5C83FE8040020C404002024
:104F800000008045EC04002000401C46E4040020A2
:104F90000000C842F0040020DC040020E0040020EF
:104FA000CDCCCC3E0000FAC30000FA439CC4A03E26
:104FB000F404002000004842CC0A00206F12033B9A
:104FC00090ED030A4548D0ED000AF1EE600A9FED2E
:104FD000441A60EE810AB4EEE00AF1EE10FA08D24B
:104FE00090ED000AB1EE400ADFED3D0A20EE200A06
:104FF00018E03C4890ED030A3848D0ED000A9FEDD8
:10500000381A60EE810AB4EEE00AF1EE10FA06DD1D
:1050100090ED000ADFED320A20EE200A02E031486E
:1050200090ED030A2F4880ED030A90ED000A2E4808
:10503000D0ED000A00EEA80A2A48D0ED020A30EEB0
:10504000200AD0ED030A30EE200ADFED280AB4EE84
:10505000E00AF1EE10FA02D29FED240A2BE021487B
:1050600090ED000A2048D0ED000A00EEA80A1D4885
:10507000D0ED020A30EE200AD0ED030A30EE200A0D
:10508000DFED170AB4EEE00AF1EE10FA02DD9FED53
:10509000140A10E0134890ED000A1348D0ED000AFE
:1050A00000EEA80A0F48D0ED020A30EE200AD0ED3B
:1050B000030A30EE200A0E48D0ED000A074890EDB2
:1050C000001A41EE000A0748C0ED040A90ED000AFC
:1050D00080ED010ABDEC068B10BD00000C00002025
:1050E00000009643CC0A0020E00A0020000096C38E
:1050F000E804002000204D4988809FED4D0A4D486E
:1051000080ED000A01204C49087000204B490870CE
:1051100070474B480088B0F5167F0CDD4348B0F966
:10512000040010F1C80F21DD404880880A3800B221
:105130003E4988801AE042480088B0F5C87F0CDDFF
:105140003A48B0F9040010F1C80F0FDD37488088E5
:10515000401E00B23549888008E04FF67060334940
:10516000888000203449087034490870704700B5C1
:1051700034480088B0F57A7F0ADD3248008840F272
:105180007E41884204DA4FF47A702F4988804CE0DF
:105190002C48008840F27E41884208DD294800887A
:1051A00040F2E241884202DAFFF7A4FF3DE02548E1
:1051B000008840F2E241884205DD2248008840F242
:1051C0004651884231DB1F48008840F246518842F0
:1051D0000BDD1C48008840F2AA51884205DA9FED99
:1051E000140A144880ED000A1FE01648008840F2B7
:1051F000AA5188420BDD1348008840F20E618842B4
:1052000005DA9FED120A0B4880ED000A0DE00D480B
:10521000008840F20E61884207DD0A48008840F2AB
:105220007261884201DAFFF774FF00BDE4090020D3
:105230000000C843CC040020A4040020A8040020DF
:10524000A40500200C050020700B002000002F4456
:105250000EB50121084603F0CFFA4FF0804003F06D
:1052600027FD4FF47A7001905320ADF80000002024
:10527000ADF80800ADF8020069464FF0804003F039
:10528000F3FD0121880706F0D5F8012211469007A9
:1052900005F0C6FF0121880704F080F900210120F4
:1052A00003F0AAFA0EBD08B51C208DF800000220FC
:1052B0008DF8010000208DF8020001208DF8030018
:1052C000684602F0D0F808BD10B5FFF7C1FFFFF740
:1052D000EAFF0121084603F08FFA10BD7FB568464A
:1052E00003F0A8F84FF47A710198B0FBF1F4E408E8
:1052F0002146B1F1807F00D31DE021F07F40401EA8
:105300004FF0E022506150170F22002807DA1307F0
:105310001E0E664B00F00F052D1F5E5503E01307B0
:105320001D0E634B1D5400BF00204FF0E022906122
:105330000720106100BF6FF0040002F02BF97FBD61
:105340005C4A11684FF0E02252694FF0E0239B69FC
:10535000D21A4FF47A735A434FF0E0235B69B2FBE1
:10536000F3F201EB4103C3EBC11302EBC30070473F
:1053700030B50446FFF7E4FF054600BFFFF7E0FF46
:10538000401BA042FAD330BD10B5044603E04FF4F1
:105390007A70FFF7EDFF2000A4F10104F7D110BDF2
:1053A00010B54548007800B910BD4448006840F287
:1053B000E731884207DA41480068401C3F490860ED
:1053C000FAF71CFF29E000203C4908603C480068CF
:1053D0003B2805DA3A480068401C394908601CE05F
:1053E000002037490860374800683B2805DA35480F
:1053F0000068401C334908600FE000203149086014
:1054000031480068172805DA2F480068401C2E49EB
:10541000086002E000202C49086000BFC4E710B516
:10542000044604EB4400294901EB800090ED000A9A
:1054300004EB440001EB800080ED010AFFF780FFE0
:1054400000EE100AB8EE400ADFED210A80EE201AC5
:1054500004EB44001D4901EB800080ED001A04EBD1
:10546000440001EB800090ED000A04EB440001EBE6
:105470008000D0ED010A30EE600A04EB440001EB3D
:10548000800080ED020A04EB440001EB800090ED07
:10549000020A10BD10B5002404E02046FFF7BFFF4C
:1054A000601CC4B2052CF8DB10BD000018ED00E054
:1054B00000E400E0F80400200000002008050020BF
:1054C0000405002000050020FC040020340B00200F
:1054D0000024744900B587B00121062003F08CF93F
:1054E00001210E2003F0C2F81D208DF804000120D8
:1054F0008DF805008DF806008DF8070001A801F071
:10550000B2FF1E208DF8040001208DF805008DF8F3
:1055100006008DF8070001A801F0A5FFC020059046
:1055200002208DF8180003208DF8190000208DF856
:105530001A0002208DF81B0005A9FB4802F0FCF8B8
:105540000320059002208DF8180003208DF8190023
:1055500000208DF81A0002208DF81B0005A9F348E1
:1055600002F0EAF802220621EF4802F022FC0222B1
:105570000721ED4802F01DFC02220021EB4802F059
:1055800018FC02220121E94802F013FC5320E849EB
:1055900008800020ADF808000A20ADF80A000120BC
:1055A000ADF80C000020ADF80E00ADF8100002A917
:1055B000DF48283805F062FB0420ADF808000A2017
:1055C000ADF80A000120ADF80C000020ADF80E0087
:1055D000ADF8100002A9D648283805F04FFB082086
:1055E000ADF808000A20ADF80A000120ADF80C0063
:1055F0000020ADF80E00ADF8100002A9CC48283804
:1056000005F03CFB0C20ADF808000A20ADF80A00BC
:105610000120ADF80C000020ADF80E00ADF8100030
:1056200002A9C348283805F029FB0121C0482838C1
:1056300003F0B4FF01220221BD48283805F0F0FD37
:1056400001220421BA48283805F0EAFD0122082188
:10565000B748283805F0E4FD01221021B448283865
:1056600005F0DEFD4FF47040059002208DF8180023
:1056700003208DF8190000208DF81A0002208DF803
:105680001B0005A9AB4802F057F802220C21A948DB
:1056900002F08FFB02220D21A64802F08AFB0222B3
:1056A0000E21A44802F085FB02220F21A14802F03E
:1056B00080FB5320A04908800020ADF808000A2094
:1056C000ADF80A000120ADF80C000020ADF80E0086
:1056D000ADF8100002A99848283805F0CFFA042048
:1056E000ADF808000A20ADF80A000120ADF80C0062
:1056F0000020ADF80E00ADF8100002A98E48283841
:1057000005F0BCFA0820ADF808000A20ADF80A0040
:105710000120ADF80C000020ADF80E00ADF810002F
:1057200002A98548283805F0A9FA0C20ADF8080030
:105730000A20ADF80A000120ADF80C000020ADF8F9
:105740000E00ADF8100002A97B48283805F096FA43
:1057500001217948283803F021FF012202217648EF
:10576000283805F05DFD012204217348283805F032
:1057700057FD012208217048283805F051FD01220B
:1057800010216D48283805F04BFD07B000BD10B55D
:105790000120FFF774F866481838008800F002000E
:1057A00038B34FF6FD706249183908804FF6FF5044
:1057B00008805D481030006800F0400030B15C485F
:1057C000283805F0BEFB5D4908801EE0584828389F
:1057D00005F0B7FB5A4908800846008857490988F0
:1057E000884207DB5648008854490988401A5549C1
:1057F00008800AE0514800884FF6FF71081A5049A6
:1058000009880844401C4F490880494818380088D6
:1058100000F0040038B34FF6FB7045491839088092
:105820004FF6FF30088040481030006800F08000DC
:1058300030B13F48283805F0B2FB434908801EE0EC
:105840003B48283805F0ABFB4049088008460088F3
:105850003D490988884207DB3C4800883A49098865
:10586000401A384948800AE0374800884FF6FF71EF
:10587000081A364909880844401C324948802C4897
:105880001838008800F0080038B34FF6F770284940
:10589000183908804FF2FF700880244810300068E3
:1058A00000F0010030B12248283805F09AFB284961
:1058B00008801EE01E48283805F093FB2549088023
:1058C0000846008822490988884207DB2148008869
:1058D0001F490988401A204908800AE01C480088AE
:1058E0004FF6FF71081A1B4909880844401C1A49E1
:1058F00008800F481838008800F0100080B34FF679
:10590000EF700B49183908804EF6FF700880074881
:105910001030006800F0020018B30548283805F080
:105920007CFB0E4908803AE0000802400004024077
:1059300028040040000C0240280800400E0500200A
:1059400010050020700B0020120500201405002017
:1059500016050020180500200C0500201A0500205F
:105960001DE0804805F059FB7F4908800846008803
:105970007E490988884207DB7B4800887B49098883
:10598000401A7B49C8800AE0784800884FF6FF71CA
:10599000081A754909880844401C7549C88010BD1B
:1059A00010B50120FEF76BFF7248008800F002007E
:1059B00028B34FF6FD706F4908804FF6FF500880FE
:1059C0006D48006800F4805030B16A48103805F026
:1059D000B8FA6A4908801EE06648103805F0B1FA46
:1059E000674908800846008864490988884207DBBF
:1059F0006348008861490988401A5D4908810AE0C6
:105A00005E4800884FF6FF71081A5D49098808440E
:105A1000401C574908815748008800F0040028B30B
:105A20004FF6FB70534908804FF6FF30088052480C
:105A3000006800F4005030B14E48103805F0AFFA5D
:105A4000504908801EE04B48103805F0A8FA4E492E
:105A50000880084600884B490988884207DB4A4885
:105A6000008848490988401A414948810AE0454868
:105A700000884FF6FF71081A434909880844401C02
:105A80003B4948813B48008800F0080028B34FF6A6
:105A9000F770384908804FF2FF7008803648006878
:105AA00000F4804030B13348103805F09AFA374995
:105AB00008801EE02F48103805F093FA344908801A
:105AC0000846008831490988884207DB3048008849
:105AD0002E490988401A264988810AE02B48008807
