:020000040800F2
:1000000018170020D9D00008B5010008E3D0000877
:10001000B7010008BB010008BF0100080000000094
:10002000000000000000000000000000C301000804
:10003000C501000800000000EFD00008C70100085B
:10004000F3D00008F3D00008F3D00008F3D0000884
:10005000F3D00008F3D00008F3D00008F3D0000874
:10006000F3D00008F3D00008F3D00008F3D0000864
:10007000F3D00008F3D00008F3D00008F3D0000854
:10008000F3D00008F3D00008F3D00008F3D0000844
:10009000F3D00008F3D00008F3D00008F3D0000834
:1000A000F3D00008F3D00008F3D00008F3D0000824
:1000B000F3D00008D9010008E1010008F3D00008DE
:1000C000F3D00008F3D00008F3D00008F3D0000804
:1000D000F3D00008F3D00008E9010008F3D00008CD
:1000E000F3D00008F3D00008F3D00008F3D00008E4
:1000F000F3D00008F3D00008F3D00008F3D00008D4
:10010000F3D00008F3D00008F3D00008F3D00008C3
:10011000F3D00008F1010008F3D00008F3D0000884
:10012000F3D00008F3D00008F3D00008F3D00008A3
:10013000F3D00008F3D00008F3D00008F3D0000893
:10014000F3D00008F3D00008F3D00008F3D0000883
:10015000F3D00008F3D00008F3D00008F3D0000873
:10016000F3D00008F3D00008F3D00008F3D0000863
:10017000F3D00008F3D00008F3D00008F3D0000853
:10018000F3D00008F3D00008DFF80CD00DF076FAB9
:1001900000480047A10100081817002000BFFEE733
:1001A00000F046F90249087001E000F0EAF8FCE7C7
:1001B00000000020704700BFFEE700BFFEE700BF61
:1001C000FEE77047704710B50B480068401C0A49AD
:1001D000086005F027F910BD10B505F01EFB10BD35
:1001E00010B505F03FFC10BD10B506F0F8FF10BDCE
:1001F00010B507F0B6F810BDFC0400208248C08995
:10020000401C8149C88108468088401C00B2888013
:100210000846C088401C00B2C88008460089401CBF
:1002200000B2088108464089401C00B24881084657
:100230008089401C00B2888108460078012804D1DA
:1002400008464078401C487002E001206E49087062
:10025000704710B5012005F024F903F09BF910BD9B
:1002600010B52DED028B002005F01BF9B0EE408A91
:1002700005F0A8F800EE100AB8EE400ADFED630AB8
:1002800080EE201A624880ED001A06F083F8B0EE86
:10029000480A06F0B5FAB0EE480A01F032F85D48B7
:1002A000B0EE480A04F068F805F08CF800EE100A89
:1002B000B8EE400ADFED550A80EE201A544880ED72
:1002C000011ABDEC028B10BD10B52DED028B022082
:1002D00005F0E7F8B0EE408A05F074F800EE100A79
:1002E000B8EE400ADFED490A80EE201A484880ED5A
:1002F000021A4948D0ED063AB0EE633AD0ED053A1D
:10030000F0EE632AD0ED043AB0EE632AD0ED0C3A59
:10031000F0EE631AD0ED0B3AB0EE631AD0ED0A3A64
:10032000F0EE630AF6EE003A68EE233AB0EE630AA6
:100330003A4A3B493B4801F097FBB0EE480A00F0CF
:1003400087FA05F03FF800EE100AB8EE400ADFED3C
:100350002F0A80EE201A2E4880ED031ABDEC028B86
:1003600010BD10B506F07AFE10BD10B500F023FAEE
:1003700010BD10B504F009FF06F094FE07F058F820
:1003800010BD10B52048007801283BD126480088D0
:1003900000B226490880FFF75CFF1B48B0F9040053
:1003A000022804DB002018498880FFF759FF16480F
:1003B000B0F90600052804DB00201349C880FFF7C8
:1003C00083FF1148B0F908000A2804DB00200E4919
:1003D0000881FFF7C6FF0C48B0F90A00142804DBB7
:1003E000002009494881FFF7C0FF0748B0F90C0019
:1003F000322804DB002004498881FFF7BAFF00207F
:100400000149087010BD0000DC050020002474497B
:10041000EC050020780B0020880B00202000002035
:100420001C000020180000200C0500200200002005
:1004300010B54FF4806007F063F804F091FF06F008
:1004400013FE05F0E8FD05F087F84FF4C87005F0DD
:100450000DFCC82004F0DAFF142006F07DF84FF4FC
:10046000E13006F049FE00F027F9642004F0CEFFE9
:1004700006F0D8FF05F050F806F0CAFB80F0010046
:10048000124908701248007810B906F023FE04E003
:100490000E48007808B906F024FE4FF400710D48AC
:1004A00007F00AFC4FF47A7004F0B0FF4FF40071CB
:1004B000084807F0D0FB4FF47A7004F0A7FF4FF420
:1004C0000071044807F0F8FB012010BD84050020EE
:1004D0003C0500200004024010B5C248C24BD3E9DD
:1004E00000219B68C0E90E134263BF4BD3E903218F
:1004F0005B69C0E911130264BC48BB4B18330ECBD7
:1005000008300EC0B74AB84B24330BCB58320BC25D
:10051000B54890ED0D0AB34880ED190AB24890ED48
:100520000E0AB04880ED1A0AB148B24C1ECC5430C5
:100530001EC06438AF49D1E905340A69C969C0E908
:100540001A3442660167AB4BD3E909141A6ADB6AB5
:10055000C0E91F43C0E91D21A748A64BD3E90C41C0
:10056000D3E90E23C0E91541C0E91723A149D1E918
:1005700011430A6CC96CC0E91A43426601679D4980
:10058000D1E91434D1E91621C0E91D34C0E91F2195
:1005900010BD10B500F04AF904F094FB04F044FBE0
:1005A00010BD10B59FED950A924880ED040A9FEDAD
:1005B000930A80ED000A9FED920A80ED080A9FEDF4
:1005C000910A80ED060A9FED8F0A80ED020AB7EED0
:1005D000000A80ED0A0AB0EE000A80ED050AB0EECE
:1005E000000A80ED010AB7EE000A80ED090AB7EEB5
:1005F000000A80ED070AB7EE000A80ED030AB7EEA5
:10060000000A80ED0B0AB6EE000A80ED100AB6EE85
:10061000000A80ED0C0A9FED7C0A80ED140A9FED24
:100620007B0A80ED120A9FED790A80ED0E0A9FED9C
:10063000770A80ED160A9FED760A80ED110A9FED8C
:10064000740A80ED0D0A9FED6F0A80ED150A9FED8B
:10065000710A80ED200A9FED6F0A80ED220A9FED5E
:100660006D0A80ED210A9FED6B0A80ED240A9FED53
:10067000690A80ED260A9FED670A80ED250AB7EE2C
:10068000000A80ED180AB7EE000A80ED1A0AB7EEEC
:10069000000A80ED190A9FED600A80ED1C0A9FEDAB
:1006A0005F0A80ED1E0A9FED5E0A80ED1D0AFFF7CE
:1006B00013FFFFF76EFF10BD10B5FFF772FFFFF7D6
:1006C0000BFFFFF766FF10BD10B5464990E81C0010
:1006D00034311CC1444990E81C001CC1414991EDD2
:1006E000190A414981ED0D0A10BD10B53D4990E848
:1006F0001C0040311CC13C4990E81C000C311CC15D
:10070000384991ED1A0A384981ED0E0A10BD10B52D
:10071000364990E81C0008311CC1334990E81C00A0
:1007200018311CC110BD10B52E4990E81C0058317D
:100730001CC12D4990E81C0024311CC110BD10B50E
:100740002C482B49D1E916344A6D096E80E81C000B
:10075000C16001462648D0E91A34426E006FC1E9F3
:1007600005340A61C8612248D0E91E34426FD0F8CE
:100770008000C1E909340A62C8620A461E4CD4E905
:100780001530D4E91714C2E90E14C2E90C30104632
:100790001949D1E91942D1E91B31C0E91042C0E938
:1007A00012311549D1E91D42D1E91F31C0E9144286
:1007B000C0E9163110BD00B51A48008820B11948AB
:1007C0000088401C17490880164800883C2807DD2F
:1007D0000020144908801448007808B9FFF7AFFFDB
:1007E00000BD0000880B00200006002058050020F6
:1007F0000007002040060020C4070020CDCC4C3F5D
:100800009A99993FCDCCCC3DCDCC4C3ECDCC4C3DF6
:100810009A99993E000000007B14AE3D0AD7233C14
:100820006666664054040020A4040020B7EE000A67
:10083000FE4880ED180AB7EE000A80ED1C0AB7EEFC
:10084000000A80ED200A9FEDFA0A80ED300A704719
:1008500010B52DED0E8BB0EE408AF648D0ED000AB3
:10086000B0EE600AF3EE0E0A01F06FFFDFEDF20A60
:1008700080EE201AB3EE090A21EE000AEF4880ED5F
:10088000000AEC48D0ED010AF1EE600AB0EE600A11
:10089000F3EE0E0A01F059FFDFEDE70A80EE201AB1
:1008A000B3EE090A21EE000AE44880ED010AE448AB
:1008B000007808BBDF48D0ED030AB0EE600ADFED38
:1008C000E10A01F091FFDFEDDC0A80EE201A9FEDD6
:1008D000DE0A21EE000ABDEEC00A10EE100A00B2D8
:1008E00000EE100AF8EEC00AD44890ED020A00EEBD
:1008F000880A80ED020A36E0D04890ED020AD3481B
:10090000D0ED000A30EEC00A10EE101A08460CF0C6
:1009100031FD41EC1C0B18EE100A0CF02BFD41ECE4
:100920001E0B9FEDCB0B53EC102B0CF0A0FC41ECFD
:100930001D0B53EC1C2B0CF09AFC41EC1A0BBF481E
:1009400090ED020A10EE101A08460CF013FD41EC6F
:100950001B0B53EC1A2B0CF0E3FB41EC190B0CF0C6
:100960004DFDB6498860B548D0ED020AB0EE600A88
:1009700001F04EFFB14880ED020AB748D0ED000A01
:10098000AE4890ED001A70EE810AB44890ED001A5E
:1009900070EEC10AB0EE600A01F03AFFB04880ED97
:1009A000000AAD48D0ED010AA44890ED011A70EE9E
:1009B000810AAC4890ED001A70EEC10AB0EE600AF0
:1009C00001F026FFA64880ED010AA348D0ED020AF7
:1009D0009A4890ED021A70EE810A9C4890ED001A38
:1009E00070EEC10AB0EE600A01F012FF9C4880ED83
:1009F000020A90ED000AB5EEC00AF1EE10FA02DD2F
:100A000090ED000A04E0964890ED000AB1EE400A2D
:100A1000F3EE0E0A80EE201A914880ED2D1A90ED2B
:100A2000010AB5EEC00AF1EE10FA02DD90ED010AFE
:100A300004E08B4890ED010AB1EE400AF3EE0E0A95
:100A400080EE201A864880ED2E1A90ED020AB5EE4F
:100A5000C00AF1EE10FA02DD90ED020A04E08048CF
:100A600090ED020AB1EE400AF3EE0E0A80EE201A73
:100A70007B4880ED2F1ADFED7C0A80EE880AD0EDEE
:100A8000000A90ED031A70EEC10A90ED161AF2EE0C
:100A9000041A21EE211A60EE810A60EE200A90ED20
:100AA0002D1A9FED720ADFED721A01EE810A20EE17
:100AB000800A80ED0C0ADFED6C0A80EE880AD0ED2A
:100AC000010A90ED041A70EEC10A90ED1A1AF2EEC6
:100AD000041A21EE211A60EE810A60EE200A90EDE0
:100AE0002E1A9FED620ADFED621A01EE810A20EEF6
:100AF000800A80ED0D0ADFED5C0A80EE880AD0EDF9
:100B0000020A90ED051A70EEC10A90ED1E1AF2EE7F
:100B1000041A21EE211A60EE810A60EE200A90ED9F
:100B20002F1A9FED520ADFED521A01EE810A20EED4
:100B3000800A80ED0E0A90ED170AD0ED000A60EEF3
:100B4000200A90ED060A00EE880A80ED060A90ED74
:100B50001B0AD0ED010A60EE200A90ED070A00EEB4
:100B6000880A80ED070A90ED1F0AD0ED020A60EEB8
:100B7000200A90ED080A00EE880A80ED080A3D4838
:100B800090ED000AF6EE000A20EE200AF3EE090AC4
:100B900020EE200A324880ED090A364890ED000A1E
:100BA000F6EE000A20EE200AF3EE090A20EE200AF3
:100BB0002B4880ED0A0A2F4890ED000AF6EE000A55
:100BC00020EE200AF3EE090A20EE200A244880EDE8
:100BD0000B0A90ED060AD0ED090AF1EE600AB4EEB8
:100BE000E00AF1EE10FA04D290ED090AB1EE400AE3
:100BF0000FE01B4890ED060AD0ED090AB4EEE00ABA
:100C0000F1EE10FA02DD90ED090A02E0144890EDD1
:100C1000060A134880ED060A90ED070AD0ED0A0A8D
:100C2000F1EE600AB4EEE00A26E0000000070020C2
:100C3000CDCC4C3EFC0900200000FA43880800207F
:100C40000800002000002042000016432000002081
:100C50001F85EB51B81E09409408002018000020A1
:100C6000C40700201C0000200AD7A33B6666263F6D
:100C70003333B33E0C000020F1EE10FA04D290EDB5
:100C80000A0AB1EE400A0FE0FC4890ED070AD0EDE9
:100C90000A0AB4EEE00AF1EE10FA02DD90ED0A0A5B
:100CA00002E0F64890ED070AF44880ED070A90ED5F
:100CB000080AD0ED0B0AF1EE600AB4EEE00AF1EE9C
:100CC00010FA04D290ED0B0AB1EE400A0FE0EB48A7
:100CD00090ED080AD0ED0B0AB4EEE00AF1EE10FA3E
:100CE00002DD90ED0B0A02E0E44890ED080AE348CB
:100CF00080ED080A90ED000ADFEDE10AB4EEE00AAB
:100D0000F1EE10FA02D29FEDDE0A0FE0DB4890ED23
:100D1000000ADFEDDC0AB4EEE00AF1EE10FA02DDC3
:100D20009FEDD80A02E0D54890ED000AD34880ED47
:100D3000000A90ED010ADFEDD20AB4EEE00AF1EE0E
:100D400010FA02D29FEDCE0A0FE0CC4890ED010AD6
:100D5000DFEDCC0AB4EEE00AF1EE10FA02DD9FED11
:100D6000C90A02E0C54890ED010AC44880ED010AB5
:100D700090ED020ADFEDC20AB4EEE00AF1EE10FADD
:100D800002D29FEDBF0A0FE0BC4890ED020ADFEDF2
:100D9000BD0AB4EEE00AF1EE10FA02DD9FEDB90AE9
:100DA00002E0B64890ED020AB44880ED020A90EDE8
:100DB000000AD0ED0C0A30EE200AD0ED060A30EE23
:100DC000200AD0ED150A20EE200A80ED120A90EDDF
:100DD000010AD0ED0D0A30EE200AD0ED070A30EE00
:100DE000200AD0ED190A20EE200A80ED130A90EDBA
:100DF000020AD0ED0E0A30EE200AD0ED080A30EEDD
:100E0000200AD0ED1D0A20EE200A80ED140A90ED94
:100E1000000A80ED030A90ED010A80ED040A90EDCE
:100E2000020A80ED050ABDEC0E8B10BD10B52DED4C
:100E3000048B8AB0F0EE408AB0EE609AB0EE418A40
:100E40009FED910AB4EEC08AF1EE10FA02D29FED46
:100E50008E0A0BE09FED8D0AB4EEC08AF1EE10FA17
:100E600002DD9FED8A0A01E0B0EE480AB0EE408A4A
:100E7000B1EE680A30EE090A30EE080A8DED040A78
:100E800038EE890A30EE480A8DED050A38EEC90AB7
:100E900030EE080A8DED060AB1EE680A30EE490A16
:100EA00030EE480A8DED070A002429E004A800EB83
:100EB000840090ED000ADFED760AB4EEE00AF1EE70
:100EC00010FA02D29FED720A13E004A800EB84002E
:100ED00090ED000ADFED6F0AB4EEE00AF1EE10FAD1
:100EE00002DD9FED6C0A04E004A800EB840090EDA5
:100EF000000A04A800EB840080ED000A601CC4B264
:100F0000042CD3DB9DED040AB5EEC00AF1EE10FA15
:100F100002DD9DED040A03E09DED040AB1EE400AF6
:100F2000DFED5D0A60EE200A9FED5A1A80EE810A1D
:100F3000DFED5A0A30EE200ADDED040A20EE200A29
:100F40008DED000A9DED050AB5EEC00AF1EE10FA2E
:100F500002DD9DED050A03E09DED050AB1EE400AB4
:100F6000DFED4D0A60EE200A9FED4A1A80EE810AFD
:100F7000DFED4A0A30EE200ADDED050A20EE200AF8
:100F80008DED010A9DED060AB5EEC00AF1EE10FAEC
:100F900002DD9DED060A03E09DED060AB1EE400A72
:100FA000DFED3D0A60EE200A9FED3A1A80EE810ADD
:100FB000DFED3A0A30EE200ADDED060A20EE200AC7
:100FC0008DED020A9DED070AB5EEC00AF1EE10FAAA
:100FD00002DD9DED070A03E09DED070AB1EE400A30
:100FE000DFED2D0A60EE200A9FED2A1A80EE810ABD
:100FF000DFED2A0A30EE200ADDED070A20EE200A96
:101000008DED030ADDED000A254890ED000A254824
:1010100090ED001A01EE200A234880ED000ADDED74
:10102000010A1F4890ED000A1E4890ED001A01EEDB
:10103000200A1D4880ED010ADDED020A184890EDF6
:10104000000A184890ED001A01EE200A164880EDBB
:10105000020ADDED030A124890ED000A114890EDF6
:10106000001A01EE200A104880ED030A0F480078AC
:1010700078B30F48007868BB002447E0C40700201D
:101080000000B4C20000B4420000C8C30000C8435E
:1010900000007AC400007A446666E63ECDCC0C3F80
:1010A000040000200C000020D4080020A40400202C
:1010B00008000020FE4800EB840090ED000ADFED00
:1010C000FD0AB4EEE00AF1EE10FA04D29FEDF90A3F
:1010D00015E04BE01DE0F64800EB840090ED000ABF
:1010E0005FED140AB4EEE00AF1EE10FA02DD1FED36
:1010F000170A04E0EE4800EB840090ED000AEC488B
:1011000000EB840080ED000A601CC4B2042CD1DB2B
:1011100039E0002427E0E64800EB840090ED000A67
:10112000B5EEC00AF1EE10FA02D29FEDE30A13E029
:10113000DF4800EB840090ED000A5FED2A0AB4EE70
:10114000E00AF1EE10FA02DD1FED2E0A04E0D848A5
:1011500000EB840090ED000AD54800EB840080EDA0
:10116000000A601CC4B2042CD5DB0CE0002408E0AB
:101170009FEDD10ACE4800EB840080ED000A601C90
:10118000C4B2042CF4DBCA4890ED000ABDEEC00ADC
:1011900010EE100A00B2ADF82000C54890ED010A2B
:1011A000BDEEC00A10EE100A00B2ADF82200C04831
:1011B00090ED020ABDEEC00A10EE100A00B2ADF8C2
:1011C0002400BB4890ED030ABDEEC00A10EE100AE1
:1011D00000B2ADF826004FF47A72002108A804F09E
:1011E000B4FE0AB0BDEC048B10BD10B52DED028B22
:1011F000B0EE408AB14890ED020ADFEDB10A30EE60
:10120000200AB04880ED000AD0ED000A1FED611AF7
:1012100080EE810AAC48D0ED000A70EE600A9FEDC6
:10122000AB0A28EE001A90ED000A01EE200A80EDCC
:10123000000A90ED000AB5EEC00AF1EE10FA02D2F3
:101240009FED9D0A0FE0A04890ED000AF7EE000A1E
:10125000B4EEE00AF1EE10FA02DDB7EE000A02E0A9
:10126000994890ED000A9A4880ED000A954890ED63
:10127000000ADFED980AB4EEE00AF1EE10FA03D2AC
:1012800001209549087002E00020934908709348B6
:101290000078012802D103F031FF05E08F48007883
:1012A000022801D103F03FFF8648D0ED000AB0EEDE
:1012B000480A03F099FC8A4890ED000A894880EDBD
:1012C000000A90ED000AB5EEC00AF1EE10FA02D263
:1012D0009FED790A0FE0834890ED000ADFED820A66
:1012E000B4EEE00AF1EE10FA02DD9FED7F0A02E0B3
:1012F0007C4890ED000A7B4880ED000ABDEC028B33
:1013000010BD00B52DED028B83B0B0EE408A77485A
:1013100090ED120AF3EE0E0A80EE201A9FED740A89
:1013200021EE000A8DED000AD0ED130AB3EE0E1A7D
:1013300080EE810ADFED6E0A20EE200A8DED010AB3
:1013400090ED140AF3EE0E0A80EE201A9FED680A63
:1013500021EE000A8DED020A9DED000A654880ED40
:10136000000A9DED010A80ED010A9DED020A80ED63
:10137000020A90ED000ADFED600AB4EEE00AF1EE39
:1013800010FA02D29FED5C0A0FE05A4890ED000A75
:10139000DFED570AB4EEE00AF1EE10FA02DD9FED40
:1013A000540A02E0534890ED000A524880ED000ACA
:1013B00090ED010ADFED500AB4EEE00AF1EE10FA0A
:1013C00002D29FED4D0A0FE04A4890ED010ADFED91
:1013D000480AB4EEE00AF1EE10FA02DD9FED440A8D
:1013E00002E0444890ED010A424880ED010A90ED88
:1013F000020ADFED410AB4EEE00AF1EE10FA02D281
:101400009FED3D0A0FE03B4890ED020ADFED380A00
:10141000B4EEE00AF1EE10FA02DD9FED350A02E0CB
:10142000344890ED020A334880ED020ADFED330ABA
:1014300080EE880A3248D0ED0A0A324890ED001A50
:1014400070EEC10A20EE200A2F4880ED0F0ADFED72
:101450002B0A80EE880A2A48D0ED0B0AF1EE600ACA
:10146000284890ED011A70EEC10A20EE200A2648A5
:1014700080ED100ADFED210A80EE880A2048D0EDC9
:101480000C0AF1EE600A1F4890ED021A70EEC10AD4
:1014900020EE200A1C4880ED110A164890ED000A43
:1014A0001748D0ED0A0A30EE600AF7EE000A2DE088
:1014B000D40800200000484300000000FC09002080
:1014C0000000FA4310000020140000203433FB41D8
:1014D0000C0000200000C84208000020A8040020E2
:1014E000C00400200400002000004844C40700207D
:1014F00000009643AC080020000096C36F12033B27
:10150000880B0020B80800200007002020EE200AE9
:10151000FE4880ED000AFE4890ED010AFD48D0ED3E
:101520000B0A30EE200AF7EE000A20EE200AF748F8
:1015300080ED010AF64890ED020AF648D0ED0C0A5B
:1015400030EE200AF7EE000A20EE200AEF4880ED88
:10155000020A90ED000AB5EEC00AF1EE10FA02DDC3
:1015600090ED000A04E0E94890ED000AB1EE400A6F
:101570005FED210A80EE201AE44880ED2D1A90EDEF
:10158000010AB5EEC00AF1EE10FA02DD90ED010A93
:1015900004E0DE4890ED010AB1EE400A5FED2C0A4E
:1015A00080EE201AD94880ED2E1A90ED020AB5EE91
:1015B000C00AF1EE10FA02DD90ED020A04E0D34811
:1015C00090ED020AB1EE400ADFEDD30A80EE201A58
:1015D000CE4880ED2F1A5FED370A80EE880AD0EDF5
:1015E000160A90ED0F1AFAEE041A21EE211A60EE97
:1015F000810A20EE200A80ED0C0A5FED400A80EEA1
:10160000880AD0ED1A0A90ED101AFAEE041A21EEAB
:10161000211A60EE810A20EE200A80ED0D0A5FEDAE
:10162000490A80EE880AD0ED1E0A90ED111AFAEEF2
:10163000041A21EE211A60EE810A20EE200A80EDC4
:101640000E0A90ED000AD0ED0F0A30EE600AD0EDE0
:10165000170A60EE200A90ED060A00EE880A80ED77
:10166000060A90ED010AD0ED100A30EE600AD0EDC6
:101670001B0A60EE200A90ED070A00EE880A80ED52
:10168000070A90ED020AD0ED110A30EE600AD0EDA3
:101690001F0A60EE200A90ED080A00EE880A80ED2D
:1016A000080A9E4890ED000AF6EE000A20EE200A95
:1016B0005FED710A20EE200A944880ED090A9748F0
:1016C00090ED000AF6EE000A20EE200A5FED780A9F
:1016D00020EE200A8D4880ED0A0A904890ED000A1D
:1016E000F6EE000A20EE200A5FED7F0A20EE200AC7
:1016F000864880ED0B0A90ED060AD0ED090AF1EE5E
:10170000600AB4EEE00AF1EE10FA04D290ED090A94
:10171000B1EE400A0FE07D4890ED060AD0ED090ACF
:10172000B4EEE00AF1EE10FA02DD90ED090A02E0F3
:10173000764890ED060A754880ED060A90ED070A96
:10174000D0ED0A0AF1EE600AB4EEE00AF1EE10FA0A
:1017500004D290ED0A0AB1EE400A0FE06B4890ED1A
:10176000070AD0ED0A0AB4EEE00AF1EE10FA02DD43
:1017700090ED0A0A02E0654890ED070A634880EDA3
:10178000070A90ED080AD0ED0B0AF1EE600AB4EEFC
:10179000E00AF1EE10FA04D290ED0B0AB1EE400A25
:1017A0000FE05A4890ED080AD0ED0B0AB4EEE00ABB
:1017B000F1EE10FA02DD90ED0B0A02E0534890EDD5
:1017C000080A524880ED080A90ED300AF7EE000A48
:1017D00030EEC00AD0ED150A20EE200AD0ED000A46
:1017E00090ED0C1A70EE810A90ED061A70EE810AE7
:1017F00060EE200A90ED301A4948D0ED2D1A9FED89
:10180000490A9FED492A02EE210AB5EEC00AF1EE1F
:1018100010FA02D21FEDD80A1BE04148D0ED2D1A74
:101820009FED400A9FED402A02EE210AF7EE001AD2
:10183000B4EEE10AF1EE10FA02DDB7EE000A08E0BC
:101840003748D0ED2D1A9FED370A9FED372A02EE6B
:10185000210A21EE000A2E4890ED001A40EE010AFE
:10186000B0EE080A20EE800A284880ED120A90EDBA
:10187000300AF7EE000A30EEC00AD0ED190A20EE69
:10188000200AD0ED010A90ED0D1A70EE810A90ED5C
:10189000071A70EE810A60EE200A90ED301A204897
:1018A000D0ED2E1A9FED1F0A9FED1F2A02EE210A8E
:1018B000B5EEC00AF1EE10FA02D29FED1C0A1BE051
:1018C0001748D0ED2E1A9FED170A9FED172A02EE4A
:1018D000210AF7EE001AB4EEE10AF1EE10FA02DD89
:1018E000B7EE000A08E00E48D0ED2E1A9FED0D0A63
:1018F0009FED0D2A02EE210A21EE000A044890ED28
:10190000011A40EE010AB0EE080A11E000070020BB
:10191000AC080020880B0020000016430C000020BB
:10192000C40700206666E63ECDCC0C3F00000000F8
:1019300020EE800A474880ED130A90ED300AF7EE5A
:10194000000A30EEC00AD0ED1D0A20EE200AD0EDCC
:10195000020A90ED0E1A70EE810A90ED081A70EEF0
:10196000810A60EE200A90ED301A3B48D0ED2F1A24
:101970001FED140A1FED142A02EE210AB5EEC00A6B
:10198000F1EE10FA02D21FED170A1BE03248D0ED3B
:101990002F1A1FED1C0A1FED1C2A02EE210AF7EE7A
:1019A000001AB4EEE10AF1EE10FA02DDB7EE000A19
:1019B00008E02948D0ED2F1A1FED260A1FED262A30
:1019C00002EE210A21EE000A244890ED021A40EEB0
:1019D000010AB0EE080A20EE800A1E4880ED140AC3
:1019E000B0EE480AFFF701FC1A48D0ED141AB0EE29
:1019F000611AD0ED131AF0EE610AD0ED121AB0EEB2
:101A0000610AFFF713FA134890ED000A80ED030A0C
:101A100090ED010A80ED040A90ED020A80ED050ABE
:101A20000F4890ED0A0A0F4880ED000A0C4890ED2F
:101A30000B0AB1EE400A0B4880ED010A084890ED10
:101A40000C0AB1EE400A074880ED020A03B0BDEC73
:101A5000028B00BD00070020C4070020AC08002056
:101A6000880B0020B808002070B52DED108BB0EE6B
:101A7000408AB0EE60EAF0EE41EAB0EE61FAF0EED4
:101A8000429AB0EE629AF0EE438A04460D4616463C
:101A90009FEDFB0A28EE000AF3EE040A20EE200A6E
:101AA000F0EE40AAF748D0ED080A60EEA00A90EDEB
:101AB000091AD0ED091A41EE210A90ED0A1AD0ED6B
:101AC0000A1A41EE210AB0EE600A00F006FDEE4867
:101AD00080ED000A90ED000AB5EEC00AF1EE10FAB2
:101AE00038D0E84890ED080AE748D0ED000A80EECB
:101AF000201AE64890ED000A71EE400A90ED000AC7
:101B00000AEEA00A80ED000ADE4890ED090ADE48E0
:101B1000D0ED000A80EE201ADC4890ED010A71EE4B
:101B2000400A90ED010A0AEEA00A80ED010AD548AC
:101B3000D0ED0A0AD44890ED001A80EE810AD3480D
:101B4000D0ED020A70EE600A90ED020A0AEEA00AD9
:101B500080ED020ACE4ACD49CE4802F04EFFCC4875
:101B6000D0ED000A60EEA00A90ED011AD0ED011A46
:101B700041EE210AB0EE600A00F0AFFCC64880EDED
:101B8000000AC34890ED000AB5EEC00AF1EE10FA63
:101B900036D090ED010AB5EEC00AF1EE10FA2FD062
:101BA00090ED020AB5EEC00AF1EE10FA28D0BA485C
:101BB00090ED000AB5EEC00AF1EE10FA20D0B4485C
:101BC00090ED000AB448D0ED000A80EE201AB0EE85
:101BD00041BAAF4890ED010AAF48D0ED000A80EE5F
:101BE000201AF0EE41BAF0EE4B0AB0EE6B0A00F0AC
:101BF000B4FBDFEDAA0A20EE200AA94880ED000A16
:101C0000A84890ED010AD0ED030A20EE200AD0ED9D
:101C1000000A90ED021A00EEC10AF0EE000A20EE72
:101C2000200A9C4880ED000A9E4890ED000AD0ED05
:101C3000010A20EE200AD0ED020A90ED031A00EE10
:101C4000810AF0EE000A20EE200A924880ED010A97
:101C5000944890ED010A20EE000AD0ED020A90EDC2
:101C6000021A00EE810AF7EE000AB0EE001A41EE09
:101C7000400A8848C0ED020A69EEA90A49EE090A3D
:101C800048EEA80AB0EE600A00F027FC864880ED16
:101C9000000A9FED7B0A28EE000AF2EE040A60EECD
:101CA000200A90ED000A814890ED001A30EE411AAA
:101CB00090ED000A00EE810A80ED000AF5EEC09A70
:101CC000F1EE10FA02DDB0EE690A01E0B1EE690A48
:101CD000DFED770AB4EEE00AF1EE10FA7DD2B5EE50
:101CE000C09AF1EE10FA02DDB0EE490A01E0B1EE61
:101CF000490ADFED6F0AB4EEE00AF1EE10FA78D28D
:101D0000F5EEC08AF1EE10FA02DDB0EE680A01E0ED
:101D1000B1EE680ADFED660AB4EEE00AF1EE10FA01
:101D200067D2614890ED000AC9EE800AF0EE609A31
:101D300090ED000AC9EE000AB0EE609A90ED000A3C
:101D4000C8EE800AF0EE608A90ED000ADFED590AD5
:101D5000B4EEE00AF1EE10FA54DD90ED000ADFED8A
:101D6000540AB4EEE00AF1EE10FA4BD2494890ED75
:101D7000020A20EE090AD0ED010A08EEE00A4E48F8
:101D800080ED030A434890ED000A20EE280AD0EDCA
:101D9000020A09EEE00A484880ED040A9FED380A7D
:101DA00028EE000AF7EE000A20EE20AA90ED030AC2
:101DB000D0ED060A70EE600A90ED060A0AEE200ADF
:101DC00080ED060A90ED040AD0ED070A70EE600A75
:101DD00090ED070A0AEE200A00E00AE080ED070A0B
:101DE00090ED060A80ED000A90ED070A80ED010AE9
:101DF00008E09FED320A304880ED000A9FED2F0A7F
:101E000080ED010A2C4890ED090AD0ED000A9FED03
:101E10002C1A60EE810AB0EE001A60EE810A00EE24
:101E2000880A80ED090A90ED0A0AD0ED010A9FEDBB
:101E3000241A60EE810AB0EE001A60EE810A00EE0C
:101E4000880A80ED0A0A90ED0B0AD0ED020A9FED98
:101E50001C1A60EE810AB0EE001A60EE810A00EEF4
:101E6000880A80ED0B0A90ED090ADFED160AB4EE40
:101E7000E00AF1EE10FA27D29FED120A34E00000DA
:101E8000C3F5C84058050020440000205809002030
:101E90004C09002004090020400000203333654233
:101EA0004C00002024000020340000203C000020D2
:101EB0000080894500806D45100900200000000069
:101EC000CDCCCC3D34FA0EBDFE4890ED090ADFEDD5
:101ED000FE0AB4EEE00AF1EE10FA02DD9FEDFA0A16
:101EE00002E0F84890ED090AF64880ED090A90ED05
:101EF0000A0A5FED0C0AB4EEE00AF1EE10FA02D223
:101F00001FED100A0FE0EF4890ED0A0ADFEDEE0A30
:101F1000B4EEE00AF1EE10FA02DD9FEDEB0A02E00A
:101F2000E84890ED0A0AE74880ED0A0A90ED0B0AAE
:101F30005FED1C0AB4EEE00AF1EE10FA02D21FEDDA
:101F40001F0A0FE0DF4890ED0B0ADFEDDF0AB4EE69
:101F5000E00AF1EE10FA02DD9FEDDB0A02E0D9485B
:101F600090ED0B0AD74880ED0B0AD84890ED020A95
:101F7000B5EEC00AF1EE10FA29DDD548007898B127
:101F8000D448D0ED000AD44890ED001A70EEC10A92
:101F9000B0EE600A00F03CFCDFEDD00A20EE200A33
:101FA000CF4880ED000A12E0CA48D0ED000ACA48C6
:101FB00090ED001A70EEC10AB0EE600A00F028FC45
:101FC000DFEDC80A20EE200AC54880ED000ABD48B2
:101FD00090ED000AD0ED090A30EE200ADFEDC20ACA
:101FE00020EE200AB94890ED001ABD48D0ED001A45
:101FF000F0EE4E0A41EE610A9FEDBC1A00EE810A36
:10200000B04880ED0C0A90ED010AD0ED0A0A30EEDE
:10201000200ADFEDB50A20EE200AAC4890ED011A47
:10202000AF48D0ED001AF0EE6E0A41EE610A9FED66
:10203000AF1A00EE810AA34880ED0D0AA348D0ED47
:10204000020AA74890ED001AB0EE4F0A00EEC10A4E
:10205000DFEDA60A20EE200A9A4880ED0E0AA44879
:1020600090ED010AB1EE400A9648D0ED0C0A20EE40
:10207000200A9F48D0ED020A924890ED0D1A00EE1A
:10208000C10A9B48D0ED030A8E4890ED0E1A00EE6F
:10209000C10A9748D0ED000A40EE080AC0ED000AD8
:1020A00090ED000A8748D0ED0C0A20EE200A9048F7
:1020B000D0ED020A834890ED0E1A00EE810A8C489A
:1020C000D0ED030A7F4890ED0D1A00EEC10A884852
:1020D000D0ED010A40EE080AC0ED010A90ED000AB9
:1020E0007848D0ED0D0A20EE200A8148D0ED010A93
:1020F000744890ED0E1A00EEC10A7D48D0ED030A37
:10210000704890ED0C1A00EE810A7948D0ED020A71
:1021100040EE080AC0ED020A90ED000A6948D0EDD1
:102120000E0A20EE200A7248D0ED010A654890EDB3
:102130000D1A00EE810A6E48D0ED020A614890ED5A
:102140000C1A00EEC10A6A48D0ED030A40EE080AF4
:10215000C0ED030AD0ED000A60EEA00A90ED011A6E
:10216000D0ED011A41EE210A90ED021AD0ED021ACB
:1021700041EE210A90ED031AD0ED031A41EE210A37
:10218000B0EE600A00F0A9F95A4880ED000A5848FC
:1021900090ED000A5748D0ED000A80EE201A54480E
:1021A00080ED001A90ED010A5248D0ED000A80EE51
:1021B000201A4F4880ED011A90ED020A4D48D0EDEB
:1021C000000A80EE201A4A4880ED021A90ED030AB8
:1021D0004848D0ED000A80EE201A454880ED031AE9
:1021E00090ED011A21EE011AD0ED021A90ED022AAB
:1021F00001EE821AF7EE001AB0EE002A42EE411A02
:10220000F0EE610A90ED001AD0ED011A21EE211ACC
:10221000D0ED021A90ED032A01EE821AF0EE001AB8
:1022200021EE211AB0EE410A00F097F85FEDE50AC1
:1022300020EE200A84ED000A2D4890ED010AD0ED31
:10224000030A20EE200AD0ED000A90ED021A00EEFB
:10225000C10AF0EE000A20EE200A10EE101A08461D
:102260000BF088F841EC1D0BB0EE4D0AF0EE6D0A54
:102270000BF0BAFAB0EE40CAF0EE60CA9FED1E0B4A
:1022800053EC102B51EC1C0B0AF0F1FF41EC1B0B33
:102290000BF0B4F82860164890ED001A21EE011AF0
:1022A000D0ED011A90ED012A01EE821AF7EE001A24
:1022B000B0EE002A52EE011AF0EE610A90ED011A1A
:1022C0001EE000001009002034FA0E3D0409002031
:1022D000A40400204C0000202000002090C2F53D06
:1022E000480000206766663F9A99193F34FA8E3C91
:1022F00024000020380000200000006066A64C404A
:10230000B1EE411AD0ED021A21EE211AD0ED001AD9
:1023100090ED032A01EEC21AF0EE001A21EE211A06
:10232000B0EE410A00F019F8DFED040A20EE200AB1
:1023300086ED000ABDEC108B70BD000033336542A2
:10234000F0EE400AF5EEC00AF1EE10FA02DBB0EE54
:10235000600A7047B1EE600AFBE700B5B0EE403AA4
:10236000B0EE602AB5EEC03AF1EE10FA07D1B5EE44
:10237000C02AF1EE10FA02D19FEDFD1A99E0B0EEFD
:10238000430AFFF7DDFFF0EE403AB0EE420AFFF7F6
:10239000D7FFF0EE402AF4EEE23AF1EE10FA02D264
:1023A00083EEA24A01E082EEA34A9FEDF20AB4EE68
:1023B000C04AF1EE10FA02D2F0EE441A2DE0DFED41
:1023C000EE0AB6EE000A14EE200AF0EE404ABDEE28
:1023D000E40A10EE100A00EE100AB8EEC00A34EE5D
:1023E000C00AF0EE404AE54901EB800191ED000A98
:1023F000F0EE401AE14A411C02EB810191ED000A26
:10240000114601EB8001D1ED000A70EE600AB0EEDA
:10241000610A00EEA40AF0EE401AF4EEE32AF1EEAF
:1024200010FA20DDB5EEC02AF1EE10FA0ADBB5EEA7
:10243000C03AF1EE10FA02DBB0EE611A39E0B1EE0B
:10244000611A36E09FEDCE1AB5EEC03AF1EE10FA01
:1024500004DB31EE610AB0EE401A2AE031EEC10A27
:10246000B0EE401A25E0B5EEC03AF1EE10FA10DBFE
:102470009FEDC41AB5EEC02AF1EE10FA04DB31EE7E
:10248000610AB0EE401A14E031EE210AB0EE401AB3
:102490000FE09FEDBD1AB5EEC02AF1EE10FA04DB95
:1024A00031EE210AB0EE401A03E031EE610AB0EEDF
:1024B000401AB0EE410A00BD00B5B0EE405AF0EE51
:1024C000605AF0EE450AB0EE650AFFF746FF00BD20
:1024D000F0EE400A20EEA00A7047B0EE401AB7EEC8
:1024E000080AB0EE402AB6EE000A21EE000AF0EE2D
:1024F000401AF0EE410A10EE900AA449A1EB6000E8
:1025000000EE900A61EEA02AB7EE080A02EEE00A99
:1025100020EE200AF0EE400A61EEA02AB7EE080A8B
:1025200002EEE00A20EE200AF0EE400A21EE200A38
:10253000704710B52DED0A8BB0EE409AF0EE609A20
:102540009FED930B53EC102B51EC190B0AF026FF67
:1025500018D29FED910B53EC102B51EC190B0AF094
:1025600086FE41EC1B0B9FED8E0B53EC102B0AF0FB
:10257000D7FD41EC1A0B53EC192B0AF078FE41EC15
:10258000180B17E09FED840B53EC102B51EC190B3B
:102590000AF06DFE41EC1B0B9FED810B53EC102BF1
:1025A0000AF062FE41EC1A0B53EC192B0AF05FFEA5
:1025B00041EC180B9FED760B53EC102B51EC180BE4
:1025C0000AF0ECFE20D29FED780B53EC102B51EC6F
:1025D000180B0AF0A5FD41EC1C0B9FED750B53EC9D
:1025E000102B0AF044FE41EC1B0B9FED6F0B53ECDC
:1025F000102B0AF095FD41EC1A0B53EC182B0AF046
:1026000036FE41EC180B1FE09FED670B53EC102BCF
:1026100051EC180B0AF025FE41EC1C0B9FED660BEC
:1026200053EC102B0AF023FE41EC1B0B9FED5E0BCD
:1026300053EC102B0AF074FD41EC1A0B53EC182BE1
:102640000AF015FE41EC180BB0EE480AF0EE680AED
:10265000BDEC0A8B10BD10B52DED068BB0EE408A97
:10266000F0EE608A01249FED560B53EC102B51ECD9
:10267000180B0AF0ABFE0AD89FED510B53EC102B50
:1026800051EC180B0AF0EDFD41EC180BA41E20468E
:102690000AF05FFE41EC190BB0EE480AF0EE680A52
:1026A000FFF747FFB0EE40AAF0EE60AA53EC192BFB
:1026B00051EC1A0B0AF0DBFD41EC100BBDEC068B64
:1026C00010BD10B52DED088BB0EE408AF0EE608A9B
:1026D00001249FED3D0B53EC102B51EC180B0AF02D
:1026E0001FFD41EC180B9FED360B53EC102B51ECFA
:1026F000180B0AF06BFE0AD8A41E9FED310B53ECA9
:10270000102B51EC180B0AF0ACFD41EC180B2046D5
:102710000AF01FFE41EC1A0BB0EE480AF0EE680A10
:10272000FFF799FFB0EE40BAF0EE60BA53EC1A2B07
:1027300051EC1B0B0AF09BFD41EC190B0AF05EFEFD
:1027400000EE100ABDEC088B10BDB0EE401AB5EEDD
:10275000C01AF1EE10FA3BDD31EE600AB5EEC00AA8
:10276000F1EE10FA3FD2DFED021AB0EE610A3AE064
:10277000000000008180803B00008043500000206A
:10278000DB0F4940DB0FC93FDB0FC9BFDF59375FA4
:102790000000000000000000000000602FF0D93FA2
:1027A00000000060305FF43F000000000000F03FD8
:1027B000000000C0CCCCCCBF000000C0CCCCCC3FD3
:1027C000F1D4C853FB210940F1D4C853FB21F93F90
:1027D00031EE200AB5EEC00AF1EE10FA03DD5FED2E
:1027E0001C1AB0EE610A7047B0EE401AF1EE601AA2
:1027F000B4EEE11AF1EE10FA07DDB4EEE01AF1EEF4
:1028000010FA02D21FED260A01E0B0EE410A70472D
:10281000F0EE400A9FED210AF4EEC00AF1EE10FA44
:1028200004DD9FED1F0A30EEC00A70479FED1D0AC0
:10283000F4EEC00AF1EE10FA04D29FED190A30EE60
:10284000800AF2E7B0EE600AEFE7F0EE401AB7EE6A
:10285000000AF4EEC00AF1EE10FA04DCF5EEC00A4C
:10286000F1EE10FA02D21FED3E0A704781EE810AA6
:10287000B5EEC00AF1EE10FA02DD81EE810A03E046
:1028800081EE810AB1EE400A20EE202AB7EE000A5E
:1028900030EE600A02EE210AE7E700000000344350
:1028A0000000B443000034C370B505460C46214611
:1028B000F84804F0D0FC70BD2DE9F0432DED028BFB
:1028C00083B005460E4617469846B0EE408A00246F
:1028D000AA222146641CEF4842542146641C4254FB
:1028E00004222146641C425400222146641C4254A6
:1028F0002146641C45542146641C465401979DF8AA
:1029000007202146641C42549DF806202046611C85
:10291000CCB2E0490A549DF805202046611CCCB297
:10292000DC490A549DF804202046611CCCB2D949E8
:102930000A54CDF804809DF807202046611CCCB2D3
:10294000D4490A549DF806202046611CCCB2D149D6
:102950000A549DF805202046611CCCB2CD490A548A
:102960009DF804202046611CCCB2CA490A549FED50
:10297000CA0A28EE000ABDEEC00A10EE100A00B224
:1029800002909DF809202046611CCCB2C1490A542E
:102990009DF808202046611CCCB2BE490A54201F75
:1029A000C8704FF00009002006E0BA49095C4944AC
:1029B00001F0FF09411CC8B2A042F6DB2046611CB1
:1029C000CCB2B44901F800902146B248FFF76CFF41
:1029D00003B0BDEC028BBDE8F08370B52DED0A8B22
:1029E00082B00546B0EE408AF0EE608AB0EE419AC1
:1029F000F0EE619AB0EE42AAF0EE62AAB0EE43BAEF
:102A0000F0EE63BAB0EE44CA0024AA222146641C48
:102A1000A04842542146641C425405F10F00C2B242
:102A20002146641C9B48425400222146641C4254A7
:102A30009FED9A0A28EE000ABDEEC00A10EE100AB9
:102A400000B201909DF805202146641C9148425433
:102A50009DF804202146641C42549FED900A28EE04
:102A6000800ABDEEC00A10EE100A00B201909DF877
:102A700005202146641C874842549DF804202046C6
:102A8000611CCCB283490A549FED840A29EE000AE6
:102A9000BDEEC00A10EE100A00B201909DF80520AC
:102AA0002046611CCCB27B490A549DF80420204684
:102AB000611CCCB277490A549FED780A29EE800A4E
:102AC000BDEEC00A10EE100A00B201909DF805207C
:102AD0002046611CCCB26F490A549DF80420204660
:102AE000611CCCB26B490A549FED6C0A2AEE000AB5
:102AF000BDEEC00A10EE100A00B201909DF805204C
:102B00002046611CCCB263490A549DF8042020463B
:102B1000611CCCB25F490A549FED600A2AEE800A1C
:102B2000BDEEC00A10EE100A00B201909DF805201B
:102B30002046611CCCB257490A549DF80420204617
:102B4000611CCCB253490A549FED540A2BEE000A83
:102B5000BDEEC00A10EE100A00B201909DF80520EB
:102B60002046611CCCB24B490A549DF804202046F3
:102B7000611CCCB247490A549FED480A2BEE800AEB
:102B8000BDEEC00A10EE100A00B201909DF80520BB
:102B90002046611CCCB23F490A549DF804202046CF
:102BA000611CCCB23B490A549FED3C0A2CEE000A52
:102BB000BDEEC00A10EE100A00B201909DF805208B
:102BC0002046611CCCB233490A549DF804202046AB
:102BD000611CCCB22F490A54201FC8700026002067
:102BE00005E02C49095C3144CEB2411CC8B2A04278
:102BF000F7DB2046611CCCB226490E5421462548FD
:102C0000FFF752FE02B0BDEC0A8B70BDF8B5054669
:102C10000E460024AA222146641C1E484254214626
:102C2000641C425405222146641C42540022214661
:102C3000641C425400959DF801202146641C4254B6
:102C40009DF800202146641C425400969DF8012006
:102C50002146641C42549DF800202146601CC4B2E9
:102C60000C484254201F0B49C8700027002005E083
:102C70000849095C3944CFB2411CC8B2A042F7DB15
:102C80002046611CCCB203490F5421460148FFF78E
:102C90000BFEF8BD750900200000C84200007A4410
:102CA0007FB50024AA222146641CFE4842542146D6
:102CB000641C425406222146641C425400222146D0
:102CC000641C42549DF801202146641C42549DF826
:102CD00000202146641C42549DF805202146641CB6
:102CE00042549DF804202046611CCCB2ED490A54A0
:102CF0009DF809202046611CCCB2EA490A549DF88F
:102D000008202046611CCCB2E6490A549DF80D20EB
:102D10002046611CCCB2E3490A549DF80C202146A0
:102D2000601CC4B2DF4842549DF821202046611C3B
:102D3000CCB2DC490A549DF820202046611CCCB25C
:102D4000D8490A549DF825202046611CCCB2D549AB
:102D50000A549DF824202046611CCCB2D1490A5463
:102D60009DF829202046611CCCB2CE490A549DF81A
:102D700028202046611CCCB2CA490A549DF82D2057
:102D80002046611CCCB2C7490A549DF82C2020462D
:102D9000611CCCB2C3490A54201FC8700025002012
:102DA00005E0C049095C2944CDB2411CC8B2A0422B
:102DB000F7DB2046611CCCB2BA490D542146B94814
:102DC000FFF772FD7FBD7FB50024AA222146641C57
:102DD000B44842542146641C425403222146641CD8
:102DE000425400222146641C42549DF80120214691
:102DF000641C42549DF800202146641C42549DF8F6
:102E000005202146641C42549DF804202046611C84
:102E1000CCB2A4490A549DF809202046611CCCB2CA
:102E2000A0490A549DF808202046611CCCB29D4957
:102E30000A549DF80D202046611CCCB299490A54D1
:102E40009DF80C202046611CCCB296490A549DF88E
:102E500021202046611CCCB292490A549DF82020C2
:102E60002146601CC4B28F4842549DF8252020465C
:102E7000611CCCB28B490A549DF824202046611C69
:102E8000CCB288490A549DF829202046611CCCB256
:102E900084490A549DF828202046611CCCB28149FF
:102EA0000A549DF82D202046611CCCB27D490A545D
:102EB0009DF82C202046611CCCB27A490A549DF81A
:102EC00031202046611CCCB276490A549DF830204E
:102ED0002046611CCCB273490A549DF83520204627
:102EE000611CCCB26F490A549DF834202046611C05
:102EF000CCB26C490A54201FC8700025002005E0A0
:102F00006849095C2944CDB2411CC8B2A042F7DB34
:102F10002046611CCCB263490D5421466148FFF73D
:102F2000C3FC7FBD73B50024AA222146641C5D4802
:102F300042542146641C425407222146641C4254D8
:102F400000222146641C42549DF803202146641C43
:102F500042549DF802202146641C42549DF80120F1
:102F60002146641C42549DF800202046611CCCB2CE
:102F70004C490A549DF805202046611CCCB24949B1
:102F80000A549DF804202046611CCCB245490A54DD
:102F9000201FC8700025002005E04249095C294433
:102FA000CDB2411CC8B2A042F7DB2046611CCCB2B6
:102FB0003C490D5421463B48FFF776FC7CBD2DE98A
:102FC000F84F05460E4617469846DDE90AAB002441
:102FD000AA222146641C334842542146641C4254B0
:102FE00002222146641C425400222146641C4254A1
:102FF00000959DF801202146641C42549DF8002054
:103000002146641C425400969DF801202146641C10
:1030100042549DF800202146601CC4B2214842540D
:1030200000979DF801202046611CCCB21D490A542E
:103030009DF800202046611CCCB21A490A54CDF8F4
:1030400000809DF801202046611CCCB215490A542D
:103050009DF800202046611CCCB212490A54CDF8DC
:1030600000A09DF801202046611CCCB20D490A54F5
:103070009DF800202046611CCCB20A490A54CDF8C4
:1030800000B09DF801202146601CC4B2054842549E
:103090009DF800202146601CC4B2024842540C989E
:1030A000009001E0750900209DF801202046611C78
:1030B000CCB2F8490A549DF800202046611CCCB2DD
:1030C000F4490A540D9800909DF801202046611C97
:1030D000CCB2F0490A549DF800202046611CCCB2C5
:1030E000EC490A540E9800909DF801202046611C7E
:1030F000CCB2E8490A549DF800202046611CCCB2AD
:10310000E4490A54002000909DF801202046611CEB
:10311000CCB2E0490A549DF800202046611CCCB294
:10312000DC490A54201FC8704FF00009002006E057
:10313000D849095C494401F0FF09411CC8B2A042CA
:10314000F6DB2046611CCCB2D24901F80090214642
:10315000D048FFF7A9FBBDE8F88F38B50024AA22B4
:103160002146641CCB4842542146641C4254F1223F
:103170002146641C425400222146641C4254002013
:1031800000909DF801202146641CC24842549DF8DD
:1031900000202146641C4254BF4890ED000ABDEE59
:1031A000C00A10EE100A00B200909DF801202146DE
:1031B000641CB84842549DF800202046611CCCB2E3
:1031C000B4490A54B44890ED000ABDEEC00A10EEAE
:1031D000100A00B200909DF801202046611CCCB27C
:1031E000AC490A549DF800202046611CCCB2A94984
:1031F0000A54002000909DF801202046611CCCB2AA
:10320000A4490A549DF800202046611CCCB2A14973
:103210000A54002000909DF801202046611CCCB289
:103220009C490A549DF800202046611CCCB2994963
:103230000A54201FC8700025002005E09549095C4C
:103240002944CDB2411CC8B2A042F7DB2046611C24
:10325000CCB290490D5421468E48FFF725FB38BD6E
:1032600030B52DED048B81B0B0EE408AF0EE608A6F
:10327000B0EE419A0024AA222146641C854842549B
:103280002146641C42540B222146641C42540022F5
:103290002146641C42549FED810A28EE000ABDEECF
:1032A000C00A10EE100A00B200909DF801202146DD
:1032B000641C784842549DF800202146641C425406
:1032C0009FED760A28EE800ABDEEC00A10EE100AC5
:1032D00000B200909DF801202146641C6D484254C4
:1032E0009DF800202046611CCCB26A490A549FED2B
:1032F0006B0A29EE000ABDEEC00A10EE100A00B2F9
:1033000000909DF801202046611CCCB261490A540E
:103310009DF800202046611CCCB25E490A54201F53
:10332000C8700025002005E05A49095C2944CDB247
:10333000411CC8B2A042F7DB2046611CCCB2554903
:103340000D5421465348FFF7AFFA01B0BDEC048B92
:1033500030BD2DE9F0432DED048B83B0B0EE408AF3
:10336000F0EE608AB0EE419A05460E461746984642
:1033700000240196AA222146641C46484254214654
:10338000641C425401222146641C425400222146FE
:10339000641C42549FED420A28EE000ABDEEC00AAA
:1033A00010EE100A00B202909DF809202146641C1C
:1033B000384842549DF808202146641C42549FED31
:1033C000380A28EE800ABDEEC00A10EE100A00B2DC
:1033D00002909DF809202146641C2E4842549DF815
:1033E00008202046611CCCB22A490A549FED2C0AC1
:1033F00029EE000ABDEEC00A10EE100A00B20290DB
:103400009DF809202046611CCCB222490A549DF83F
:1034100008202046611CCCB21E490A5402959DF832
:1034200009202046611CCCB21A490A549DF8082094
:103430002046611CCCB217490A549DF8072020464B
:10344000611CCCB213490A549DF806202046611C29
:10345000CCB210490A549DF805202046611CCCB21C
:103460000C490A549DF804202046611CCCB209493D
:103470000A542046611CCCB206490F542046611CF8
:10348000CCB2044901F80080201FC8704FF0000939
:1034900000200EE075090020DC040020CDCCCC3DDE
:1034A0000000C842FC49095C494401F0FF09411C85
:1034B000C8B2A042F6DB2046611CCCB2F64901F846
:1034C00000902146F448FFF7EFF903B0BDEC048B00
:1034D000BDE8F0837FB505460024AA222146641C7E
:1034E000ED4842542146641C425400222146641C8B
:1034F00042542146641C42542146641C45549DF8A4
:1035000005202146641C42549DF804202146641C79
:1035100042549DF809202046611CCCB2DE490A5471
:103520009DF808202046611CCCB2DB490A549DF866
:103530000D202046611CCCB2D7490A549DF80C20BE
:103540002046611CCCB2D4490A549DF82120204663
:10355000611CCCB2D0490A549DF820202046611C41
:10356000CCB2CD490A54201FC8700026002005E0C7
:10357000C949095C3144CEB2411CC8B2A042F7DB54
:103580002046611CCCB2C4490E542146C248FFF704
:103590008BF97FBD10B586B0C0480078C049097866
:1035A00090FBF1F201FB1201BD480078401E814200
:1035B00002D10120BB498870B8480078BA4909781F
:1035C00090FBF1F201FB1201B7480078401E8142E6
:1035D00002D10120B349C870B0480078B3490978D6
:1035E00090FBF1F201FB1201B0480078801E81428D
:1035F00002D10120AB498873A8480078AC4909780A
:1036000090FBF1F201FB1201A9480078401E8142B3
:1036100002D10120A3494870A0480078A549097843
:1036200090FBF1F201FB1201A2480078401E81429A
:1036300002D101209B498872984800789E490978F8
:1036400090FBF1F201FB12019B480078801E814241
:1036500002D101209349087390480078974909786E
:1036600090FBF1F201FB120194480078801E814228
:1036700002D101208B494873884800789049097825
:1036800090FBF1F201FB12018D480078C01E8142CF
:1036900002D101208349C87380480078894909789C
:1036A00090FBF1F201FB120186480078C01E8142B6
:1036B00004D17C48007C401C7A4908747748007823
:1036C000401CC0B275490870C82801DD0020087090
:1036D0007448007860B10020724908704FF4C873D4
:1036E00064224FF4967100900420FFF7F3FE07E286
:1036F0006C484078B8B100206A49487072488188A7
:1037000072480378724802787248008800B2724C9E
:1037100094ED001A714CD4ED000A714C94ED000A3E
:10372000FFF717FEECE15F48C07B60B100205D4908
:10373000C8736C4890ED001ADFED6B0A9FED6A0AC2
:10374000FFF78EFDDCE15748807B28B1002055490A
:103750008873FFF702FDD3E152488078E8B3002078
:1037600050498870614890ED0A0ABDEEC00A10EE1B
:10377000100A02B25D4890ED090ABDEEC00A10EED3
:10378000100A00B2594991ED080ABDEEC00A10EEC8
:10379000101A09B2564B93ED090ABDEEC00A10EE9D
:1037A000103A1BB2CDE90131CDE90302504890ED4A
:1037B000080ABDEEC00A10EE100A00B24C4C009090
:1037C00094ED070ABDEEC00A10EE104A23B2484C31
:1037D00094ED060ABDEEC00A00E015E010EE104AB6
:1037E00022B2434C94ED050ABDEEC00A10EE104A19
:1037F00021B23F4C94ED040ABDEEC00A10EE104A0F
:1038000020B2FFF7DCFB7BE12648C07848B10020FE
:103810002449C8702C4988882E490988FFF782FB03
:103820006EE12048807AA8B300201E49887240F2D9
:10383000DC523048C08900F2DC5080B22D498989C1
:1038400001F2DC5189B2CDE903022A4805920291C6
:10385000408900F2DC5080B22649098901F2DC512E
:1038600089B2244CCDE90010648804F2DC54A3B280
:10387000204C248804F2DC54A2B21E4CE48804F2EA
:10388000DC54A1B21B4CA48804F2DC54A0B2FFF7B4
:103890009AFA35E130E00000750900205604002056
:1038A0005704002064090020580400205904002017
:1038B0005A0400205B0400205C0400205D0400200A
:1038C0005E0400205F040020780B0020A404002088
:1038D000A9040020AC050020200000201C000020CE
:1038E00018000020DC040020000000005805002023
:1038F000880B0020EC090020FE48007B48B3002024
:10390000FC490873009001900290FB4C039094EDE9
:10391000030ABCEEC00A10EE104AA3B2F64C94EDB6
:10392000020ABCEEC00A10EE104AA2B2F24C94EDAC
:10393000010ABCEEC00A10EE104AA1B2EE4C94EDA2
:10394000000ABCEEC00A10EE104AA0B2FFF7A8F9B8
:10395000D6E0E848407B40B10020E64948734FF488
:10396000E4717B20FFF752F9CAE0E248007958B3CE
:103970000020E0490871E148D0ED1E4AB0EE644AEB
:10398000D0ED1F4AF0EE643AD0ED1D4AB0EE643A35
:10399000D0ED1A4AF0EE642AD0ED1B4AB0EE642A4C
:1039A000D0ED194AF0EE641AD0ED164AB0EE641A62
:1039B000D0ED174AF0EE640AD0ED154AB0EE640A75
:1039C0000120FFF70AF89BE0CA48407958B300206D
:1039D000C8494871CA48D0ED1E4AB0EE644AD0EDDD
:1039E0001F4AF0EE643AD0ED1D4AB0EE643AD0EDD5
:1039F0001A4AF0EE642AD0ED1B4AB0EE642AD0EDEC
:103A0000194AF0EE641AD0ED164AB0EE641AD0ED01
:103A1000174AF0EE640AD0ED154AB0EE640A0220AF
:103A2000FEF7DBFF6CE0B348807958B30020B14962
:103A30008871B448D0ED214AB0EE644AD0ED224AF4
:103A4000F0EE643AD0ED204AB0EE643AD0ED1D4A73
:103A5000F0EE642AD0ED1E4AB0EE642AD0ED1C4A86
:103A6000F0EE641AD0ED194AB0EE641AD0ED1A4A9D
:103A7000F0EE640AD0ED184AB0EE640A0320FEF7B7
:103A8000ACFF3DE09B48C07958B300209949C8710C
:103A90009D48D0ED084AB0EE644AD0ED074AF0EEFA
:103AA000643AD0ED064AB0EE643AD0ED054AF0EE45
:103AB000642AD0ED044AB0EE642AD0ED034AF0EE59
:103AC000641AD0ED024AB0EE641AD0ED014AF0EE6D
:103AD000640AD0ED004AB0EE640A0420FEF77DFFD0
:103AE0000EE08448007C02280AD100208149087435
:103AF0001FED830A00231A4619461846FEF7DCFE1E
:103B000006B010BD70B504460D46AA207F49087066
:103B10004870EF2088700220C87008460471457113
:103B20000026002005E07949095C3144CEB2411CF1
:103B3000C8B20628F7DB754886710721FEF7B4FE88
:103B400070BD70B52DED048B04460D460026002097
:103B500004E0215C3144CEB2411CC8B2691E8142EE
:103B6000F7DC601910F8010CB04202D0BDEC048BF8
:103B700070BD2078AA2802D16078AF2800D0F5E780
:103B8000A078012822D12079012802D1604908704B
:103B90001CE02079022803D101205D49487015E01E
:103BA0002079032804D101205949087048700DE09C
:103BB0002079042803D101205649087006E02079B5
:103BC000212802DB2079262800DD00BFA07802280A
:103BD00014D12079012806D14649087148718871AD
:103BE000C871087248722079A02802D10120414989
:103BF00008702079A12801D1FCF7D3FCA078032814
:103C000036D145480078022802D0022000F036FE66
:103C10002079617941EA002040498880A079E179E2
:103C200041EA00203D49C880207A617A41EA0020BB
:103C30003A490880A07AE17A41EA00203749488071
:103C4000207B617B41EA002034490881A07BE17B35
:103C500041EA002031494881207C617C41EA002012
:103C60002E498881A07CE17C41EA00202B49C88153
:103C7000A07804282AD12079012803D100202849DE
:103C8000087023E0207902280FD140F27E402549B8
:103C900088809FED250A254880ED000A01202049F3
:103CA000087002201A49487010E02079032807D1D3
:103CB00001201F4908704FF4C9601A49888005E047
:103CC0002079042802D1022019490870A078102810
:103CD0007ED12179090209B2627941EA020009F034
:103CE00038FB41EC190B9FED130B53EC102B09F033
:103CF000BEFA23E064090020D40800200007002059
:103D0000C40700204006002000060020750900209E
:103D1000880B0020850500206C040020A8090020E5
:103D2000A4040020780B002000002043CC040020D5
:103D3000A8040020FCA9F1D24D62503F41EC180BC1
:103D400009F05CFBFE494865A179090209B2E279F4
:103D500041EA020009F0FDFA41EC190B1FED0B0BD3
:103D600053EC102B09F083FA41EC180B09F046FBD9
:103D7000F349C865217A090209B2627A41EA020070
:103D800009F0E7FA41EC190B1FED160B53EC102B61
:103D900009F06DFA41EC180B09F030FBE849886531
:103DA000A17A090209B2E27A41EA020009F0D1FAE5
:103DB00041EC190B1FED210B53EC102B09F057FAB6
:103DC00041EC180B09F01AFBDD494866217B00E045
:103DD00079E0090209B2627B41EA020009F0B9FA0E
:103DE00041EC190B1FED2D0B53EC102B09F03FFA92
:103DF00041EC180B09F002FB0146D148C166A17BDA
:103E0000090209B2E27B41EA020009F0A2FA41ECA0
:103E1000190B1FED380B53EC102B09F028FA41EC6D
:103E2000180B09F0EBFA0146C5488166217C0902AE
:103E300009B2627C41EA020009F08BFA41EC190BED
:103E40001FED440B53EC102B09F011FA41EC180B49
:103E500009F0D4FABA494867A17C090209B2E27CA8
:103E600041EA020009F075FA41EC190B1FED4F0B06
:103E700053EC102B09F0FBF941EC180B09F0BEFADA
:103E80000146AF48C167217D090209B2627D41EA5E
:103E9000020009F05EFA41EC190B1FED5A0B53ECCE
:103EA000102B09F0E4F941EC180B09F0A7FA0146D0
:103EB000A3488167A0783146FFF724FEFCF769FB31
:103EC0000120A0490880A07811287DD1217909021C
:103ED00009B2627941EA020009F03BFA41EC190BA0
:103EE0001FED6C0B53EC102B09F0C1F941EC180BD2
:103EF00009F084FA94494865A179090209B2E27986
:103F000041EA020009F025FA41EC190B1FED770B8D
:103F100053EC102B09F0ABF941EC180B09F06EFAD9
:103F20008949C865217A090209B2627A41EA020028
:103F300009F00FFA41EC190B1FED820B53EC102B1B
:103F400009F095F941EC180B09F058FA7E4988659B
:103F5000A17A090209B2E27A41EA020009F0F9F90C
:103F600041EC190B1FED8D0B53EC102B09F07FF971
:103F700041EC180B09F042FA73494866217B0902AB
:103F800009B2627B41EA020009F0E3F941EC190B46
:103F90001FED980B53EC102B09F069F941EC180B4D
:103FA00009F02CFA01466848C166A17B090209B2F2
:103FB000E27B41EA020009F0CCF941EC190B1FED5C
:103FC000A30B53EC102B00E055E009F050F941EC45
:103FD000180B09F013FA01465B488166217C09023F
:103FE00009B2627C41EA020009F0B3F941EC190B15
:103FF0001FEDB00B53EC102B09F039F941EC180B05
:1040000009F0FCF950494867A17C090209B2E27C39
:1040100041EA020009F09DF941EC190B1FEDBB0BC1
:1040200053EC102B09F023F941EC180B09F0E6F9D9
:1040300001464548C167217D090209B2627D41EA16
:10404000020009F086F941EC190B1FEDC60B53EC89
:10405000102B09F00CF941EC180B09F0CFF90146CF
:1040600039488167A0783146FFF74CFDFCF791FA9B
:10407000012034490880A078122860D121790902F2
:1040800009B2627941EA020009F063F941EC190BC7
:104090001FEDD80B53EC102B09F0E9F841EC180B8D
:1040A00009F0ACF929490866A179090209B2E27957
:1040B00041EA020009F04DF941EC190B1FEDE30B49
:1040C00053EC102B09F0D3F841EC180B09F096F9DA
:1040D0001E498866217A090209B2627A41EA020021
:1040E00009F037F941EC190B1FEDEE0B53EC102BD7
:1040F00009F0BDF841EC180B09F080F91349486646
:10410000A17A090209B2E27A41EA020009F021F932
:1041100041EC190B1FEDF90B53EC102B09F0A7F82C
:1041200041EC180B09F06AF908490867217B09027C
:1041300009B2627B41EA020009F00BF908E079E07C
:104140000007002054040020C4070020400600207F
:1041500041EC190B9FED790B53EC102B09F087F80C
:1041600041EC180B09F04AF976498867A17B0902EE
:1041700009B2E27B41EA020009F0EBF841EC190BCD
:104180009FED6E0B53EC102B09F071F841EC180BFE
:1041900009F034F96B494867217C090209B2627C55
:1041A00041EA020009F0D5F841EC190B9FED630BD1
:1041B00053EC102B09F05BF841EC180B09F01EF9D9
:1041C0006049C1F88000A17C090209B2E27C41EAA1
:1041D000020009F0BEF841EC190B9FED580B53ECAF
:1041E000102B09F044F841EC180B09F007F9554978
:1041F000C1F88800217D090209B2627D41EA02000E
:1042000009F0A7F841EC190B9FED4C0B53EC102B68
:1042100009F02DF841EC180B09F0F0F84949C1F804
:104220008400A0783146FFF76DFCFCF7B2F901205D
:1042300045490880A078132803D1A0783146FFF7BC
:1042400061FCA078142803D1A0783146FFF75AFC0E
:10425000A078152803D1A0783146FFF753FC00BFA2
:1042600084E410B504463948007838B9AA2C05D141
:10427000012036490870364804705DE03348007804
:10428000012807D1AF2C05D10220304908703048F1
:10429000447051E02D480078022807D1F12C05DA4E
:1042A00003202A4908702A48847045E0274800788E
:1042B00003280CD1322C0ADA04202449087024483F
:1042C000C4702448047000202349087034E01F485B
:1042D0000078042819D11F480078002815DD1D48F2
:1042E0000078401E1B4908701B4800781A4909785D
:1042F000491C194A1170001D15490C5415480078C5
:10430000D0B905201149087016E01048007805283A
:104310000FD100200D4908700F480078001D0C498E
:104320000C540D480078401DC1B20948FFF709FC44
:1043300002E000200549087010BD0000FCA9F1D280
:104340004D62503F400600205404002062040020CB
:10435000B80900206004002061040020024600200B
:1043600007E0FE4B1B5632F8133021F81030431C87
:10437000D8B20828F5DB70473FB50546F848007805
:10438000012804D1F7492846FFF7E8FF07E0F44881
:104390000078022803D1F349F348FFF7DFFF002438
:1043A000D0E1F04830F8140040F6C411884205DC32
:1043B000EC4830F81400B0F5FA7F07DA0120EB4939
:1043C00008550020EA4921F8140012E0E84830F8C6
:1043D0001400401CE64921F81400084630F8140087
:1043E000C82806DD4FF4FA6021F814000020DF49E8
:1043F0000855DB480078012803D0D9480078022806
:104400007BD1DA48005D0028FAD1D64830F8140094
:104410002DF81400D74830F91400D74931F9141099
:1044200088426BDDD548005D002878D13DF8140046
:10443000D14931F91410401A00EE900AF8EEE01A52
:10444000CC4830F91400CC4931F91410401A00EE70
:10445000900AF8EEE00A81EEA01ADFEDC91ADFED4E
:10446000C90A51EE210AFDEEE00A10EE900A00B2F0
:1044700010F5FA7F01DAC4484DE03DF81400BE495A
:1044800031F91410401A00EE900AF8EEE01AB9481B
:1044900030F91400B84931F91410401A00EE900AAE
:1044A000F8EEE00A81EEA01ADFEDB51ADFEDB50AED
:1044B00051EE210AFDEEE00A10EE900A00B2B0F5CE
:1044C000FA7F02DD4FF4FA7025E03DF81400AA49A6
:1044D00031F91410401A00EE900AF8EEE01AA548DF
:1044E00030F91400A44931F91410401A00EE900A72
:1044F000F8EEE00A81EEA01A02E08AE086E00EE023
:10450000DFED9F1ADFED9F0A51EE210AFDEEE00A72
:1045100010EE900A00B29D4921F8140079E03DF8B0
:104520001400954931F91410401A00EE900AF8EE83
:10453000E01A904830F914008F4931F91410401AEC
:1045400000EE900AF8EEE00A81EEA01ADFED8C1A78
:10455000DFED8C0A51EE210AFDEEE00A10EE900A22
:1045600000B210F5FA7F01DA874849E03DF81400FF
:10457000814931F91410401A00EE900AF8EEE01A61
:104580007C4830F914007C4931F91410401A00EECF
:10459000900AF8EEE00A81EEA01ADFED791ADFED5D
:1045A000790A51EE210AFDEEE00A10EE900A00B2FF
:1045B000B0F5FA7F02DD4FF4FA7021E03DF8140007
:1045C0006D4931F91410401A00EE900AF8EEE01A25
:1045D000684830F91400684931F91410401A00EEA7
:1045E000900AF8EEE00A81EEA01ADFED651ADFED21
:1045F000650A51EE210AFDEEE00A10EE900A00B2C3
:10460000404200B2614921F8140002E000206049F4
:104610000870DFED600A60EE200A5F48C0ED000A16
:104620003DF8140000EE900AF8EE600A5B4800EBDB
:10463000840090ED001A70EEC10AF5EEC00AF1EEAA
:1046400010FA0DDD3DF8140000EE900AF8EE600A55
:10465000524800EB840090ED001A70EEC10A0EE0A3
:104660003DF8140000EE900AF8EE600A4B4800EBAB
:10467000840090ED001A70EEC10AF1EE600A9FED21
:10468000481AF4EEC10AF1EE10FA1DD23F4830F993
:10469000140000EE900AF8EEE00A404800EB8400B7
:1046A00090ED001A30EEC11A3C4800EB8400D0EDCA
:1046B000000A3948D0ED001A41EE810A374800EB74
:1046C0008400C0ED000A20E0304830F9140000EE0C
:1046D000900AF8EEE00A314800EB840090ED001AF1
:1046E00030EEC11A2D4800EB8400D0ED000A2A48B4
:1046F000D0ED001AB6EE002A61EE821A41EE810A70
:10470000264800EB8400C0ED000A244800EB84003A
:10471000D0ED000A234800EB840090ED001A70EE03
:10472000C10A214800EB8400C0ED000A1B4800EBE1
:104730008400D0ED000A1B4800EB8400C0ED000AA5
:10474000601CC4B2082CFFF62CAE18480088401C30
:1047500080B216490880C8282EDD29E064040020B4
:104760006C0400206C0A0020A80900206D040020C1
:104770005C0A0020780400208804002098040020AF
:1047800000007A440000FA430CFEFFFFEC09002011
:10479000A404002034337B42A0040020FC09002044
:1047A0000000C8421C0A00203C0A002076040020B9
:1047B00000200880354908703FBD3548D0ED020A19
:1047C0009FED341AF4EEC10AF1EE10FA3BD2D0EDAF
:1047D000030A9FED301AF4EEC10AF1EE10FA29D265
:1047E000D0ED010A9FED2C1AF4EEC10AF1EE10FA99
:1047F0002CDDD0ED000A9FED281AF4EEC10AF1EE8F
:1048000010FA23DD2548B0F90000401CF0B1234820
:10481000B0F9000000EE900AF8EEE00A9FED201AD1
:1048200041EE000AFDEEE00A10EE900A00B21B49CC
:1048300008800BE01948B0F90000401C30B9002096
:104840001649088002E00020144908801348B0F996
:104850000000B0F57A7F10DD4FF0FF300F4908807F
:104860001048007830B901200E49087002200E4926
:10487000487002E000200B49087070470349087037
:1048800000210A4A11807047704700006C04002024
:10489000FC0900200000C8C30000C843A604002093
:1048A00000803B45A4040020880B002076040020F3
:1048B00030B50446084615886D1CADB2158085429A
:1048C00004DD002515800125558007E01588854207
:1048D00001D1002501E015886D1C5580158804EB79
:1048E000850585ED000A558804EB8505D5ED000AA0
:1048F00030EE601A00EE900AF8EE601AC1EE210A5E
:1049000093ED001A70EE810AC3ED000A30BD70B558
:104910008BB0F0EE400A022801DA0B2903DB9FED91
:104920007B0A0BB070BD7A4C245C641CE4B2784DF9
:104930002C548C4201DB00242C5400EB400404EB8B
:10494000C004744D05EB8404714D2D5C04EB8504AB
:10495000C4ED000A002211E000EB400404EBC004A7
:104960006C4D05EB840404EB820494ED000A6C4664
:1049700004EB820484ED000A541CE2B28A42EBDBB1
:1049800000222DE0002325E06C4604EB830494ED27
:10499000000A6D465C1C05EB8404D4ED001AB4EEED
:1049A000E10AF1EE10FA13DD6C4604EB830494ED9A
:1049B000001A5C1C05EB840494ED000A6C4604EBC1
:1049C000830484ED000A5C1C05EB840484ED001A6A
:1049D0005C1CE3B24C1EA41A9C42D5DC541CE2B20F
:1049E0004C1E9442CEDC0C4601EBD4756D106E4625
:1049F00006EB850595ED000A93E770B52DED028B6A
:104A000004460D461646D4ED020AB0EE600AFDF7E4
:104A10005FFDF0EE408AD4ED010AB0EE600AFDF7CA
:104A200057FD38EE800AB0EE408AFDF756FD3A4851
:104A300080ED000AD4ED020AB0EE600AFDF748FDF1
:104A4000F0EE408AD4ED000AB0EE600AFDF740FDBA
:104A500038EE800AB0EE408AFDF73FFD2F4880ED2A
:104A6000000A94ED020AB5EEC00AF1EE10FA02D285
:104A70004FF0FF3000E001202949087095ED000A51
:104A80002548D0ED000A20EE200A94ED001A0846D1
:104A900090F9000000EE900AF8EEE00A61EE200ABC
:104AA00095ED021A00EEC10A86ED000A084690F95B
:104AB000000000EE100AB8EEC00A1848D0ED000A57
:104AC00020EE200AD5ED010A20EE200AD4ED010ADD
:104AD00095ED021A00EEC10A86ED010A94ED000A76
:104AE000D5ED000A20EE200AD4ED010A95ED011A59
:104AF00000EE810AD4ED020A95ED021A00EE810A59
:104B000086ED020ABDEC028B70BD000000000000C3
:104B1000B40400207C0A0020B8040020BC0400205B
:104B2000B604002030EE601A80ED041A90ED031AEE
:104B3000D0ED041A31EE211A80ED031A90ED031A1C
:104B4000DFEDFE1AB4EEE11AF1EE10FA03DD9FED8F
:104B5000FB1A80ED031A90ED001AD0ED041A21EE35
:104B6000211AD0ED021A90ED032A01EE821AD0ED3F
:104B7000041A90ED052A71EEC21A90ED012A02EE98
:104B8000211A80ED071A90ED041A80ED051A90EDB8
:104B9000051A80ED061A704700B5B0EE403AF0EE07
:104BA000602AE74890ED000ADFEDE60AB4EEE00A7D
:104BB000F1EE10FA03DD9FEDE30A80ED000AE24812
:104BC000008800EE100AF8EE400ADD4890ED000A79
:104BD000DE48FFF7A7FFDD4890ED070A30EE220A16
:104BE000DB4880ED000A00BD00B5B0EE404AF0EEB3
:104BF000603AD8480078012808D1F0EE630AB0EE98
:104C0000440AFFF7C9FF0020D2490870D248007853
:104C100030B1CF4890ED000AD04880ED000A02E0A4
:104C2000CE48C0ED003A00BDCD4890ED1C0AF7EE2D
:104C3000000A20EE200AC54880ED000AC84890ED21
:104C40001D0AF7EE000A20EE200AC04880ED010A96
:104C5000C34890ED1E0AF7EE000A20EE200ABB487A
:104C600080ED020A704730EE601A80ED041A90ED74
:104C7000041AD0ED051A31EE611AD0ED001A21EEBA
:104C8000211AD0ED021A90ED042A01EE821AD0ED1D
:104C9000041A90ED052AF0EE002A42EEC21A90EDB9
:104CA000062A71EE821A90ED012A02EE211A80ED99
:104CB000071A90ED041A80ED051A90ED051A80EDA3
:104CC000061A7047A64890ED180ADFEDA60A20EEF6
:104CD000200AA54880ED000AA14890ED190ADFEDF1
:104CE000A30A20EE200AA04880ED010A9C4890ED1E
:104CF0001A0ADFED9F0A20EE200A9B4880ED020A87
:104D0000704710B52DED068BB0EE408AB0EE609A7C
:104D1000F0EE418AF0EE619AB0EE000A29EE000A48
:104D2000B5EEC00AF1EE10FA02D29FED920A11E040
:104D3000B0EE000A29EE000ADFED8F0AB4EEE00AB9
:104D4000F1EE10FA02DD9FED8C0A03E0B0EE000AEE
:104D500029EE000AB0EE40AA9FED880A68EE000A2C
:104D6000B7EE001A81EE200AF7EE000A30EE200AB4
:104D7000B7EE001AC1EE000A814890ED000A3AEE43
:104D8000401A90ED000A00EE810A80ED000A7D488D
:104D900090ED000A9FED7C1AC0EE010A7B4890ED71
:104DA000000A9FED7B1A00EE810A7A4880ED000A26
:104DB000DFED790A90ED000AFDF7C7FC7748D0EDEA
:104DC000000A40EE080AC0ED000A754890ED000A9E
:104DD0007448D0ED000A30EE600AC0EE080A6D4853
:104DE00090ED000A70EEC00A9FED6F0A28EE001ADF
:104DF000664890ED000A01EE200A80ED000A90ED71
:104E0000000ADFED6A0AB4EEE00AF1EE10FA02D20F
:104E10009FED660A0FE05D4890ED000ADFED640A41
:104E2000B4EEE00AF1EE10FA02DD9FED610A02E055
:104E3000564890ED000A554880ED000A9FED5D0A46
:104E400028EE000AF7EE000A80EE801AB7EE000A9C
:104E500031EE000AB7EE001AC1EE000A4F4890ED9D
:104E6000000A39EEC01A90ED000A00EE810A80EDCA
:104E7000000A90ED000A504880ED000A90ED000A0B
:104E8000B5EEC00AF1EE10FA02DD90ED000A04E082
:104E9000494890ED000AB1EE400ADFED480AB4EE51
:104EA000E00AF1EE10FA04D29FED320A424880ED9A
:104EB000000A414890ED000A394880ED000A90ED63
:104EC000000A384880ED000A274890ED000A34486F
:104ED000D0ED000A78EEE00A20EE200A384880ED96
:104EE000000ADFED380A80EE880AF2EE040A20EEAE
:104EF000200A1D48D0ED010A20EE200A2548D0EDF9
:104F0000000AF1EE600A20EE200A20EE080A2C4882
:104F100080ED020A144890ED020AD0ED000A20EE5E
:104F2000200A78EEE90A60EE200A254890ED030A8F
:104F300000EE880A80ED030A46E0000000803B4551
:104F4000CC04002000007A44AC0500201C0B00209B
:104F5000D8040020AA050020A9040020C0040020D5
:104F6000400600209A99993EE80A00203333B33F67
:104F70008FC2F53D0000000000001644C3F5C83F95
:104F8000E8040020C404002000008045EC04002058
:104F900000401C46E40400200000C842F004002049
:104FA000DC040020E0040020CDCCCC3E0000FAC39D
:104FB0000000FA439CC4A03EF404002000004842D4
:104FC000D40A00206F12033B90ED030A4548D0ED50
:104FD000000AF1EE600A9FED441A60EE810AB4EE19
:104FE000E00AF1EE10FA08D290ED000AB1EE400AA4
:104FF000DFED3D0A20EE200A18E03C4890ED030A60
:105000003848D0ED000A9FED381A60EE810AB4EE00
:10501000E00AF1EE10FA06DD90ED000ADFED320A4B
:1050200020EE200A02E0314890ED030A2F4880ED7F
:10503000030A90ED000A2E48D0ED000A00EEA80AFF
:105040002A48D0ED020A30EE200AD0ED030A30EEF5
:10505000200ADFED280AB4EEE00AF1EE10FA02D2DF
:105060009FED240A2BE0214890ED000A2048D0ED66
:10507000000A00EEA80A1D48D0ED020A30EE200A10
:10508000D0ED030A30EE200ADFED170AB4EEE00A95
:10509000F1EE10FA02DD9FED140A10E0134890EDD6
:1050A000000A1348D0ED000A00EEA80A0F48D0ED20
:1050B000020A30EE200AD0ED030A30EE200A0E4834
:1050C000D0ED000A074890ED001A41EE000A0748AB
:1050D000C0ED040A90ED000A80ED010ABDEC068BDC
:1050E00010BD00000C00002000009643D40A0020F0
:1050F000E80A0020000096C3E80400204FF4C960CD
:105100006A4988809FED6A0A6A4880ED000A00209B
:1051100069490870012069490870694908700020D0
:1051200068490870704768480088B0F5167F0BDD45
:105130005E48808840F21451884225DD5B488088B3
:105140000A385A4988801FE05F480088B0F5C87F58
:105150000BDD5648808840F21451884214DD5348D4
:105160008088401E514988800EE040F24C404F49F3
:1051700088800020524908705049087001204E492B
:10518000087000204F490870704750480088B0F5FB
:105190007A7F0DDD4D48008840F27E41884207DA73
:1051A0004B480078002802D00020494908707CE074
:1051B0004648008840F27E41884213DD434800881B
:1051C00040F2E24188420DDA4148007801286CD073
:1051D00001203F4908703B4908704FF4C9603349CA
:1051E000888062E03948008840F2E241884211DD5F
:1051F0003648008840F2465188420BDA344800783D
:10520000022852D00220324908704FF4C960274961
:1052100088804AE02D48008840F24651884211DDDE
:105220002A48008840F2AA5188420BDA28480078C0
:1052300003283AD00320264908704FF4C9601B495F
:10524000888032E02148008840F20E61884216DDF5
:105250001E48008840F27261884210DA1C480078CB
:10526000042822D004201A4908704FF4C9600F495D
:1052700088809FED0F0A0F4880ED000A15E0134863
:10528000008840F2726188420FDD1048008840F2C9
:10529000D661884209DA0E480078052805D0052035
:1052A0000B4908700220074908707047780B0020EE
:1052B00000002F44CC040020FA040020A4040020A5
:1052C000F9040020A8040020AC05002010050020EF
:1052D000F80400200EB50121084603F0F5FA4FF05E
:1052E000804003F04DFD4FF47A7001905320ADF8EB
:1052F00000000020ADF80800ADF8020069464FF04C
:10530000804003F019FE0121880706F0FBF8012216
:105310001146900705F0ECFF0121880704F0A6F97B
:105320000021012003F0D0FA0EBD08B51C208DF835
:10533000000002208DF8010000208DF802000120FD
:105340008DF80300684602F0F6F808BD10B5FFF7C7
:10535000C1FFFFF7EAFF0121084603F0B5FA10BDCF
:105360007FB5684603F0CEF84FF47A710198B0FB30
:10537000F1F4E4082146B1F1807F00D31DE021F073
:105380007F40401E4FF0E022506150170F2200284E
:1053900007DA13071E0E664B00F00F052D1F5E5532
:1053A00003E013071D0E634B1D5400BF00204FF098
:1053B000E02290610720106100BF6FF0040002F04E
:1053C00051F97FBD5C4A11684FF0E02252694FF0FD
:1053D000E0239B69D21A4FF47A735A434FF0E023CB
:1053E0005B69B2FBF3F201EB4103C3EBC11302EBC8
:1053F000C300704730B50446FFF7E4FF054600BF21
:10540000FFF7E0FF401BA042FAD330BD10B50446C1
:1054100003E04FF47A70FFF7EDFF2000A4F10104E0
:10542000F7D110BD10B54548007800B910BD44480B
:10543000006840F2E731884207DA41480068401CC2
:105440003F490860FAF7DAFE29E000203C4908608D
:105450003C4800683B2805DA3A480068401C394956
:1054600008601CE0002037490860374800683B2886
:1054700005DA35480068401C334908600FE0002019
:105480003149086031480068172805DA2F4800685C
:10549000401C2E49086002E000202C49086000BF33
:1054A000C4E710B5044604EB4400294901EB800031
:1054B00090ED000A04EB440001EB800080ED010A4E
:1054C000FFF780FF00EE100AB8EE400ADFED210A78
:1054D00080EE201A04EB44001D4901EB800080EDB2
:1054E000001A04EB440001EB800090ED000A04EB8D
:1054F000440001EB8000D0ED010A30EE600A04EBBD
:10550000440001EB800080ED020A04EB440001EB53
:10551000800090ED020A10BD10B5002404E0204682
:10552000FFF7BFFF601CC4B2052CF8DB10BD000004
:1055300018ED00E000E400E0FC0400200000002082
:105540000C050020080500200405002000050020AF
:105550003C0B00200024744900B587B001210620CF
:1055600003F0B2F901210E2003F0E8F81D208DF8B8
:10557000040001208DF805008DF806008DF8070065
:1055800001A801F0D8FF1E208DF8040001208DF83D
:1055900005008DF806008DF8070001A801F0CBFF8B
:1055A000C020059002208DF8180003208DF8190006
:1055B00000208DF81A0002208DF81B0005A9FD4877
:1055C00002F022F90320059002208DF81800032034
:1055D0008DF8190000208DF81A0002208DF81B00AC
:1055E00005A9F54802F010F902220621F14802F05F
:1055F00048FC02220721EF4802F043FC022200216E
:10560000ED4802F03EFC02220121EB4802F039FC99
:105610005320EA4908800020ADF808000A20ADF8C0
:105620000A000120ADF80C000020ADF80E00ADF826
:10563000100002A9E148283805F088FB0420ADF8E5
:1056400008000A20ADF80A000120ADF80C00002087
:10565000ADF80E00ADF8100002A9D848283805F0C2
:1056600075FB0820ADF808000A20ADF80A000120FB
:10567000ADF80C000020ADF80E00ADF8100002A946
:10568000CE48283805F062FB0C20ADF808000A204F
:10569000ADF80A000120ADF80C000020ADF80E00B6
:1056A000ADF8100002A9C548283805F04FFB0121CC
:1056B000C248283803F0DAFF01220221BF48283807
:1056C00005F016FE01220421BC48283805F010FE22
:1056D00001220821B948283805F00AFE01221021CC
:1056E000B648283805F004FE4FF4704005900220BB
:1056F0008DF8180003208DF8190000208DF81A008D
:1057000002208DF81B0005A9AD4802F07DF80222A9
:105710000C21AB4802F0B5FB02220D21A84802F093
:10572000B0FB02220E21A64802F0ABFB02220F21A1
:10573000A34802F0A6FB5320A24908800020ADF840
:1057400008000A20ADF80A000120ADF80C00002086
:10575000ADF80E00ADF8100002A99A48283805F0FF
:10576000F5FA0420ADF808000A20ADF80A0001207F
:10577000ADF80C000020ADF80E00ADF8100002A945
:105780009048283805F0E2FA0820ADF808000A2011
:10579000ADF80A000120ADF80C000020ADF80E00B5
:1057A000ADF8100002A98748283805F0CFFA0C2080
:1057B000ADF808000A20ADF80A000120ADF80C0091
:1057C0000020ADF80E00ADF8100002A97D48283881
:1057D00005F0BCFA01217B48283803F047FF01227D
:1057E00002217848283805F083FD012204217548FC
:1057F000283805F07DFD012208217248283805F07F
:1058000077FD012210216F48283805F071FD4FF413
:105810007A706D49888007B000BD10B50120FFF790
:105820002DF866481838008800F0020038B34FF6AB
:10583000FD706249183908804FF6FF5008805D48B6
:105840001030006800F0400030B15C48283805F0A6
:10585000E0FB5E4908801EE05848283805F0D9FB77
:105860005B4908800846008858490988884207DB58
:105870005748008855490988401A534908800AE06A
:10588000524800884FF6FF71081A514909880844A8
:10589000401C4D49088049481838008800F0040031
:1058A00038B34FF6FB704549183908804FF6FF3082
:1058B000088040481030006800F0800030B13F4858
:1058C000283805F0D4FB434908801EE03B482838BF
:1058D00005F0CDFB40490880084600883D4909880D
:1058E000884207DB3C4800883A490988401A364913
:1058F00048800AE0374800884FF6FF71081A364999
:1059000009880844401C304948802C4818380088D1
:1059100000F0080000286DD04FF6F77027491839BD
:1059200008804FF2FF70088023481030006800F0B4
:10593000010030B12148283805F0BBFB2749088019
:1059400058E01E48283805F0B4FB25490880084671
:10595000008822490988884216DB214800881F49AF
:105960000988401A1F4908800846008840F2DC5127
:10597000884204D11C4800881A4908803AE0194836
:1059800000881949088035E0144800884FF6FF71F7
:10599000081A134909880844401C1249088008461F
:1059A000008840F2DC51884220D10F4800880D4920
:1059B00008801FE000080240000402402804004064
:1059C000000C024028080040780B0020140500203D
:1059D00016050020180500201A0500201C050020CF
:1059E0001E05002010050020120500208E480088AA
:1059F0008E4908808E48008800F0100028B34FF6CA
:105A0000EF708B4908804EF6FF7008808948006867
:105A100000F0020030B18648103805F066FB864978
:105A200008801EE08248103805F05FFB834908803B
:105A30000846008880490988884207DB7F4800883B
:105A40007D490988401A7E49C8800AE07A48008862
:105A50004FF6FF71081A794909880844401C7849B3
:105A6000C88010BD10B50120FEF708FF75480088FA
:105A700000F0020028B34FF6FD70724908804FF61F
:105A8000FF5008807048006800F4805030B16D48C5
:105A9000103805F0BEFA6D4908801EE069481038DC
:105AA00005F0B7FA6A4908800846008867490988FE
:105AB000884207DB6648008864490988401A6049C3
:105AC00008810AE0614800884FF6FF71081A6049B2
:105AD00009880844401C5A4908815A48008800F047
