:020000040800F2
:10000000A016002025CD0008B50100082FCD00085E
:10001000B7010008BB010008BF0100080000000094
:10002000000000000000000000000000C301000804
:10003000C5010008000000003BCD0008C701000812
:100040003FCD00083FCD00083FCD00083FCD000860
:100050003FCD00083FCD00083FCD00083FCD000850
:100060003FCD00083FCD00083FCD00083FCD000840
:100070003FCD00083FCD00083FCD00083FCD000830
:100080003FCD00083FCD00083FCD00083FCD000820
:100090003FCD00083FCD00083FCD00083FCD000810
:1000A0003FCD00083FCD00083FCD00083FCD000800
:1000B0003FCD0008D9010008E10100083FCD00084C
:1000C0003FCD00083FCD00083FCD00083FCD0008E0
:1000D0003FCD00083FCD0008E90100083FCD0008F2
:1000E0003FCD00083FCD00083FCD00083FCD0008C0
:1000F0003FCD00083FCD00083FCD00083FCD0008B0
:100100003FCD00083FCD00083FCD00083FCD00089F
:100110003FCD0008F10100083FCD00083FCD0008A9
:100120003FCD00083FCD00083FCD00083FCD00087F
:100130003FCD00083FCD00083FCD00083FCD00086F
:100140003FCD00083FCD00083FCD00083FCD00085F
:100150003FCD00083FCD00083FCD00083FCD00084F
:100160003FCD00083FCD00083FCD00083FCD00083F
:100170003FCD00083FCD00083FCD00083FCD00082F
:100180003FCD00083FCD0008DFF80CD00DF09CF803
:1001900000480047A1010008A016002000BFFEE7AC
:1001A00000F046F90249087001E000F0EAF8FCE7C7
:1001B00000000020704700BFFEE700BFFEE700BF61
:1001C000FEE77047704710B50B480068401C0A49AD
:1001D000086004F059FF10BD10B505F050F910BDCE
:1001E00010B505F071FA10BD10B506F02AFE10BD6D
:1001F00010B506F0E8FE10BDD00400208248C0898A
:10020000401C8149C88108468088401C00B2888013
:100210000846C088401C00B2C88008460089401CBF
:1002200000B2088108464089401C00B24881084657
:100230008089401C00B2888108460078012804D1DA
:1002400008464078401C487002E001206E49087062
:10025000704710B5012004F056FF03F08BF910BD74
:1002600010B52DED028B002004F04DFFB0EE408A5A
:1002700004F0DAFE00EE100AB8EE400ADFED630A81
:1002800080EE201A624880ED001A05F0B5FEB0EE4F
:10029000480A06F0E7F8B0EE480A01F030F85D4889
:1002A000B0EE480A04F05CF804F0BEFE00EE100A5E
:1002B000B8EE400ADFED550A80EE201A544880ED72
:1002C000011ABDEC028B10BD10B52DED028B022082
:1002D00004F019FFB0EE408A04F0A6FE00EE100A0A
:1002E000B8EE400ADFED490A80EE201A484880ED5A
:1002F000021A4948D0ED063AB0EE633AD0ED053A1D
:10030000F0EE632AD0ED043AB0EE632AD0ED0C3A59
:10031000F0EE631AD0ED0B3AB0EE631AD0ED0A3A64
:10032000F0EE630AF6EE003A68EE233AB0EE630AA6
:100330003A4A3B493B4801F095FBB0EE480A00F0D1
:1003400085FA04F071FE00EE100AB8EE400ADFED07
:100350002F0A80EE201A2E4880ED031ABDEC028B86
:1003600010BD10B506F0ACFC10BD10B500F021FAC0
:1003700010BD10B504F001FD06F0C6FC06F08AFEC3
:1003800010BD10B52048007801283BD126480088D0
:1003900000B226490880FFF75CFF1B48B0F9040053
:1003A000022804DB002018498880FFF759FF16480F
:1003B000B0F90600052804DB00201349C880FFF7C8
:1003C00083FF1148B0F908000A2804DB00200E4919
:1003D0000881FFF7C6FF0C48B0F90A00142804DBB7
:1003E000002009494881FFF7C0FF0748B0F90C0019
:1003F000322804DB002004498881FFF7BAFF00207F
:100400000149087010BD0000B005002000247449A7
:10041000C0050020040B0020140B00202000002049
:100420001C00002018000020E00400200200002032
:1004300010B54FF4806006F089FE04F0C3FD06F0AD
:1004400045FC05F01AFC04F0B9FE4FF4C87005F045
:100450003FFAC82004F00CFE142005F0AFFE4FF464
:10046000E13006F07BFC00F025F9642004F000FE8A
:1004700006F00AFE04F082FE06F0FCF980F00100AE
:10048000124908701248007810B906F055FC04E0D3
:100490000E48007808B906F056FC4FF400710D487C
:1004A00007F030FA4FF47A7004F0E2FD4FF4007177
:1004B000084807F0F6F94FF47A7004F0D9FD4FF4CC
:1004C0000071044807F01EFA012010BD58050020F5
:1004D000100500200004024010B5C148C14BD3E90B
:1004E00000219B68C0E90E134263BE4BD3E9032190
:1004F0005B69C0E911130264BB48BA4B18330ECBD9
:1005000008300EC0B64AB74B24330BCB58320BC25F
:10051000B44890ED0D0AB24880ED190AB14890ED4B
:100520000E0AAF4880ED1A0AB048B14C1ECC5430C8
:100530001EC06438AE49D1E905340A69C969C0E909
:100540001A3442660167AA4BD3E909141A6ADB6AB6
:10055000C0E91F43C0E91D21A648A54BD3E90C41C2
:10056000D3E90E23C0E91541C0E91723A049D1E919
:1005700011430A6CC96CC0E91A43426601679C4981
:10058000D1E91434D1E91621C0E91D34C0E91F2195
:1005900010BD10B500F048F904F043FB10BD10B5D4
:1005A0009FED950A924880ED040A9FED930A80ED35
:1005B000000A9FED920A80ED080A9FED910A80EDF6
:1005C000060A9FED8F0A80ED020AB7EE000A80ED61
:1005D0000A0AB0EE000A80ED050AB0EE000A80EDCE
:1005E000010AB7EE000A80ED090AB7EE000A80EDB5
:1005F000070AB7EE000A80ED030AB7EE000A80EDA5
:100600000B0AB6EE000A80ED100AB6EE000A80ED85
:100610000C0A9FED7C0A80ED140A9FED7B0A80EDA9
:10062000120A9FED790A80ED0E0A9FED770A80EDA0
:10063000160A9FED760A80ED110A9FED740A80ED8F
:100640000D0A9FED6F0A80ED150A9FED710A80ED8E
:10065000200A9FED6F0A80ED220A9FED6D0A80ED62
:10066000210A9FED6B0A80ED240A9FED690A80ED57
:10067000260A9FED670A80ED250A9FED650A80ED49
:10068000180A9FED630A80ED1A0A9FED610A80ED5A
:10069000190A9FED600A80ED1C0A9FED5F0A80ED4C
:1006A0001E0A9FED5E0A80ED1D0AFFF715FFFFF79A
:1006B00070FF10BD10B5FFF772FFFFF70DFFFFF7DA
:1006C00068FF10BD10B5464990E81C0034311CC1CC
:1006D000444990E81C001CC1414991ED190A414967
:1006E00081ED0D0A10BD10B53D4990E81C00403168
:1006F0001CC13C4990E81C000C311CC1384991EDEB
:100700001A0A384981ED0E0A10BD10B5364990E835
:100710001C0008311CC1334990E81C0018311CC171
:1007200010BD10B52E4990E81C0058311CC12D4950
:1007300090E81C0024311CC110BD10B52C482B4979
:10074000D1E916344A6D096E80E81C00C16001468B
:100750002648D0E91A34426E006FC1E905340A61B7
:10076000C8612248D0E91E34426FD0F88000C1E948
:1007700009340A62C8620A461E4CD4E91530D4E92D
:100780001714C2E90E14C2E90C3010461949D1E918
:100790001942D1E91B31C0E91042C0E912311549B3
:1007A000D1E91D42D1E91F31C0E91442C0E9163137
:1007B00010BD00B51A48008820B119480088401CB7
:1007C00017490880164800883C2807DD0020144996
:1007D00008801448007808B9FFF7AFFF00BD00009B
:1007E000140B0020D40500202C050020D406002086
:1007F0001406002098070020CDCC4C3F9A99993FD1
:10080000CDCCCC3DCDCC4C3ECDCC4C3D9A99993EF7
:10081000000000007B14AE3D0AD7233CCDCC4C40F9
:1008200054040020A4040020B7EE000AFE4880ED26
:10083000180AB7EE000A80ED1C0AB7EE000A80ED38
:10084000200A9FEDFA0A80ED300A704710B52DEDB1
:100850000E8BB0EE408AF648D0ED000AB0EE600A8A
:10086000F3EE0E0A01F06FFFDFEDF20A80EE201AC0
:10087000B3EE090A21EE000AEF4880ED000AEC48C9
:10088000D0ED010AF1EE600AB0EE600AF3EE0E0A56
:1008900001F059FFDFEDE70A80EE201AB3EE090AF6
:1008A00021EE000AE44880ED010AE448007808BB24
:1008B000DF48D0ED030AB0EE600ADFEDE10A01F097
:1008C00091FFDFEDDC0A80EE201A9FEDDE0A21EEBB
:1008D000000ABDEEC00A10EE100A00B200EE100AC7
:1008E000F8EEC00AD44890ED020A00EE880A80EDC6
:1008F000020A36E0D04890ED020AD348D0ED000A53
:1009000030EEC00A10EE101A08460CF059FB41EC0C
:100910001C0B18EE100A0CF053FB41EC1E0B9FED64
:10092000CB0B53EC102B0CF0C8FA41EC1D0B53EC25
:100930001C2B0CF0C2FA41EC1A0BBF4890ED020AD6
:1009400010EE101A08460CF03BFB41EC1B0B53EC6D
:100950001A2B0CF00BFA41EC190B0CF075FBB64995
:100960008860B548D0ED020AB0EE600A01F04EFF93
:10097000B14880ED020AB748D0ED000AAE4890EDCC
:10098000001A70EE810AB44890ED001A70EEC10AA8
:10099000B0EE600A01F03AFFB04880ED000AAD48C1
:1009A000D0ED010AA44890ED011A70EE810AAC481E
:1009B00090ED001A70EEC10AB0EE600A01F026FF59
:1009C000A64880ED010AA348D0ED020A9A4890EDAE
:1009D000021A70EE810A9C4890ED001A70EEC10A6E
:1009E000B0EE600A01F012FF9C4880ED020A90ED23
:1009F000000AB5EEC00AF1EE10FA02DD90ED000A31
:100A000004E0964890ED000AB1EE400AF3EE0E0ABB
:100A100080EE201A914880ED2D1A90ED010AB5EE76
:100A2000C00AF1EE10FA02DD90ED010A04E08B48F5
:100A300090ED010AB1EE400AF3EE0E0A80EE201AA4
:100A4000864880ED2E1A90ED020AB5EEC00AF1EE4E
:100A500010FA02DD90ED020A04E0804890ED020AEF
:100A6000B1EE400AF3EE0E0A80EE201A7B4880EDCC
:100A70002F1ADFED7C0A80EE880AD0ED000A90ED97
:100A8000031A70EEC10A90ED161AF2EE041A21EE66
:100A9000211A60EE810A60EE200A90ED2D1A9FED7A
:100AA000720ADFED721A01EE810A20EE800A80EDF3
:100AB0000C0ADFED6C0A80EE880AD0ED010A90ED99
:100AC000041A70EEC10A90ED1A1AF2EE041A21EE21
:100AD000211A60EE810A60EE200A90ED2E1A9FED39
:100AE000620ADFED621A01EE810A20EE800A80EDD3
:100AF0000D0ADFED5C0A80EE880AD0ED020A90ED67
:100B0000051A70EEC10A90ED1E1AF2EE041A21EEDB
:100B1000211A60EE810A60EE200A90ED2F1A9FEDF7
:100B2000520ADFED521A01EE810A20EE800A80EDB2
:100B30000E0A90ED170AD0ED000A60EE200A90ED43
:100B4000060A00EE880A80ED060A90ED1B0AD0ED39
:100B5000010A60EE200A90ED070A00EE880A80ED97
:100B6000070A90ED1F0AD0ED020A60EE200A90ED10
:100B7000080A00EE880A80ED080A3D4890ED000A58
:100B8000F6EE000A20EE200AF3EE090A20EE200A13
:100B9000324880ED090A364890ED000AF6EE000A68
:100BA00020EE200AF3EE090A20EE200A2B4880ED01
:100BB0000A0A2F4890ED000AF6EE000A20EE200AFD
:100BC000F3EE090A20EE200A244880ED0B0A90ED8E
:100BD000060AD0ED090AF1EE600AB4EEE00AF1EE81
:100BE00010FA04D290ED090AB1EE400A0FE01B485A
:100BF00090ED060AD0ED090AB4EEE00AF1EE10FA23
:100C000002DD90ED090A02E0144890ED060A13484F
:100C100080ED060A90ED070AD0ED0A0AF1EE600AAF
:100C2000B4EEE00A26E00000D4060020CDCC4C3E15
:100C3000D00900200000FA435C08002008000020D2
:100C40000000204200001643200000201F85EB51C9
:100C5000B81E0940680800201800002098070020EE
:100C60001C0000200AD7A33B6666263F3333B33E01
:100C70000C000020F1EE10FA04D290ED0A0AB1EE59
:100C8000400A0FE0FC4890ED070AD0ED0A0AB4EEE6
:100C9000E00AF1EE10FA02DD90ED0A0A02E0F648F1
:100CA00090ED070AF44880ED070A90ED080AD0EDB0
:100CB0000B0AF1EE600AB4EEE00AF1EE10FA04D28B
:100CC00090ED0B0AB1EE400A0FE0EB4890ED080AF8
:100CD000D0ED0B0AB4EEE00AF1EE10FA02DD90ED71
:100CE0000B0A02E0E44890ED080AE34880ED080AA8
:100CF00090ED000ADFEDE10AB4EEE00AF1EE10FA41
:100D000002D29FEDDE0A0FE0DB4890ED000ADFED36
:100D1000DC0AB4EEE00AF1EE10FA02DD9FEDD80A2B
:100D200002E0D54890ED000AD34880ED000A90ED2E
:100D3000010ADFEDD20AB4EEE00AF1EE10FA02D2B7
:100D40009FEDCE0A0FE0CC4890ED010ADFEDCC0A12
:100D5000B4EEE00AF1EE10FA02DD9FEDC90A02E0FE
:100D6000C54890ED010AC44880ED010A90ED020AE1
:100D7000DFEDC20AB4EEE00AF1EE10FA02D29FED06
:100D8000BF0A0FE0BC4890ED020ADFEDBD0AB4EEE9
:100D9000E00AF1EE10FA02DD9FEDB90A02E0B64872
:100DA00090ED020AB44880ED020A90ED000AD0ED01
:100DB0000C0A30EE200AD0ED060A30EE200AD0ED03
:100DC000150A20EE200A80ED120A90ED010AD0EDFE
:100DD0000D0A30EE200AD0ED070A30EE200AD0EDE1
:100DE000190A20EE200A80ED130A90ED020AD0EDD8
:100DF0000E0A30EE200AD0ED080A30EE200AD0EDBF
:100E00001D0A20EE200A80ED140A90ED000A80ED04
:100E1000030A90ED010A80ED040A90ED020A80EDCC
:100E2000050ABDEC0E8B10BD10B52DED048B8AB0FC
:100E3000F0EE408AB0EE609AB0EE418A9FED910AE2
:100E4000B4EEC08AF1EE10FA02D29FED8E0A0BE0EA
:100E50009FED8D0AB4EEC08AF1EE10FA02DD9FED2F
:100E60008A0A01E0B0EE480AB0EE408AB1EE680AA4
:100E700030EE090A30EE080A8DED040A38EE890AD0
:100E800030EE480A8DED050A38EEC90A30EE080A40
:100E90008DED060AB1EE680A30EE490A30EE480AD6
:100EA0008DED070A002429E004A800EB840090EDF2
:100EB000000ADFED760AB4EEE00AF1EE10FA02D293
:100EC0009FED720A13E004A800EB840090ED000A85
:100ED000DFED6F0AB4EEE00AF1EE10FA02DD9FEDED
:100EE0006C0A04E004A800EB840090ED000A04A85A
:100EF00000EB840080ED000A601CC4B2042CD3DB3C
:100F00009DED040AB5EEC00AF1EE10FA02DD9DED8A
:100F1000040A03E09DED040AB1EE400ADFED5D0A2C
:100F200060EE200A9FED5A1A80EE810ADFED5A0A20
:100F300030EE200ADDED040A20EE200A8DED000AD5
:100F40009DED050AB5EEC00AF1EE10FA02DD9DED49
:100F5000050A03E09DED050AB1EE400ADFED4D0AFA
:100F600060EE200A9FED4A1A80EE810ADFED4A0A00
:100F700030EE200ADDED050A20EE200A8DED010A93
:100F80009DED060AB5EEC00AF1EE10FA02DD9DED08
:100F9000060A03E09DED060AB1EE400ADFED3D0AC8
:100FA00060EE200A9FED3A1A80EE810ADFED3A0AE0
:100FB00030EE200ADDED060A20EE200A8DED020A51
:100FC0009DED070AB5EEC00AF1EE10FA02DD9DEDC7
:100FD000070A03E09DED070AB1EE400ADFED2D0A96
:100FE00060EE200A9FED2A1A80EE810ADFED2A0AC0
:100FF00030EE200ADDED070A20EE200A8DED030A0F
:10100000DDED000A254890ED000A254890ED001A14
:1010100001EE200A234880ED000ADDED010A1F4899
:1010200090ED000A1E4890ED001A01EE200A1D48BE
:1010300080ED010ADDED020A184890ED000A18481B
:1010400090ED001A01EE200A164880ED020ADDED4F
:10105000030A124890ED000A114890ED001A01EEC3
:10106000200A104880ED030A0F48007878B30F4833
:10107000007868BB002447E0980700200000B4C255
:101080000000B4420000C8C30000C84300007AC496
:1010900000007A446666E63ECDCC0C3F040000209A
:1010A0000C000020A8080020A40400200800002054
:1010B000FE4800EB840090ED000ADFEDFD0AB4EE7F
:1010C000E00AF1EE10FA04D29FEDF90A15E04BE0C8
:1010D0001DE0F64800EB840090ED000A5FED140A75
:1010E000B4EEE00AF1EE10FA02DD1FED170A04E09B
:1010F000EE4800EB840090ED000AEC4800EB840021
:1011000080ED000A601CC4B2042CD1DB39E000245D
:1011100027E0E64800EB840090ED000AB5EEC00A37
:10112000F1EE10FA02D29FEDE30A13E0DF4800EB84
:10113000840090ED000A5FED2A0AB4EEE00AF1EEB9
:1011400010FA02DD1FED2E0A04E0D84800EB8400FF
:1011500090ED000AD54800EB840080ED000A601C89
:10116000C4B2042CD5DB0CE0002408E09FEDD10ACA
:10117000CE4800EB840080ED000A601CC4B2042C51
:10118000F4DBCA4890ED000ABDEEC00A10EE100A6A
:1011900000B2ADF82000C54890ED010ABDEEC00ACE
:1011A00010EE100A00B2ADF82200C04890ED020A1D
:1011B000BDEEC00A10EE100A00B2ADF82400BB4824
:1011C00090ED030ABDEEC00A10EE100A00B2ADF8B1
:1011D00026004FF47A72002108A804F0E8FC0AB057
:1011E000BDEC048B10BD10B52DED028BB0EE408A26
:1011F000B14890ED020ADFEDB10A30EE200AB048A6
:1012000080ED000AD0ED000A1FED611A80EE810A20
:10121000AC48D0ED000A70EE600A9FEDAB0A28EEF4
:10122000001A90ED000A01EE200A80ED000A90ED10
:10123000000AB5EEC00AF1EE10FA02D29FED9D0A47
:101240000FE0A04890ED000AF7EE000AB4EEE00AC5
:10125000F1EE10FA02DDB7EE000A02E0994890EDD7
:10126000000A9A4880ED000A954890ED000ADFEDEB
:10127000980AB4EEE00AF1EE10FA03D20120954983
:10128000087002E000209349087093480078012814
:1012900002D103F02BFD05E08F480078022801D130
:1012A00003F039FD8648D0ED000AB0EE480A03F09D
:1012B00098FC8A4890ED000A894880ED000A90ED7C
:1012C000000AB5EEC00AF1EE10FA02D29FED790ADB
:1012D0000FE0834890ED000ADFED820AB4EEE00AE9
:1012E000F1EE10FA02DD9FED7F0A02E07C4890EDFE
:1012F000000A7B4880ED000ABDEC028B10BD00B5F2
:101300002DED028B83B0B0EE408A774890ED120A43
:10131000F3EE0E0A80EE201A9FED740A21EE000A09
:101320008DED000AD0ED130AB3EE0E1A80EE810A9D
:10133000DFED6E0A20EE200A8DED010A90ED140A11
:10134000F3EE0E0A80EE201A9FED680A21EE000AE5
:101350008DED020A9DED000A654880ED000A9DEDC5
:10136000010A80ED010A9DED020A80ED020A90ED6E
:10137000000ADFED600AB4EEE00AF1EE10FA02D2E4
:101380009FED5C0A0FE05A4890ED000ADFED570A26
:10139000B4EEE00AF1EE10FA02DD9FED540A02E02D
:1013A000534890ED000A524880ED000A90ED010A82
:1013B000DFED500AB4EEE00AF1EE10FA02D29FED32
:1013C0004D0A0FE04A4890ED010ADFED480AB4EEFD
:1013D000E00AF1EE10FA02DD9FED440A02E0444813
:1013E00090ED010A424880ED010A90ED020ADFED1E
:1013F000410AB4EEE00AF1EE10FA02D29FED3D0A86
:101400000FE03B4890ED020ADFED380AB4EEE00A47
:10141000F1EE10FA02DD9FED350A02E0344890ED5E
:10142000020A334880ED020ADFED330A80EE880AB3
:101430003248D0ED0A0A324890ED001A70EEC10A27
:1014400020EE200A2F4880ED0F0ADFED2B0A80EEF8
:10145000880A2A48D0ED0B0AF1EE600A284890ED80
:10146000011A70EEC10A20EE200A264880ED100A0B
:10147000DFED210A80EE880A2048D0ED0C0AF1EE5B
:10148000600A1F4890ED021A70EEC10A20EE200A91
:101490001C4880ED110A164890ED000A1748D0ED5F
:1014A0000A0A30EE600AF7EE000A2DE0A8080020D4
:1014B0000000484300000000D00900200000FA436B
:1014C00010000020140000203433FB410C000020E9
:1014D0000000C84208000020A8040020C404002026
:1014E00004000020000048449807002000009643B4
:1014F00080080020000096C36F12033B140B0020ED
:101500008C080020D406002020EE200AFE4880ED42
:10151000000AFE4890ED010AFD48D0ED0B0A30EEBE
:10152000200AF7EE000A20EE200AF74880ED010AB3
:10153000F64890ED020AF648D0ED0C0A30EE200A8B
:10154000F7EE000A20EE200AEF4880ED020A90ED47
:10155000000AB5EEC00AF1EE10FA02DD90ED000AC5
:1015600004E0E94890ED000AB1EE400A5FED210A7F
:1015700080EE201AE44880ED2D1A90ED010AB5EEB8
:10158000C00AF1EE10FA02DD90ED010A04E0DE4837
:1015900090ED010AB1EE400A5FED2C0A80EE201AB0
:1015A000D94880ED2E1A90ED020AB5EEC00AF1EE90
:1015B00010FA02DD90ED020A04E0D34890ED020A31
:1015C000B1EE400ADFEDD30A80EE201ACE4880ED5E
:1015D0002F1A5FED370A80EE880AD0ED160A90EDDB
:1015E0000F1AFAEE041A21EE211A60EE810A20EE9B
:1015F000200A80ED0C0A5FED400A80EE880AD0EDEB
:101600001A0A90ED101AFAEE041A21EE211A60EE71
:10161000810A20EE200A80ED0D0A5FED490A80EE76
:10162000880AD0ED1E0A90ED111AFAEE041A21EE86
:10163000211A60EE810A20EE200A80ED0E0A90ED5C
:10164000000AD0ED0F0A30EE600AD0ED170A60EE06
:10165000200A90ED060A00EE880A80ED060A90ED59
:10166000010AD0ED100A30EE600AD0ED1B0A60EEE0
:10167000200A90ED070A00EE880A80ED070A90ED37
:10168000020AD0ED110A30EE600AD0ED1F0A60EEBA
:10169000200A90ED080A00EE880A80ED080A9E48AC
:1016A00090ED000AF6EE000A20EE200A5FED710AC6
:1016B00020EE200A944880ED090A974890ED000A30
:1016C000F6EE000A20EE200A5FED780A20EE200AEE
:1016D0008D4880ED0A0A904890ED000AF6EE000A67
:1016E00020EE200A5FED7F0A20EE200A864880ED7A
:1016F0000B0A90ED060AD0ED090AF1EE600AB4EE8D
:10170000E00AF1EE10FA04D290ED090AB1EE400AB7
:101710000FE07D4890ED060AD0ED090AB4EEE00A2C
:10172000F1EE10FA02DD90ED090A02E0764890ED44
:10173000060A754880ED060A90ED070AD0ED0A0A00
:10174000F1EE600AB4EEE00AF1EE10FA04D290ED88
:101750000A0AB1EE400A0FE06B4890ED070AD0ED9F
:101760000A0AB4EEE00AF1EE10FA02DD90ED0A0A80
:1017700002E0654890ED070A634880ED070A90EDA6
:10178000080AD0ED0B0AF1EE600AB4EEE00AF1EEC1
:1017900010FA04D290ED0B0AB1EE400A0FE05A485D
:1017A00090ED080AD0ED0B0AB4EEE00AF1EE10FA63
:1017B00002DD90ED0B0A02E0534890ED080A524812
:1017C00080ED080A90ED300AF7EE000A30EEC00A0C
:1017D000D0ED150A20EE200AD0ED000A90ED0C1A8B
:1017E00070EE810A90ED061A70EE810A60EE200A12
:1017F00090ED301A4948D0ED2D1A9FED490A9FED22
:10180000492A02EE210AB5EEC00AF1EE10FA02D220
:101810001FEDD80A1BE04148D0ED2D1A9FED400A7C
:101820009FED402A02EE210AF7EE001AB4EEE10A1B
:10183000F1EE10FA02DDB7EE000A08E03748D0ED0D
:101840002D1A9FED370A9FED372A02EE210A21EE6D
:10185000000A2E4890ED001A40EE010AB0EE080A88
:1018600020EE800A284880ED120A90ED300AF7EE4B
:10187000000A30EEC00AD0ED190A20EE200AD0EDA1
:10188000010A90ED0D1A70EE810A90ED071A70EEC4
:10189000810A60EE200A90ED301A2048D0ED2E1A11
:1018A0009FED1F0A9FED1F2A02EE210AB5EEC00A26
:1018B000F1EE10FA02D29FED1C0A1BE01748D0EDA2
:1018C0002E1A9FED170A9FED172A02EE210AF7EE56
:1018D000001AB4EEE10AF1EE10FA02DDB7EE000AEA
:1018E00008E00E48D0ED2E1A9FED0D0A9FED0D2A4F
:1018F00002EE210A21EE000A044890ED011A40EEA2
:10190000010AB0EE080A11E0D40600208008002089
:10191000140B0020000016430C0000209807002044
:101920006666E63ECDCC0C3F0000000020EE800A4B
:10193000474880ED130A90ED300AF7EE000A30EECA
:10194000C00AD0ED1D0A20EE200AD0ED020A90ED6B
:101950000E1A70EE810A90ED081A70EE810A60EEA0
:10196000200A90ED301A3B48D0ED2F1A1FED140AD3
:101970001FED142A02EE210AB5EEC00AF1EE10FAAC
:1019800002D21FED170A1BE03248D0ED2F1A1FEDCF
:101990001C0A1FED1C2A02EE210AF7EE001AB4EE13
:1019A000E10AF1EE10FA02DDB7EE000A08E029487C
:1019B000D0ED2F1A1FED260A1FED262A02EE210A6E
:1019C00021EE000A244890ED021A40EE010AB0EE22
:1019D000080A20EE800A1E4880ED140AB0EE480A7C
:1019E000FFF701FC1A48D0ED141AB0EE611AD0EDE1
:1019F000131AF0EE610AD0ED121AB0EE610AFFF789
:101A000013FA134890ED000A80ED030A90ED010AE5
:101A100080ED040A90ED020A80ED050A0F4890ED72
:101A20000A0A0F4880ED000A0C4890ED0B0AB1EE4F
:101A3000400A0B4880ED010A084890ED0C0AB1EE0F
:101A4000400A074880ED020A03B0BDEC028B00BDDE
:101A5000D40600209807002080080020140B0020E6
:101A60008C08002070B52DED108BB0EE408AB0EEE2
:101A700060EAF0EE41EAB0EE61FAF0EE429AB0EEC2
:101A8000629AF0EE438A04460D4616469FEDFB0A25
:101A900028EE000AF3EE040A20EE200AF0EE40AA37
:101AA000F748D0ED080A60EEA00A90ED091AD0EDD3
:101AB000091A41EE210A90ED0A1AD0ED0A1A41EEF8
:101AC000210AB0EE600A00F006FDEE4880ED000A43
:101AD00090ED000AB5EEC00AF1EE10FA38D0E848F1
:101AE00090ED080AE748D0ED000A80EE201AE6489B
:101AF00090ED000A71EE400A90ED000A0AEEA00A8D
:101B000080ED000ADE4890ED090ADE48D0ED000ABB
:101B100080EE201ADC4890ED010A71EE400A90ED4B
:101B2000010A0AEEA00A80ED010AD548D0ED0A0AA2
:101B3000D44890ED001A80EE810AD348D0ED020A15
:101B400070EE600A90ED020A0AEEA00A80ED020A29
:101B5000CE4ACD49CE4802F042FFCC48D0ED000A33
:101B600060EEA00A90ED011AD0ED011A41EE210AB3
:101B7000B0EE600A00F0AFFCC64880ED000AC34832
:101B800090ED000AB5EEC00AF1EE10FA36D090EDF5
:101B9000010AB5EEC00AF1EE10FA2FD090ED020A5C
:101BA000B5EEC00AF1EE10FA28D0BA4890ED000A5E
:101BB000B5EEC00AF1EE10FA20D0B44890ED000A5C
:101BC000B448D0ED000A80EE201AB0EE41BAAF481A
:101BD00090ED010AAF48D0ED000A80EE201AF0EE39
:101BE00041BAF0EE4B0AB0EE6B0A00F0B4FBDFED49
:101BF000AA0A20EE200AA94880ED000AA84890ED24
:101C0000010AD0ED030A20EE200AD0ED000A90ED83
:101C1000021A00EEC10AF0EE000A20EE200A9C48EB
:101C200080ED000A9E4890ED000AD0ED010A20EEFA
:101C3000200AD0ED020A90ED031A00EE810AF0EEC0
:101C4000000A20EE200A924880ED010A944890EDA7
:101C5000010A20EE000AD0ED020A90ED021A00EE11
:101C6000810AF7EE000AB0EE001A41EE400A8848F9
:101C7000C0ED020A69EEA90A49EE090A48EEA80A6F
:101C8000B0EE600A00F027FC864880ED000A9FED68
:101C90007B0A28EE000AF2EE040A60EE200A90EDBC
:101CA000000A814890ED001A30EE411A90ED000ACA
:101CB00000EE810A80ED000AF5EEC09AF1EE10FA0E
:101CC00002DDB0EE690A01E0B1EE690ADFED770AE4
:101CD000B4EEE00AF1EE10FA7DD2B5EEC09AF1EE64
:101CE00010FA02DDB0EE490A01E0B1EE490ADFED7B
:101CF0006F0AB4EEE00AF1EE10FA78D2F5EEC08A7F
:101D0000F1EE10FA02DDB0EE680A01E0B1EE680A09
:101D1000DFED660AB4EEE00AF1EE10FA67D2614830
:101D200090ED000AC9EE800AF0EE609A90ED000A8C
:101D3000C9EE000AB0EE609A90ED000AC8EE800A83
:101D4000F0EE608A90ED000ADFED590AB4EEE00A89
:101D5000F1EE10FA54DD90ED000ADFED540AB4EE16
:101D6000E00AF1EE10FA4BD2494890ED020A20EE5B
:101D7000090AD0ED010A08EEE00A4E4880ED030A98
:101D8000434890ED000A20EE280AD0ED020A09EE41
:101D9000E00A484880ED040A9FED380A28EE000A60
:101DA000F7EE000A20EE20AA90ED030AD0ED060A15
:101DB00070EE600A90ED060A0AEE200A80ED060A2F
:101DC00090ED040AD0ED070A70EE600A90ED070A64
:101DD0000AEE200A00E00AE080ED070A90ED060A0C
:101DE00080ED000A90ED070A80ED010A08E09FED02
:101DF000320A304880ED000A9FED2F0A80ED010A7B
:101E00002C4890ED090AD0ED000A9FED2C1A60EEE7
:101E1000810AB0EE001A60EE810A00EE880A80EDB9
:101E2000090A90ED0A0AD0ED010A9FED241A60EE2E
:101E3000810AB0EE001A60EE810A00EE880A80ED99
:101E40000A0A90ED0B0AD0ED020A9FED1C1A60EE13
:101E5000810AB0EE001A60EE810A00EE880A80ED79
:101E60000B0A90ED090ADFED160AB4EEE00AF1EE76
:101E700010FA27D29FED120A34E00000C3F5C840E3
:101E80002C050020440000202C09002020090020FF
:101E9000D808002040000020333365424C00002069
:101EA00024000020340000203C00002000808945F0
:101EB00000806D45E408002000000000CDCCCC3D42
:101EC00034FA0EBDFE4890ED090ADFEDFE0AB4EECD
:101ED000E00AF1EE10FA02DD9FEDFA0A02E0F8489E
:101EE00090ED090AF64880ED090A90ED0A0A5FEDC7
:101EF0000C0AB4EEE00AF1EE10FA02D21FED100A5D
:101F00000FE0EF4890ED0A0ADFEDEE0AB4EEE00ACA
:101F1000F1EE10FA02DD9FEDEB0A02E0E84890EDE9
:101F20000A0AE74880ED0A0A90ED0B0A5FED1C0AE9
:101F3000B4EEE00AF1EE10FA02D21FED1F0A0FE034
:101F4000DF4890ED0B0ADFEDDF0AB4EEE00AF1EEB8
:101F500010FA02DD9FEDDB0A02E0D94890ED0B0A92
:101F6000D74880ED0B0AD84890ED020AB5EEC00ABA
:101F7000F1EE10FA29DDD548007898B1D448D0EDBB
:101F8000000AD44890ED001A70EEC10AB0EE600A63
:101F900000F03CFCDFEDD00A20EE200ACF4880EDB7
:101FA000000A12E0CA48D0ED000ACA4890ED001AB3
:101FB00070EEC10AB0EE600A00F028FCDFEDC80A3E
:101FC00020EE200AC54880ED000ABD4890ED000AC9
:101FD000D0ED090A30EE200ADFEDC20A20EE200A19
:101FE000B94890ED001ABD48D0ED001AF0EE4E0A47
:101FF00041EE610A9FEDBC1A00EE810AB04880ED07
:102000000C0A90ED010AD0ED0A0A30EE200ADFED4D
:10201000B50A20EE200AAC4890ED011AAF48D0ED89
:10202000001AF0EE6E0A41EE610A9FEDAF1A00EE63
:10203000810AA34880ED0D0AA348D0ED020AA74803
:1020400090ED001AB0EE4F0A00EEC10ADFEDA60ACD
:1020500020EE200A9A4880ED0E0AA44890ED010A6D
:10206000B1EE400A9648D0ED0C0A20EE200A9F48B7
:10207000D0ED020A924890ED0D1A00EEC10A9B487D
:10208000D0ED030A8E4890ED0E1A00EEC10A974873
:10209000D0ED000A40EE080AC0ED000A90ED000AFB
:1020A0008748D0ED0C0A20EE200A9048D0ED020AB5
:1020B000834890ED0E1A00EE810A8C48D0ED030A99
:1020C0007F4890ED0D1A00EEC10A8848D0ED010A54
:1020D00040EE080AC0ED010A90ED000A7848D0ED04
:1020E0000D0A20EE200A8148D0ED010A744890EDD7
:1020F0000E1A00EEC10A7D48D0ED030A704890ED3B
:102100000C1A00EE810A7948D0ED020A40EE080A66
:10211000C0ED020A90ED000A6948D0ED0E0A20EEEB
:10212000200A7248D0ED010A654890ED0D1A00EEC4
:10213000810A6E48D0ED020A614890ED0C1A00EE5B
:10214000C10A6A48D0ED030A40EE080AC0ED030A4E
:10215000D0ED000A60EEA00A90ED011AD0ED011A50
:1021600041EE210A90ED021AD0ED021A41EE210A49
:1021700090ED031AD0ED031A41EE210AB0EE600A89
:1021800000F0A9F95A4880ED000A584890ED000A7D
:102190005748D0ED000A80EE201A544880ED001A0E
:1021A00090ED010A5248D0ED000A80EE201A4F4807
:1021B00080ED011A90ED020A4D48D0ED000A80EE44
:1021C000201A4A4880ED021A90ED030A4848D0EDE3
:1021D000000A80EE201A454880ED031A90ED011A9E
:1021E00021EE011AD0ED021A90ED022A01EE821AB8
:1021F000F7EE001AB0EE002A42EE411AF0EE610A44
:1022000090ED001AD0ED011A21EE211AD0ED021A3C
:1022100090ED032A01EE821AF0EE001A21EE211A47
:10222000B0EE410A00F097F85FEDE50A20EE200AD3
:1022300084ED000A2D4890ED010AD0ED030A20EE4E
:10224000200AD0ED000A90ED021A00EEC10AF0EE6D
:10225000000A20EE200A10EE101A08460AF0B0FE1E
:1022600041EC1D0BB0EE4D0AF0EE6D0A0BF0E4F8F8
:10227000B0EE40CAF0EE60CA9FED1E0B53EC102B7F
:1022800051EC1C0B0AF019FE41EC1B0B0AF0DCFEB2
:102290002860164890ED001A21EE011AD0ED011ABF
:1022A00090ED012A01EE821AF7EE001AB0EE002A34
:1022B00052EE011AF0EE610A90ED011A1EE00000E4
:1022C000E408002034FA0E3DD8080020A4040020C1
:1022D0004C0000202000002090C2F53D4800002066
:1022E0006766663F9A99193F34FA8E3C24000020B5
:1022F000380000200000006066A64C40B1EE411A94
:10230000D0ED021A21EE211AD0ED001A90ED032A29
:1023100001EEC21AF0EE001A21EE211AB0EE410AC7
:1023200000F019F8DFED040A20EE200A86ED000A1D
:10233000BDEC108B70BD000033336542F0EE400AF7
:10234000F5EEC00AF1EE10FA02DBB0EE600A70475B
:10235000B1EE600AFBE700B5B0EE403AB0EE602A9D
:10236000B5EEC03AF1EE10FA07D1B5EEC02AF1EEA3
:1023700010FA02D19FEDFD1A99E0B0EE430AFFF783
:10238000DDFFF0EE403AB0EE420AFFF7D7FFF0EE85
:10239000402AF4EEE23AF1EE10FA02D283EEA24ABB
:1023A00001E082EEA34A9FEDF20AB4EEC04AF1EEDC
:1023B00010FA02D2F0EE441A2DE0DFEDEE0AB6EE8E
:1023C000000A14EE200AF0EE404ABDEEE40A10EED8
:1023D000100A00EE100AB8EEC00A34EEC00AF0EEA1
:1023E000404AE54901EB800191ED000AF0EE401A08
:1023F000E14A411C02EB810191ED000A114601EB1B
:102400008001D1ED000A70EE600AB0EE610A00EEC4
:10241000A40AF0EE401AF4EEE32AF1EE10FA20DD01
:10242000B5EEC02AF1EE10FA0ADBB5EEC03AF1EED5
:1024300010FA02DBB0EE611A39E0B1EE611A36E053
:102440009FEDCE1AB5EEC03AF1EE10FA04DB31EE94
:10245000610AB0EE401A2AE031EEC10AB0EE401A2D
:1024600025E0B5EEC03AF1EE10FA10DB9FEDC41A8C
:10247000B5EEC02AF1EE10FA04DB31EE610AB0EEDF
:10248000401A14E031EE210AB0EE401A0FE09FED41
:10249000BD1AB5EEC02AF1EE10FA04DB31EE210AC6
:1024A000B0EE401A03E031EE610AB0EE401AB0EE31
:1024B000410A00BD00B5B0EE405AF0EE605AF0EEB1
:1024C000450AB0EE650AFFF746FF00BDF0EE400A90
:1024D00020EEA00A7047B0EE401AB7EE080AB0EE40
:1024E000402AB6EE000A21EE000AF0EE401AF0EEA5
:1024F000410A10EE900AA449A1EB600000EE900A98
:1025000061EEA02AB7EE080A02EEE00A20EE200AE9
:10251000F0EE400A61EEA02AB7EE080A02EEE00AE9
:1025200020EE200AF0EE400A21EE200A704710B596
:102530002DED0A8BB0EE409AF0EE609A9FED930B72
:1025400053EC102B51EC190B0AF04EFD18D29FEDF5
:10255000910B53EC102B51EC190B0AF0AEFC41EC33
:102560001B0B9FED8E0B53EC102B0AF0FFFB41EC85
:102570001A0B53EC192B0AF0A0FC41EC180B17E0D6
:102580009FED840B53EC102B51EC190B0AF095FCCA
:1025900041EC1B0B9FED810B53EC102B0AF08AFCD6
:1025A00041EC1A0B53EC192B0AF087FC41EC180B89
:1025B0009FED760B53EC102B51EC180B0AF014FD29
:1025C00020D29FED780B53EC102B51EC180B0AF036
:1025D000CDFB41EC1C0B9FED750B53EC102B0AF05F
:1025E0006CFC41EC1B0B9FED6F0B53EC102B0AF0B6
:1025F000BDFB41EC1A0B53EC182B0AF05EFC41ECCE
:10260000180B1FE09FED670B53EC102B51EC180BD0
:102610000AF04DFC41EC1C0B9FED660B53EC102BAC
:102620000AF04BFC41EC1B0B9FED5E0B53EC102BA7
:102630000AF09CFB41EC1A0B53EC182B0AF03DFC02
:1026400041EC180BB0EE480AF0EE680ABDEC0A8BBC
:1026500010BD10B52DED068BB0EE408AF0EE608A0D
:1026600001249FED560B53EC102B51EC180B0AF084
:10267000D3FC0AD89FED510B53EC102B51EC180BE7
:102680000AF015FC41EC180BA41E20460AF087FC4A
:1026900041EC190BB0EE480AF0EE680AFFF747FF6D
:1026A000B0EE40AAF0EE60AA53EC192B51EC1A0BD5
:1026B0000AF003FC41EC100BBDEC068B10BD10B50D
:1026C0002DED088BB0EE408AF0EE608A01249FED7C
:1026D0003D0B53EC102B51EC180B0AF047FB41EC6F
:1026E000180B9FED360B53EC102B51EC180B0AF026
:1026F00093FC0AD8A41E9FED310B53EC102B51EC28
:10270000180B0AF0D4FB41EC180B20460AF047FCEA
:1027100041EC1A0BB0EE480AF0EE680AFFF799FF99
:10272000B0EE40BAF0EE60BA53EC1A2B51EC1B0B32
:102730000AF0C3FB41EC190B0AF086FC00EE100A0C
:10274000BDEC088B10BDB0EE401AB5EEC01AF1EE2C
:1027500010FA3BDD31EE600AB5EEC00AF1EE10FA78
:102760003FD2DFED021AB0EE610A3AE0000000004D
:102770008180803B0000804350000020DB0F4940F7
:10278000DB0FC93FDB0FC9BFDF59375F0000000017
:1027900000000000000000602FF0D93F0000006042
:1027A000305FF43F000000000000F03F000000C078
:1027B000CCCCCCBF000000C0CCCCCC3FF1D4C853B3
:1027C000FB210940F1D4C853FB21F93F31EE200A27
:1027D000B5EEC00AF1EE10FA03DD5FED1C1AB0EEA3
:1027E000610A7047B0EE401AF1EE601AB4EEE11AD9
:1027F000F1EE10FA07DDB4EEE01AF1EE10FA02D2B3
:102800001FED260A01E0B0EE410A7047F0EE400AE3
:102810009FED210AF4EEC00AF1EE10FA04DD9FEDFF
:102820001F0A30EEC00A70479FED1D0AF4EEC00A81
:10283000F1EE10FA04D29FED190A30EE800AF2E7A9
:10284000B0EE600AEFE7F0EE401AB7EE000AF4EEE1
:10285000C00AF1EE10FA04DCF5EEC00AF1EE10FA4F
:1028600002D21FED3E0A704781EE810AB5EEC00A22
:10287000F1EE10FA02DD81EE810A03E081EE810AB9
:10288000B1EE400A20EE202AB7EE000A30EE600AD0
:1028900002EE210AE7E70000000034430000B443E1
:1028A000000034C370B505460C462146F84804F0D4
:1028B00004FB70BD2DE9F0432DED028B83B005467E
:1028C0000E4617469846B0EE408A0024AA222146BA
:1028D000641CEF4842542146641C425404222146A1
:1028E000641C425400222146641C42542146641C4C
:1028F00045542146641C465401979DF80720214603
:10290000641C42549DF806202046611CCCB2E0496C
:102910000A549DF805202046611CCCB2DC490A54BB
:102920009DF804202046611CCCB2D9490A54CDF848
:1029300004809DF807202046611CCCB2D4490A547B
:102940009DF806202046611CCCB2D1490A549DF85E
:1029500005202046611CCCB2CD490A549DF80420C4
:102960002046611CCCB2CA490A549FEDCA0A28EE1F
:10297000000ABDEEC00A10EE100A00B202909DF8E7
:1029800009202046611CCCB2C1490A549DF8082098
:102990002046611CCCB2BE490A54201FC8704FF0BB
:1029A0000009002006E0BA49095C494401F0FF092A
:1029B000411CC8B2A042F6DB2046611CCCB2B4492F
:1029C00001F800902146B248FFF76CFF03B0BDEC60
:1029D000028BBDE8F08370B52DED0A8B82B0054601
:1029E000B0EE408AF0EE608AB0EE419AF0EE619A65
:1029F000B0EE42AAF0EE62AAB0EE43BAF0EE63BACD
:102A0000B0EE44CA0024AA222146641CA0484254C5
:102A10002146641C425405F10F00C2B22146641CD9
:102A20009B48425400222146641C42549FED9A0A5E
:102A300028EE000ABDEEC00A10EE100A00B20190A6
:102A40009DF805202146641C914842549DF80420BD
:102A50002146641C42549FED900A28EE800ABDEE88
:102A6000C00A10EE100A00B201909DF80520214620
:102A7000641C874842549DF804202046611CCCB257
:102A800083490A549FED840A29EE000ABDEEC00A6C
:102A900010EE100A00B201909DF805202046611C3E
:102AA000CCB27B490A549DF804202046611CCCB26C
:102AB00077490A549FED780A29EE800ABDEEC00AD4
:102AC00010EE100A00B201909DF805202046611C0E
:102AD000CCB26F490A549DF804202046611CCCB248
:102AE0006B490A549FED6C0A2AEE000ABDEEC00A3B
:102AF00010EE100A00B201909DF805202046611CDE
:102B0000CCB263490A549DF804202046611CCCB223
:102B10005F490A549FED600A2AEE800ABDEEC00AA2
:102B200010EE100A00B201909DF805202046611CAD
:102B3000CCB257490A549DF804202046611CCCB2FF
:102B400053490A549FED540A2BEE000ABDEEC00A09
:102B500010EE100A00B201909DF805202046611C7D
:102B6000CCB24B490A549DF804202046611CCCB2DB
:102B700047490A549FED480A2BEE800ABDEEC00A71
:102B800010EE100A00B201909DF805202046611C4D
:102B9000CCB23F490A549DF804202046611CCCB2B7
:102BA0003B490A549FED3C0A2CEE000ABDEEC00AD8
:102BB00010EE100A00B201909DF805202046611C1D
:102BC000CCB233490A549DF804202046611CCCB293
:102BD0002F490A54201FC8700026002005E02C4908
:102BE000095C3144CEB2411CC8B2A042F7DB20469A
:102BF000611CCCB226490E5421462548FFF752FEEF
:102C000002B0BDEC0A8B70BDF8B505460E46002437
:102C1000AA222146641C1E4842542146641C425488
:102C200005222146641C425400222146641C425461
:102C300000959DF801202146641C42549DF8002017
:102C40002146641C425400969DF801202146641CD4
:102C500042549DF800202146601CC4B20C484254E6
:102C6000201F0B49C8700027002005E00849095CB7
:102C70003944CFB2411CC8B2A042F7DB2046611CE8
:102C8000CCB203490F5421460148FFF70BFEF8BDB3
:102C9000490900200000C84200007A447FB50024A2
:102CA000AA222146641CFE4842542146641C425418
:102CB00006222146641C425400222146641C4254D0
:102CC0009DF801202146641C42549DF800202146B5
:102CD000641C42549DF805202146641C42549DF812
:102CE00004202046611CCCB2ED490A549DF809200D
:102CF0002046611CCCB2EA490A549DF808202046BF
:102D0000611CCCB2E6490A549DF80D202046611C96
:102D1000CCB2E3490A549DF80C202146601CC4B291
:102D2000DF4842549DF821202046611CCCB2DC498A
:102D30000A549DF820202046611CCCB2D8490A5480
:102D40009DF825202046611CCCB2D5490A549DF837
:102D500024202046611CCCB2D1490A549DF8292078
:102D60002046611CCCB2CE490A549DF8282020464A
:102D7000611CCCB2CA490A549DF82D202046611C22
:102D8000CCB2C7490A549DF82C202046611CCCB215
:102D9000C3490A54201FC8700025002005E0C0491F
:102DA000095C2944CDB2411CC8B2A042F7DB2046E1
:102DB000611CCCB2BA490D542146B948FFF772FDE7
:102DC0007FBD7FB50024AA222146641CB44842542A
:102DD0002146641C425403222146641C42540022B2
:102DE0002146641C42549DF801202146641C425433
:102DF0009DF800202146641C42549DF80520214680
:102E0000641C42549DF804202046611CCCB2A449A5
:102E10000A549DF809202046611CCCB2A0490A54EE
:102E20009DF808202046611CCCB29D490A549DF8AB
:102E30000D202046611CCCB299490A549DF80C2003
:102E40002046611CCCB296490A549DF821202046A8
:102E5000611CCCB292490A549DF820202146601C86
:102E6000C4B28F4842549DF825202046611CCCB244
:102E70008B490A549DF824202046611CCCB2884915
:102E80000A549DF829202046611CCCB284490A547A
:102E90009DF828202046611CCCB281490A549DF837
:102EA0002D202046611CCCB27D490A549DF82C206F
:102EB0002046611CCCB27A490A549DF83120204644
:102EC000611CCCB276490A549DF830202046611C22
:102ED000CCB273490A549DF835202046611CCCB20F
:102EE0006F490A549DF834202046611CCCB26C49CD
:102EF0000A54201FC8700025002005E06849095CBD
:102F00002944CDB2411CC8B2A042F7DB2046611C67
:102F1000CCB263490D5421466148FFF7C3FC7FBD25
:102F200073B50024AA222146641C5D484254214600
:102F3000641C425407222146641C4254002221464C
:102F4000641C42549DF803202146641C42549DF8A1
:102F500002202146641C42549DF801202146641C35
:102F600042549DF800202046611CCCB24C490A54C2
:102F70009DF805202046611CCCB249490A549DF8B1
:102F800004202046611CCCB245490A54201FC87059
:102F90000025002005E04249095C2944CDB2411CCE
:102FA000C8B2A042F7DB2046611CCCB23C490D54AC
:102FB00021463B48FFF776FC7CBD2DE9F84F0546DE
:102FC0000E4617469846DDE90AAB0024AA222146A0
:102FD000641C334842542146641C42540222214658
:102FE000641C425400222146641C425400959DF802
:102FF00001202146641C42549DF800202146641C97
:10300000425400969DF801202146641C42549DF8CC
:1030100000202146601CC4B22148425400979DF80C
:1030200001202046611CCCB21D490A549DF80020A5
:103030002046611CCCB21A490A54CDF800809DF894
:1030400001202046611CCCB215490A549DF800208D
:103050002046611CCCB212490A54CDF800A09DF85C
:1030600001202046611CCCB20D490A549DF8002075
:103070002046611CCCB20A490A54CDF800B09DF834
:1030800001202146601CC4B2054842549DF800202E
:103090002146601CC4B2024842540C98009001E0E2
:1030A000490900209DF801202046611CCCB2FE4950
:1030B0000A549DF800202046611CCCB2FA490A54FB
:1030C0000D9800909DF801202046611CCCB2F64975
:1030D0000A549DF800202046611CCCB2F2490A54E3
:1030E0000E9800909DF801202046611CCCB2EE495C
:1030F0000A549DF800202046611CCCB2EA490A54CB
:10310000002000909DF801202046611CCCB2E649C9
:103110000A549DF800202046611CCCB2E2490A54B2
:10312000201FC8704FF00009002006E0DE49095C4E
:10313000494401F0FF09411CC8B2A042F6DB204619
:10314000611CCCB2D84901F800902146D648FFF75F
:10315000A9FBBDE8F88F38B50024AA222146641CDB
:10316000D14842542146641C4254F1222146641C39
:10317000425400222146641C4254002000909DF8D5
:1031800001202146641CC84842549DF80020214675
:10319000641C4254002000909DF801202146641CCC
:1031A000C14842549DF800202046611CCCB2BE4963
:1031B0000A54002000909DF801202046611CCCB2EA
:1031C000B9490A549DF800202046611CCCB2B6498A
:1031D0000A54002000909DF801202046611CCCB2CA
:1031E000B1490A549DF800202046611CCCB2AE497A
:1031F0000A54002000909DF801202046611CCCB2AA
:10320000A9490A549DF800202146601CC4B2A64872
:103210004254201FA449C8700025002005E0A2499F
:10322000095C2944CDB2411CC8B2A042F7DB20465C
:10323000611CCCB29C490D5421469B48FFF732FBE0
:1032400038BD30B52DED048B81B0B0EE408AF0EE84
:10325000608AB0EE419A0024AA222146641C92485A
:1032600042542146641C42540B222146641C4254A1
:1032700000222146641C42549FED8C0A28EE000A6D
:10328000BDEEC00A10EE100A00B200909DF80120B9
:103290002146641C844842549DF800202146641C49
:1032A00042549FED820A28EE800ABDEEC00A10EE5D
:1032B000100A00B200909DF801202146641C7A4853
:1032C00042549DF800202046611CCCB276490A5435
:1032D0009FED760A29EE000ABDEEC00A10EE100A34
:1032E00000B200909DF801202046611CCCB26E49CE
:1032F0000A549DF800202046611CCCB26A490A5449
:10330000201FC8700025002005E06749095C29449A
:10331000CDB2411CC8B2A042F7DB2046611CCCB242
:1033200061490D5421466048FFF7BCFA01B0BDEC7D
:10333000048B30BD2DE9F0432DED048B83B0B0EE4E
:10334000408AF0EE608AB0EE419A05460E46174676
:10335000984600240196AA222146641C52484254F1
:103360002146641C425401222146641C425400221E
:103370002146641C42549FED4E0A28EE000ABDEE21
:10338000C00A10EE100A00B202909DF809202146F2
:10339000641C454842549DF808202146641C425450
:1033A0009FED430A28EE800ABDEEC00A10EE100A17
:1033B00000B202909DF809202146641C3A4842540C
:1033C0009DF808202046611CCCB237490A549FED75
:1033D000380A29EE000ABDEEC00A10EE100A00B24B
:1033E00002909DF809202046611CCCB22E490A5457
:1033F0009DF808202046611CCCB22B490A54029546
:103400009DF809202046611CCCB227490A549DF83A
:1034100008202046611CCCB223490A549DF807209D
:103420002046611CCCB220490A549DF80620204653
:10343000611CCCB21C490A549DF805202046611C31
:10344000CCB219490A549DF804202046611CCCB224
:1034500015490A542046611CCCB213490F5420462A
:10346000611CCCB2104901F80080201FC8704FF0D9
:103470000009002006E00C49095C494401F0FF09FD
:10348000411CC8B2A042F6DB2046611CCCB2064902
:1034900001F8009021460448FFF704FA03B0BDECA0
:1034A000048BBDE8F083000049090020CDCCCC3D61
:1034B0000000C8427FB505460024AA222146641CAC
:1034C000FE4842542146641C425400222146641C9A
:1034D00042542146641C42542146641C45549DF8C4
:1034E00005202146641C42549DF804202146641C9A
:1034F00042549DF809202046611CCCB2EF490A5481
:103500009DF808202046611CCCB2EC490A549DF875
:103510000D202046611CCCB2E8490A549DF80C20CD
:103520002046611CCCB2E5490A549DF82120204672
:10353000611CCCB2E1490A549DF820202046611C50
:10354000CCB2DE490A54201FC8700026002005E0D6
:10355000DA49095C3144CEB2411CC8B2A042F7DB63
:103560002046611CCCB2D5490E542146D348FFF702
:1035700099F97FBD10B586B0D1480078D149097856
:1035800090FBF1F201FB1201CE480078401E81420F
:1035900002D10120CC498870C9480078CB4909780C
:1035A00090FBF1F201FB1201C8480078401E8142F5
:1035B00002D10120C449C870C1480078C4490978C3
:1035C00090FBF1F201FB1201C1480078801E81429C
:1035D00002D10120BC498873B9480078BD490978F7
:1035E00090FBF1F201FB1201BA480078401E8142C3
:1035F00002D10120B4494870B1480078B649097831
:1036000090FBF1F201FB1201B3480078401E8142A9
:1036100002D10120AC498872A9480078AF490978E5
:1036200090FBF1F201FB1201AC480078801E814250
:1036300002D10120A4490873A1480078A84909785B
:1036400090FBF1F201FB1201A5480078801E814237
:1036500002D101209C49487399480078A149097812
:1036600090FBF1F201FB12019E480078C01E8142DE
:1036700002D101209449C873914800789A49097889
:1036800090FBF1F201FB120197480078C01E8142C5
:1036900004D18D48007C401C8B4908748848007810
:1036A000401CC0B286490870C82801DD002008709F
:1036B0008548007860B10020834908704FF4C873D2
:1036C00064224FF4967100900420FFF7F3FE08E2A5
:1036D0007D484078B8B100207B4948708348818894
:1036E00083480378834802788348008800B2834C7B
:1036F00094ED001A824CD4ED000A824C94ED000A3D
:10370000FFF718FEEDE17048C07B58B100206E490C
:10371000C8739FED7D1ADFED7C0A9FED7B0AFFF7F2
:1037200090FDDEE16848807B28B1002066498873FF
:10373000FFF711FDD5E164488078E8B300206249C5
:103740008870724890ED0A0ABDEEC00A10EE100AA9
:1037500000B26E4991ED090ABDEEC00A10EE101AD2
:1037600009B26A4A92ED080ABDEEC00A10EE102AAC
:1037700012B2674B93ED090ABDEEC00A10EE103A83
:103780001BB2CDE90132CDE90310614890ED080A82
:10379000BDEEC00A10EE100A00B25D4C009094ED30
:1037A000070ABDEEC00A10EE104A23B2584C94ED41
:1037B000060ABDEEC00A00E015E010EE104A22B283
:1037C000534C94ED050ABDEEC00A10EE104A21B22A
:1037D0004F4C94ED040ABDEEC00A10EE104A20B220
:1037E000FFF7EBFB7DE13848C07848B1002036494F
:1037F000C8703E49888840490988FFF791FB70E10D
:103800003148807AA8B300202F49887240F2DC52F8
:103810004048C08900F2DC5080B23E49898901F2FB
:10382000DC5189B2CDE903023A4805920291408900
:1038300000F2DC5080B23749098901F2DC5189B2CB
:10384000344CCDE90010648804F2DC54A3B2314C4E
:10385000248804F2DC54A2B22E4CE48804F2DC5436
:10386000A1B22C4CA48804F2DC54A0B2FFF7A9FA50
:1038700037E1FFE71448007BF0B1002012490873DC
:10388000009001900290244C039094ED030ABCEE4A
:10389000C00A10EE104AA3B21F4C94ED020ABCEE0F
:1038A000C00A10EE104AA2B21B4C94ED010ABCEE05
:1038B000C00A10EE104A31E03CE000004909002047
:1038C0005604002057040020380900205804002026
:1038D000590400205A0400205B0400205C040020EE
:1038E0005D0400205E0400205F040020040B002023
:1038F000A4040020A904002080050020200000204E
:103900001C00002018000020000000002C050020F2
:10391000140B0020C0090020A8080020A1B2FE4C12
:1039200094ED000ABCEEC00A10EE104AA0B2FFF7F8
:10393000B5F9D6E0F948407B40B10020F74948731B
:103940004FF4E4717B20FFF75FF9CAE0F348007998
:1039500058B30020F1490871F148D0ED1E4AB0EE8D
:10396000644AD0ED1F4AF0EE643AD0ED1D4AB0EE45
:10397000643AD0ED1A4AF0EE642AD0ED1B4AB0EE5C
:10398000642AD0ED194AF0EE641AD0ED164AB0EE72
:10399000641AD0ED174AF0EE640AD0ED154AB0EE85
:1039A000640A0120FFF717F89BE0DC48407958B320
:1039B0000020DA494871DB48D0ED1E4AB0EE644A77
:1039C000D0ED1F4AF0EE643AD0ED1D4AB0EE643AF5
:1039D000D0ED1A4AF0EE642AD0ED1B4AB0EE642A0C
:1039E000D0ED194AF0EE641AD0ED164AB0EE641A22
:1039F000D0ED174AF0EE640AD0ED154AB0EE640A35
:103A00000220FEF7E8FF6CE0C448807958B300203C
:103A1000C2498871C448D0ED214AB0EE644AD0ED65
:103A2000224AF0EE643AD0ED204AB0EE643AD0ED8E
:103A30001D4AF0EE642AD0ED1E4AB0EE642AD0EDA5
:103A40001C4AF0EE641AD0ED194AB0EE641AD0EDBB
:103A50001A4AF0EE640AD0ED184AB0EE640A032068
:103A6000FEF7B9FF3DE0AD48C07958B30020AB493F
:103A7000C871AE48D0ED084AB0EE644AD0ED074AAE
:103A8000F0EE643AD0ED064AB0EE643AD0ED054A65
:103A9000F0EE642AD0ED044AB0EE642AD0ED034A79
:103AA000F0EE641AD0ED024AB0EE641AD0ED014A8D
:103AB000F0EE640AD0ED004AB0EE640A0420FEF78E
:103AC0008AFF0EE09548007C02280AD10020934925
:103AD00008741FED730A00231A4619461846FEF7AC
:103AE000E9FE06B010BD70B504460D46AA20904907
:103AF00008704870EF2088700220C8700846047172
:103B000045710026002005E08949095C3144CEB2A8
:103B1000411CC8B20628F7DB854886710721FEF7ED
:103B2000C1FE70BD70B52DED048B04460D46002618
:103B3000002004E0215C3144CEB2411CC8B2691EB1
:103B40008142F7DC601910F8010CB04202D0BDECE4
:103B5000048B70BD2078AA2802D16078AF2800D0ED
:103B6000F5E7A078012822D12079012802D17149F6
:103B700008701CE02079022803D101206D494870AB
:103B800015E02079032804D101206A4908704870A3
:103B90000DE02079042803D101206749087006E070
:103BA0002079212802DB2079262800DD00BFA078BB
:103BB000022814D12079012806D15849087148718A
:103BC0008871C871087248722079A02802D101203A
:103BD000524908702079A12801D1FCF7E0FCA078B7
:103BE000032836D155480078022802D0022000F080
:103BF00039FE2079617941EA002051498880A07915
:103C0000E17941EA00204E49C880207A617A41EA90
:103C100000204B490880A07AE17A41EA0020484917
:103C20004880207B617B41EA002045490881A07BD8
:103C3000E17B41EA002042494881207C617C41EAE5
:103C400000203F498881A07CE17C41EA00203C497A
:103C5000C881A07804282AD12079012803D1002026
:103C60003849087023E0207902280FD14FF496607C
:103C7000354988809FED350A354880ED000A0120DE
:103C80003049087002202B49487010E02079032841
:103C900007D101202F49087040F245602A498880E9
:103CA00005E02079042802D102202A490870A07872
:103CB00010287DD12179090209B2627941EA020016
:103CC00009F06DF941EC190B9FED230B53EC102B10
:103CD00009F0F3F841EC180B09F0B6F91049486502
:103CE000A179090209B2E27941EA020009F057F923
:103CF00041EC190B9FED180B53EC102B09F0DDF87C
:103D000041EC180B09F0A0F90549C865217A0902B0
:103D100009B2627A24E00000A808002038090020D7
:103D2000D40600209807002014060020D4050020A7
:103D300049090020140B0020590500206C040020C4
:103D40007C090020A4040020040B0020000048434C
:103D5000C8040020A8040020FCA9F1D24D62503F05
:103D600041EA020009F01BF941EC190B1FED060BAB
:103D700053EC102B09F0A1F841EC180B09F064F991
:103D8000FE498865A17A090209B2E27A41EA020095
:103D900009F005F941EC190B1FED110B53EC102B39
:103DA00009F08BF841EC180B09F04EF9F34900E0EB
:103DB0007BE04866217B090209B2627B41EA02008E
:103DC00009F0EDF841EC190B1FED1D0B53EC102B16
:103DD00009F073F841EC180B09F036F90146E74891
:103DE000C166A17B090209B2E27B41EA020009F047
:103DF000D6F841EC190B1FED280B53EC102B09F0F2
:103E00005CF841EC180B09F01FF90146DB488166AC
:103E1000217C090209B2627C41EA020009F0BFF884
:103E200041EC190B1FED340B53EC102B09F045F846
:103E300041EC180B09F008F9D0494867A17C090248
:103E400009B2E27C41EA020009F0A9F841EC190B41
:103E50001FED3F0B53EC102B09F02FF841EC180B22
:103E600009F0F2F80146C548C167217D090209B28F
:103E7000627D41EA020009F092F841EC190B1FED56
:103E80004A0B53EC102B09F018F841EC180B09F011
:103E9000DBF80146B9488167A0783146FFF723FE79
:103EA000FCF777FB0120B6490880A07811287DD166
:103EB0002179090209B2627941EA020009F06FF83A
:103EC00041EC190B1FED5C0B53EC102B08F0F5FFC8
:103ED00041EC180B09F0B8F8AA494865A179090224
:103EE00009B2E27941EA020009F059F841EC190BF4
:103EF0001FED670B53EC102B08F0DFFF41EC180BA4
:103F000009F0A2F89F49C865217A090209B2627ACC
:103F100041EA020009F043F841EC190B1FED720B66
:103F200053EC102B08F0C9FF41EC180B09F08CF88A
:103F300094498865A17A090209B2E27A41EA02004D
:103F400009F02DF841EC190B1FED7D0B53EC102BF4
:103F500008F0B3FF41EC180B09F076F88949486680
:103F6000217B090209B2627B41EA020009F017F8DD
:103F700041EC190B1FED880B53EC102B08F09DFF43
:103F800041EC180B09F060F801467E48C166A17B40
:103F9000090209B2E27B41EA020009F000F841ECB3
:103FA000190B1FED930B53EC102B00E055E008F0BC
:103FB00084FF41EC180B09F047F80146714881660F
:103FC000217C090209B2627C41EA020008F0E7FFA5
:103FD00041EC190B1FEDA00B53EC102B08F06DFFFB
:103FE00041EC180B09F030F866494867A17C0902DA
:103FF00009B2E27C41EA020008F0D1FF41EC190B62
:104000001FEDAB0B53EC102B08F057FF41EC180BD6
:1040100009F01AF801465B48C167217D090209B21F
:10402000627D41EA020008F0BAFF41EC190B1FED76
:10403000B60B53EC102B08F040FF41EC180B09F0C5
:1040400003F801464F488167A0783146FFF74BFDE2
:10405000FCF79FFA01204A490880A07812287CD1F9
:104060002179090209B2627941EA020008F097FF5A
:1040700041EC190B1FEDC80B53EC102B08F01DFF82
:1040800041EC180B08F0E0FF3F490866A1790902EE
:1040900009B2E27941EA020008F081FF41EC190B14
:1040A0001FEDD30B53EC102B08F007FF41EC180B5E
:1040B00008F0CAFF34498866217A090209B2627A97
:1040C00041EA020008F06BFF41EC190B1FEDDE0B1B
:1040D00053EC102B08F0F1FE41EC180B08F0B4FF84
:1040E00029494866A17A090209B2E27A41EA020046
:1040F00008F055FF41EC190B1FEDE90B53EC102BA9
:1041000008F0DBFE41EC180B08F09EFF1E49086723
:10411000217B090209B2627B41EA020008F03FFFFD
:1041200041EC190B1FEDF40B53EC102B08F0C5FEFE
:1041300041EC180B08F088FF13498867A17B09023E
:1041400009B2E27B41EA020008F029FF41EC190BB9
:104150009FED0E0B53EC102B00E063E008F0ADFE7A
:1041600041EC180B08F070FF07494867217C0902F1
:1041700009B2627C41EA02000CE00000D406002093
:10418000540400209807002014060020FCA9F1D256
:104190004D62503F08F003FF41EC190B1FED050B7A
:1041A00053EC102B08F089FE41EC180B08F04CFF83
:1041B0005E49C1F88000A17C090209B2E27C41EAB3
:1041C000020008F0ECFE41EC190B1FED100B53EC54
:1041D000102B08F072FE41EC180B08F035FF534924
:1041E000C1F88800217D090209B2627D41EA02001E
:1041F00008F0D5FE41EC190B1FED1C0B53EC102BF6
:1042000008F05BFE41EC180B08F01EFF4749C1F8AF
:104210008400A0783146FFF766FCFCF7BAF901206C
:1042200043490880A078132803D1A0783146FFF7CE
:104230005AFCA078142803D1A0783146FFF753FC2C
:10424000A078152803D1A0783146FFF74CFC00BFB9
:104250007DE410B504463748007838B9AA2C05D15A
:10426000012034490870344804705DE0314800781A
:10427000012807D1AF2C05D102202E4908702E4805
:10428000447051E02B480078022807D1F12C05DA60
:104290000320284908702848847045E025480078A4
:1042A00003280CD1322C0ADA042022490870224853
:1042B000C4702248047000202149087034E01D4871
:1042C0000078042819D11D480078002815DD1B4806
:1042D0000078401E19490870194800781849097873
:1042E000491C174A1170001D13490C5413480078DB
:1042F000D0B905200F49087016E00E48007805284F
:104300000FD100200B4908700D480078001D0A49A4
:104310000C540B480078401DC1B20748FFF702FC5F
:1043200002E000200349087010BD000014060020C0
:1043300054040020620400208C0900206004002046
:10434000610400200246002007E0FE4B1B5632F8B5
:10435000133021F81030431CD8B20828F5DB704721
:104360003FB50546F8480078012804D1F7492846AA
:10437000FFF7E8FF07E0F4480078022803D1F3498B
:10438000F348FFF7DFFF0024D0E1F04830F81400D5
:1043900040F6C411884205DCEC4830F81400B0F552
:1043A000FA7F07DA0120EB4908550020EA4921F895
:1043B000140012E0E84830F81400401CE64921F8E7
:1043C0001400084630F81400C82806DD4FF4FA60DF
:1043D00021F814000020DF490855DB480078012847
:1043E00003D0D948007802287BD1DA48005D002844
:1043F000FAD1D64830F814002DF81400D74830F917
:104400001400D74931F9141088426BDDD548005D9E
:10441000002878D13DF81400D14931F91410401A20
:1044200000EE900AF8EEE01ACC4830F91400CC49BE
:1044300031F91410401A00EE900AF8EEE00A81EE0D
:10444000A01ADFEDC91ADFEDC90A51EE210AFDEE0F
:10445000E00A10EE900A00B210F5FA7F01DAC448C3
:104460004DE03DF81400BE4931F91410401A00EE39
:10447000900AF8EEE01AB94830F91400B84931F959
:104480001410401A00EE900AF8EEE00A81EEA01A2D
:10449000DFEDB51ADFEDB50A51EE210AFDEEE00AB7
:1044A00010EE900A00B2B0F5FA7F02DD4FF4FA7018
:1044B00025E03DF81400AA4931F91410401A00EE25
:1044C000900AF8EEE01AA54830F91400A44931F931
:1044D0001410401A00EE900AF8EEE00A81EEA01ADD
:1044E00002E08AE086E00EE0DFED9F1ADFED9F0A32
:1044F00051EE210AFDEEE00A10EE900A00B29D494D
:1045000021F8140079E03DF81400954931F91410B0
:10451000401A00EE900AF8EEE01A904830F91400C4
:104520008F4931F91410401A00EE900AF8EEE00AB3
:1045300081EEA01ADFED8C1ADFED8C0A51EE210A14
:10454000FDEEE00A10EE900A00B210F5FA7F01DAF3
:10455000874849E03DF81400814931F91410401AA8
:1045600000EE900AF8EEE01A7C4830F914007C491D
:1045700031F91410401A00EE900AF8EEE00A81EECC
:10458000A01ADFED791ADFED790A51EE210AFDEE6E
:10459000E00A10EE900A00B2B0F5FA7F02DD4FF4A7
:1045A000FA7021E03DF814006D4931F91410401AF9
:1045B00000EE900AF8EEE01A684830F914006849F5
:1045C00031F91410401A00EE900AF8EEE00A81EE7C
:1045D000A01ADFED651ADFED650A51EE210AFDEE46
:1045E000E00A10EE900A00B2404200B2614921F8A0
:1045F000140002E0002060490870DFED600A60EE00
:10460000200A5F48C0ED000A3DF8140000EE900A51
:10461000F8EE600A5B4800EB840090ED001A70EE43
:10462000C10AF5EEC00AF1EE10FA0DDD3DF81400F6
:1046300000EE900AF8EE600A524800EB840090ED1C
:10464000001A70EEC10A0EE03DF8140000EE900A68
:10465000F8EE600A4B4800EB840090ED001A70EE13
:10466000C10AF1EE600A9FED481AF4EEC10AF1EEBC
:1046700010FA1DD23F4830F9140000EE900AF8EE0F
:10468000E00A404800EB840090ED001A30EEC11AB9
:104690003C4800EB8400D0ED000A3948D0ED001A08
:1046A00041EE810A374800EB8400C0ED000A20E0AB
:1046B000304830F9140000EE900AF8EEE00A314874
:1046C00000EB840090ED001A30EEC11A2D4800EB8B
:1046D0008400D0ED000A2A48D0ED001AB6EE002A78
:1046E00061EE821A41EE810A264800EB8400C0ED9B
:1046F000000A244800EB8400D0ED000A234800EBB8
:10470000840090ED001A70EEC10A214800EB84008D
:10471000C0ED000A1B4800EB8400D0ED000A1B48E6
:1047200000EB8400C0ED000A601CC4B2082CFFF648
:104730002CAE18480088401C80B216490880C82852
:104740002EDD29E0640400206C040020400A0020D3
:104750007C0900206D040020300A0020780400202D
:10476000880400209804002000007A440000FA43E6
:104770000CFEFFFFC0090020A404002034337B425C
:10478000A0040020D00900200000C842F009002049
:10479000100A0020760400200020088034490870A8
:1047A0003FBD3448D0ED020A9FED331AF4EEC10A42
:1047B000F1EE10FA3BD2D0ED030A9FED2F1AF4EE82
:1047C000C10AF1EE10FA29D2D0ED010A9FED2B1AA1
:1047D000F4EEC10AF1EE10FA2CDDD0ED000A9FEDE7
:1047E000271AF4EEC10AF1EE10FA23DD2448B0F9DD
:1047F0000000401CF0B12248B0F9000000EE900A21
:10480000F8EEE00A9FED1F1A41EE000AFDEEE00A05
:1048100010EE900A00B21A4908800BE01848B0F96F
:104820000000401C30B900201549088002E000203B
:10483000134908801248B0F90000B0F57A7F10DD06
:104840004FF0FF300E4908800F48007830B9012042
:104850000D49087002200D49487002E000200A4905
:1048600008707047024908700021094A118070479A
:104870006C040020D00900200000C8C30000C84319
:10488000A604002000803B45A4040020140B002057
:104890007604002030B50446084615886D1CADB27C
:1048A0001580854204DD002515800125558007E02F
:1048B0001588854201D1002501E015886D1C5580C1
:1048C000158804EB850585ED000A558804EB850500
:1048D000D5ED000A30EE601A00EE900AF8EE601A8C
:1048E000C1EE210A93ED001A70EE810AC3ED000AB1
:1048F00030BD70B58BB0F0EE400A022801DA0B290A
:1049000003DB9FED7B0A0BB070BD7A4C245C641C0A
:10491000E4B2784D2C548C4201DB00242C5400EB83
:10492000400404EBC004744D05EB8404714D2D5C10
:1049300004EB8504C4ED000A002211E000EB400402
:1049400004EBC0046C4D05EB840404EB820494ED8D
:10495000000A6C4604EB820484ED000A541CE2B2A7
:104960008A42EBDB00222DE0002325E06C4604EBBD
:10497000830494ED000A6D465C1C05EB8404D4EDC1
:10498000001AB4EEE10AF1EE10FA13DD6C4604EB06
:10499000830494ED001A5C1C05EB840494ED000A7A
:1049A0006C4604EB830484ED000A5C1C05EB840474
:1049B00084ED001A5C1CE3B24C1EA41A9C42D5DCA8
:1049C000541CE2B24C1E9442CEDC0C4601EBD47572
:1049D0006D106E4606EB850595ED000A93E770B500
:1049E0002DED028B04460D461646D4ED020AB0EEBC
:1049F000600AFDF76BFDF0EE408AD4ED010AB0EEDF
:104A0000600AFDF763FD38EE800AB0EE408AFDF7DC
:104A100062FD3A4880ED000AD4ED020AB0EE600A69
:104A2000FDF754FDF0EE408AD4ED000AB0EE600AC6
:104A3000FDF74CFD38EE800AB0EE408AFDF74BFDE5
:104A40002F4880ED000A94ED020AB5EEC00AF1EE9F
:104A500010FA02D24FF0FF3000E00120294908701F
:104A600095ED000A2548D0ED000A20EE200A94EDCD
:104A7000001A084690F9000000EE900AF8EEE00AED
:104A800061EE200A95ED021A00EEC10A86ED000AD9
:104A9000084690F9000000EE100AB8EEC00A184867
:104AA000D0ED000A20EE200AD5ED010A20EE200A02
:104AB000D4ED010A95ED021A00EEC10A86ED010A55
:104AC00094ED000AD5ED000A20EE200AD4ED010A8B
:104AD00095ED011A00EE810AD4ED020A95ED021A55
:104AE00000EE810A86ED020ABDEC028B70BD00006B
:104AF00000000000B4040020500A0020B804002088
:104B0000BC040020B604002030EE601A80ED041AC8
:104B100090ED031AD0ED041A31EE211A80ED031A3C
:104B200090ED031ADFED661AB4EEE11AF1EE10FA19
:104B300002D29FED631A0DE090ED031ADFED611ACA
:104B4000B4EEE11AF1EE10FA02DD9FED5E1A01E01B
:104B500090ED031A80ED031A90ED001AD0ED041ABF
:104B600021EE211AD0ED021A90ED032A01EE821AED
:104B7000D0ED041A90ED052A71EEC21A90ED012ACB
:104B800002EE211A80ED071A90ED041A80ED051A45
:104B9000704700B5B0EE403AF0EE602A4A4890ED1A
:104BA000000ADFED4A0AB4EEE00AF1EE10FA03DD86
:104BB0009FED460A80ED000A4548008800EE100A85
:104BC000F8EE400A404890ED000A4248FFF79CFF8B
:104BD000404890ED070A30EE220A3F4880ED000A77
:104BE00000BD00B5B0EE404AF0EE603A3B480078B8
:104BF000012808D1F0EE630AB0EE440AFFF7C9FFBE
:104C00000020364908703648007830B1324890EDBF
:104C1000000A344880ED000A02E03248C0ED003A54
:104C200000BD314890ED1C0AF7EE000A20EE200A84
:104C3000284880ED000A2C4890ED1D0AF7EE000A86
:104C400020EE200A234880ED010A274890ED1E0A35
:104C5000F7EE000A20EE200A1E4880ED020A704797
:104C600030EE601A80ED041A90ED041AD0ED051AAA
:104C700031EE611AD0ED001A21EE211AD0ED021AA0
:104C800090ED042A01EE821AD0ED041A90ED052A67
:104C9000F0EE002A42EEC21A90ED062A71EE821A58
:104CA00090ED012A02EE211A80ED071A90ED041A08
:104CB00080ED051A90ED051A80ED061A7047000088
:104CC00000803BC500803B45C80400200080BB44F9
:104CD00080050020A80A0020C00400207E050020D6
:104CE000A9040020C40400201406002040F24560FE
:104CF000854988809FED850A854880ED000A00205F
:104D00008449087001208449087084490870002093
:104D100083490870704783480088B0F5167F0BDD23
:104D20007948808840F21451884225DD7648808891
:104D30000A38754988801FE07A480088B0F5C87F36
:104D40000BDD7148808840F21451884214DD6E48B2
:104D50008088401E6C4988800EE040F24C406A49D1
:104D6000888000206D4908706B49087001206949EE
:104D7000087000206A49087070476B480088B0F5D9
:104D80007A7F0DDD6848008840F27E41884207DA6C
:104D900066480078002802D0002064490870B1E01D
:104DA0006148008840F27E41884213DD5E480088F9
:104DB00040F2E24188420DDA5C4800780128EED0EA
:104DC00001205A4908705649087040F245604E4922
:104DD000888097E05448008840F2E241884211DD23
:104DE0005148008840F2465188420BDA4F4800781B
:104DF000022806D002204D49087040F24560424921
:104E000088807FE04848008840F24651884211DDA2
:104E10004548008840F2AA5188420BDA434800789E
:104E200003286FD003204149087040F2456036499D
:104E3000888067E03C48008840F20E61884211DDBE
:104E40003948008840F2726188420BDA37480078AE
:104E5000042857D004203549087040F245602A499B
:104E600088804FE03048008840F27261884210DD4F
:104E70002D48008840F2D66188420ADA2B48007833
:104E800005283FD0052029490870022024490870D0
:104E900038E02548008840F2D661884210DD22487B
:104EA000008840F23A7188420ADA204800780628E1
:104EB00028D006201D49087000201749087021E0FD
:104EC0001948008840F23A7188421BDD1648008874
:104ED00040F29E71884215DA14480078072811D0F4
:104EE0000720124908704FF49660074988809FEDAB
:104EF000100A074880ED000A0120074908700220C7
:104F00000C49487070470000040B002000009644D4
:104F1000C8040020CE040020A4040020CD040020FA
:104F2000A804002080050020E4040020CC04002018
:104F300000004843140B00200EB50121084603F081
:104F4000E9FA4FF0804003F041FD4FF47A70019090
:104F50005320ADF800000020ADF80800ADF80200C5
:104F600069464FF0804003F00DFE0121880706F0EE
:104F7000EFF801221146900705F0E0FF01218807B4
:104F800004F09AF90021012003F0C4FA0EBD08B51F
:104F90001C208DF8000002208DF8010000208DF803
:104FA000020001208DF80300684602F0EAF808BD0F
:104FB00010B5FFF7C1FFFFF7EAFF0121084603F034
:104FC000A9FA10BD7FB5684603F0C2F84FF47A71B4
:104FD0000198B0FBF1F4E4082146B1F1807F00D3E1
:104FE0001DE021F07F40401E4FF0E022506150173D
:104FF0000F22002807DA13071E0E664B00F00F057C
:105000002D1F5E5503E013071D0E634B1D5400BF9B
:1050100000204FF0E02290610720106100BF6FF088
:10502000040002F045F97FBD5C4A11684FF0E022B0
:1050300052694FF0E0239B69D21A4FF47A735A43B6
:105040004FF0E0235B69B2FBF3F201EB4103C3EBEA
:10505000C11302EBC300704730B50446FFF7E4FF0D
:10506000054600BFFFF7E0FF401BA042FAD330BD6A
:1050700010B5044603E04FF47A70FFF7EDFF20000F
:10508000A4F10104F7D110BD10B54548007800B96E
:1050900010BD4448006840F2E731884207DA4148D1
:1050A0000068401C3F490860FBF7A8F829E0002091
:1050B0003C4908603C4800683B2805DA3A480068EB
:1050C000401C394908601CE0002037490860374817
:1050D00000683B2805DA35480068401C3349086001
:1050E0000FE000203149086031480068172805DAD0
:1050F0002F480068401C2E49086002E000202C491F
:10510000086000BFC4E710B5044604EB4400294919
:1051100001EB800090ED000A04EB440001EB8000FD
:1051200080ED010AFFF780FF00EE100AB8EE400A9A
:10513000DFED210A80EE201A04EB44001D4901EB4B
:10514000800080ED001A04EB440001EB800090ED3C
:10515000000A04EB440001EB8000D0ED010A30EEC0
:10516000600A04EB440001EB800080ED020A04EBCE
:10517000440001EB800090ED020A10BD10B5002440
:1051800004E02046FFF7BFFF601CC4B2052CF8DB2B
:1051900010BD000018ED00E000E400E0D0040020A5
:1051A00000000020E0040020DC040020D8040020DF
:1051B000D4040020C80A00200024744900B587B038
:1051C0000121062003F0A6F901210E2003F0DCF8EE
:1051D0001D208DF8040001208DF805008DF80600D3
:1051E0008DF8070001A801F0CCFF1E208DF8040007
:1051F00001208DF805008DF806008DF8070001A844
:1052000001F0BFFFC020059002208DF81800032098
:105210008DF8190000208DF81A0002208DF81B006F
:1052200005A9FD4802F016F90320059002208DF82B
:10523000180003208DF8190000208DF81A000220B4
:105240008DF81B0005A9F54802F004F90222062199
:10525000F14802F03CFC02220721EF4802F037FC43
:1052600002220021ED4802F032FC02220121EB482B
:1052700002F02DFC5320EA4908800020ADF8080018
:105280000A20ADF80A000120ADF80C000020ADF8AE
:105290000E00ADF8100002A9E148283805F07CFBAB
:1052A0000420ADF808000A20ADF80A000120ADF88E
:1052B0000C000020ADF80E00ADF8100002A9D8488F
:1052C000283805F069FB0820ADF808000A20ADF881
:1052D0000A000120ADF80C000020ADF80E00ADF87A
:1052E000100002A9CE48283805F056FB0C20ADF876
:1052F00008000A20ADF80A000120ADF80C000020DB
:10530000ADF80E00ADF8100002A9C548283805F028
:1053100043FB0121C248283803F0CEFF01220221BD
:10532000BF48283805F00AFE01220421BC4828386D
:1053300005F004FE01220821B948283805F0FEFDD9
:1053400001221021B648283805F0F8FD4FF47040CE
:10535000059002208DF8180003208DF81900002018
:105360008DF81A0002208DF81B0005A9AD4802F047
:1053700071F802220C21AB4802F0A9FB02220D2198
:10538000A84802F0A4FB02220E21A64802F09FFBCF
:1053900002220F21A34802F09AFB5320A249088061
:1053A0000020ADF808000A20ADF80A000120ADF891
:1053B0000C000020ADF80E00ADF8100002A99A48CC
:1053C000283805F0E9FA0420ADF808000A20ADF805
:1053D0000A000120ADF80C000020ADF80E00ADF879
:1053E000100002A99048283805F0D6FA0820ADF838
:1053F00008000A20ADF80A000120ADF80C000020DA
:10540000ADF80E00ADF8100002A98748283805F065
:10541000C3FA0C20ADF808000A20ADF80A000120FC
:10542000ADF80C000020ADF80E00ADF8100002A998
:105430007D48283805F0B0FA01217B48283803F070
:105440003BFF012202217848283805F077FD012230
:1054500004217548283805F071FD012208217248A1
:10546000283805F06BFD012210216F48283805F01F
:1054700065FD4FF47A706D49888007B000BD10B5A6
:105480000120FFF7EFF966481838008800F00200A5
:1054900038B34FF6FD706249183908804FF6FF5057
:1054A00008805D481030006800F0400030B15C4872
:1054B000283805F0D4FB5E4908801EE0584828389B
:1054C00005F0CDFB5B4908800846008858490988EB
:1054D000884207DB5748008855490988401A5349D4
:1054E00008800AE0524800884FF6FF71081A5149B7
:1054F00009880844401C4D490880494818380088EC
:1055000000F0040038B34FF6FB70454918390880A5
:105510004FF6FF30088040481030006800F08000EF
:1055200030B13F48283805F0C8FB434908801EE0E9
:105530003B48283805F0C1FB4049088008460088F0
:105540003D490988884207DB3C4800883A49098878
:10555000401A364948800AE0374800884FF6FF7104
:10556000081A364909880844401C304948802C48AC
:105570001838008800F0080000286DD04FF6F7704A
:105580002749183908804FF2FF70088023481030EF
:10559000006800F0010030B12148283805F0AFFB69
:1055A0002749088058E01E48283805F0A8FB2549FF
:1055B00008800846008822490988884216DB21486D
:1055C00000881F490988401A1F490880084600883A
:1055D00040F2DC51884204D11C4800881A490880F6
:1055E0003AE0194800881949088035E014480088D5
:1055F0004FF6FF71081A134909880844401C1249E4
:1056000008800846008840F2DC51884220D10F48CB
:1056100000880D4908801FE0000802400004024095
:1056200028040040000C024028080040040B002021
:10563000E8040020EA040020EC040020EE0400202E
:10564000F0040020F2040020E4040020E60400201E
:105650008E4800888E4908808E48008800F010002F
:1056600028B34FF6EF708B4908804EF6FF70088024
:105670008948006800F0020030B18648103805F013
:105680005AFB864908801EE08248103805F053FB1B
:10569000834908800846008880490988884207DBDA
:1056A0007F4800887D490988401A7E49C8800AE001
:1056B0007A4800884FF6FF71081A7949098808442A
:1056C000401C7849C88010BD10B50120FFF7CAF80A
:1056D0007548008800F0020028B34FF6FD7072494B
:1056E00008804FF6FF5008807048006800F4805032
:1056F00030B16D48103805F0B2FA6D4908801EE0EF
:105700006948103805F0ABFA6A49088008460088F5
:1057100067490988884207DB664800886449098828
:10572000401A604908810AE0614800884FF6FF711D
:10573000081A604909880844401C5A4908815A4897
:10574000008800F0040028B34FF6FB70564908802B
:105750004FF6FF3008805548006800F4005030B123
:105760005148103805F0A9FA534908801EE04E4808
:10577000103805F0A2FA51490880084600884E49C1
:105780000988884207DB4D4800884B490988401A40
:10579000444948810AE0484800884FF6FF71081ADA
:1057A000464909880844401C3E4948813E480088D3
:1057B00000F0080028B34FF6F7703B4908804FF21D
:1057C000FF7008803948006800F4804030B13648E6
:1057D000103805F094FA3A4908801EE03248103833
:1057E00005F08DFA37490880084600883449098851
:1057F000884207DB3348008831490988401A294923
:1058000088810AE02E4800884FF6FF71081A2D495A
:1058100009880844401C234988812348008800F0F7
:10582000100028B34FF6EF701F4908804EF6FF7046
:1058300008801E48006800F4004030B11A48103853
:1058400005F079FA204908801EE01748103805F065
:1058500072FA1E490880084600881B490988884258
:1058600007DB1A48008818490988401A0D49C88181
:105870000AE0154800884FF6FF71081A1349098895
:105880000844401C0749C88110BD0000E404002002
:10589000E60400201004004010040240F40400203C
:1058A000F6040020040B002010080040100C0240F9
:1058B000F8040020FA040020FC040020FE0400206C
:1058C0000005002002050020040500200605002038
:1058D00070B58AB00646002542F2107006FB00F44F
:1058E00007A803F0DAF902A804F059F80CB901206E
:1058F00004E0CE48844200D900E02046044601215D
:10590000082002F007FE0121022002F02CFE0121F6
:10591000084602F028FE0121152002F035FD0C207A
:10592000009002208DF8040003208DF8050000206F
:105930008DF8060001208DF807006946BC4801F08B
:1059400089FD02221146BA4802F0C1F80222032161
:10595000B74802F0BCF8B74800684008B0FBF4F064
:10596000401E85B242F210700890ADF81C50002025
:10597000ADF82400ADF81E0007A9AF4803F002F906
:105980006020ADF808000020ADF814000120ADF84B
:105990000A004FF47A60049002A9A74803F099FE28
:1059A0000821A54804F07CFA0120ADF80A004FF464
:1059B0007A60049002A9A04803F05BFF08219E488A
:1059C00004F0B2FA01219C4803F085FB01219A48BA
:1059D00003F072FC4FF4D440009002208DF80400D4
:1059E00003208DF8050000208DF8060001208DF8B9
:1059F00007006946914801F02DFD012209218F48D9
:105A000002F065F801220B218C4802F060F80122B7
:105A10000D218A4802F05BF801220E21874802F02E
:105A200056F884480068B0FBF4F0401E85B242F29C
:105A300010700890ADF81C500020ADF82400ADF8AF
:105A40001E008DF8260007A97D4803F09BF8602012
:105A5000ADF808000020ADF80C00ADF814000820E7
:105A6000ADF816004001ADF818000020ADF81A009E
:105A70000120ADF80A004FF47A60049002A9704842
:105A800003F064FC4FF47A60049002A96C4803F0C0
:105A90002DFD4FF47A60049002A9694803F019FEC5
:105AA0004FF47A60049002A9654803F0E2FE0121F8
:105AB000634805F0D4F90121614803F00CFB012192
:105AC0005F4803F0F9FB4FF44070009002208DF81E
:105AD000040003208DF8050000208DF80600012049
