:020000040800F2
:100000000817002031CF0008B50100083BCF0008D9
:10001000B7010008BB010008BF0100080000000094
:10002000000000000000000000000000C301000804
:10003000C50100080000000047CF0008C701000804
:100040004BCF00084BCF00084BCF00084BCF000828
:100050004BCF00084BCF00084BCF00084BCF000818
:100060004BCF00084BCF00084BCF00084BCF000808
:100070004BCF00084BCF00084BCF00084BCF0008F8
:100080004BCF00084BCF00084BCF00084BCF0008E8
:100090004BCF00084BCF00084BCF00084BCF0008D8
:1000A0004BCF00084BCF00084BCF00084BCF0008C8
:1000B0004BCF0008D9010008E10100084BCF000830
:1000C0004BCF00084BCF00084BCF00084BCF0008A8
:1000D0004BCF00084BCF0008E90100084BCF0008C8
:1000E0004BCF00084BCF00084BCF00084BCF000888
:1000F0004BCF00084BCF00084BCF00084BCF000878
:100100004BCF00084BCF00084BCF00084BCF000867
:100110004BCF0008F10100084BCF00084BCF00087F
:100120004BCF00084BCF00084BCF00084BCF000847
:100130004BCF00084BCF00084BCF00084BCF000837
:100140004BCF00084BCF00084BCF00084BCF000827
:100150004BCF00084BCF00084BCF00084BCF000817
:100160004BCF00084BCF00084BCF00084BCF000807
:100170004BCF00084BCF00084BCF00084BCF0008F7
:100180004BCF00084BCF0008DFF80CD00DF0A2F9E0
:1001900000480047A10100080817002000BFFEE743
:1001A00000F044F90249087001E000F0E8F8FCE7CB
:1001B00000000020704700BFFEE700BFFEE700BF61
:1001C000FEE77047704710B50B480068401C0A49AD
:1001D000086005F07BF810BD10B505F06EFA10BD93
:1001E00010B505F071FB10BD10B506F024FF10BD71
:1001F00010B506F0E2FF10BDF80400208148C08968
:10020000401C8049C88108468088401C00B2888014
:100210000846C088401C00B2C88008460089401CBF
:1002200000B2088108464089401C00B24881084657
:100230008089401C00B2888108460078012804D1DA
:1002400008464078401C487002E001206D49087063
:10025000704710B5012005F078F803F093F910BD50
:1002600010B52DED028B002005F06FF8B0EE408A3E
:1002700004F0FCFF00EE100AB8EE400ADFED620A5F
:1002800080EE201A614880ED001A05F0AFFFB0EE55
:10029000480A06F0E1F9B0EE480A01F02AF85C4895
:1002A000B0EE480A04F0D5F804F0E0FF00EE100AC2
:1002B000B8EE400ADFED540A80EE201A534880ED74
:1002C000011ABDEC028B10BD10B52DED028B022082
:1002D00005F03BF8B0EE408A04F0C8FF00EE100ACB
:1002E000B8EE400ADFED480A80EE201A474880ED5C
:1002F000021A4848D0ED063AB0EE633AD0ED053A1E
:10030000F0EE632AD0ED043AB0EE632AD0ED0C3A59
:10031000F0EE631AD0ED0B3AB0EE631AD0ED0A3A64
:10032000F0EE630AF6EE003A68EE233AB0EE630AA6
:10033000394A3A493A4801F08FFBB0EE480A00F0DA
:100340007FFA04F093FF00EE100AB8EE400ADFEDEA
:100350002E0A80EE201A2D4880ED031ABDEC028B88
:1003600010BD10B506F0A6FD10BD10B500F021FAC5
:1003700010BD10B506F0C2FD06F086FF10BD10B529
:100380002048007801283BD12648008800B2264941
:100390000880FFF75EFF1B48B0F90400022804DB69
:1003A000002018498880FFF75BFF1648B0F9060067
:1003B000052804DB00201349C880FFF785FF11489A
:1003C000B0F908000A2804DB00200E490881FFF775
:1003D000C8FF0C48B0F90A00142804DB00200949C2
:1003E0004881FFF7C2FF0748B0F90C00322804DB50
:1003F000002004498881FFF7BCFF002001490870F4
:1004000010BD0000D405002000247449E40500203C
:10041000680B0020780B0020200000201C0000202A
:1004200018000020080500200200002010B54FF43D
:10043000806006F091FF04F0E7FE06F041FD05F054
:1004400016FD04F0DDFF4FF4C87005F03BFBC8203B
:1004500004F030FF142005F0ABFF4FF4E13006F05C
:1004600077FD00F027F9642004F024FF06F006FF72
:1004700004F0A6FF06F0F8FA80F0010012490870B7
:100480001248007810B906F051FD04E00E480078DB
:1004900008B906F052FD4FF400710D4807F038FB23
:1004A0004FF47A7004F006FF4FF40071084807F02B
:1004B000FEFA4FF47A7004F0FDFE4FF40071044828
:1004C00007F026FB012010BD7C050020340500202C
:1004D0000004024010B5C248C24BD3E900219B681A
:1004E000C0E90E134263BF4BD3E903215B69C0E946
:1004F00011130264BC48BB4B18330ECB08300EC03E
:10050000B74AB84B24330BCB58320BC2B54890EDE9
:100510000D0AB34880ED190AB24890ED0E0AB048B2
:1005200080ED1A0AB148B24C1ECC54301EC064385B
:10053000AF49D1E905340A69C969C0E91A3442668C
:100540000167AB4BD3E909141A6ADB6AC0E91F43A0
:10055000C0E91D21A748A64BD3E90C41D3E90E23DE
:10056000C0E91541C0E91723A149D1E911430A6C3B
:10057000C96CC0E91A43426601679D49D1E9143448
:10058000D1E91621C0E91D34C0E91F2110BD10B505
:1005900000F044F904F095FB04F04BFB10BD10B5DE
:1005A0009FED950A924880ED040A9FED930A80ED35
:1005B000000A9FED920A80ED080A9FED910A80EDF6
:1005C000060A9FED8F0A80ED020AB7EE000A80ED61
:1005D0000A0AB0EE000A80ED050AB0EE000A80EDCE
:1005E000010AB7EE000A80ED090AB7EE000A80EDB5
:1005F000070AB7EE000A80ED030AB7EE000A80EDA5
:100600000B0AB6EE000A80ED100AB6EE000A80ED85
:100610000C0A9FED7C0A80ED140A9FED7B0A80EDA9
:10062000120A9FED790A80ED0E0A9FED770A80EDA0
:10063000160A9FED760A80ED110A9FED740A80ED8F
:100640000D0A9FED6F0A80ED150A9FED710A80ED8E
:10065000200A9FED6F0A80ED220A9FED6D0A80ED62
:10066000210A9FED6B0A80ED240A9FED690A80ED57
:10067000260A9FED670A80ED250AB7EE000A80ED95
:10068000180AB7EE000A80ED1A0AB7EE000A80EDEC
:10069000190AB7EE000A80ED1C0AB7EE000A80EDD9
:1006A0001E0AB7EE000A80ED1D0AFFF713FFFFF7E1
:1006B0006EFF10BD10B5FFF772FFFFF70BFFFFF7DE
:1006C00066FF10BD10B5464990E81C0034311CC1CE
:1006D000444990E81C001CC1414991ED190A414967
:1006E00081ED0D0A10BD10B53D4990E81C00403168
:1006F0001CC13C4990E81C000C311CC1384991EDEB
:100700001A0A384981ED0E0A10BD10B5364990E835
:100710001C0008311CC1334990E81C0018311CC171
:1007200010BD10B52E4990E81C0058311CC12D4950
:1007300090E81C0024311CC110BD10B52C482B4979
:10074000D1E916344A6D096E80E81C00C16001468B
:100750002648D0E91A34426E006FC1E905340A61B7
:10076000C8612248D0E91E34426FD0F88000C1E948
:1007700009340A62C8620A461E4CD4E91530D4E92D
:100780001714C2E90E14C2E90C3010461949D1E918
:100790001942D1E91B31C0E91042C0E912311549B3
:1007A000D1E91D42D1E91F31C0E91442C0E9163137
:1007B00010BD00B51748008820B116480088401CBD
:1007C00014490880134800883C2807DD002011499F
:1007D00008801148007808B9FFF7AFFF00BD00009E
:1007E000780B0020F805002050050020F8060020B6
:1007F00038060020BC070020CDCC4C3F9A99993F89
:10080000CDCCCC3DCDCC4C3ECDCC4C3D9A99993EF7
:100810000000000054040020A4040020B7EE000AE9
:10082000FE4880ED180AB7EE000A80ED1C0AB7EE0C
:10083000000A80ED200A9FEDFA0A80ED300A704729
:1008400010B52DED0E8BB0EE408AF648D0ED000AC3
:10085000B0EE600AF3EE0E0A01F06FFFDFEDF20A70
:1008600080EE201AB3EE090A21EE000AEF4880ED6F
:10087000000AEC48D0ED010AF1EE600AB0EE600A21
:10088000F3EE0E0A01F059FFDFEDE70A80EE201AC1
:10089000B3EE090A21EE000AE44880ED010AE448BB
:1008A000007808BBDF48D0ED030AB0EE600ADFED48
:1008B000E10A01F091FFDFEDDC0A80EE201A9FEDE6
:1008C000DE0A21EE000ABDEEC00A10EE100A00B2E8
:1008D00000EE100AF8EEC00AD44890ED020A00EECD
:1008E000880A80ED020A36E0D04890ED020AD3482B
:1008F000D0ED000A30EEC00A10EE101A08460CF0D7
:1009000065FC41EC1C0B18EE100A0CF05FFC41EC8E
:100910001E0B9FEDCB0B53EC102B0CF0D4FB41ECDA
:100920001D0B53EC1C2B0CF0CEFB41EC1A0BBF48FB
:1009300090ED020A10EE101A08460CF047FC41EC4C
:100940001B0B53EC1A2B0CF017FB41EC190B0CF0A2
:1009500081FCB6498860B548D0ED020AB0EE600A65
:1009600001F04EFFB14880ED020AB748D0ED000A11
:10097000AE4890ED001A70EE810AB44890ED001A6E
:1009800070EEC10AB0EE600A01F03AFFB04880EDA7
:10099000000AAD48D0ED010AA44890ED011A70EEAE
:1009A000810AAC4890ED001A70EEC10AB0EE600A00
:1009B00001F026FFA64880ED010AA348D0ED020A07
:1009C0009A4890ED021A70EE810A9C4890ED001A48
:1009D00070EEC10AB0EE600A01F012FF9C4880ED93
:1009E000020A90ED000AB5EEC00AF1EE10FA02DD3F
:1009F00090ED000A04E0964890ED000AB1EE400A3E
:100A0000F3EE0E0A80EE201A914880ED2D1A90ED3B
:100A1000010AB5EEC00AF1EE10FA02DD90ED010A0E
:100A200004E08B4890ED010AB1EE400AF3EE0E0AA5
:100A300080EE201A864880ED2E1A90ED020AB5EE5F
:100A4000C00AF1EE10FA02DD90ED020A04E08048DF
:100A500090ED020AB1EE400AF3EE0E0A80EE201A83
:100A60007B4880ED2F1ADFED7C0A80EE880AD0EDFE
:100A7000000A90ED031A70EEC10A90ED161AF2EE1C
:100A8000041A21EE211A60EE810A60EE200A90ED30
:100A90002D1A9FED720ADFED721A01EE810A20EE27
:100AA000800A80ED0C0ADFED6C0A80EE880AD0ED3A
:100AB000010A90ED041A70EEC10A90ED1A1AF2EED6
:100AC000041A21EE211A60EE810A60EE200A90EDF0
:100AD0002E1A9FED620ADFED621A01EE810A20EE06
:100AE000800A80ED0D0ADFED5C0A80EE880AD0ED09
:100AF000020A90ED051A70EEC10A90ED1E1AF2EE90
:100B0000041A21EE211A60EE810A60EE200A90EDAF
:100B10002F1A9FED520ADFED521A01EE810A20EEE4
:100B2000800A80ED0E0A90ED170AD0ED000A60EE03
:100B3000200A90ED060A00EE880A80ED060A90ED84
:100B40001B0AD0ED010A60EE200A90ED070A00EEC4
:100B5000880A80ED070A90ED1F0AD0ED020A60EEC8
:100B6000200A90ED080A00EE880A80ED080A3D4848
:100B700090ED000AF6EE000A20EE200AF3EE090AD4
:100B800020EE200A324880ED090A364890ED000A2E
:100B9000F6EE000A20EE200AF3EE090A20EE200A03
:100BA0002B4880ED0A0A2F4890ED000AF6EE000A65
:100BB00020EE200AF3EE090A20EE200A244880EDF8
:100BC0000B0A90ED060AD0ED090AF1EE600AB4EEC8
:100BD000E00AF1EE10FA04D290ED090AB1EE400AF3
:100BE0000FE01B4890ED060AD0ED090AB4EEE00ACA
:100BF000F1EE10FA02DD90ED090A02E0144890EDE2
:100C0000060A134880ED060A90ED070AD0ED0A0A9D
:100C1000F1EE600AB4EEE00A26E00000F8060020DB
:100C2000CDCC4C3EF40900200000FA43800800209F
:100C30000800002000002042000016432000002091
:100C40001F85EB51B81E09408C08002018000020B9
:100C5000BC0700201C0000200AD7A33B6666263F85
:100C60003333B33E0C000020F1EE10FA04D290EDC5
:100C70000A0AB1EE400A0FE0FC4890ED070AD0EDF9
:100C80000A0AB4EEE00AF1EE10FA02DD90ED0A0A6B
:100C900002E0F64890ED070AF44880ED070A90ED6F
:100CA000080AD0ED0B0AF1EE600AB4EEE00AF1EEAC
:100CB00010FA04D290ED0B0AB1EE400A0FE0EB48B7
:100CC00090ED080AD0ED0B0AB4EEE00AF1EE10FA4E
:100CD00002DD90ED0B0A02E0E44890ED080AE348DB
:100CE00080ED080A90ED000ADFEDE10AB4EEE00ABB
:100CF000F1EE10FA02D29FEDDE0A0FE0DB4890ED34
:100D0000000ADFEDDC0AB4EEE00AF1EE10FA02DDD3
:100D10009FEDD80A02E0D54890ED000AD34880ED57
:100D2000000A90ED010ADFEDD20AB4EEE00AF1EE1E
:100D300010FA02D29FEDCE0A0FE0CC4890ED010AE6
:100D4000DFEDCC0AB4EEE00AF1EE10FA02DD9FED21
:100D5000C90A02E0C54890ED010AC44880ED010AC5
:100D600090ED020ADFEDC20AB4EEE00AF1EE10FAED
:100D700002D29FEDBF0A0FE0BC4890ED020ADFED02
:100D8000BD0AB4EEE00AF1EE10FA02DD9FEDB90AF9
:100D900002E0B64890ED020AB44880ED020A90EDF8
:100DA000000AD0ED0C0A30EE200AD0ED060A30EE33
:100DB000200AD0ED150A20EE200A80ED120A90EDEF
:100DC000010AD0ED0D0A30EE200AD0ED070A30EE10
:100DD000200AD0ED190A20EE200A80ED130A90EDCA
:100DE000020AD0ED0E0A30EE200AD0ED080A30EEED
:100DF000200AD0ED1D0A20EE200A80ED140A90EDA5
:100E0000000A80ED030A90ED010A80ED040A90EDDE
:100E1000020A80ED050ABDEC0E8B10BD10B52DED5C
:100E2000048B8AB0F0EE408AB0EE609AB0EE418A50
:100E30009FED910AB4EEC08AF1EE10FA02D29FED56
:100E40008E0A0BE09FED8D0AB4EEC08AF1EE10FA27
:100E500002DD9FED8A0A01E0B0EE480AB0EE408A5A
:100E6000B1EE680A30EE090A30EE080A8DED040A88
:100E700038EE890A30EE480A8DED050A38EEC90AC7
:100E800030EE080A8DED060AB1EE680A30EE490A26
:100E900030EE480A8DED070A002429E004A800EB93
:100EA000840090ED000ADFED760AB4EEE00AF1EE80
:100EB00010FA02D29FED720A13E004A800EB84003E
:100EC00090ED000ADFED6F0AB4EEE00AF1EE10FAE1
:100ED00002DD9FED6C0A04E004A800EB840090EDB5
:100EE000000A04A800EB840080ED000A601CC4B274
:100EF000042CD3DB9DED040AB5EEC00AF1EE10FA26
:100F000002DD9DED040A03E09DED040AB1EE400A06
:100F1000DFED5D0A60EE200A9FED5A1A80EE810A2D
:100F2000DFED5A0A30EE200ADDED040A20EE200A39
:100F30008DED000A9DED050AB5EEC00AF1EE10FA3E
:100F400002DD9DED050A03E09DED050AB1EE400AC4
:100F5000DFED4D0A60EE200A9FED4A1A80EE810A0D
:100F6000DFED4A0A30EE200ADDED050A20EE200A08
:100F70008DED010A9DED060AB5EEC00AF1EE10FAFC
:100F800002DD9DED060A03E09DED060AB1EE400A82
:100F9000DFED3D0A60EE200A9FED3A1A80EE810AED
:100FA000DFED3A0A30EE200ADDED060A20EE200AD7
:100FB0008DED020A9DED070AB5EEC00AF1EE10FABA
:100FC00002DD9DED070A03E09DED070AB1EE400A40
:100FD000DFED2D0A60EE200A9FED2A1A80EE810ACD
:100FE000DFED2A0A30EE200ADDED070A20EE200AA6
:100FF0008DED030ADDED000A254890ED000A254835
:1010000090ED001A01EE200A234880ED000ADDED84
:10101000010A1F4890ED000A1E4890ED001A01EEEB
:10102000200A1D4880ED010ADDED020A184890ED06
:10103000000A184890ED001A01EE200A164880EDCB
:10104000020ADDED030A124890ED000A114890ED06
:10105000001A01EE200A104880ED030A0F480078BC
:1010600078B30F48007868BB002447E0BC07002035
:101070000000B4C20000B4420000C8C30000C8436E
:1010800000007AC400007A446666E63ECDCC0C3F90
:10109000040000200C000020CC080020A404002044
:1010A00008000020FE4800EB840090ED000ADFED10
:1010B000FD0AB4EEE00AF1EE10FA04D29FEDF90A4F
:1010C00015E04BE01DE0F64800EB840090ED000ACF
:1010D0005FED140AB4EEE00AF1EE10FA02DD1FED46
:1010E000170A04E0EE4800EB840090ED000AEC489B
:1010F00000EB840080ED000A601CC4B2042CD1DB3C
:1011000039E0002427E0E64800EB840090ED000A77
:10111000B5EEC00AF1EE10FA02D29FEDE30A13E039
:10112000DF4800EB840090ED000A5FED2A0AB4EE80
:10113000E00AF1EE10FA02DD1FED2E0A04E0D848B5
:1011400000EB840090ED000AD54800EB840080EDB0
:10115000000A601CC4B2042CD5DB0CE0002408E0BB
:101160009FEDD10ACE4800EB840080ED000A601CA0
:10117000C4B2042CF4DBCA4890ED000ABDEEC00AEC
:1011800010EE100A00B2ADF82000C54890ED010A3B
:10119000BDEEC00A10EE100A00B2ADF82200C04841
:1011A00090ED020ABDEEC00A10EE100A00B2ADF8D2
:1011B0002400BB4890ED030ABDEEC00A10EE100AF1
:1011C00000B2ADF826004FF47A72002108A804F0AE
:1011D000E8FD0AB0BDEC048B10BD10B52DED028BFF
:1011E000B0EE408AB14890ED020ADFEDB10A30EE70
:1011F000200AB04880ED000AD0ED000A1FED611A08
:1012000080EE810AAC48D0ED000A70EE600A9FEDD6
:10121000AB0A28EE001A90ED000A01EE200A80EDDC
:10122000000A90ED000AB5EEC00AF1EE10FA02D203
:101230009FED9D0A0FE0A04890ED000AF7EE000A2E
:10124000B4EEE00AF1EE10FA02DDB7EE000A02E0B9
:10125000994890ED000A9A4880ED000A954890ED73
:10126000000ADFED980AB4EEE00AF1EE10FA03D2BC
:1012700001209549087002E00020934908709348C6
:101280000078012802D103F039FF05E08F4800788B
:10129000022801D103F03CFF8648D0ED000AB0EEF1
:1012A000480A03F0A6FC8A4890ED000A894880EDC0
:1012B000000A90ED000AB5EEC00AF1EE10FA02D273
:1012C0009FED790A0FE0834890ED000ADFED820A76
:1012D000B4EEE00AF1EE10FA02DD9FED7F0A02E0C3
:1012E0007C4890ED000A7B4880ED000ABDEC028B43
:1012F00010BD00B52DED028B83B0B0EE408A77486B
:1013000090ED120AF3EE0E0A80EE201A9FED740A99
:1013100021EE000A8DED000AD0ED130AB3EE0E1A8D
:1013200080EE810ADFED6E0A20EE200A8DED010AC3
:1013300090ED140AF3EE0E0A80EE201A9FED680A73
:1013400021EE000A8DED020A9DED000A654880ED50
:10135000000A9DED010A80ED010A9DED020A80ED73
:10136000020A90ED000ADFED600AB4EEE00AF1EE49
:1013700010FA02D29FED5C0A0FE05A4890ED000A85
:10138000DFED570AB4EEE00AF1EE10FA02DD9FED50
:10139000540A02E0534890ED000A524880ED000ADA
:1013A00090ED010ADFED500AB4EEE00AF1EE10FA1A
:1013B00002D29FED4D0A0FE04A4890ED010ADFEDA1
:1013C000480AB4EEE00AF1EE10FA02DD9FED440A9D
:1013D00002E0444890ED010A424880ED010A90ED98
:1013E000020ADFED410AB4EEE00AF1EE10FA02D291
:1013F0009FED3D0A0FE03B4890ED020ADFED380A11
:10140000B4EEE00AF1EE10FA02DD9FED350A02E0DB
:10141000344890ED020A334880ED020ADFED330ACA
:1014200080EE880A3248D0ED0A0A324890ED001A60
:1014300070EEC10A20EE200A2F4880ED0F0ADFED82
:101440002B0A80EE880A2A48D0ED0B0AF1EE600ADA
:10145000284890ED011A70EEC10A20EE200A2648B5
:1014600080ED100ADFED210A80EE880A2048D0EDD9
:101470000C0AF1EE600A1F4890ED021A70EEC10AE4
:1014800020EE200A1C4880ED110A164890ED000A53
:101490001748D0ED0A0A30EE600AF7EE000A2DE098
:1014A000CC0800200000484300000000F4090020A0
:1014B0000000FA4310000020140000203433FB41E8
:1014C0000C0000200000C84208000020A8040020F2
:1014D000C00400200400002000004844BC07002095
:1014E00000009643A4080020000096C36F12033B3F
:1014F000780B0020B0080020F806002020EE200A1B
:10150000FE4880ED000AFE4890ED010AFD48D0ED4E
:101510000B0A30EE200AF7EE000A20EE200AF74808
:1015200080ED010AF64890ED020AF648D0ED0C0A6B
:1015300030EE200AF7EE000A20EE200AEF4880ED98
:10154000020A90ED000AB5EEC00AF1EE10FA02DDD3
:1015500090ED000A04E0E94890ED000AB1EE400A7F
:101560005FED210A80EE201AE44880ED2D1A90EDFF
:10157000010AB5EEC00AF1EE10FA02DD90ED010AA3
:1015800004E0DE4890ED010AB1EE400A5FED2C0A5E
:1015900080EE201AD94880ED2E1A90ED020AB5EEA1
:1015A000C00AF1EE10FA02DD90ED020A04E0D34821
:1015B00090ED020AB1EE400ADFEDD30A80EE201A68
:1015C000CE4880ED2F1A5FED370A80EE880AD0ED05
:1015D000160A90ED0F1AFAEE041A21EE211A60EEA7
:1015E000810A20EE200A80ED0C0A5FED400A80EEB1
:1015F000880AD0ED1A0A90ED101AFAEE041A21EEBC
:10160000211A60EE810A20EE200A80ED0D0A5FEDBE
:10161000490A80EE880AD0ED1E0A90ED111AFAEE02
:10162000041A21EE211A60EE810A20EE200A80EDD4
:101630000E0A90ED000AD0ED0F0A30EE600AD0EDF0
:10164000170A60EE200A90ED060A00EE880A80ED87
:10165000060A90ED010AD0ED100A30EE600AD0EDD6
:101660001B0A60EE200A90ED070A00EE880A80ED62
:10167000070A90ED020AD0ED110A30EE600AD0EDB3
:101680001F0A60EE200A90ED080A00EE880A80ED3D
:10169000080A9E4890ED000AF6EE000A20EE200AA5
:1016A0005FED710A20EE200A944880ED090A974800
:1016B00090ED000AF6EE000A20EE200A5FED780AAF
:1016C00020EE200A8D4880ED0A0A904890ED000A2D
:1016D000F6EE000A20EE200A5FED7F0A20EE200AD7
:1016E000864880ED0B0A90ED060AD0ED090AF1EE6E
:1016F000600AB4EEE00AF1EE10FA04D290ED090AA5
:10170000B1EE400A0FE07D4890ED060AD0ED090ADF
:10171000B4EEE00AF1EE10FA02DD90ED090A02E003
:10172000764890ED060A754880ED060A90ED070AA6
:10173000D0ED0A0AF1EE600AB4EEE00AF1EE10FA1A
:1017400004D290ED0A0AB1EE400A0FE06B4890ED2A
:10175000070AD0ED0A0AB4EEE00AF1EE10FA02DD53
:1017600090ED0A0A02E0654890ED070A634880EDB3
:10177000070A90ED080AD0ED0B0AF1EE600AB4EE0C
:10178000E00AF1EE10FA04D290ED0B0AB1EE400A35
:101790000FE05A4890ED080AD0ED0B0AB4EEE00ACB
:1017A000F1EE10FA02DD90ED0B0A02E0534890EDE5
:1017B000080A524880ED080A90ED300AF7EE000A58
:1017C00030EEC00AD0ED150A20EE200AD0ED000A56
:1017D00090ED0C1A70EE810A90ED061A70EE810AF7
:1017E00060EE200A90ED301A4948D0ED2D1A9FED99
:1017F000490A9FED492A02EE210AB5EEC00AF1EE30
:1018000010FA02D21FEDD80A1BE04148D0ED2D1A84
:101810009FED400A9FED402A02EE210AF7EE001AE2
:10182000B4EEE10AF1EE10FA02DDB7EE000A08E0CC
:101830003748D0ED2D1A9FED370A9FED372A02EE7B
:10184000210A21EE000A2E4890ED001A40EE010A0E
:10185000B0EE080A20EE800A284880ED120A90EDCA
:10186000300AF7EE000A30EEC00AD0ED190A20EE79
:10187000200AD0ED010A90ED0D1A70EE810A90ED6C
:10188000071A70EE810A60EE200A90ED301A2048A7
:10189000D0ED2E1A9FED1F0A9FED1F2A02EE210A9E
:1018A000B5EEC00AF1EE10FA02D29FED1C0A1BE061
:1018B0001748D0ED2E1A9FED170A9FED172A02EE5A
:1018C000210AF7EE001AB4EEE10AF1EE10FA02DD99
:1018D000B7EE000A08E00E48D0ED2E1A9FED0D0A73
:1018E0009FED0D2A02EE210A21EE000A044890ED38
:1018F000011A40EE010AB0EE080A11E0F8060020D5
:10190000A4080020780B0020000016430C000020E3
:10191000BC0700206666E63ECDCC0C3F0000000010
:1019200020EE800A474880ED130A90ED300AF7EE6A
:10193000000A30EEC00AD0ED1D0A20EE200AD0EDDC
:10194000020A90ED0E1A70EE810A90ED081A70EE00
:10195000810A60EE200A90ED301A3B48D0ED2F1A34
:101960001FED140A1FED142A02EE210AB5EEC00A7B
:10197000F1EE10FA02D21FED170A1BE03248D0ED4B
:101980002F1A1FED1C0A1FED1C2A02EE210AF7EE8A
:10199000001AB4EEE10AF1EE10FA02DDB7EE000A29
:1019A00008E02948D0ED2F1A1FED260A1FED262A40
:1019B00002EE210A21EE000A244890ED021A40EEC0
:1019C000010AB0EE080A20EE800A1E4880ED140AD3
:1019D000B0EE480AFFF701FC1A48D0ED141AB0EE39
:1019E000611AD0ED131AF0EE610AD0ED121AB0EEC2
:1019F000610AFFF713FA134890ED000A80ED030A1D
:101A000090ED010A80ED040A90ED020A80ED050ACE
:101A10000F4890ED0A0A0F4880ED000A0C4890ED3F
:101A20000B0AB1EE400A0B4880ED010A084890ED20
:101A30000C0AB1EE400A074880ED020A03B0BDEC83
:101A4000028B00BDF8060020BC070020A40800207F
:101A5000780B0020B008002070B52DED108BB0EE93
:101A6000408AB0EE60EAF0EE41EAB0EE61FAF0EEE4
:101A7000429AB0EE629AF0EE438A04460D4616464C
:101A80009FEDFB0A28EE000AF3EE040A20EE200A7E
:101A9000F0EE40AAF748D0ED080A60EEA00A90EDFB
:101AA000091AD0ED091A41EE210A90ED0A1AD0ED7B
:101AB0000A1A41EE210AB0EE600A00F006FDEE4877
:101AC00080ED000A90ED000AB5EEC00AF1EE10FAC2
:101AD00038D0E84890ED080AE748D0ED000A80EEDB
:101AE000201AE64890ED000A71EE400A90ED000AD7
:101AF0000AEEA00A80ED000ADE4890ED090ADE48F1
:101B0000D0ED000A80EE201ADC4890ED010A71EE5B
:101B1000400A90ED010A0AEEA00A80ED010AD548BC
:101B2000D0ED0A0AD44890ED001A80EE810AD3481D
:101B3000D0ED020A70EE600A90ED020A0AEEA00AE9
:101B400080ED020ACE4ACD49CE4802F066FFCC486D
:101B5000D0ED000A60EEA00A90ED011AD0ED011A56
:101B600041EE210AB0EE600A00F0AFFCC64880EDFD
:101B7000000AC34890ED000AB5EEC00AF1EE10FA73
:101B800036D090ED010AB5EEC00AF1EE10FA2FD072
:101B900090ED020AB5EEC00AF1EE10FA28D0BA486C
:101BA00090ED000AB5EEC00AF1EE10FA20D0B4486C
:101BB00090ED000AB448D0ED000A80EE201AB0EE95
:101BC00041BAAF4890ED010AAF48D0ED000A80EE6F
:101BD000201AF0EE41BAF0EE4B0AB0EE6B0A00F0BC
:101BE000B4FBDFEDAA0A20EE200AA94880ED000A26
:101BF000A84890ED010AD0ED030A20EE200AD0EDAE
:101C0000000A90ED021A00EEC10AF0EE000A20EE82
:101C1000200A9C4880ED000A9E4890ED000AD0ED15
:101C2000010A20EE200AD0ED020A90ED031A00EE20
:101C3000810AF0EE000A20EE200A924880ED010AA7
:101C4000944890ED010A20EE000AD0ED020A90EDD2
:101C5000021A00EE810AF7EE000AB0EE001A41EE19
:101C6000400A8848C0ED020A69EEA90A49EE090A4D
:101C700048EEA80AB0EE600A00F027FC864880ED26
:101C8000000A9FED7B0A28EE000AF2EE040A60EEDD
:101C9000200A90ED000A814890ED001A30EE411ABA
:101CA00090ED000A00EE810A80ED000AF5EEC09A80
:101CB000F1EE10FA02DDB0EE690A01E0B1EE690A58
:101CC000DFED770AB4EEE00AF1EE10FA7DD2B5EE60
:101CD000C09AF1EE10FA02DDB0EE490A01E0B1EE71
:101CE000490ADFED6F0AB4EEE00AF1EE10FA78D29D
:101CF000F5EEC08AF1EE10FA02DDB0EE680A01E0FE
:101D0000B1EE680ADFED660AB4EEE00AF1EE10FA11
:101D100067D2614890ED000AC9EE800AF0EE609A41
:101D200090ED000AC9EE000AB0EE609A90ED000A4C
:101D3000C8EE800AF0EE608A90ED000ADFED590AE5
:101D4000B4EEE00AF1EE10FA54DD90ED000ADFED9A
:101D5000540AB4EEE00AF1EE10FA4BD2494890ED85
:101D6000020A20EE090AD0ED010A08EEE00A4E4808
:101D700080ED030A434890ED000A20EE280AD0EDDA
:101D8000020A09EEE00A484880ED040A9FED380A8D
:101D900028EE000AF7EE000A20EE20AA90ED030AD2
:101DA000D0ED060A70EE600A90ED060A0AEE200AEF
:101DB00080ED060A90ED040AD0ED070A70EE600A85
:101DC00090ED070A0AEE200A00E00AE080ED070A1B
:101DD00090ED060A80ED000A90ED070A80ED010AF9
:101DE00008E09FED320A304880ED000A9FED2F0A8F
:101DF00080ED010A2C4890ED090AD0ED000A9FED14
:101E00002C1A60EE810AB0EE001A60EE810A00EE34
:101E1000880A80ED090A90ED0A0AD0ED010A9FEDCB
:101E2000241A60EE810AB0EE001A60EE810A00EE1C
:101E3000880A80ED0A0A90ED0B0AD0ED020A9FEDA8
:101E40001C1A60EE810AB0EE001A60EE810A00EE04
:101E5000880A80ED0B0A90ED090ADFED160AB4EE50
:101E6000E00AF1EE10FA27D29FED120A34E00000EA
:101E7000C3F5C84050050020440000205009002050
:101E800044090020FC080020400000203333654254
:101E90004C00002024000020340000203C000020E2
:101EA0000080894500806D45080900200000000081
:101EB000CDCCCC3D34FA0EBDFE4890ED090ADFEDE5
:101EC000FE0AB4EEE00AF1EE10FA02DD9FEDFA0A26
:101ED00002E0F84890ED090AF64880ED090A90ED15
:101EE0000A0A5FED0C0AB4EEE00AF1EE10FA02D233
:101EF0001FED100A0FE0EF4890ED0A0ADFEDEE0A41
:101F0000B4EEE00AF1EE10FA02DD9FEDEB0A02E01A
:101F1000E84890ED0A0AE74880ED0A0A90ED0B0ABE
:101F20005FED1C0AB4EEE00AF1EE10FA02D21FEDEA
:101F30001F0A0FE0DF4890ED0B0ADFEDDF0AB4EE79
:101F4000E00AF1EE10FA02DD9FEDDB0A02E0D9486B
:101F500090ED0B0AD74880ED0B0AD84890ED020AA5
:101F6000B5EEC00AF1EE10FA29DDD548007898B137
:101F7000D448D0ED000AD44890ED001A70EEC10AA2
:101F8000B0EE600A00F03CFCDFEDD00A20EE200A43
:101F9000CF4880ED000A12E0CA48D0ED000ACA48D6
:101FA00090ED001A70EEC10AB0EE600A00F028FC55
:101FB000DFEDC80A20EE200AC54880ED000ABD48C2
:101FC00090ED000AD0ED090A30EE200ADFEDC20ADA
:101FD00020EE200AB94890ED001ABD48D0ED001A55
:101FE000F0EE4E0A41EE610A9FEDBC1A00EE810A46
:101FF000B04880ED0C0A90ED010AD0ED0A0A30EEEF
:10200000200ADFEDB50A20EE200AAC4890ED011A57
:10201000AF48D0ED001AF0EE6E0A41EE610A9FED76
:10202000AF1A00EE810AA34880ED0D0AA348D0ED57
:10203000020AA74890ED001AB0EE4F0A00EEC10A5E
:10204000DFEDA60A20EE200A9A4880ED0E0AA44889
:1020500090ED010AB1EE400A9648D0ED0C0A20EE50
:10206000200A9F48D0ED020A924890ED0D1A00EE2A
:10207000C10A9B48D0ED030A8E4890ED0E1A00EE7F
:10208000C10A9748D0ED000A40EE080AC0ED000AE8
:1020900090ED000A8748D0ED0C0A20EE200A904807
:1020A000D0ED020A834890ED0E1A00EE810A8C48AA
:1020B000D0ED030A7F4890ED0D1A00EEC10A884862
:1020C000D0ED010A40EE080AC0ED010A90ED000AC9
:1020D0007848D0ED0D0A20EE200A8148D0ED010AA3
:1020E000744890ED0E1A00EEC10A7D48D0ED030A47
:1020F000704890ED0C1A00EE810A7948D0ED020A82
:1021000040EE080AC0ED020A90ED000A6948D0EDE1
:102110000E0A20EE200A7248D0ED010A654890EDC3
:102120000D1A00EE810A6E48D0ED020A614890ED6A
:102130000C1A00EEC10A6A48D0ED030A40EE080A04
:10214000C0ED030AD0ED000A60EEA00A90ED011A7E
:10215000D0ED011A41EE210A90ED021AD0ED021ADB
:1021600041EE210A90ED031AD0ED031A41EE210A47
:10217000B0EE600A00F0A9F95A4880ED000A58480C
:1021800090ED000A5748D0ED000A80EE201A54481E
:1021900080ED001A90ED010A5248D0ED000A80EE61
:1021A000201A4F4880ED011A90ED020A4D48D0EDFB
:1021B000000A80EE201A4A4880ED021A90ED030AC8
:1021C0004848D0ED000A80EE201A454880ED031AF9
:1021D00090ED011A21EE011AD0ED021A90ED022ABB
:1021E00001EE821AF7EE001AB0EE002A42EE411A12
:1021F000F0EE610A90ED001AD0ED011A21EE211ADD
:10220000D0ED021A90ED032A01EE821AF0EE001AC8
:1022100021EE211AB0EE410A00F097F85FEDE50AD1
:1022200020EE200A84ED000A2D4890ED010AD0ED41
:10223000030A20EE200AD0ED000A90ED021A00EE0B
:10224000C10AF0EE000A20EE200A10EE101A08462D
:102250000AF0BCFF41EC1D0BB0EE4D0AF0EE6D0A2A
:102260000BF0EEF9B0EE40CAF0EE60CA9FED1E0B27
:1022700053EC102B51EC1C0B0AF025FF41EC1B0B0F
:102280000AF0E8FF2860164890ED001A21EE011AC6
:10229000D0ED011A90ED012A01EE821AF7EE001A34
:1022A000B0EE002A52EE011AF0EE610A90ED011A2A
:1022B0001EE000000809002034FA0E3DFC08002052
:1022C000A40400204C0000202000002090C2F53D16
:1022D000480000206766663F9A99193F34FA8E3CA1
:1022E00024000020380000200000006066A64C405A
:1022F000B1EE411AD0ED021A21EE211AD0ED001AEA
:1023000090ED032A01EEC21AF0EE001A21EE211A16
:10231000B0EE410A00F019F8DFED040A20EE200AC1
:1023200086ED000ABDEC108B70BD000033336542B2
:10233000F0EE400AF5EEC00AF1EE10FA02DBB0EE64
:10234000600A7047B1EE600AFBE700B5B0EE403AB4
:10235000B0EE602AB5EEC03AF1EE10FA07D1B5EE54
:10236000C02AF1EE10FA02D19FEDFD1A99E0B0EE0D
:10237000430AFFF7DDFFF0EE403AB0EE420AFFF706
:10238000D7FFF0EE402AF4EEE23AF1EE10FA02D274
:1023900083EEA24A01E082EEA34A9FEDF20AB4EE78
:1023A000C04AF1EE10FA02D2F0EE441A2DE0DFED51
:1023B000EE0AB6EE000A14EE200AF0EE404ABDEE38
:1023C000E40A10EE100A00EE100AB8EEC00A34EE6D
:1023D000C00AF0EE404AE54901EB800191ED000AA8
:1023E000F0EE401AE14A411C02EB810191ED000A36
:1023F000114601EB8001D1ED000A70EE600AB0EEEB
:10240000610A00EEA40AF0EE401AF4EEE32AF1EEBF
:1024100010FA20DDB5EEC02AF1EE10FA0ADBB5EEB7
:10242000C03AF1EE10FA02DBB0EE611A39E0B1EE1B
:10243000611A36E09FEDCE1AB5EEC03AF1EE10FA11
:1024400004DB31EE610AB0EE401A2AE031EEC10A37
:10245000B0EE401A25E0B5EEC03AF1EE10FA10DB0E
:102460009FEDC41AB5EEC02AF1EE10FA04DB31EE8E
:10247000610AB0EE401A14E031EE210AB0EE401AC3
:102480000FE09FEDBD1AB5EEC02AF1EE10FA04DBA5
:1024900031EE210AB0EE401A03E031EE610AB0EEEF
:1024A000401AB0EE410A00BD00B5B0EE405AF0EE61
:1024B000605AF0EE450AB0EE650AFFF746FF00BD30
:1024C000F0EE400A20EEA00A7047B0EE401AB7EED8
:1024D000080AB0EE402AB6EE000A21EE000AF0EE3D
:1024E000401AF0EE410A10EE900AA449A1EB6000F8
:1024F00000EE900A61EEA02AB7EE080A02EEE00AAA
:1025000020EE200AF0EE400A61EEA02AB7EE080A9B
:1025100002EEE00A20EE200AF0EE400A21EE200A48
:10252000704710B52DED0A8BB0EE409AF0EE609A30
:102530009FED930B53EC102B51EC190B0AF05AFE44
:1025400018D29FED910B53EC102B51EC190B0AF0A4
:10255000BAFD41EC1B0B9FED8E0B53EC102B0AF0D8
:102560000BFD41EC1A0B53EC192B0AF0ACFD41ECBE
:10257000180B17E09FED840B53EC102B51EC190B4B
:102580000AF0A1FD41EC1B0B9FED810B53EC102BCE
:102590000AF096FD41EC1A0B53EC192B0AF093FD4F
:1025A00041EC180B9FED760B53EC102B51EC180BF4
:1025B0000AF020FE20D29FED780B53EC102B51EC4B
:1025C000180B0AF0D9FC41EC1C0B9FED750B53EC7A
:1025D000102B0AF078FD41EC1B0B9FED6F0B53ECB9
:1025E000102B0AF0C9FC41EC1A0B53EC182B0AF023
:1025F0006AFD41EC180B1FE09FED670B53EC102BAD
:1026000051EC180B0AF059FD41EC1C0B9FED660BC9
:1026100053EC102B0AF057FD41EC1B0B9FED5E0BAA
:1026200053EC102B0AF0A8FC41EC1A0B53EC182BBE
:102630000AF049FD41EC180BB0EE480AF0EE680ACA
:10264000BDEC0A8B10BD10B52DED068BB0EE408AA7
:10265000F0EE608A01249FED560B53EC102B51ECE9
:10266000180B0AF0DFFD0AD89FED510B53EC102B2D
:1026700051EC180B0AF021FD41EC180BA41E20466A
:102680000AF093FD41EC190BB0EE480AF0EE680A2F
:10269000FFF747FFB0EE40AAF0EE60AA53EC192B0B
:1026A00051EC1A0B0AF00FFD41EC100BBDEC068B40
:1026B00010BD10B52DED088BB0EE408AF0EE608AAB
:1026C00001249FED3D0B53EC102B51EC180B0AF03D
:1026D00053FC41EC180B9FED360B53EC102B51ECD7
:1026E000180B0AF09FFD0AD8A41E9FED310B53EC86
:1026F000102B51EC180B0AF0E0FC41EC180B2046B3
:102700000AF053FD41EC1A0BB0EE480AF0EE680AED
:10271000FFF799FFB0EE40BAF0EE60BA53EC1A2B17
:1027200051EC1B0B0AF0CFFC41EC190B0AF092FDA7
:1027300000EE100ABDEC088B10BDB0EE401AB5EEED
:10274000C01AF1EE10FA3BDD31EE600AB5EEC00AB8
:10275000F1EE10FA3FD2DFED021AB0EE610A3AE074
:10276000000000008180803B00008043500000207A
:10277000DB0F4940DB0FC93FDB0FC9BFDF59375FB4
:102780000000000000000000000000602FF0D93FB2
:1027900000000060305FF43F000000000000F03FE8
:1027A000000000C0CCCCCCBF000000C0CCCCCC3FE3
:1027B000F1D4C853FB210940F1D4C853FB21F93FA0
:1027C00031EE200AB5EEC00AF1EE10FA03DD5FED3E
:1027D0001C1AB0EE610A7047B0EE401AF1EE601AB2
:1027E000B4EEE11AF1EE10FA07DDB4EEE01AF1EE04
:1027F00010FA02D21FED260A01E0B0EE410A70473E
:10280000F0EE400A9FED210AF4EEC00AF1EE10FA54
:1028100004DD9FED1F0A30EEC00A70479FED1D0AD0
:10282000F4EEC00AF1EE10FA04D29FED190A30EE70
:10283000800AF2E7B0EE600AEFE7F0EE401AB7EE7A
:10284000000AF4EEC00AF1EE10FA04DCF5EEC00A5C
:10285000F1EE10FA02D21FED3E0A704781EE810AB6
:10286000B5EEC00AF1EE10FA02DD81EE810A03E056
:1028700081EE810AB1EE400A20EE202AB7EE000A6E
:1028800030EE600A02EE210AE7E700000000344360
:102890000000B443000034C370B505460C46214621
:1028A000F84804F004FC70BD2DE9F0432DED028BD7
:1028B00083B005460E4617469846B0EE408A00247F
:1028C000AA222146641CEF4842542146641C42540B
:1028D00004222146641C425400222146641C4254B6
:1028E0002146641C45542146641C465401979DF8BA
:1028F00007202146641C42549DF806202046611C96
:10290000CCB2E0490A549DF805202046611CCCB2A7
:10291000DC490A549DF804202046611CCCB2D949F8
:102920000A54CDF804809DF807202046611CCCB2E3
:10293000D4490A549DF806202046611CCCB2D149E6
:102940000A549DF805202046611CCCB2CD490A549A
:102950009DF804202046611CCCB2CA490A549FED60
:10296000CA0A28EE000ABDEEC00A10EE100A00B234
:1029700002909DF809202046611CCCB2C1490A543E
:102980009DF808202046611CCCB2BE490A54201F85
:10299000C8704FF00009002006E0BA49095C4944BC
:1029A00001F0FF09411CC8B2A042F6DB2046611CC1
:1029B000CCB2B44901F800902146B248FFF76CFF51
:1029C00003B0BDEC028BBDE8F08370B52DED0A8B32
:1029D00082B00546B0EE408AF0EE608AB0EE419AD1
:1029E000F0EE619AB0EE42AAF0EE62AAB0EE43BAFF
:1029F000F0EE63BAB0EE44CA0024AA222146641C59
:102A0000A04842542146641C425405F10F00C2B252
:102A10002146641C9B48425400222146641C4254B7
:102A20009FED9A0A28EE000ABDEEC00A10EE100AC9
:102A300000B201909DF805202146641C9148425443
:102A40009DF804202146641C42549FED900A28EE14
:102A5000800ABDEEC00A10EE100A00B201909DF887
:102A600005202146641C874842549DF804202046D6
:102A7000611CCCB283490A549FED840A29EE000AF6
:102A8000BDEEC00A10EE100A00B201909DF80520BC
:102A90002046611CCCB27B490A549DF80420204694
:102AA000611CCCB277490A549FED780A29EE800A5E
:102AB000BDEEC00A10EE100A00B201909DF805208C
:102AC0002046611CCCB26F490A549DF80420204670
:102AD000611CCCB26B490A549FED6C0A2AEE000AC5
:102AE000BDEEC00A10EE100A00B201909DF805205C
:102AF0002046611CCCB263490A549DF8042020464C
:102B0000611CCCB25F490A549FED600A2AEE800A2C
:102B1000BDEEC00A10EE100A00B201909DF805202B
:102B20002046611CCCB257490A549DF80420204627
:102B3000611CCCB253490A549FED540A2BEE000A93
:102B4000BDEEC00A10EE100A00B201909DF80520FB
:102B50002046611CCCB24B490A549DF80420204603
:102B6000611CCCB247490A549FED480A2BEE800AFB
:102B7000BDEEC00A10EE100A00B201909DF80520CB
:102B80002046611CCCB23F490A549DF804202046DF
:102B9000611CCCB23B490A549FED3C0A2CEE000A62
:102BA000BDEEC00A10EE100A00B201909DF805209B
:102BB0002046611CCCB233490A549DF804202046BB
:102BC000611CCCB22F490A54201FC8700026002077
:102BD00005E02C49095C3144CEB2411CC8B2A04288
:102BE000F7DB2046611CCCB226490E54214625480D
:102BF000FFF752FE02B0BDEC0A8B70BDF8B505467A
:102C00000E460024AA222146641C1E484254214636
:102C1000641C425405222146641C42540022214671
:102C2000641C425400959DF801202146641C4254C6
:102C30009DF800202146641C425400969DF8012016
:102C40002146641C42549DF800202146601CC4B2F9
:102C50000C484254201F0B49C8700027002005E093
:102C60000849095C3944CFB2411CC8B2A042F7DB25
:102C70002046611CCCB203490F5421460148FFF79E
:102C80000BFEF8BD6D0900200000C84200007A4428
:102C90007FB50024AA222146641CFE4842542146E6
:102CA000641C425406222146641C425400222146E0
:102CB000641C42549DF801202146641C42549DF836
:102CC00000202146641C42549DF805202146641CC6
:102CD00042549DF804202046611CCCB2ED490A54B0
:102CE0009DF809202046611CCCB2EA490A549DF89F
:102CF00008202046611CCCB2E6490A549DF80D20FC
:102D00002046611CCCB2E3490A549DF80C202146B0
:102D1000601CC4B2DF4842549DF821202046611C4B
:102D2000CCB2DC490A549DF820202046611CCCB26C
:102D3000D8490A549DF825202046611CCCB2D549BB
:102D40000A549DF824202046611CCCB2D1490A5473
:102D50009DF829202046611CCCB2CE490A549DF82A
:102D600028202046611CCCB2CA490A549DF82D2067
:102D70002046611CCCB2C7490A549DF82C2020463D
:102D8000611CCCB2C3490A54201FC8700025002022
:102D900005E0C049095C2944CDB2411CC8B2A0423B
:102DA000F7DB2046611CCCB2BA490D542146B94824
:102DB000FFF772FD7FBD7FB50024AA222146641C67
:102DC000B44842542146641C425403222146641CE8
:102DD000425400222146641C42549DF801202146A1
:102DE000641C42549DF800202146641C42549DF806
:102DF00005202146641C42549DF804202046611C95
:102E0000CCB2A4490A549DF809202046611CCCB2DA
:102E1000A0490A549DF808202046611CCCB29D4967
:102E20000A549DF80D202046611CCCB299490A54E1
:102E30009DF80C202046611CCCB296490A549DF89E
:102E400021202046611CCCB292490A549DF82020D2
:102E50002146601CC4B28F4842549DF8252020466C
:102E6000611CCCB28B490A549DF824202046611C79
:102E7000CCB288490A549DF829202046611CCCB266
:102E800084490A549DF828202046611CCCB281490F
:102E90000A549DF82D202046611CCCB27D490A546D
:102EA0009DF82C202046611CCCB27A490A549DF82A
:102EB00031202046611CCCB276490A549DF830205E
:102EC0002046611CCCB273490A549DF83520204637
:102ED000611CCCB26F490A549DF834202046611C15
:102EE000CCB26C490A54201FC8700025002005E0B0
:102EF0006849095C2944CDB2411CC8B2A042F7DB45
:102F00002046611CCCB263490D5421466148FFF74D
:102F1000C3FC7FBD73B50024AA222146641C5D4812
:102F200042542146641C425407222146641C4254E8
:102F300000222146641C42549DF803202146641C53
:102F400042549DF802202146641C42549DF8012001
:102F50002146641C42549DF800202046611CCCB2DE
:102F60004C490A549DF805202046611CCCB24949C1
:102F70000A549DF804202046611CCCB245490A54ED
:102F8000201FC8700025002005E04249095C294443
:102F9000CDB2411CC8B2A042F7DB2046611CCCB2C6
:102FA0003C490D5421463B48FFF776FC7CBD2DE99A
:102FB000F84F05460E4617469846DDE90AAB002451
:102FC000AA222146641C334842542146641C4254C0
:102FD00002222146641C425400222146641C4254B1
:102FE00000959DF801202146641C42549DF8002064
:102FF0002146641C425400969DF801202146641C21
:1030000042549DF800202146601CC4B2214842541D
:1030100000979DF801202046611CCCB21D490A543E
:103020009DF800202046611CCCB21A490A54CDF804
:1030300000809DF801202046611CCCB215490A543D
:103040009DF800202046611CCCB212490A54CDF8EC
:1030500000A09DF801202046611CCCB20D490A5405
:103060009DF800202046611CCCB20A490A54CDF8D4
:1030700000B09DF801202146601CC4B205484254AE
:103080009DF800202146601CC4B2024842540C98AE
:10309000009001E06D0900209DF801202046611C90
:1030A000CCB2F8490A549DF800202046611CCCB2ED
:1030B000F4490A540D9800909DF801202046611CA7
:1030C000CCB2F0490A549DF800202046611CCCB2D5
:1030D000EC490A540E9800909DF801202046611C8E
:1030E000CCB2E8490A549DF800202046611CCCB2BD
:1030F000E4490A54002000909DF801202046611CFC
:10310000CCB2E0490A549DF800202046611CCCB2A4
:10311000DC490A54201FC8704FF00009002006E067
:10312000D849095C494401F0FF09411CC8B2A042DA
:10313000F6DB2046611CCCB2D24901F80090214652
:10314000D048FFF7A9FBBDE8F88F38B50024AA22C4
:103150002146641CCB4842542146641C4254F1224F
:103160002146641C425400222146641C4254002023
:1031700000909DF801202146641CC24842549DF8ED
:1031800000202146641C4254BF4890ED000ABDEE69
:10319000C00A10EE100A00B200909DF801202146EE
:1031A000641CB84842549DF800202046611CCCB2F3
:1031B000B4490A54B44890ED000ABDEEC00A10EEBE
:1031C000100A00B200909DF801202046611CCCB28C
:1031D000AC490A549DF800202046611CCCB2A94994
:1031E0000A54002000909DF801202046611CCCB2BA
:1031F000A4490A549DF800202046611CCCB2A14984
:103200000A54002000909DF801202046611CCCB299
:103210009C490A549DF800202046611CCCB2994973
:103220000A54201FC8700025002005E09549095C5C
:103230002944CDB2411CC8B2A042F7DB2046611C34
:10324000CCB290490D5421468E48FFF725FB38BD7E
:1032500030B52DED048B81B0B0EE408AF0EE608A7F
:10326000B0EE419A0024AA222146641C85484254AB
:103270002146641C42540B222146641C4254002205
:103280002146641C42549FED810A28EE000ABDEEDF
:10329000C00A10EE100A00B200909DF801202146ED
:1032A000641C784842549DF800202146641C425416
:1032B0009FED760A28EE800ABDEEC00A10EE100AD5
:1032C00000B200909DF801202146641C6D484254D4
:1032D0009DF800202046611CCCB26A490A549FED3B
:1032E0006B0A29EE000ABDEEC00A10EE100A00B209
:1032F00000909DF801202046611CCCB261490A541F
:103300009DF800202046611CCCB25E490A54201F63
:10331000C8700025002005E05A49095C2944CDB257
:10332000411CC8B2A042F7DB2046611CCCB2554913
:103330000D5421465348FFF7AFFA01B0BDEC048BA2
:1033400030BD2DE9F0432DED048B83B0B0EE408A03
:10335000F0EE608AB0EE419A05460E461746984652
:1033600000240196AA222146641C46484254214664
:10337000641C425401222146641C4254002221460E
:10338000641C42549FED420A28EE000ABDEEC00ABA
:1033900010EE100A00B202909DF809202146641C2C
:1033A000384842549DF808202146641C42549FED41
:1033B000380A28EE800ABDEEC00A10EE100A00B2EC
:1033C00002909DF809202146641C2E4842549DF825
:1033D00008202046611CCCB22A490A549FED2C0AD1
:1033E00029EE000ABDEEC00A10EE100A00B20290EB
:1033F0009DF809202046611CCCB222490A549DF850
:1034000008202046611CCCB21E490A5402959DF842
:1034100009202046611CCCB21A490A549DF80820A4
:103420002046611CCCB217490A549DF8072020465B
:10343000611CCCB213490A549DF806202046611C39
:10344000CCB210490A549DF805202046611CCCB22C
:103450000C490A549DF804202046611CCCB209494D
:103460000A542046611CCCB206490F542046611C08
:10347000CCB2044901F80080201FC8704FF0000949
:1034800000200EE06D090020DC040020CDCCCC3DF6
:103490000000C842FC49095C494401F0FF09411C95
:1034A000C8B2A042F6DB2046611CCCB2F64901F856
:1034B00000902146F448FFF7EFF903B0BDEC048B10
:1034C000BDE8F0837FB505460024AA222146641C8E
:1034D000ED4842542146641C425400222146641C9B
:1034E00042542146641C42542146641C45549DF8B4
:1034F00005202146641C42549DF804202146641C8A
:1035000042549DF809202046611CCCB2DE490A5481
:103510009DF808202046611CCCB2DB490A549DF876
:103520000D202046611CCCB2D7490A549DF80C20CE
:103530002046611CCCB2D4490A549DF82120204673
:10354000611CCCB2D0490A549DF820202046611C51
:10355000CCB2CD490A54201FC8700026002005E0D7
:10356000C949095C3144CEB2411CC8B2A042F7DB64
:103570002046611CCCB2C4490E542146C248FFF714
:103580008BF97FBD10B52DED028B86B0BF4800785A
:10359000BF49097890FBF1F201FB1201BC480078A9
:1035A000401E814202D10120BA498870B748007894
:1035B000B949097890FBF1F201FB1201B648007895
:1035C000401E814202D10120B249C870AF48007844
:1035D000B249097890FBF1F201FB1201AF48007883
:1035E000801E814202D10120AA498873A748007831
:1035F000AB49097890FBF1F201FB1201A848007871
:10360000401E814202D10120A24948709F480078A3
:10361000A449097890FBF1F201FB1201A14800785E
:10362000401E814202D101209A4988729748007851
:103630009D49097890FBF1F201FB12019A4800784C
:10364000801E814202D10120924908738F48007880
:103650009649097890FBF1F201FB1201934800783A
:10366000801E814202D101208A4948738748007830
:103670008F49097890FBF1F201FB12018C48007828
:10368000C01E814202D101208249C8737F48007860
:103690008849097890FBF1F201FB12018548007816
:1036A000C01E814204D17B48007C401C79490874CB
:1036B00076480078401CC0B274490870C82801DD03
:1036C000002008707348007860B1002071490870CC
:1036D0004FF4C87364224FF4967100900420FFF7F2
:1036E000F1FE0BE26B484078B0B1002069494870A8
:1036F000714803787148027800217148008800B24F
:10370000704C94ED001A704CD4ED000A6F4C94ED9F
:10371000000AFFF716FEF1E15E48C07B60B10020B1
:103720005C49C8736A4890ED001ADFED6A0A9FEDA4
:10373000690AFFF78DFDE1E15648807B28B1002042
:1037400054498873FFF701FDD8E152488078E8B307
:10375000002050498870604890ED0A0ABDEEC00A0A
:1037600010EE100A02B25C4890ED090ABDEEC00AE4
:1037700010EE100A01B2584890ED080ABDEEC00ADA
:1037800010EE100A00B2554B93ED090ABDEEC00AC7
:1037900010EE103A1BB2CDE90130CDE903124F48CB
:1037A00090ED080ABDEEC00A10EE100A00B24B4CB4
:1037B000009094ED070ABDEEC00A10EE104A23B245
:1037C000464C94ED060ABDEEC00A00E015E010EE8E
:1037D000104A22B2414C94ED050ABDEEC00A10EE2B
:1037E000104A21B23D4C94ED040ABDEEC00A10EE21
:1037F000104A20B2FFF7DBFB80E12648C07840B1D9
:1038000000202449C8702E4801880020FFF782FB61
:1038100074E12048807AA8B300201E49887240F2E3
:10382000DC522F48C08900F2DC5080B22C498989D3
:1038300001F2DC5189B2CDE90302294805920291D7
:10384000408900F2DC5080B22549098901F2DC513F
:1038500089B2234CCDE90010648804F2DC54A3B291
:103860001F4C248804F2DC54A2B21D4CE48804F2FC
:10387000DC54A1B21A4CA48804F2DC54A0B2FFF7C5
:103880009AFA3BE12EE000006D090020560400206A
:10389000570400205C09002058040020590400202F
:1038A0005A0400205B0400205C0400205D0400201A
:1038B0005E0400205F040020A4040020A90400206E
:1038C000A4050020200000201C000020180000207B
:1038D000DC0400200000000050050020780B0020D0
:1038E000E4090020FE48007B48B30020FC4908732F
:1038F000009001900290FB4C039094ED030ABCEE03
:10390000C00A10EE104AA3B2F64C94ED020ABCEEC7
:10391000C00A10EE104AA2B2F24C94ED010ABCEEBD
:10392000C00A10EE104AA1B2EE4C94ED000ABCEEB3
:10393000C00A10EE104AA0B2FFF7AAF9DEE0E8488C
:10394000407B40B10020E64948734FF4E4717B208E
:10395000FFF754F9D2E0E248007958B30020E0497B
:103960000871E148D0ED1E4AB0EE644AD0ED1F4A1E
:10397000F0EE643AD0ED1D4AB0EE643AD0ED1A4A4A
:10398000F0EE642AD0ED1B4AB0EE642AD0ED194A5D
:10399000F0EE641AD0ED164AB0EE641AD0ED174A74
:1039A000F0EE640AD0ED154AB0EE640A0120FFF78C
:1039B0000CF8A3E0CA48407958B30020C8494871C0
:1039C000CA48D0ED1E4AB0EE644AD0ED1F4AF0EE70
:1039D000643AD0ED1D4AB0EE643AD0ED1A4AF0EEEA
:1039E000642AD0ED1B4AB0EE642AD0ED194AF0EEFD
:1039F000641AD0ED164AB0EE641AD0ED174AF0EE14
:103A0000640AD0ED154AB0EE640A0220FEF7DDFF2D
:103A100074E0B348807990B30020B1498871B4480C
:103A200090ED000ADFEDB30A80EE201AB0EE418A75
:103A3000B14890ED213AB0EE434A90ED223AF0EED3
:103A4000433A90ED1D3AF0EE432A90ED1E3AB0EE67
:103A5000432A90ED1C3AF0EE431A90ED193AB0EE7D
:103A6000431A90ED1A3AF0EE430A90ED183AB0EE90
:103A7000430AB0EE483A0320FEF7A7FF3EE0FFE717
:103A80009748C07958B300209549C8719B48D0ED3C
:103A9000084AB0EE644AD0ED074AF0EE643AD0ED41
:103AA000064AB0EE643AD0ED054AF0EE642AD0ED55
:103AB000044AB0EE642AD0ED034AF0EE641AD0ED69
:103AC000024AB0EE641AD0ED014AF0EE640AD0ED7D
:103AD000004AB0EE640A0420FEF777FF0EE080484B
:103AE000007C02280AD100207D4908741FED870A56
:103AF00000231A4619461846FEF7D6FE06B0BDEC5E
:103B0000028B10BD70B504460D46AA207C49087092
:103B10004870EF2088700220C87008460471457113
:103B20000026002005E07649095C3144CEB2411CF4
:103B3000C8B20628F7DB724886710721FEF7ACFE93
:103B400070BD70B52DED048B04460D460026002097
:103B500004E0215C3144CEB2411CC8B2691E8142EE
:103B6000F7DC601910F8010CB04202D0BDEC048BF8
:103B700070BD2078AA2802D16078AF2800D0F5E780
:103B8000A078012822D12079012802D15D4908704E
:103B90001CE02079022803D101205A49487015E021
:103BA0002079032804D101205649087048700DE09F
:103BB0002079042803D101205349087006E02079B8
:103BC000212802DB2079262800DD00BFA07802280A
:103BD00014D12079012806D14149087148718871B2
:103BE000C871087248722079A02802D101203C498E
:103BF00008702079A12801D1FCF7D1FCA078032816
:103C000036D142480078022802D0022000F048FE57
:103C10002079617941EA00203D498880A079E179E5
:103C200041EA00203A49C880207A617A41EA0020BE
:103C300037490880A07AE17A41EA00203449488077
:103C4000207B617B41EA002031490881A07BE17B38
:103C500041EA00202E494881207C617C41EA002015
:103C60002B498881A07CE17C41EA00202849C88159
:103C7000A07804282AD12079012803D100202549E1
:103C8000087023E02079022813D14FF6A260224960
:103C90008880002008804880C8809FED200A144852
:103CA00080ED000A01201B49087002201549487068
:103CB0000CE02079032803D101201949087005E0A0
:103CC0002079042802D1022015490870A078102814
:103CD0007ED12179090209B2627941EA020021E02C
:103CE0005C090020CC080020F8060020BC0700205A
:103CF000CC04002000007A4438060020F80500209B
:103D00006D090020780B00207D0500206C04002048
:103D1000A0090020A4040020E409002000002043A2
:103D2000A804002009F041FA41EC190B9FEDFE0BAD
:103D300053EC102B09F0C7F941EC180B09F08AFA83
:103D4000FB494865A179090209B2E27941EA02001A
:103D500009F02BFA41EC190B9FEDF30B53EC102BF0
:103D600009F0B1F941EC180B09F074FAF049C86593
:103D7000217A090209B2627A41EA020009F015FAD1
:103D800041EC190B9FEDE80B53EC102B09F09BF95C
:103D900041EC180B09F05EFAE5498865A17A090241
:103DA00009B2E27A41EA020009F0FFF941EC190B8D
:103DB0009FEDDD0B53EC102B09F085F941EC180B4E
:103DC00009F048FADA494866217B090209B200E0A5
:103DD00077E0627B41EA020009F0E7F941EC190B58
:103DE0009FEDD10B53EC102B09F06DF941EC180B42
:103DF00009F030FA0146CE48C166A17B090209B23A
:103E0000E27B41EA020009F0D0F941EC190B9FED89
:103E1000C60B53EC102B09F056F941EC180B09F0C6
:103E200019FA0146C2488166217C090209B2627C06
:103E300041EA020009F0B9F941EC190B9FEDBA0B08
:103E400053EC102B09F03FF941EC180B09F002FA82
:103E5000B7494867A17C090209B2E27C41EA020045
:103E600009F0A3F941EC190B9FEDAF0B53EC102BAC
:103E700009F029F941EC180B09F0ECF90146AC48BE
:103E8000C167217D090209B2627D41EA020009F0A1
:103E90008CF941EC190B9FEDA40B53EC102B09F09E
:103EA00012F941EC180B09F0D5F90146A0488167D9
:103EB000A0783146FFF726FEFCF769FB01209D49FB
:103EC0000880A07811287DD12179090209B2627990
:103ED00041EA020009F069F941EC190B9FED920BE0
:103EE00053EC102B09F0EFF841EC180B09F0B2F984
:103EF00091494865A179090209B2E27941EA0200D3
:103F000009F053F941EC190B9FED870B53EC102B83
:103F100009F0D9F841EC180B09F09CF98649C865FD
:103F2000217A090209B2627A41EA020009F03DF9F8
:103F300041EC190B9FED7C0B53EC102B09F0C3F8EF
:103F400041EC180B09F086F97B498865A17A0902D2
:103F500009B2E27A41EA020009F027F941EC190BB3
:103F60009FED710B53EC102B09F0ADF841EC180BE1
:103F700009F070F970494866217B090209B2627B39
:103F800041EA020009F011F941EC190B9FED660BB3
:103F900053EC102B09F097F841EC180B09F05AF983
:103FA00001466548C166A17B090209B2E27B41EA8C
:103FB000020009F0FAF841EC190B9FED5B0B53EC92
:103FC000102B00E055E009F07EF841EC180B09F0E9
:103FD00041F9014658488166217C090209B2627C98
:103FE00041EA020009F0E1F841EC190B9FED4E0B9C
:103FF00053EC102B09F067F841EC180B09F02AF983
:104000004D494867A17C090209B2E27C41EA0200FD
:1040100009F0CBF841EC190B9FED430B53EC102B3F
:1040200009F051F841EC180B09F014F90146424827
:10403000C167217D090209B2627D41EA020009F0EF
:10404000B4F841EC190B9FED380B53EC102B09F031
:104050003AF841EC180B09F0FDF801463648816743
:10406000A0783146FFF74EFDFCF791FA0120314967
:104070000880A07812287DD12179090209B26279DD
:1040800041EA020009F091F841EC190B9FED260B73
:1040900053EC102B09F017F841EC180B09F0DAF883
:1040A00026490866A179090209B2E27941EA0200CB
:1040B00009F07BF841EC190B9FED1B0B53EC102B17
:1040C00009F001F841EC180B09F0C4F81B498866A7
:1040D000217A090209B2627A41EA020009F065F820
:1040E00041EC190B9FED100B53EC102B08F0EBFF7C
:1040F00041EC180B09F0AEF810494866A17A0902A4
:1041000009B2E27A41EA020009F04FF841EC190BDA
:104110009FED050B53EC102B08F0D5FF41EC180B6D
:1041200009F098F805490BE0FCA9F1D24D62503F27
:10413000F806002054040020BC07002038060020A8
:104140000867217B090209B2627B41EA020009F09B
:104150002CF841EC190B1FED0C0B53EC102B08F055
:10416000B2FF41EC180B09F075F870498867A17B24
:10417000090200E056E009B2E27B41EA020009F0E0
:1041800014F841EC190B1FED180B53EC102B08F031
:104190009AFF41EC180B09F05DF864494867207CF0
:1041A000000200B2617C084300EE100AB8EEC00ABB
:1041B0005F4880ED000AA17C090209B2E27C41EA75
:1041C000020008F0F2FF41EC190B1FED290B53EC34
:1041D000102B08F078FF41EC180B09F03BF853491D
:1041E000C1F88800217D090209B2627D41EA02001E
:1041F00008F0DBFF41EC190B1FED350B53EC102BD6
:1042000008F061FF41EC180B09F024F84749C1F8A8
:104210008400A0783146FFF775FCFCF7B8F901205F
:1042200044490880A078132803D1A0783146FFF7CD
:1042300069FCA078142803D1A0783146FFF762FC0E
:10424000A078152803D1A0783146FFF75BFC00BFAA
:104250008CE410B504463848007838B9AA2C05D14A
:10426000012035490870354804705DE03248007817
:10427000012807D1AF2C05D102202F4908702F4803
:10428000447051E02C480078022807D1F12C05DA5F
:104290000320294908702948847045E026480078A1
:1042A00003280CD1322C0ADA042023490870234851
:1042B000C4702348047000202249087034E01E486E
:1042C0000078042819D11E480078002815DD1C4804
:1042D0000078401E1A4908701A4800781949097870
:1042E000491C184A1170001D14490C5414480078D8
:1042F000D0B905201049087016E00F48007805284D
:104300000FD100200C4908700E480078001D0B49A1
:104310000C540C480078401DC1B20848FFF711FC4E
:1043200002E000200449087010BD0000380600209B
:10433000CC0400205404002062040020B0090020B6
:1043400060040020610400200246002007E0FC4BCE
:104350001B5632F8133021F81030431CD8B208280D
:10436000F5DB7047F748D0ED020A9FEDF71AF4EE3F
:10437000C10AF1EE10FA51D2D0ED030A9FEDF21A04
:10438000F4EEC10AF1EE10FA1AD2F048B0F90000CA
:10439000401CC8B3EE480078B0B3EC48B0F9000058
:1043A00000EE900AF8EEE00A9FEDEA1A41EE000AEC
:1043B000FDEEE00A10EE900A00B2E449088030E019
:1043C000E048D0ED030A9FEDE41AF4EEC10AF1EEE5
:1043D00010FA1ADDDD48B0F90000401CA0B1DC483D
:1043E000007888B9D948B0F9000000EE900AF8EEDC
:1043F000E00A9FEDD81A41EE000AFDEEE00A10EE49
:10440000900A00B2D14908800BE0D048B0F9000012
:10441000401C30B90020CD49088002E00020CB4983
:104420000880CA48B0F90000B0F57A7F10DD4FF07F
:10443000FF30C6490880C648007830B90120C44919
:1044400008700220C549487002E00020C049087089
:1044500070473FB5F0EE401A0546C1480078012884
:1044600004D1C0492846FFF76FFF07E0BC48007839
:10447000022803D1BB49BC48FFF766FF0024FBE1DB
:10448000B84830F8140040F6C411884205DCB5483D
:1044900030F81400B0F5FA7F07DA0120B349085567
:1044A0000020B34921F8140012E0B14830F814009C
:1044B000401CAF4921F81400084630F81400C82801
:1044C00006DD4FF4FA6021F814000020A7490855D2
:1044D000A3480078012803D0A148007802287BD1A6
:1044E000A248005D0028FAD19E4830F814002DF84B
:1044F0001400A04830F914009F4931F91410884283
:104500006BDD9E48005D002878D13DF814009A4983
:1045100031F91410401A00EE100AB8EEC01A95488E
:1045200030F91400944931F91410401A00EE100AC1
:10453000B8EEC00AC1EE000A9FED861A9FED900A00
:1045400010EE810ABDEEC00A10EE100A00B210F59E
:10455000FA7F01DA8B484DE03DF81400864931F9C5
:104560001410401A00EE100AB8EEC01A814830F953
:104570001400814931F91410401A00EE100AB8EE07
:10458000C00AC1EE000A9FED731A9FED7D0A10EE7E
:10459000810ABDEEC00A10EE100A00B2B0F5FA7F33
:1045A00002DD4FF4FA7025E03DF81400724931F94C
:1045B0001410401A00EE100AB8EEC01A6D4830F917
:1045C00014006D4931F91410401A00EE100AB8EECB
:1045D000C00AC1EE000A02E08AE086E00EE09FED2C
:1045E0005D1A9FED670A10EE810ABDEEC00A10EE5B
:1045F000100A00B2644921F8140079E03DF8140073
:104600005D4931F91410401A00EE100AB8EEC01AD4
:10461000584830F91400584931F91410401A00EE86
:10462000100AB8EEC00AC1EE000A9FED4A1A9FEDCB
:10463000540A10EE810ABDEEC00A10EE100A00B254
:1046400010F5FA7F01DA4F4849E03DF814004A4975
:1046500031F91410401A00EE100AB8EEC01A45489D
:1046600030F91400444931F91410401A00EE100AD0
:10467000B8EEC00AC1EE000A9FED361A9FED400A5F
:1046800010EE810ABDEEC00A10EE100A00B2B0F5BD
:10469000FA7F02DD4FF4FA7021E03DF8140036494C
:1046A00031F91410401A00EE100AB8EEC01A314861
:1046B00030F91400304931F91410401A00EE100A94
:1046C000B8EEC00AC1EE000A9FED221A9FED2C0A37
:1046D00010EE810ABDEEC00A10EE100A00B2404290
:1046E00000B2294921F8140002E00020184908709E
:1046F0009FED260A21EE800A254880ED000A3DF84C
:10470000140000EE100AB8EE400A0E4800EB8400D8
:10471000D0ED000A30EE600AB5EEC00AF1EE10FAF4
:1047200038DD3DF8140000EE100AB8EE400A0548E6
:1047300000EB8400D0ED000A30EE600A39E00000A2
:1047400064040020F40900200000C8C3A60400206F
:10475000A404002000007A440000C843780B002025
:104760006C040020640A0020A00900206D040020D1
:10477000540A0020780400208804002098040020B7
:104780000000FA430CFEFFFFE409002034337B42B3
:10479000A00400203DF8140000EE100AB8EE400A14
:1047A000434800EB8400D0ED000A30EE600AB1EE21
:1047B000400ADFED400AB4EEE00AF1EE10FA1DD235
:1047C0003D4830F9140000EE100AB8EEC00A38482F
:1047D00000EB8400D0ED000A70EE600A344800EB74
:1047E000840090ED000A354890ED001A01EE200A91
:1047F0002F4800EB840080ED000A20E02E4830F9BD
:10480000140000EE100AB8EEC00A294800EB84003C
:10481000D0ED000A70EE600A254800EB840090EDB0
:10482000000A264890ED001AB6EE002A21EE021A80
:1048300001EE200A1E4800EB840080ED000A1C48AF
:1048400000EB840090ED000A1D4800EB8400D0EDE1
:10485000000A30EE600A1B4800EB840080ED000A7D
:10486000134800EB840090ED000A154800EB84002B
:1048700080ED000A601CC4B2082CFFF601AEB0EE59
:10488000610AFFF76FFD10480088401C80B20E4996
:104890000880C82803DD002008800C4908703FBD4F
:1048A0000A4908700021084A1180704770470000CB
:1048B000F40900200000C842E4090020A004002000
:1048C000140A0020340A0020760400206C04002022
:1048D00030B50446084615886D1CADB2158085427A
:1048E00004DD002515800125558007E015888542E7
:1048F00001D1002501E015886D1C5580158804EB59
:10490000850585ED000A558804EB8505D5ED000A7F
:1049100030EE601A00EE900AF8EE601AC1EE210A3D
:1049200093ED001A70EE810AC3ED000A30BD70B538
:104930008BB0F0EE400A022801DA0B2903DB9FED71
:104940007B0A0BB070BD7A4C245C641CE4B2784DD9
:104950002C548C4201DB00242C5400EB400404EB6B
:10496000C004744D05EB8404714D2D5C04EB85048B
:10497000C4ED000A002211E000EB400404EBC00487
:104980006C4D05EB840404EB820494ED000A6C4644
:1049900004EB820484ED000A541CE2B28A42EBDB91
:1049A00000222DE0002325E06C4604EB830494ED07
:1049B000000A6D465C1C05EB8404D4ED001AB4EECD
:1049C000E10AF1EE10FA13DD6C4604EB830494ED7A
:1049D000001A5C1C05EB840494ED000A6C4604EBA1
:1049E000830484ED000A5C1C05EB840484ED001A4A
:1049F0005C1CE3B24C1EA41A9C42D5DC541CE2B2EF
:104A00004C1E9442CEDC0C4601EBD4756D106E4604
:104A100006EB850595ED000A93E770B52DED028B49
:104A200004460D461646D4ED020AB0EE600AFDF7C4
:104A300047FDF0EE408AD4ED010AB0EE600AFDF7C2
:104A40003FFD38EE800AB0EE408AFDF73EFD3A4861
:104A500080ED000AD4ED020AB0EE600AFDF730FDE9
:104A6000F0EE408AD4ED000AB0EE600AFDF728FDB2
:104A700038EE800AB0EE408AFDF727FD2F4880ED22
:104A8000000A94ED020AB5EEC00AF1EE10FA02D265
:104A90004FF0FF3000E001202949087095ED000A31
:104AA0002548D0ED000A20EE200A94ED001A0846B1
:104AB00090F9000000EE900AF8EEE00A61EE200A9C
:104AC00095ED021A00EEC10A86ED000A084690F93B
:104AD000000000EE100AB8EEC00A1848D0ED000A37
:104AE00020EE200AD5ED010A20EE200AD4ED010ABD
:104AF00095ED021A00EEC10A86ED010A94ED000A56
:104B0000D5ED000A20EE200AD4ED010A95ED011A38
:104B100000EE810AD4ED020A95ED021A00EE810A38
:104B200086ED020ABDEC028B70BD000000000000A3
:104B3000B4040020740A0020B8040020BC04002043
:104B4000B604002030EE601A80ED031A90ED031ACF
:104B5000D0ED041A31EE611AD0ED001A21EE211ABF
:104B6000D0ED021A90ED032A01EE821AD0ED031A5D
:104B700090ED042AF0EE002A42EEC21A90ED052ACA
:104B800071EE821A90ED012A02EE211A80ED061ACA
:104B900090ED031A80ED041A90ED041A80ED051AC9
:104BA000704700B5F0EE403AB0EE603AF94890ED4B
:104BB000000ADFEDF90AB4EEE00AF1EE10FA03DDC7
:104BC0009FEDF50A80ED000AF448008800EE100A17
:104BD000F8EE400AEF4890ED000AF148FFF7B2FF07
:104BE000EF4890ED060A30EE030AEE4880ED000A29
:104BF00000BD00B5F0EE404AB0EE604AEA480078E9
:104C0000012808D1F0EE440AB0EE640AFFF7C9FFAC
:104C10000020E5490870E548007830B1E14890EDA2
:104C2000000AE34880ED000A02E0E14880ED004A16
:104C300000BD10B52DED048BDE4890ED1C0A10EE82
:104C4000101A084608F0C2FA41EC190B9FEDDA0B76
:104C500053EC102B08F037FA41EC180B08F0FAFA75
:104C6000CF490860D34890ED1D0A10EE101A08468F
:104C700008F0ACFA41EC190B9FEDCF0B53EC102B65
:104C800008F021FA41EC180B08F0E4FAC449486036
:104C9000C84890ED1E0A10EE101A084608F096FA61
:104CA00041EC190B9FEDC40B53EC102B08F00BFAE1
:104CB00041EC180B08F0CEFAB9498860BDEC048BC2
:104CC00010BDBC4890ED180ADFEDBD0A20EE200AA9
:104CD000BC4880ED000AB74890ED190ADFEDBA0A2A
:104CE00020EE200AB74880ED010AB24890ED1A0A7A
:104CF000DFEDB60A20EE200AB24880ED020A7047C6
:104D000010B52DED068BB0EE408AB0EE609AF0EE55
:104D1000418AF0EE619AB0EE000A29EE000AB5EE83
:104D2000C00AF1EE10FA02D29FEDA90A11E0B0EE2E
:104D3000000A29EE000ADFEDA70AB4EEE00AF1EE60
:104D400010FA02DD9FEDA30A03E0B0EE000A29EE9F
:104D5000000AB0EE40AA9FEDA00A68EE000AB7EE86
:104D6000001A81EE200AF7EE000A30EE200AB7EEB4
:104D7000001AC1EE000A994890ED000A3AEE401A76
:104D800090ED000A00EE810A80ED000A944890ED53
:104D9000000A9FED941AC0EE010A934890ED000AB4
:104DA0009FED921A00EE810A914880ED000ADFED36
:104DB000910A90ED000AFDF7C0FC8F48D0ED000A83
:104DC00040EE080AC0ED000A8C4890ED000A8C48BD
:104DD000D0ED000A30EE600AC0EE080A844890ED7B
:104DE000000A70EEC00A9FED870A28EE001A7E487E
:104DF00090ED000A01EE200A80ED000A90ED000A15
:104E0000DFED810AB4EEE00AF1EE10FA02D29FED76
:104E10007E0A0FE0744890ED000ADFED7C0AB4EEE4
:104E2000E00AF1EE10FA02DD9FED780A02E06E482A
:104E300090ED000A6C4880ED000A9FED750A28EE9F
:104E4000000AF7EE000A80EE801AB7EE000A31EE93
:104E5000000AB7EE001AC1EE000A674890ED000A9A
:104E600039EEC01A90ED000A00EE810A80ED000ACA
:104E700090ED000A674880ED000A90ED000AB5EE5B
:104E8000C00AF1EE10FA02DD90ED000A04E061487C
:104E900090ED000AB1EE400ADFED5F0AB4EEE00AE1
:104EA000F1EE10FA04D29FED4A0A5A4880ED000A4A
:104EB000584890ED000A514880ED000A90ED000A34
:104EC0004F4880ED000A3F4890ED000A4B48D0ED76
:104ED000000A78EEE00A20EE200A504880ED000A31
:104EE000DFED4F0A80EE880AF2EE040A20EE200A77
:104EF0003448D0ED010A20EE200A3D48D0ED000AEA
:104F0000F1EE600A20EE200A20EE080A434880ED08
:104F1000020A2C4890ED020AD0ED000A20EE200A89
:104F200078EEE90A60EE200A3C4890ED030A00EEB4
:104F3000880A80ED030A90ED030A3A48D0ED000A92
:104F4000F1EE600A9FED381A60EE810AB4EEE00AD5
:104F5000F1EE10FA08D290ED000AB1EE400ADFED52
:104F6000320A20EE200A64E02C4890ED030A2D4816
:104F7000D0ED000A9FED2C1A60EE810AB4EEE00A33
:104F8000F1EE10FA52DD90ED000ADFED270A20EE77
:104F9000200A4EE0CC04002000007A44A405002042
:104FA000100B0020D8040020A2050020A904002036
:104FB000C004002038060020000000000000F03F80
:104FC0009A99993EE00A00203333B33F8FC2F53DF2
:104FD0000000000000001644C3F5C83FE8040020AC
:104FE000C404002000008045EC04002000401C4662
:104FF000E40400200000C842F0040020DC0400208B
:10500000E0040020CDCCCC3E0000FAC30000FA43FF
:105010009CC4A03EF404002000004842CC0A0020BA
:105020006F12033B0C000020000096432E4890EDC9
:10503000030A2D4880ED030A90ED000A2B48D0EDBD
:10504000000A00EEA80A2848D0ED020A30EE200A35
:10505000D0ED030A30EE200ADFED250AB4EEE00AB7
:10506000F1EE10FA02D29FED220A2BE01E4890EDDD
:10507000000A1E48D0ED000A00EEA80A1A48D0ED3A
:10508000020A30EE200AD0ED030A30EE200A5FED6E
:105090001A0AB4EEE00AF1EE10FA02DD1FED1E0A64
:1050A00010E0114890ED000A1048D0ED000A00EE23
:1050B000A80A0D48D0ED020A30EE200AD0ED030A0E
:1050C00030EE200A0B48D0ED000A0B4890ED001A94
:1050D00041EE000A0448C0ED040A90ED000A80ED9C
:1050E000010ABDEC068B10BDCC0A0020E00A0020AE
:1050F000000096C3E80400200C00002014201B4987
:10510000888001201A49087000201A4908707047E9
:1051100019480088B0F5167F0CDD1448B0F904007A
:1051200010F1C80F21DD114880880A3800B20F49FC
:1051300088801AE010480088B0F5C87F0CDD0B4865
:10514000B0F9040010F1C80F0FDD08488088401E38
:1051500000B20649888008E04FF6706003498880F5
:10516000002003490870034908707047E4090020D3
:10517000A4040020A8040020A40500200EB50121ED
:10518000084603F0CDFA4FF0804003F025FD4FF4C0
:105190007A7001905320ADF800000020ADF80800AF
:1051A000ADF8020069464FF0804003F0F1FD0121A7
:1051B000880706F0D3F801221146900705F0C4FFD6
:1051C0000121880704F07EF90021012003F0A8FAEC
:1051D0000EBD08B51C208DF8000002208DF80100DE
:1051E00000208DF8020001208DF80300684602F0CF
:1051F000CEF808BD10B5FFF7C1FFFFF7EAFF0121A8
:10520000084603F08DFA10BD7FB5684603F0A6F896
:105210004FF47A710198B0FBF1F4E4082146B1F142
:10522000807F00D31DE021F07F40401E4FF0E02240
:10523000506150170F22002807DA13071E0E664B25
:1052400000F00F052D1F5E5503E013071D0E634B85
:105250001D5400BF00204FF0E02290610720106134
:1052600000BF6FF0040002F029F97FBD5C4A1168AD
:105270004FF0E02252694FF0E0239B69D21A4FF4BD
:105280007A735A434FF0E0235B69B2FBF3F201EB10
:105290004103C3EBC11302EBC300704730B50446B2
:1052A000FFF7E4FF054600BFFFF7E0FF401BA04209
:1052B000FAD330BD10B5044603E04FF47A70FFF71F
:1052C000EDFF2000A4F10104F7D110BD10B5454851
:1052D000007800B910BD4448006840F2E7318842C8
:1052E00007DA41480068401C3F490860FAF786FF2A
:1052F00029E000203C4908603C4800683B2805DA6A
:105300003A480068401C394908601CE000203749D1
:105310000860374800683B2805DA35480068401CBB
:10532000334908600FE000203149086031480068C7
:10533000172805DA2F480068401C2E49086002E053
:1053400000202C49086000BFC4E710B5044604EBF8
:105350004400294901EB800090ED000A04EB440071
:1053600001EB800080ED010AFFF780FF00EE100ADC
:10537000B8EE400ADFED210A80EE201A04EB44006B
:105380001D4901EB800080ED001A04EB440001EBA5
:10539000800090ED000A04EB440001EB8000D0EDAA
:1053A000010A30EE600A04EB440001EB800080ED5E
:1053B000020A04EB440001EB800090ED020A10BDEC
:1053C00010B5002404E02046FFF7BFFF601CC4B204
:1053D000052CF8DB10BD000018ED00E000E400E053
:1053E000F80400200000002008050020040500202B
:1053F00000050020FC0400202C0B00200024744930
:1054000000B587B00121062003F08AF901210E20A2
:1054100003F0C0F81D208DF8040001208DF8050070
:105420008DF806008DF8070001A801F0B0FF1E20DE
:105430008DF8040001208DF805008DF806008DF828
:10544000070001A801F0A3FFC020059002208DF8FD
:10545000180003208DF8190000208DF81A00022092
:105460008DF81B0005A9FB4802F0FAF8032005900F
:1054700002208DF8180003208DF8190000208DF807
:105480001A0002208DF81B0005A9F34802F0E8F885
:1054900002220621EF4802F020FC02220721ED48FB
:1054A00002F01BFC02220021EB4802F016FC022253
:1054B0000121E94802F011FC5320E849088000204E
:1054C000ADF808000A20ADF80A000120ADF80C0084
:1054D0000020ADF80E00ADF8100002A9DF48283812
:1054E00005F060FB0420ADF808000A20ADF80A00C2
:1054F0000120ADF80C000020ADF80E00ADF8100052
:1055000002A9D648283805F04DFB0820ADF8080060
:105510000A20ADF80A000120ADF80C000020ADF81B
:105520000E00ADF8100002A9CC48283805F03AFB6F
:105530000C20ADF808000A20ADF80A000120ADF8F3
:105540000C000020ADF80E00ADF8100002A9C34811
:10555000283805F027FB0121C048283803F0B2FFA6
:1055600001220221BD48283805F0EEFD0122042168
:10557000BA48283805F0E8FD01220821B748283844
:1055800005F0E2FD01221021B448283805F0DCFDC9
:105590004FF47040059002208DF8180003208DF81C
:1055A000190000208DF81A0002208DF81B0005A9B3
:1055B000AB4802F055F802220C21A94802F08DFBFD
:1055C00002220D21A64802F088FB02220E21A448E7
:1055D00002F083FB02220F21A14802F07EFB532040
:1055E000A04908800020ADF808000A20ADF80A00A4
:1055F0000120ADF80C000020ADF80E00ADF8100051
:1056000002A99848283805F0CDFA0420ADF8080022
:105610000A20ADF80A000120ADF80C000020ADF81A
:105620000E00ADF8100002A98E48283805F0BAFA2D
:105630000820ADF808000A20ADF80A000120ADF8F6
:105640000C000020ADF80E00ADF8100002A985484E
:10565000283805F0A7FA0C20ADF808000A20ADF8AC
:105660000A000120ADF80C000020ADF80E00ADF8E6
:10567000100002A97B48283805F094FA01217948E6
:10568000283803F01FFF012202217648283805F050
:105690005BFD012204217348283805F055FD0122E5
:1056A00008217048283805F04FFD012210216D486F
:1056B000283805F049FD07B000BD10B50120FFF7FF
:1056C000EFF866481838008800F0020038B34FF64B
:1056D000FD706249183908804FF6FF5008805D4818
:1056E0001030006800F0400030B15C48283805F008
:1056F000BCFB5D4908801EE05848283805F0B5FB22
:105700005A4908800846008857490988884207DBBB
:105710005648008854490988401A554908800AE0CB
:10572000514800884FF6FF71081A5049098808440B
:10573000401C4F49088049481838008800F0040090
:1057400038B34FF6FB704549183908804FF6FF30E3
:10575000088040481030006800F0800030B13F48B9
:10576000283805F0B0FB434908801EE03B48283844
:1057700005F0A9FB40490880084600883D49098892
:10578000884207DB3C4800883A490988401A384972
:1057900048800AE0374800884FF6FF71081A3649FA
:1057A00009880844401C324948802C481838008831
:1057B00000F0080038B34FF6F77028491839088010
:1057C0004FF2FF70088024481030006800F001009C
:1057D00030B12248283805F098FB284908801EE09F
:1057E0001E48283805F091FB2549088008460088A6
:1057F00022490988884207DB214800881F49098817
:10580000401A1B4988800AE01C4800884FF6FF7147
:10581000081A1B4909880844401C154988800F480C
:105820001838008800F0100070B34FF6EF700B4985
:10583000183908804EF6FF7008800748103000685D
:1058400000F0020008B30548283805F07AFB0D493E
:10585000088038E0000802400004024028040040AC
:10586000000C0240280800400C0500200E05002016
:10587000680B0020100500201205002014050020F0
:1058800016050020180500201DE0804805F059FB92
:105890007F490880084600887E490988884207DBDE
:1058A0007B4800887B490988401A7B49C8800AE008
:1058B000784800884FF6FF71081A7549098808442E
:1058C000401C7549C88010BD10B50120FEF7E8FFE7
:1058D0007248008800F0020028B34FF6FD706F494F
:1058E00008804FF6FF5008806D48006800F4805033
:1058F00030B16A48103805F0B8FA6A4908801EE0ED
:105900006648103805F0B1FA6749088008460088F3
:1059100064490988884207DB63480088614909882F
:10592000401A5D4908810AE05E4800884FF6FF7121
:10593000081A5D4909880844401C5749088157489E
:10594000008800F0040028B34FF6FB70534908802C
:105950004FF6FF3008805248006800F4005030B124
:105960004E48103805F0AFFA504908801EE04B4809
:10597000103805F0A8FA4E490880084600884B49BF
:105980000988884207DB4A48008848490988401A44
:10599000414948810AE0454800884FF6FF71081ADE
:1059A000434909880844401C3B4948813B480088DA
:1059B00000F0080028B34FF6F770384908804FF21E
:1059C000FF7008803648006800F4804030B13348EA
:1059D000103805F09AFA374908801EE02F48103831
:1059E00005F093FA3449088008460088314909884F
:1059F000884207DB304800882E490988401A26492A
:105A000088810AE02B4800884FF6FF71081A2A495E
:105A100009880844401C204988812048008800F0FB
:105A2000100028B34FF6EF701C4908804EF6FF7047
:105A300008801B48006800F4004030B11748103857
:105A400005F07FFA1D4908801EE01448103805F063
:105A500078FA1B4908800846008818490988884256
:105A600007DB1748008815490988401A0A49C88188
:105A70000AE0124800884FF6FF71081A1049098899
:105A80000844401C0449C88110BD000000040040C7
:105A90001A05002018050020680B0020100800409F
:105AA000100C02401C0500201E05002020050020CF
:105AB00022050020240500202605002028050020BE
:105AC0002A05002070B58AB00646002542F2107003
:105AD00006FB00F407A803F0E6F902A804F065F855
